{
  "address": "0xcf3944D2b647F2565624133D6AEfe15420379bC3",
  "abi": [
    {
      "inputs": [],
      "stateMutability": "nonpayable",
      "type": "constructor"
    },
    {
      "inputs": [],
      "name": "FundingFailed",
      "type": "error"
    },
    {
      "inputs": [],
      "name": "NullReceiver",
      "type": "error"
    },
    {
      "anonymous": false,
      "inputs": [
        {
          "indexed": true,
          "internalType": "address",
          "name": "chargedParticles",
          "type": "address"
        }
      ],
      "name": "ChargedParticlesSet",
      "type": "event"
    },
    {
      "anonymous": false,
      "inputs": [
        {
          "indexed": true,
          "internalType": "address",
          "name": "chargedState",
          "type": "address"
        }
      ],
      "name": "ChargedStateSet",
      "type": "event"
    },
    {
      "anonymous": false,
      "inputs": [
        {
          "indexed": true,
          "internalType": "address",
          "name": "previousOwner",
          "type": "address"
        },
        {
          "indexed": true,
          "internalType": "address",
          "name": "newOwner",
          "type": "address"
        }
      ],
      "name": "OwnershipTransferred",
      "type": "event"
    },
    {
      "anonymous": false,
      "inputs": [
        {
          "indexed": true,
          "internalType": "uint256",
          "name": "tokenId",
          "type": "uint256"
        },
        {
          "indexed": true,
          "internalType": "address",
          "name": "receiver",
          "type": "address"
        }
      ],
      "name": "PackBundled",
      "type": "event"
    },
    {
      "anonymous": false,
      "inputs": [
        {
          "indexed": true,
          "internalType": "uint256",
          "name": "tokenId",
          "type": "uint256"
        },
        {
          "indexed": true,
          "internalType": "address",
          "name": "receiver",
          "type": "address"
        }
      ],
      "name": "PackUnbundled",
      "type": "event"
    },
    {
      "anonymous": false,
      "inputs": [
        {
          "indexed": false,
          "internalType": "address",
          "name": "account",
          "type": "address"
        }
      ],
      "name": "Paused",
      "type": "event"
    },
    {
      "anonymous": false,
      "inputs": [
        {
          "indexed": true,
          "internalType": "address",
          "name": "proton",
          "type": "address"
        }
      ],
      "name": "ProtonSet",
      "type": "event"
    },
    {
      "anonymous": false,
      "inputs": [
        {
          "indexed": true,
          "internalType": "address",
          "name": "router",
          "type": "address"
        }
      ],
      "name": "UniswapRouterSet",
      "type": "event"
    },
    {
      "anonymous": false,
      "inputs": [
        {
          "indexed": false,
          "internalType": "address",
          "name": "account",
          "type": "address"
        }
      ],
      "name": "Unpaused",
      "type": "event"
    },
    {
      "anonymous": false,
      "inputs": [
        {
          "indexed": true,
          "internalType": "address",
          "name": "receiver",
          "type": "address"
        },
        {
          "indexed": true,
          "internalType": "address",
          "name": "tokenAddress",
          "type": "address"
        },
        {
          "indexed": true,
          "internalType": "uint256",
          "name": "tokenId",
          "type": "uint256"
        },
        {
          "indexed": false,
          "internalType": "uint256",
          "name": "amount",
          "type": "uint256"
        }
      ],
      "name": "WithdrawStuckERC1155",
      "type": "event"
    },
    {
      "anonymous": false,
      "inputs": [
        {
          "indexed": true,
          "internalType": "address",
          "name": "receiver",
          "type": "address"
        },
        {
          "indexed": true,
          "internalType": "address",
          "name": "tokenAddress",
          "type": "address"
        },
        {
          "indexed": false,
          "internalType": "uint256",
          "name": "amount",
          "type": "uint256"
        }
      ],
      "name": "WithdrawStuckERC20",
      "type": "event"
    },
    {
      "anonymous": false,
      "inputs": [
        {
          "indexed": true,
          "internalType": "address",
          "name": "receiver",
          "type": "address"
        },
        {
          "indexed": true,
          "internalType": "address",
          "name": "tokenAddress",
          "type": "address"
        },
        {
          "indexed": true,
          "internalType": "uint256",
          "name": "tokenId",
          "type": "uint256"
        }
      ],
      "name": "WithdrawStuckERC721",
      "type": "event"
    },
    {
      "anonymous": false,
      "inputs": [
        {
          "indexed": true,
          "internalType": "address",
          "name": "receiver",
          "type": "address"
        },
        {
          "indexed": false,
          "internalType": "uint256",
          "name": "amount",
          "type": "uint256"
        }
      ],
      "name": "WithdrawStuckEther",
      "type": "event"
    },
    {
      "inputs": [
        {
          "internalType": "int256",
          "name": "tickSpacing",
          "type": "int256"
        },
        {
          "internalType": "bool",
          "name": "nearestToMin",
          "type": "bool"
        }
      ],
      "name": "_findNearestValidTick",
      "outputs": [
        {
          "internalType": "int256",
          "name": "",
          "type": "int256"
        }
      ],
      "stateMutability": "pure",
      "type": "function"
    },
    {
      "inputs": [
        {
          "internalType": "address",
          "name": "contractAddress",
          "type": "address"
        },
        {
          "internalType": "uint256",
          "name": "tokenId",
          "type": "uint256"
        },
        {
          "internalType": "string",
          "name": "tokenMetadataUri",
          "type": "string"
        },
        {
          "internalType": "string",
          "name": "basketManagerId",
          "type": "string"
        },
        {
          "internalType": "address",
          "name": "nftTokenAddress",
          "type": "address"
        }
      ],
      "name": "bond",
      "outputs": [
        {
          "internalType": "uint256",
          "name": "mintedTokenId",
          "type": "uint256"
        }
      ],
      "stateMutability": "nonpayable",
      "type": "function"
    },
    {
      "inputs": [
        {
          "internalType": "address payable",
          "name": "receiver",
          "type": "address"
        },
        {
          "internalType": "string",
          "name": "tokenMetaUri",
          "type": "string"
        },
        {
          "components": [
            {
              "internalType": "address",
              "name": "inputTokenAddress",
              "type": "address"
            },
            {
              "internalType": "address",
              "name": "outputTokenAddress",
              "type": "address"
            },
            {
              "internalType": "uint256",
              "name": "inputTokenAmount",
              "type": "uint256"
            },
            {
              "internalType": "uint24",
              "name": "uniSwapPoolFee",
              "type": "uint24"
            },
            {
              "internalType": "uint256",
              "name": "deadline",
              "type": "uint256"
            },
            {
              "internalType": "uint256",
              "name": "amountOutMinimum",
              "type": "uint256"
            },
            {
              "internalType": "uint160",
              "name": "sqrtPriceLimitX96",
              "type": "uint160"
            },
            {
              "internalType": "bool",
              "name": "forLiquidity",
              "type": "bool"
            }
          ],
          "internalType": "struct IWeb3Packs.ERC20SwapOrder[]",
          "name": "erc20SwapOrders",
          "type": "tuple[]"
        },
        {
          "components": [
            {
              "internalType": "address",
              "name": "erc721TokenAddress",
              "type": "address"
            },
            {
              "internalType": "string",
              "name": "basketManagerId",
              "type": "string"
            },
            {
              "internalType": "string",
              "name": "tokenMetadataUri",
              "type": "string"
            }
          ],
          "internalType": "struct IWeb3Packs.ERC721MintOrders[]",
          "name": "erc721MintOrders",
          "type": "tuple[]"
        },
        {
          "components": [
            {
              "internalType": "address",
              "name": "token0",
              "type": "address"
            },
            {
              "internalType": "address",
              "name": "token1",
              "type": "address"
            },
            {
              "internalType": "uint256",
              "name": "amount0ToMint",
              "type": "uint256"
            },
            {
              "internalType": "uint256",
              "name": "amount1ToMint",
              "type": "uint256"
            },
            {
              "internalType": "int256",
              "name": "tickSpace",
              "type": "int256"
            },
            {
              "internalType": "uint24",
              "name": "poolFee",
              "type": "uint24"
            }
          ],
          "internalType": "struct IWeb3Packs.LiquidityMintOrder[]",
          "name": "liquidityMintOrders",
          "type": "tuple[]"
        },
        {
          "internalType": "uint256",
          "name": "fundingAmount",
          "type": "uint256"
        }
      ],
      "name": "bundle",
      "outputs": [
        {
          "internalType": "uint256",
          "name": "tokenId",
          "type": "uint256"
        }
      ],
      "stateMutability": "payable",
      "type": "function"
    },
    {
      "inputs": [
        {
          "components": [
            {
              "internalType": "address",
              "name": "token0",
              "type": "address"
            },
            {
              "internalType": "address",
              "name": "token1",
              "type": "address"
            },
            {
              "internalType": "uint256",
              "name": "amount0ToMint",
              "type": "uint256"
            },
            {
              "internalType": "uint256",
              "name": "amount1ToMint",
              "type": "uint256"
            },
            {
              "internalType": "int256",
              "name": "tickSpace",
              "type": "int256"
            },
            {
              "internalType": "uint24",
              "name": "poolFee",
              "type": "uint24"
            }
          ],
          "internalType": "struct IWeb3Packs.LiquidityMintOrder[]",
          "name": "liquidityMintOrders",
          "type": "tuple[]"
        }
      ],
      "name": "depositLiquidity",
      "outputs": [
        {
          "internalType": "uint256[]",
          "name": "",
          "type": "uint256[]"
        }
      ],
      "stateMutability": "nonpayable",
      "type": "function"
    },
    {
      "inputs": [
        {
          "internalType": "address",
          "name": "",
          "type": "address"
        },
        {
          "internalType": "address",
          "name": "",
          "type": "address"
        },
        {
          "internalType": "uint256",
          "name": "",
          "type": "uint256"
        },
        {
          "internalType": "bytes",
          "name": "",
          "type": "bytes"
        }
      ],
      "name": "onERC721Received",
      "outputs": [
        {
          "internalType": "bytes4",
          "name": "",
          "type": "bytes4"
        }
      ],
      "stateMutability": "pure",
      "type": "function"
    },
    {
      "inputs": [],
      "name": "owner",
      "outputs": [
        {
          "internalType": "address",
          "name": "",
          "type": "address"
        }
      ],
      "stateMutability": "view",
      "type": "function"
    },
    {
      "inputs": [],
      "name": "pause",
      "outputs": [],
      "stateMutability": "nonpayable",
      "type": "function"
    },
    {
      "inputs": [],
      "name": "paused",
      "outputs": [
        {
          "internalType": "bool",
          "name": "",
          "type": "bool"
        }
      ],
      "stateMutability": "view",
      "type": "function"
    },
    {
      "inputs": [],
      "name": "renounceOwnership",
      "outputs": [],
      "stateMutability": "nonpayable",
      "type": "function"
    },
    {
      "inputs": [
        {
          "internalType": "address",
          "name": "chargedParticles",
          "type": "address"
        }
      ],
      "name": "setChargedParticles",
      "outputs": [],
      "stateMutability": "nonpayable",
      "type": "function"
    },
    {
      "inputs": [
        {
          "internalType": "address",
          "name": "proton",
          "type": "address"
        }
      ],
      "name": "setProton",
      "outputs": [],
      "stateMutability": "nonpayable",
      "type": "function"
    },
    {
      "inputs": [
        {
          "internalType": "address",
          "name": "router",
          "type": "address"
        }
      ],
      "name": "setUniswapRouter",
      "outputs": [],
      "stateMutability": "nonpayable",
      "type": "function"
    },
    {
      "inputs": [
        {
          "components": [
            {
              "internalType": "address",
              "name": "inputTokenAddress",
              "type": "address"
            },
            {
              "internalType": "address",
              "name": "outputTokenAddress",
              "type": "address"
            },
            {
              "internalType": "uint256",
              "name": "inputTokenAmount",
              "type": "uint256"
            },
            {
              "internalType": "uint24",
              "name": "uniSwapPoolFee",
              "type": "uint24"
            },
            {
              "internalType": "uint256",
              "name": "deadline",
              "type": "uint256"
            },
            {
              "internalType": "uint256",
              "name": "amountOutMinimum",
              "type": "uint256"
            },
            {
              "internalType": "uint160",
              "name": "sqrtPriceLimitX96",
              "type": "uint160"
            },
            {
              "internalType": "bool",
              "name": "forLiquidity",
              "type": "bool"
            }
          ],
          "internalType": "struct IWeb3Packs.ERC20SwapOrder[]",
          "name": "erc20SwapOrders",
          "type": "tuple[]"
        }
      ],
      "name": "swap",
      "outputs": [
        {
          "internalType": "uint256[]",
          "name": "",
          "type": "uint256[]"
        }
      ],
      "stateMutability": "payable",
      "type": "function"
    },
    {
      "inputs": [
        {
          "internalType": "address",
          "name": "newOwner",
          "type": "address"
        }
      ],
      "name": "transferOwnership",
      "outputs": [],
      "stateMutability": "nonpayable",
      "type": "function"
    },
    {
      "inputs": [
        {
          "internalType": "address",
          "name": "receiver",
          "type": "address"
        },
        {
          "internalType": "address",
          "name": "tokenAddress",
          "type": "address"
        },
        {
          "internalType": "uint256",
          "name": "tokenId",
          "type": "uint256"
        },
        {
          "components": [
            {
              "internalType": "address[]",
              "name": "erc20TokenAddresses",
              "type": "address[]"
            },
            {
              "components": [
                {
                  "internalType": "address",
                  "name": "tokenAddress",
                  "type": "address"
                },
                {
                  "internalType": "uint256",
                  "name": "id",
                  "type": "uint256"
                }
              ],
              "internalType": "struct IWeb3Packs.NFT[]",
              "name": "nfts",
              "type": "tuple[]"
            }
          ],
          "internalType": "struct IWeb3Packs.Web3PackOrder",
          "name": "web3PackOrder",
          "type": "tuple"
        }
      ],
      "name": "unbundle",
      "outputs": [],
      "stateMutability": "nonpayable",
      "type": "function"
    },
    {
      "inputs": [
        {
          "internalType": "address",
          "name": "receiver",
          "type": "address"
        },
        {
          "internalType": "address",
          "name": "tokenAddress",
          "type": "address"
        },
        {
          "internalType": "uint256",
          "name": "tokenId",
          "type": "uint256"
        },
        {
          "internalType": "string",
          "name": "walletManager",
          "type": "string"
        },
        {
          "components": [
            {
              "internalType": "address[]",
              "name": "erc20TokenAddresses",
              "type": "address[]"
            },
            {
              "components": [
                {
                  "internalType": "address",
                  "name": "tokenAddress",
                  "type": "address"
                },
                {
                  "internalType": "uint256",
                  "name": "id",
                  "type": "uint256"
                }
              ],
              "internalType": "struct IWeb3Packs.NFT[]",
              "name": "nfts",
              "type": "tuple[]"
            }
          ],
          "internalType": "struct IWeb3Packs.Web3PackOrder",
          "name": "web3PackOrder",
          "type": "tuple"
        }
      ],
      "name": "unbundleFromManager",
      "outputs": [],
      "stateMutability": "nonpayable",
      "type": "function"
    },
    {
      "inputs": [],
      "name": "unpause",
      "outputs": [],
      "stateMutability": "nonpayable",
      "type": "function"
    },
    {
      "inputs": [
        {
          "internalType": "address payable",
          "name": "receiver",
          "type": "address"
        },
        {
          "internalType": "address",
          "name": "tokenAddress",
          "type": "address"
        },
        {
          "internalType": "uint256",
          "name": "tokenId",
          "type": "uint256"
        },
        {
          "internalType": "uint256",
          "name": "amount",
          "type": "uint256"
        }
      ],
      "name": "withdrawERC1155",
      "outputs": [],
      "stateMutability": "nonpayable",
      "type": "function"
    },
    {
      "inputs": [
        {
          "internalType": "address payable",
          "name": "receiver",
          "type": "address"
        },
        {
          "internalType": "address",
          "name": "tokenAddress",
          "type": "address"
        },
        {
          "internalType": "uint256",
          "name": "tokenId",
          "type": "uint256"
        }
      ],
      "name": "withdrawERC721",
      "outputs": [],
      "stateMutability": "nonpayable",
      "type": "function"
    },
    {
      "inputs": [
        {
          "internalType": "address payable",
          "name": "receiver",
          "type": "address"
        },
        {
          "internalType": "address",
          "name": "tokenAddress",
          "type": "address"
        },
        {
          "internalType": "uint256",
          "name": "amount",
          "type": "uint256"
        }
      ],
      "name": "withdrawErc20",
      "outputs": [],
      "stateMutability": "nonpayable",
      "type": "function"
    },
    {
      "inputs": [
        {
          "internalType": "address payable",
          "name": "receiver",
          "type": "address"
        },
        {
          "internalType": "uint256",
          "name": "amount",
          "type": "uint256"
        }
      ],
      "name": "withdrawEther",
      "outputs": [],
      "stateMutability": "nonpayable",
      "type": "function"
    }
  ],
  "transactionHash": "0x7a4e0a3cb27c8a4f0ceeb93051f15f38f30337fb194ce7516ab70e8601883815",
  "args": [],
  "numDeployments": 2,
  "solcInputHash": "120e1f72578c55ec059b7283717652aa",
  "bytecode": "0x600280546001600160a01b0319908116731cefb0e1ec36c7971bed1d64291fc16a145f35dc1790915560038054821673e592427a0aece92de3edee1f18e0157c0586156417905560048054821673c36442b4a4522e871399cd717abdd847ab11fe8817905560058054909116730288280df6221e7e9f23c1bb398c820ae0aa6c1017905560c0604052600960809081526833b2b732b934b1972160b91b60a052600690620000ae908262000204565b5060408051808201909152600981526833b2b732b934b1972160b91b6020820152600790620000de908262000204565b50348015620000ec57600080fd5b50620000f8336200010f565b6000805460ff60a01b1916905560018055620002d0565b600080546001600160a01b038381166001600160a01b0319831681178455604051919092169283917f8be0079c531659141344cd1fd0a4f28419497f9722a3daafe3b4186f6b6457e09190a35050565b634e487b7160e01b600052604160045260246000fd5b600181811c908216806200018a57607f821691505b602082108103620001ab57634e487b7160e01b600052602260045260246000fd5b50919050565b601f821115620001ff57600081815260208120601f850160051c81016020861015620001da5750805b601f850160051c820191505b81811015620001fb57828155600101620001e6565b5050505b505050565b81516001600160401b038111156200022057620002206200015f565b620002388162000231845462000175565b84620001b1565b602080601f831160018114620002705760008415620002575750858301515b600019600386901b1c1916600185901b178555620001fb565b600085815260208120601f198616915b82811015620002a15788860151825594840194600190910190840162000280565b5085821015620002c05787850151600019600388901b60f8161c191681555b5050505050600190811b01905550565b612ff280620002e06000396000f3fe60806040526004361061012a5760003560e01c8063715018a6116100ab578063bea9849e1161006f578063bea9849e14610360578063c86574f114610380578063d3d9cd5f14610393578063d8214b49146103b3578063f2fde38b146103d3578063fcbe1a2f146103f357600080fd5b8063715018a6146102ce5780638456cb59146102e35780638da5cb5b146102f8578063a0edb48b14610320578063bd3266161461034057600080fd5b806348f4bab7116100f257806348f4bab714610217578063522f681514610237578063550096f1146102575780635c975abb146102845780636e5559fd146102ae57600080fd5b8063150b7a021461012f5780631593dee1146101925780632f6c028d146101b45780633f4ba83a146101e25780634025feb2146101f7575b600080fd5b34801561013b57600080fd5b5061017461014a366004612308565b7f150b7a023d4804d13e8c85fb27262cb750cf6ba9f9dd3bb30d90f482ceeb4b1f95945050505050565b6040516001600160e01b031990911681526020015b60405180910390f35b34801561019e57600080fd5b506101b26101ad36600461238a565b610406565b005b3480156101c057600080fd5b506101d46101cf3660046123cb565b61041e565b604051908152602001610189565b3480156101ee57600080fd5b506101b26104b2565b34801561020357600080fd5b506101b261021236600461238a565b6104c4565b34801561022357600080fd5b506101d4610232366004612478565b6104d7565b34801561024357600080fd5b506101b26102523660046124a8565b6105d8565b34801561026357600080fd5b50610277610272366004612518565b6105ee565b6040516101899190612559565b34801561029057600080fd5b50600054600160a01b900460ff166040519015158152602001610189565b3480156102ba57600080fd5b506101b26102c936600461259d565b610601565b3480156102da57600080fd5b506101b261065f565b3480156102ef57600080fd5b506101b2610671565b34801561030457600080fd5b506000546040516001600160a01b039091168152602001610189565b34801561032c57600080fd5b506101b261033b3660046125ba565b610681565b34801561034c57600080fd5b506101b261035b36600461259d565b61069b565b34801561036c57600080fd5b506101b261037b36600461259d565b6106ed565b61027761038e366004612644565b61073f565b34801561039f57600080fd5b506101b26103ae366004612691565b61074b565b3480156103bf57600080fd5b506101b26103ce3660046126fc565b610831565b3480156103df57600080fd5b506101b26103ee36600461259d565b6108cc565b6101d46104013660046127d6565b610945565b61040e610a06565b610419838383610a60565b505050565b60006104608887878080601f016020809104026020016040519081016040528093929190818152602001838380828437600092019190915250610b5b92505050565b90506104a7888886868080601f016020809104026020016040519081016040528093929190818152602001838380828437600092019190915250889250879150610bd19050565b979650505050505050565b6104ba610a06565b6104c2610cb5565b565b6104cc610a06565b610419838383610d0a565b600080831361052d5760405162461bcd60e51b815260206004820152601d60248201527f5469636b2073706163696e67206d75737420626520706f73697469766500000060448201526064015b60405180910390fd5b620d89e719600061053d826128cc565b905083156105b15760006105526001876128e8565b61055c908461290f565b905060008312801561056e5750600081135b156105765750815b600086610583818461292f565b61058d919061296b565b905083811361059c57806105a6565b6105a687826128e8565b9450505050506105d2565b846105bc818361292f565b6105c6919061296b565b925050506105d2565b50505b92915050565b6105e0610a06565b6105ea8282610e57565b5050565b60606105fa8383610edd565b9392505050565b610609610a06565b6040516001600160a01b038216907f5ce0e6b7fd36339ee97339831b6c72694ecee88c62aab49919d9cabe0a732e4190600090a2600580546001600160a01b0319166001600160a01b0392909216919091179055565b610667610a06565b6104c26000611226565b610679610a06565b6104c2611276565b610689610a06565b610695848484846112b9565b50505050565b6106a3610a06565b600280546001600160a01b0319166001600160a01b0383169081179091556040517fa3d7b0fff2d93a7ba440166a8f7eba4acfe6e000fe19b8218e64264d62ef272690600090a250565b6106f5610a06565b600380546001600160a01b0319166001600160a01b0383169081179091556040517f63b1bb87e9c57b0ea62fd8e86a8ec0b64aa51e645892045d7c42a9828337a42b90600090a250565b60606105fa8383611424565b6107536114c7565b61075b611514565b6107f28484846006805461076e9061299b565b80601f016020809104026020016040519081016040528092919081815260200182805461079a9061299b565b80156107e75780601f106107bc576101008083540402835291602001916107e7565b820191906000526020600020905b8154815290600101906020018083116107ca57829003601f168201915b50505050508561156d565b6040516001600160a01b0385169083907fa93981b9cfa5fc675dd31c2c87b0d4f1f590180abd86d15f509ccb544775b2b990600090a361069560018055565b6108396114c7565b610841611514565b61088586868686868080601f01602080910402602001604051908101604052809392919081815260200183838082843760009201919091525088925061156d915050565b6040516001600160a01b0387169085907fa93981b9cfa5fc675dd31c2c87b0d4f1f590180abd86d15f509ccb544775b2b990600090a36108c460018055565b505050505050565b6108d4610a06565b6001600160a01b0381166109395760405162461bcd60e51b815260206004820152602660248201527f4f776e61626c653a206e6577206f776e657220697320746865207a65726f206160448201526564647265737360d01b6064820152608401610524565b61094281611226565b50565b600061094f6114c7565b610957611514565b6001600160a01b038b1661097e5760405163150a167760e11b815260040160405180910390fd5b600061098a8989611424565b905060006109988686610edd565b90506109ab8d8d8d8d8d8d8d8989611741565b92506109b78d85611bd0565b6040516001600160a01b038e169084907ff8779000d9fe2bd438edb299891b05fae0b929d746d3c3e5560d065c690f357d90600090a350506109f860018055565b9a9950505050505050505050565b6000546001600160a01b031633146104c25760405162461bcd60e51b815260206004820181905260248201527f4f776e61626c653a2063616c6c6572206973206e6f7420746865206f776e65726044820152606401610524565b6001600160a01b038316610a865760405162461bcd60e51b8152600401610524906129cf565b6040516370a0823160e01b815230600482015281906001600160a01b038416906370a0823190602401602060405180830381865afa158015610acc573d6000803e3d6000fd5b505050506040513d601f19601f82011682018060405250810190610af091906129f2565b1061041957610b096001600160a01b0383168483611c4d565b816001600160a01b0316836001600160a01b03167f6c9d637297625e945b296ff73a71fcfbd0a9e062652b6491a921c4c60194176b83604051610b4e91815260200190565b60405180910390a3505050565b604051632c0cd5a360e01b81526000906001600160a01b03841690632c0cd5a390610b8e90309081908790600401612a5b565b6020604051808303816000875af1158015610bad573d6000803e3d6000fd5b505050506040513d601f19601f820116820180604052508101906105fa91906129f2565b60055460405163a22cb46560e01b81526001600160a01b039182166004820152600160248201529083169063a22cb46590604401600060405180830381600087803b158015610c1f57600080fd5b505af1158015610c33573d6000803e3d6000fd5b5050600554604051630ffe55b360e21b81526001600160a01b039091169250633ff956cc9150610c729088908890889088908890600190600401612a90565b6020604051808303816000875af1158015610c91573d6000803e3d6000fd5b505050506040513d601f19601f820116820180604052508101906108c49190612ad5565b610cbd611c9f565b6000805460ff60a01b191690557f5db9ee0a495bf2e6ff9c91a7834c1ba4fdd244a5e8aa4e537bd38aeae4b073aa335b6040516001600160a01b03909116815260200160405180910390a1565b6001600160a01b038316610d305760405162461bcd60e51b8152600401610524906129cf565b6040516331a9108f60e11b81526004810182905230906001600160a01b03841690636352211e90602401602060405180830381865afa158015610d77573d6000803e3d6000fd5b505050506040513d601f19601f82011682018060405250810190610d9b9190612af2565b6001600160a01b031603610419576040516323b872dd60e01b81523060048201526001600160a01b038481166024830152604482018390528316906323b872dd90606401600060405180830381600087803b158015610df957600080fd5b505af1158015610e0d573d6000803e3d6000fd5b5050505080826001600160a01b0316846001600160a01b03167ffefe036cac4ee3a4aca074a81cbcc4376e1484693289078dbec149c890101d5b60405160405180910390a4505050565b6001600160a01b038216610e7d5760405162461bcd60e51b8152600401610524906129cf565b8047106105ea57610e976001600160a01b03831682611cef565b816001600160a01b03167eddb683bb45cd5d0ad8a200c6fae7152b1c236ee90a4a37db692407f5cc38bd82604051610ed191815260200190565b60405180910390a25050565b60606000826001600160401b03811115610ef957610ef9612b0f565b604051908082528060200260200182016040528015610f22578160200160208202803683370190505b50905060005b8381101561121e57610f88858583818110610f4557610f45612b25565b610f5b92602060c090920201908101915061259d565b6004546001600160a01b0316878785818110610f7957610f79612b25565b905060c0020160400135611e08565b610fe2858583818110610f9d57610f9d612b25565b905060c002016020016020810190610fb5919061259d565b6004546001600160a01b0316878785818110610fd357610fd3612b25565b905060c0020160600135611e08565b600061100a868684818110610ff957610ff9612b25565b905060c002016080013560016104d7565b9050600061103487878581811061102357611023612b25565b905060c002016080013560006104d7565b9050600060405180610160016040528089898781811061105657611056612b25565b61106c92602060c090920201908101915061259d565b6001600160a01b0316815260200189898781811061108c5761108c612b25565b905060c0020160200160208101906110a4919061259d565b6001600160a01b031681526020018989878181106110c4576110c4612b25565b905060c0020160a00160208101906110dc9190612b3b565b62ffffff1681526020018460020b81526020018360020b815260200189898781811061110a5761110a612b25565b905060c0020160400135815260200189898781811061112b5761112b612b25565b905060c002016060013581526020016000815260200160008152602001306001600160a01b031681526020014281525090506000600460009054906101000a90046001600160a01b03166001600160a01b03166388316456836040518263ffffffff1660e01b81526004016111a09190612b60565b6080604051808303816000875af11580156111bf573d6000803e3d6000fd5b505050506040513d601f19601f820116820180604052508101906111e39190612c24565b5050509050808686815181106111fb576111fb612b25565b60200260200101818152505050505050808061121690612c77565b915050610f28565b509392505050565b600080546001600160a01b038381166001600160a01b0319831681178455604051919092169283917f8be0079c531659141344cd1fd0a4f28419497f9722a3daafe3b4186f6b6457e09190a35050565b61127e6114c7565b6000805460ff60a01b1916600160a01b1790557f62e78cea01bee320cd4e420270b5ea74000d11b0c9f74754ebdbfc544b05a258610ced3390565b6001600160a01b0384166112df5760405162461bcd60e51b8152600401610524906129cf565b604051627eeac760e11b81523060048201526024810183905281906001600160a01b0385169062fdd58e90604401602060405180830381865afa15801561132a573d6000803e3d6000fd5b505050506040513d601f19601f8201168201806040525081019061134e91906129f2565b1061069557604051637921219560e11b81523060048201526001600160a01b038581166024830152604482018490526064820183905260a06084830152600060a483015284169063f242432a9060c401600060405180830381600087803b1580156113b857600080fd5b505af11580156113cc573d6000803e3d6000fd5b5050505081836001600160a01b0316856001600160a01b03167f620337bf89eea2b9ae2657beead83b5fa620452817118348aff96e201d52598b8460405161141691815260200190565b60405180910390a450505050565b60606000826001600160401b0381111561144057611440612b0f565b604051908082528060200260200182016040528015611469578160200160208202803683370190505b50905060005b8381101561121e5761149885858381811061148c5761148c612b25565b90506101000201611f08565b8282815181106114aa576114aa612b25565b6020908102919091010152806114bf81612c77565b91505061146f565b600054600160a01b900460ff16156104c25760405162461bcd60e51b815260206004820152601060248201526f14185d5cd8589b194e881c185d5cd95960821b6044820152606401610524565b6002600154036115665760405162461bcd60e51b815260206004820152601f60248201527f5265656e7472616e637947756172643a207265656e7472616e742063616c6c006044820152606401610524565b6002600155565b60005b61157a8280612c90565b905081101561163e576005546001600160a01b031663acab923c878787876115a28880612c90565b888181106115b2576115b2612b25565b90506020020160208101906115c7919061259d565b6040518663ffffffff1660e01b81526004016115e7959493929190612cd9565b60408051808303816000875af1158015611605573d6000803e3d6000fd5b505050506040513d601f19601f820116820180604052508101906116299190612d1e565b5050808061163690612c77565b915050611570565b5060005b61164f6020830183612d42565b90508110156108c4576005546001600160a01b031663fe02fb008787878761167a6020890189612d42565b8881811061168a5761168a612b25565b6116a0926020604090920201908101915061259d565b6116ad60208a018a612d42565b898181106116bd576116bd612b25565b9050604002016020013560016040518863ffffffff1660e01b81526004016116eb9796959493929190612d8b565b6020604051808303816000875af115801561170a573d6000803e3d6000fd5b505050506040513d601f19601f8201168201806040525081019061172e9190612ad5565b508061173981612c77565b915050611642565b6000803090506000600560009054906101000a90046001600160a01b03169050600260009054906101000a90046001600160a01b03166001600160a01b0316632c0cd5a3838e8e8e6040518563ffffffff1660e01b81526004016117a89493929190612dd9565b6020604051808303816000875af11580156117c7573d6000803e3d6000fd5b505050506040513d601f19601f820116820180604052508101906117eb91906129f2565b925060005b8881101561195c5789898281811061180a5761180a612b25565b9050610100020160e00160208101906118239190612e25565b61194a576118858a8a8381811061183c5761183c612b25565b905061010002016020016020810190611855919061259d565b60055488516001600160a01b039091169089908590811061187857611878612b25565b6020026020010151611e08565b6002546001600160a01b0380841691630bdde2ca91168660068e8e878181106118b0576118b0612b25565b9050610100020160200160208101906118c9919061259d565b8b87815181106118db576118db612b25565b6020026020010151896040518763ffffffff1660e01b815260040161190596959493929190612e42565b6020604051808303816000875af1158015611924573d6000803e3d6000fd5b505050506040513d601f19601f8201168201806040525081019061194891906129f2565b505b8061195481612c77565b9150506117f0565b5060005b86811015611ad3576000611a0b89898481811061197f5761197f612b25565b90506020028101906119919190612f31565b61199f90602081019061259d565b8a8a858181106119b1576119b1612b25565b90506020028101906119c39190612f31565b6119d1906040810190612f51565b8080601f016020809104026020016040519081016040528093929190818152602001838380828437600092019190915250610b5b92505050565b600254909150611ac0906001600160a01b0316868b8b86818110611a3157611a31612b25565b9050602002810190611a439190612f31565b611a51906020810190612f51565b8080601f0160208091040260200160405190810160405280939291908181526020018383808284376000920191909152508f92508e9150889050818110611a9a57611a9a612b25565b9050602002810190611aac9190612f31565b611aba90602081019061259d565b85610bd1565b5080611acb81612c77565b915050611960565b5060005b8451811015611bc05760025460078054611bae926001600160a01b0316918791611b009061299b565b80601f0160208091040260200160405190810160405280929190818152602001828054611b2c9061299b565b8015611b795780601f10611b4e57610100808354040283529160200191611b79565b820191906000526020600020905b815481529060010190602001808311611b5c57829003601f168201915b50506004548c516001600160a01b0390911693508c92508891508110611ba157611ba1612b25565b6020026020010151610bd1565b80611bb881612c77565b915050611ad7565b5050509998505050505050505050565b8047106105ea57600080836001600160a01b03168360405160006040518083038185875af1925050503d8060008114611c25576040519150601f19603f3d011682016040523d82523d6000602084013e611c2a565b606091505b5091509150816106955760405163362f189f60e01b815260040160405180910390fd5b604080516001600160a01b038416602482015260448082018490528251808303909101815260649091019091526020810180516001600160e01b031663a9059cbb60e01b1790526104199084906120c6565b600054600160a01b900460ff166104c25760405162461bcd60e51b815260206004820152601460248201527314185d5cd8589b194e881b9bdd081c185d5cd95960621b6044820152606401610524565b80471015611d3f5760405162461bcd60e51b815260206004820152601d60248201527f416464726573733a20696e73756666696369656e742062616c616e63650000006044820152606401610524565b6000826001600160a01b03168260405160006040518083038185875af1925050503d8060008114611d8c576040519150601f19603f3d011682016040523d82523d6000602084013e611d91565b606091505b50509050806104195760405162461bcd60e51b815260206004820152603a60248201527f416464726573733a20756e61626c6520746f2073656e642076616c75652c207260448201527f6563697069656e74206d617920686176652072657665727465640000000000006064820152608401610524565b604080516001600160a01b038481166024830152604480830185905283518084039091018152606490920183526020820180516001600160e01b031663095ea7b360e01b1790529151600092839290871691611e649190612f97565b6000604051808303816000865af19150503d8060008114611ea1576040519150601f19603f3d011682016040523d82523d6000602084013e611ea6565b606091505b5091509150818015611ed0575080511580611ed0575080806020019051810190611ed09190612ad5565b611f015760405162461bcd60e51b8152602060048201526002602482015261534160f01b6044820152606401610524565b5050505050565b6000611f30611f1a602084018461259d565b6003546001600160a01b03166040850135611e08565b60408051610100810190915260009080611f4d602086018661259d565b6001600160a01b03168152602001846020016020810190611f6e919061259d565b6001600160a01b03168152602001611f8c6080860160608701612b3b565b62ffffff168152602001306001600160a01b0316815260200184608001358152602001846040013581526020018460a0013581526020018460c0016020810190611fd6919061259d565b6001600160a01b031690529050600034611ff1576000611ff7565b83604001355b6003546040805163414bf38960e01b815285516001600160a01b0390811660048301526020870151811660248301529186015162ffffff1660448201526060860151821660648201526080860151608482015260a086015160a482015260c086015160c482015260e0860151821660e4820152929350169063414bf3899083906101040160206040518083038185885af1158015612099573d6000803e3d6000fd5b50505050506040513d601f19601f820116820180604052508101906120be91906129f2565b949350505050565b600061211b826040518060400160405280602081526020017f5361666545524332303a206c6f772d6c6576656c2063616c6c206661696c6564815250856001600160a01b03166121989092919063ffffffff16565b80519091501561041957808060200190518101906121399190612ad5565b6104195760405162461bcd60e51b815260206004820152602a60248201527f5361666545524332303a204552433230206f7065726174696f6e20646964206e6044820152691bdd081cdd58d8d9595960b21b6064820152608401610524565b60606120be848460008585600080866001600160a01b031685876040516121bf9190612f97565b60006040518083038185875af1925050503d80600081146121fc576040519150601f19603f3d011682016040523d82523d6000602084013e612201565b606091505b50915091506104a7878383876060831561227c578251600003612275576001600160a01b0385163b6122755760405162461bcd60e51b815260206004820152601d60248201527f416464726573733a2063616c6c20746f206e6f6e2d636f6e74726163740000006044820152606401610524565b50816120be565b6120be83838151156122915781518083602001fd5b8060405162461bcd60e51b81526004016105249190612fa9565b6001600160a01b038116811461094257600080fd5b60008083601f8401126122d257600080fd5b5081356001600160401b038111156122e957600080fd5b60208301915083602082850101111561230157600080fd5b9250929050565b60008060008060006080868803121561232057600080fd5b853561232b816122ab565b9450602086013561233b816122ab565b93506040860135925060608601356001600160401b0381111561235d57600080fd5b612369888289016122c0565b969995985093965092949392505050565b8035612385816122ab565b919050565b60008060006060848603121561239f57600080fd5b83356123aa816122ab565b925060208401356123ba816122ab565b929592945050506040919091013590565b600080600080600080600060a0888a0312156123e657600080fd5b87356123f1816122ab565b96506020880135955060408801356001600160401b038082111561241457600080fd5b6124208b838c016122c0565b909750955060608a013591508082111561243957600080fd5b506124468a828b016122c0565b909450925050608088013561245a816122ab565b8091505092959891949750929550565b801515811461094257600080fd5b6000806040838503121561248b57600080fd5b82359150602083013561249d8161246a565b809150509250929050565b600080604083850312156124bb57600080fd5b82356124c6816122ab565b946020939093013593505050565b60008083601f8401126124e657600080fd5b5081356001600160401b038111156124fd57600080fd5b60208301915083602060c08302850101111561230157600080fd5b6000806020838503121561252b57600080fd5b82356001600160401b0381111561254157600080fd5b61254d858286016124d4565b90969095509350505050565b6020808252825182820181905260009190848201906040850190845b8181101561259157835183529284019291840191600101612575565b50909695505050505050565b6000602082840312156125af57600080fd5b81356105fa816122ab565b600080600080608085870312156125d057600080fd5b84356125db816122ab565b935060208501356125eb816122ab565b93969395505050506040820135916060013590565b60008083601f84011261261257600080fd5b5081356001600160401b0381111561262957600080fd5b6020830191508360208260081b850101111561230157600080fd5b6000806020838503121561265757600080fd5b82356001600160401b0381111561266d57600080fd5b61254d85828601612600565b60006040828403121561268b57600080fd5b50919050565b600080600080608085870312156126a757600080fd5b84356126b2816122ab565b935060208501356126c2816122ab565b92506040850135915060608501356001600160401b038111156126e457600080fd5b6126f087828801612679565b91505092959194509250565b60008060008060008060a0878903121561271557600080fd5b8635612720816122ab565b95506020870135612730816122ab565b94506040870135935060608701356001600160401b038082111561275357600080fd5b61275f8a838b016122c0565b9095509350608089013591508082111561277857600080fd5b5061278589828a01612679565b9150509295509295509295565b60008083601f8401126127a457600080fd5b5081356001600160401b038111156127bb57600080fd5b6020830191508360208260051b850101111561230157600080fd5b60008060008060008060008060008060c08b8d0312156127f557600080fd5b6127fe8b61237a565b995060208b01356001600160401b038082111561281a57600080fd5b6128268e838f016122c0565b909b50995060408d013591508082111561283f57600080fd5b61284b8e838f01612600565b909950975060608d013591508082111561286457600080fd5b6128708e838f01612792565b909750955060808d013591508082111561288957600080fd5b506128968d828e016124d4565b9150809450508092505060a08b013590509295989b9194979a5092959850565b634e487b7160e01b600052601160045260246000fd5b6000600160ff1b82016128e1576128e16128b6565b5060000390565b8181036000831280158383131683831282161715612908576129086128b6565b5092915050565b80820182811260008312801582168215821617156105cf576105cf6128b6565b60008261294c57634e487b7160e01b600052601260045260246000fd5b600160ff1b821460001984141615612966576129666128b6565b500590565b80820260008212600160ff1b84141615612987576129876128b6565b81810583148215176105d2576105d26128b6565b600181811c908216806129af57607f821691505b60208210810361268b57634e487b7160e01b600052602260045260246000fd5b6020808252600990820152684248503a452d34303360b81b604082015260600190565b600060208284031215612a0457600080fd5b5051919050565b60005b83811015612a26578181015183820152602001612a0e565b50506000910152565b60008151808452612a47816020860160208601612a0b565b601f01601f19169290920160200192915050565b6001600160a01b03848116825283166020820152606060408201819052600090612a8790830184612a2f565b95945050505050565b600060018060a01b03808916835287602084015260c06040840152612ab860c0840188612a2f565b9516606083015250608081019290925260a0909101529392505050565b600060208284031215612ae757600080fd5b81516105fa8161246a565b600060208284031215612b0457600080fd5b81516105fa816122ab565b634e487b7160e01b600052604160045260246000fd5b634e487b7160e01b600052603260045260246000fd5b600060208284031215612b4d57600080fd5b813562ffffff811681146105fa57600080fd5b81516001600160a01b0316815261016081016020830151612b8c60208401826001600160a01b03169052565b506040830151612ba3604084018262ffffff169052565b506060830151612bb8606084018260020b9052565b506080830151612bcd608084018260020b9052565b5060a083015160a083015260c083015160c083015260e083015160e083015261010080840151818401525061012080840151612c13828501826001600160a01b03169052565b505061014092830151919092015290565b60008060008060808587031215612c3a57600080fd5b8451935060208501516fffffffffffffffffffffffffffffffff81168114612c6157600080fd5b6040860151606090960151949790965092505050565b600060018201612c8957612c896128b6565b5060010190565b6000808335601e19843603018112612ca757600080fd5b8301803591506001600160401b03821115612cc157600080fd5b6020019150600581901b360382131561230157600080fd5b600060018060a01b038088168352808716602084015285604084015260a06060840152612d0960a0840186612a2f565b91508084166080840152509695505050505050565b60008060408385031215612d3157600080fd5b505080516020909101519092909150565b6000808335601e19843603018112612d5957600080fd5b8301803591506001600160401b03821115612d7357600080fd5b6020019150600681901b360382131561230157600080fd5b600060018060a01b03808a168352808916602084015287604084015260e06060840152612dbb60e0840188612a2f565b951660808301525060a081019290925260c090910152949350505050565b6001600160a01b0385811682528416602082015260606040820181905281018290526000828460808401376000608084840101526080601f19601f850116830101905095945050505050565b600060208284031215612e3757600080fd5b81356105fa8161246a565b6001600160a01b0387168152602080820187905260c060408301528554600091908290600181811c9082811680612e7a57607f831692505b8583108103612e9757634e487b7160e01b85526022600452602485fd5b60c0880183905260e08801818015612eb65760018114612ecc57612ef7565b60ff198616825284151560051b82019650612ef7565b60008e81526020902060005b86811015612ef157815484820152908501908901612ed8565b83019750505b5050506001600160a01b038a16606088015250919350612f1692505050565b8360808301526104a760a08301846001600160a01b03169052565b60008235605e19833603018112612f4757600080fd5b9190910192915050565b6000808335601e19843603018112612f6857600080fd5b8301803591506001600160401b03821115612f8257600080fd5b60200191503681900382131561230157600080fd5b60008251612f47818460208701612a0b565b6020815260006105fa6020830184612a2f56fea2646970667358221220889f9d08b3b14b2b94ebfd122a9104a8477f6b5a89d38fbe822914c7d7cd2ffc64736f6c63430008110033",
  "devdoc": {
    "kind": "dev",
    "methods": {
      "_findNearestValidTick(int256,bool)": {
        "details": "Finds the nearest valid tick to either MIN_TICK or MAX_TICK based on the tickSpacing. This function accounts for edge cases to ensure the returned tick is within valid range.",
        "params": {
          "nearestToMin": "If true, finds the nearest valid tick greater than or equal to MIN_TICK.                     If false, finds the nearest valid tick less than or equal to MAX_TICK.",
          "tickSpacing": "The spacing between valid ticks, must be a positive integer."
        },
        "returns": {
          "_0": "The nearest valid tick as an integer, ensuring it falls within the valid tick range."
        }
      },
      "owner()": {
        "details": "Returns the address of the current owner."
      },
      "paused()": {
        "details": "Returns true if the contract is paused, and false otherwise."
      },
      "renounceOwnership()": {
        "details": "Leaves the contract without owner. It will not be possible to call `onlyOwner` functions anymore. Can only be called by the current owner. NOTE: Renouncing ownership will leave the contract without an owner, thereby removing any functionality that is only available to the owner."
      },
      "setChargedParticles(address)": {
        "details": "Setup the ChargedParticles Interface"
      },
      "setUniswapRouter(address)": {
        "details": "Setup the Uniswap Router"
      },
      "transferOwnership(address)": {
        "details": "Transfers ownership of the contract to a new account (`newOwner`). Can only be called by the current owner."
      }
    },
    "version": 1
  },
  "userdoc": {
    "kind": "user",
    "methods": {},
    "version": 1
  },
  "storageLayout": {
    "storage": [
      {
        "astId": 7,
        "contract": "contracts/Web3Packs.sol:Web3Packs",
        "label": "_owner",
        "offset": 0,
        "slot": "0",
        "type": "t_address"
      },
      {
        "astId": 130,
        "contract": "contracts/Web3Packs.sol:Web3Packs",
        "label": "_paused",
        "offset": 20,
        "slot": "0",
        "type": "t_bool"
      },
      {
        "astId": 231,
        "contract": "contracts/Web3Packs.sol:Web3Packs",
        "label": "_status",
        "offset": 0,
        "slot": "1",
        "type": "t_uint256"
      },
      {
        "astId": 3820,
        "contract": "contracts/Web3Packs.sol:Web3Packs",
        "label": "_proton",
        "offset": 0,
        "slot": "2",
        "type": "t_address"
      },
      {
        "astId": 3823,
        "contract": "contracts/Web3Packs.sol:Web3Packs",
        "label": "_router",
        "offset": 0,
        "slot": "3",
        "type": "t_address"
      },
      {
        "astId": 3826,
        "contract": "contracts/Web3Packs.sol:Web3Packs",
        "label": "_nonfungiblePositionManager",
        "offset": 0,
        "slot": "4",
        "type": "t_address"
      },
      {
        "astId": 3829,
        "contract": "contracts/Web3Packs.sol:Web3Packs",
        "label": "_chargedParticles",
        "offset": 0,
        "slot": "5",
        "type": "t_address"
      },
      {
        "astId": 3832,
        "contract": "contracts/Web3Packs.sol:Web3Packs",
        "label": "_cpWalletManager",
        "offset": 0,
        "slot": "6",
        "type": "t_string_storage"
      },
      {
        "astId": 3835,
        "contract": "contracts/Web3Packs.sol:Web3Packs",
        "label": "_cpBasketManager",
        "offset": 0,
        "slot": "7",
        "type": "t_string_storage"
      }
    ],
    "types": {
      "t_address": {
        "encoding": "inplace",
        "label": "address",
        "numberOfBytes": "20"
      },
      "t_bool": {
        "encoding": "inplace",
        "label": "bool",
        "numberOfBytes": "1"
      },
      "t_string_storage": {
        "encoding": "bytes",
        "label": "string",
        "numberOfBytes": "32"
      },
      "t_uint256": {
        "encoding": "inplace",
        "label": "uint256",
        "numberOfBytes": "32"
      }
    }
  }
}