{
  "address": "0x8Db1C69d9E05d7A1b82972377D894007cD71674D",
  "abi": [
    {
      "inputs": [
        {
          "internalType": "address",
          "name": "weth",
          "type": "address"
        },
        {
          "internalType": "address",
          "name": "proton",
          "type": "address"
        },
        {
          "internalType": "address",
          "name": "chargedParticles",
          "type": "address"
        },
        {
          "internalType": "address",
          "name": "chargedState",
          "type": "address"
        }
      ],
      "stateMutability": "nonpayable",
      "type": "constructor"
    },
    {
      "inputs": [],
      "name": "ContractNotAllowed",
      "type": "error"
    },
    {
      "inputs": [],
      "name": "FundingFailed",
      "type": "error"
    },
    {
      "inputs": [
        {
          "internalType": "uint256",
          "name": "value",
          "type": "uint256"
        },
        {
          "internalType": "uint256",
          "name": "ethPackPrice",
          "type": "uint256"
        },
        {
          "internalType": "uint256",
          "name": "protocolFee",
          "type": "uint256"
        }
      ],
      "name": "InsufficientForFee",
      "type": "error"
    },
    {
      "inputs": [],
      "name": "MismatchedTokens",
      "type": "error"
    },
    {
      "inputs": [
        {
          "internalType": "address",
          "name": "tokenAddress",
          "type": "address"
        }
      ],
      "name": "MissingLiquidityUUID",
      "type": "error"
    },
    {
      "inputs": [],
      "name": "NativeAssetTransferFailed",
      "type": "error"
    },
    {
      "inputs": [],
      "name": "NotOwnerOrApproved",
      "type": "error"
    },
    {
      "inputs": [],
      "name": "NullReceiver",
      "type": "error"
    },
    {
      "inputs": [
        {
          "internalType": "address",
          "name": "tokenOut",
          "type": "address"
        },
        {
          "internalType": "uint256",
          "name": "amountIn",
          "type": "uint256"
        },
        {
          "internalType": "address",
          "name": "router",
          "type": "address"
        }
      ],
      "name": "UnsucessfulSwap",
      "type": "error"
    },
    {
      "anonymous": false,
      "inputs": [
        {
          "indexed": true,
          "internalType": "address",
          "name": "chargedParticles",
          "type": "address"
        }
      ],
      "name": "ChargedParticlesSet",
      "type": "event"
    },
    {
      "anonymous": false,
      "inputs": [
        {
          "indexed": true,
          "internalType": "address",
          "name": "chargedState",
          "type": "address"
        }
      ],
      "name": "ChargedStateSet",
      "type": "event"
    },
    {
      "anonymous": false,
      "inputs": [
        {
          "indexed": true,
          "internalType": "address",
          "name": "previousOwner",
          "type": "address"
        },
        {
          "indexed": true,
          "internalType": "address",
          "name": "newOwner",
          "type": "address"
        }
      ],
      "name": "OwnershipTransferred",
      "type": "event"
    },
    {
      "anonymous": false,
      "inputs": [
        {
          "indexed": true,
          "internalType": "uint256",
          "name": "tokenId",
          "type": "uint256"
        },
        {
          "indexed": true,
          "internalType": "address",
          "name": "receiver",
          "type": "address"
        },
        {
          "indexed": false,
          "internalType": "bytes32",
          "name": "packType",
          "type": "bytes32"
        },
        {
          "indexed": false,
          "internalType": "bytes32",
          "name": "usdPackPrice",
          "type": "bytes32"
        }
      ],
      "name": "PackBundled",
      "type": "event"
    },
    {
      "anonymous": false,
      "inputs": [
        {
          "indexed": true,
          "internalType": "uint256",
          "name": "tokenId",
          "type": "uint256"
        },
        {
          "indexed": true,
          "internalType": "address",
          "name": "receiver",
          "type": "address"
        },
        {
          "indexed": false,
          "internalType": "uint256",
          "name": "ethAmount",
          "type": "uint256"
        }
      ],
      "name": "PackUnbundled",
      "type": "event"
    },
    {
      "anonymous": false,
      "inputs": [
        {
          "indexed": false,
          "internalType": "address",
          "name": "account",
          "type": "address"
        }
      ],
      "name": "Paused",
      "type": "event"
    },
    {
      "anonymous": false,
      "inputs": [
        {
          "indexed": false,
          "internalType": "uint256",
          "name": "fee",
          "type": "uint256"
        }
      ],
      "name": "ProtocolFeeSet",
      "type": "event"
    },
    {
      "anonymous": false,
      "inputs": [
        {
          "indexed": true,
          "internalType": "address",
          "name": "proton",
          "type": "address"
        }
      ],
      "name": "ProtonSet",
      "type": "event"
    },
    {
      "anonymous": false,
      "inputs": [
        {
          "indexed": true,
          "internalType": "address",
          "name": "router",
          "type": "address"
        }
      ],
      "name": "RouterSet",
      "type": "event"
    },
    {
      "anonymous": false,
      "inputs": [
        {
          "indexed": false,
          "internalType": "address",
          "name": "account",
          "type": "address"
        }
      ],
      "name": "Unpaused",
      "type": "event"
    },
    {
      "anonymous": false,
      "inputs": [
        {
          "indexed": true,
          "internalType": "address",
          "name": "manager",
          "type": "address"
        }
      ],
      "name": "Web3PacksExchangeManagerSet",
      "type": "event"
    },
    {
      "anonymous": false,
      "inputs": [
        {
          "indexed": true,
          "internalType": "address",
          "name": "manager",
          "type": "address"
        }
      ],
      "name": "Web3PacksManagerSet",
      "type": "event"
    },
    {
      "anonymous": false,
      "inputs": [
        {
          "indexed": true,
          "internalType": "address",
          "name": "web3packs",
          "type": "address"
        }
      ],
      "name": "Web3PacksSet",
      "type": "event"
    },
    {
      "anonymous": false,
      "inputs": [
        {
          "indexed": true,
          "internalType": "address",
          "name": "treasury",
          "type": "address"
        }
      ],
      "name": "Web3PacksTreasurySet",
      "type": "event"
    },
    {
      "anonymous": false,
      "inputs": [
        {
          "indexed": true,
          "internalType": "address",
          "name": "receiver",
          "type": "address"
        },
        {
          "indexed": true,
          "internalType": "address",
          "name": "tokenAddress",
          "type": "address"
        },
        {
          "indexed": true,
          "internalType": "uint256",
          "name": "tokenId",
          "type": "uint256"
        },
        {
          "indexed": false,
          "internalType": "uint256",
          "name": "amount",
          "type": "uint256"
        }
      ],
      "name": "WithdrawStuckERC1155",
      "type": "event"
    },
    {
      "anonymous": false,
      "inputs": [
        {
          "indexed": true,
          "internalType": "address",
          "name": "receiver",
          "type": "address"
        },
        {
          "indexed": true,
          "internalType": "address",
          "name": "tokenAddress",
          "type": "address"
        },
        {
          "indexed": false,
          "internalType": "uint256",
          "name": "amount",
          "type": "uint256"
        }
      ],
      "name": "WithdrawStuckERC20",
      "type": "event"
    },
    {
      "anonymous": false,
      "inputs": [
        {
          "indexed": true,
          "internalType": "address",
          "name": "receiver",
          "type": "address"
        },
        {
          "indexed": true,
          "internalType": "address",
          "name": "tokenAddress",
          "type": "address"
        },
        {
          "indexed": true,
          "internalType": "uint256",
          "name": "tokenId",
          "type": "uint256"
        }
      ],
      "name": "WithdrawStuckERC721",
      "type": "event"
    },
    {
      "anonymous": false,
      "inputs": [
        {
          "indexed": true,
          "internalType": "address",
          "name": "receiver",
          "type": "address"
        },
        {
          "indexed": false,
          "internalType": "uint256",
          "name": "amount",
          "type": "uint256"
        }
      ],
      "name": "WithdrawStuckEther",
      "type": "event"
    },
    {
      "inputs": [],
      "name": "_chargedParticles",
      "outputs": [
        {
          "internalType": "address",
          "name": "",
          "type": "address"
        }
      ],
      "stateMutability": "view",
      "type": "function"
    },
    {
      "inputs": [],
      "name": "_chargedState",
      "outputs": [
        {
          "internalType": "address",
          "name": "",
          "type": "address"
        }
      ],
      "stateMutability": "view",
      "type": "function"
    },
    {
      "inputs": [],
      "name": "_cpBasketManager",
      "outputs": [
        {
          "internalType": "string",
          "name": "",
          "type": "string"
        }
      ],
      "stateMutability": "view",
      "type": "function"
    },
    {
      "inputs": [],
      "name": "_cpWalletManager",
      "outputs": [
        {
          "internalType": "string",
          "name": "",
          "type": "string"
        }
      ],
      "stateMutability": "view",
      "type": "function"
    },
    {
      "inputs": [],
      "name": "_protocolFee",
      "outputs": [
        {
          "internalType": "uint256",
          "name": "",
          "type": "uint256"
        }
      ],
      "stateMutability": "view",
      "type": "function"
    },
    {
      "inputs": [],
      "name": "_proton",
      "outputs": [
        {
          "internalType": "address",
          "name": "",
          "type": "address"
        }
      ],
      "stateMutability": "view",
      "type": "function"
    },
    {
      "inputs": [],
      "name": "_web3PacksExchangeManager",
      "outputs": [
        {
          "internalType": "address",
          "name": "",
          "type": "address"
        }
      ],
      "stateMutability": "view",
      "type": "function"
    },
    {
      "inputs": [],
      "name": "_web3PacksManager",
      "outputs": [
        {
          "internalType": "address",
          "name": "",
          "type": "address"
        }
      ],
      "stateMutability": "view",
      "type": "function"
    },
    {
      "inputs": [],
      "name": "_weth",
      "outputs": [
        {
          "internalType": "address",
          "name": "",
          "type": "address"
        }
      ],
      "stateMutability": "view",
      "type": "function"
    },
    {
      "inputs": [
        {
          "internalType": "uint256",
          "name": "tokenId",
          "type": "uint256"
        },
        {
          "internalType": "address",
          "name": "nftTokenAddress",
          "type": "address"
        },
        {
          "internalType": "uint256",
          "name": "mintedTokenId",
          "type": "uint256"
        }
      ],
      "name": "bond",
      "outputs": [],
      "stateMutability": "nonpayable",
      "type": "function"
    },
    {
      "inputs": [
        {
          "internalType": "string",
          "name": "tokenMetaUri",
          "type": "string"
        },
        {
          "components": [
            {
              "internalType": "bytes",
              "name": "callData",
              "type": "bytes"
            },
            {
              "internalType": "address",
              "name": "contractAddress",
              "type": "address"
            },
            {
              "internalType": "uint256",
              "name": "amountIn",
              "type": "uint256"
            }
          ],
          "internalType": "struct IWeb3PacksDefs.ContractCallGeneric[]",
          "name": "contractCalls",
          "type": "tuple[]"
        },
        {
          "components": [
            {
              "internalType": "bytes",
              "name": "callData",
              "type": "bytes"
            },
            {
              "internalType": "address",
              "name": "router",
              "type": "address"
            },
            {
              "internalType": "address",
              "name": "tokenIn",
              "type": "address"
            },
            {
              "internalType": "address",
              "name": "tokenOut",
              "type": "address"
            },
            {
              "internalType": "uint256",
              "name": "tokenAmountIn",
              "type": "uint256"
            },
            {
              "internalType": "uint256",
              "name": "tokenAmountOutMin",
              "type": "uint256"
            },
            {
              "internalType": "uint256",
              "name": "payableAmountIn",
              "type": "uint256"
            },
            {
              "internalType": "bytes32",
              "name": "liquidityUuid",
              "type": "bytes32"
            },
            {
              "internalType": "bytes32",
              "name": "poolId",
              "type": "bytes32"
            },
            {
              "internalType": "bool",
              "name": "stable",
              "type": "bool"
            },
            {
              "components": [
                {
                  "internalType": "address",
                  "name": "token0",
                  "type": "address"
                },
                {
                  "internalType": "address",
                  "name": "token1",
                  "type": "address"
                }
              ],
              "internalType": "struct IWeb3PacksDefs.Route[]",
              "name": "reverseRoute",
              "type": "tuple[]"
            },
            {
              "internalType": "enum IWeb3PacksDefs.RouterType",
              "name": "routerType",
              "type": "uint8"
            }
          ],
          "internalType": "struct IWeb3PacksDefs.ERC20SwapOrderGeneric[]",
          "name": "erc20SwapOrders",
          "type": "tuple[]"
        },
        {
          "components": [
            {
              "internalType": "address",
              "name": "router",
              "type": "address"
            },
            {
              "internalType": "address",
              "name": "token0",
              "type": "address"
            },
            {
              "internalType": "address",
              "name": "token1",
              "type": "address"
            },
            {
              "internalType": "bytes32",
              "name": "liquidityUuidToken0",
              "type": "bytes32"
            },
            {
              "internalType": "bytes32",
              "name": "liquidityUuidToken1",
              "type": "bytes32"
            },
            {
              "internalType": "uint256",
              "name": "percentToken0",
              "type": "uint256"
            },
            {
              "internalType": "uint256",
              "name": "percentToken1",
              "type": "uint256"
            },
            {
              "internalType": "uint256",
              "name": "minimumLpTokens",
              "type": "uint256"
            },
            {
              "internalType": "uint256",
              "name": "slippage",
              "type": "uint256"
            },
            {
              "internalType": "int24",
              "name": "tickLower",
              "type": "int24"
            },
            {
              "internalType": "int24",
              "name": "tickUpper",
              "type": "int24"
            },
            {
              "internalType": "bool",
              "name": "stable",
              "type": "bool"
            },
            {
              "internalType": "bytes32",
              "name": "poolId",
              "type": "bytes32"
            },
            {
              "internalType": "enum IWeb3PacksDefs.RouterType",
              "name": "routerType",
              "type": "uint8"
            }
          ],
          "internalType": "struct IWeb3PacksDefs.LiquidityOrderGeneric[]",
          "name": "liquidityOrders",
          "type": "tuple[]"
        },
        {
          "components": [
            {
              "internalType": "uint256",
              "name": "ERC20Timelock",
              "type": "uint256"
            },
            {
              "internalType": "uint256",
              "name": "ERC721Timelock",
              "type": "uint256"
            }
          ],
          "internalType": "struct IWeb3PacksDefs.LockState",
          "name": "lockState",
          "type": "tuple"
        },
        {
          "internalType": "uint256",
          "name": "ethPackPrice",
          "type": "uint256"
        },
        {
          "internalType": "bytes32",
          "name": "usdPackPrice",
          "type": "bytes32"
        },
        {
          "internalType": "bytes32",
          "name": "packType",
          "type": "bytes32"
        }
      ],
      "name": "bundle",
      "outputs": [
        {
          "internalType": "uint256",
          "name": "tokenId",
          "type": "uint256"
        }
      ],
      "stateMutability": "payable",
      "type": "function"
    },
    {
      "inputs": [
        {
          "internalType": "uint256",
          "name": "tokenId",
          "type": "uint256"
        },
        {
          "internalType": "address",
          "name": "tokenAddress",
          "type": "address"
        },
        {
          "internalType": "uint256",
          "name": "tokenAmount",
          "type": "uint256"
        }
      ],
      "name": "energize",
      "outputs": [],
      "stateMutability": "nonpayable",
      "type": "function"
    },
    {
      "inputs": [
        {
          "internalType": "address",
          "name": "",
          "type": "address"
        },
        {
          "internalType": "address",
          "name": "",
          "type": "address"
        },
        {
          "internalType": "uint256",
          "name": "",
          "type": "uint256"
        },
        {
          "internalType": "bytes",
          "name": "",
          "type": "bytes"
        }
      ],
      "name": "onERC721Received",
      "outputs": [
        {
          "internalType": "bytes4",
          "name": "",
          "type": "bytes4"
        }
      ],
      "stateMutability": "pure",
      "type": "function"
    },
    {
      "inputs": [],
      "name": "owner",
      "outputs": [
        {
          "internalType": "address",
          "name": "",
          "type": "address"
        }
      ],
      "stateMutability": "view",
      "type": "function"
    },
    {
      "inputs": [],
      "name": "pause",
      "outputs": [],
      "stateMutability": "nonpayable",
      "type": "function"
    },
    {
      "inputs": [],
      "name": "paused",
      "outputs": [
        {
          "internalType": "bool",
          "name": "",
          "type": "bool"
        }
      ],
      "stateMutability": "view",
      "type": "function"
    },
    {
      "inputs": [],
      "name": "renounceOwnership",
      "outputs": [],
      "stateMutability": "nonpayable",
      "type": "function"
    },
    {
      "inputs": [
        {
          "internalType": "address",
          "name": "chargedParticles",
          "type": "address"
        }
      ],
      "name": "setChargedParticles",
      "outputs": [],
      "stateMutability": "nonpayable",
      "type": "function"
    },
    {
      "inputs": [
        {
          "internalType": "address",
          "name": "chargedState",
          "type": "address"
        }
      ],
      "name": "setChargedState",
      "outputs": [],
      "stateMutability": "nonpayable",
      "type": "function"
    },
    {
      "inputs": [
        {
          "internalType": "uint256",
          "name": "fee",
          "type": "uint256"
        }
      ],
      "name": "setProtocolFee",
      "outputs": [],
      "stateMutability": "nonpayable",
      "type": "function"
    },
    {
      "inputs": [
        {
          "internalType": "address",
          "name": "proton",
          "type": "address"
        }
      ],
      "name": "setProton",
      "outputs": [],
      "stateMutability": "nonpayable",
      "type": "function"
    },
    {
      "inputs": [
        {
          "internalType": "address payable",
          "name": "treasury",
          "type": "address"
        }
      ],
      "name": "setTreasury",
      "outputs": [],
      "stateMutability": "nonpayable",
      "type": "function"
    },
    {
      "inputs": [
        {
          "internalType": "address",
          "name": "manager",
          "type": "address"
        }
      ],
      "name": "setWeb3PacksExchangeManager",
      "outputs": [],
      "stateMutability": "nonpayable",
      "type": "function"
    },
    {
      "inputs": [
        {
          "internalType": "address",
          "name": "manager",
          "type": "address"
        }
      ],
      "name": "setWeb3PacksManager",
      "outputs": [],
      "stateMutability": "nonpayable",
      "type": "function"
    },
    {
      "inputs": [
        {
          "internalType": "address",
          "name": "newOwner",
          "type": "address"
        }
      ],
      "name": "transferOwnership",
      "outputs": [],
      "stateMutability": "nonpayable",
      "type": "function"
    },
    {
      "inputs": [
        {
          "internalType": "address",
          "name": "receiver",
          "type": "address"
        },
        {
          "internalType": "address",
          "name": "tokenAddress",
          "type": "address"
        },
        {
          "internalType": "uint256",
          "name": "tokenId",
          "type": "uint256"
        },
        {
          "components": [
            {
              "internalType": "bytes",
              "name": "callData",
              "type": "bytes"
            },
            {
              "internalType": "address",
              "name": "router",
              "type": "address"
            },
            {
              "internalType": "address",
              "name": "tokenIn",
              "type": "address"
            },
            {
              "internalType": "address",
              "name": "tokenOut",
              "type": "address"
            },
            {
              "internalType": "uint256",
              "name": "tokenAmountIn",
              "type": "uint256"
            },
            {
              "internalType": "uint256",
              "name": "tokenAmountOutMin",
              "type": "uint256"
            },
            {
              "internalType": "uint256",
              "name": "payableAmountIn",
              "type": "uint256"
            },
            {
              "internalType": "bytes32",
              "name": "liquidityUuid",
              "type": "bytes32"
            },
            {
              "internalType": "bytes32",
              "name": "poolId",
              "type": "bytes32"
            },
            {
              "internalType": "bool",
              "name": "stable",
              "type": "bool"
            },
            {
              "components": [
                {
                  "internalType": "address",
                  "name": "token0",
                  "type": "address"
                },
                {
                  "internalType": "address",
                  "name": "token1",
                  "type": "address"
                }
              ],
              "internalType": "struct IWeb3PacksDefs.Route[]",
              "name": "reverseRoute",
              "type": "tuple[]"
            },
            {
              "internalType": "enum IWeb3PacksDefs.RouterType",
              "name": "routerType",
              "type": "uint8"
            }
          ],
          "internalType": "struct IWeb3PacksDefs.ERC20SwapOrderGeneric[]",
          "name": "erc20SwapOrders",
          "type": "tuple[]"
        },
        {
          "components": [
            {
              "components": [
                {
                  "internalType": "address",
                  "name": "token",
                  "type": "address"
                },
                {
                  "internalType": "uint256",
                  "name": "amount",
                  "type": "uint256"
                }
              ],
              "internalType": "struct IWeb3PacksDefs.TokenAmount",
              "name": "token0",
              "type": "tuple"
            },
            {
              "components": [
                {
                  "internalType": "address",
                  "name": "token",
                  "type": "address"
                },
                {
                  "internalType": "uint256",
                  "name": "amount",
                  "type": "uint256"
                }
              ],
              "internalType": "struct IWeb3PacksDefs.TokenAmount",
              "name": "token1",
              "type": "tuple"
            },
            {
              "internalType": "uint256",
              "name": "slippage",
              "type": "uint256"
            },
            {
              "internalType": "bytes32",
              "name": "poolId",
              "type": "bytes32"
            },
            {
              "internalType": "address",
              "name": "router",
              "type": "address"
            },
            {
              "internalType": "enum IWeb3PacksDefs.RouterType",
              "name": "routerType",
              "type": "uint8"
            },
            {
              "internalType": "bool",
              "name": "exitLpOnUnbundle",
              "type": "bool"
            },
            {
              "components": [
                {
                  "internalType": "address",
                  "name": "token0",
                  "type": "address"
                },
                {
                  "internalType": "address",
                  "name": "token1",
                  "type": "address"
                }
              ],
              "internalType": "struct IWeb3PacksDefs.Route[]",
              "name": "reverseRoute",
              "type": "tuple[]"
            },
            {
              "internalType": "bool",
              "name": "stable",
              "type": "bool"
            }
          ],
          "internalType": "struct IWeb3PacksDefs.LiquidityPairs[]",
          "name": "liquidityPairs",
          "type": "tuple[]"
        },
        {
          "internalType": "bool",
          "name": "sellAll",
          "type": "bool"
        }
      ],
      "name": "unbundle",
      "outputs": [],
      "stateMutability": "payable",
      "type": "function"
    },
    {
      "inputs": [
        {
          "internalType": "address",
          "name": "receiver",
          "type": "address"
        },
        {
          "internalType": "address",
          "name": "tokenAddress",
          "type": "address"
        },
        {
          "internalType": "uint256",
          "name": "tokenId",
          "type": "uint256"
        },
        {
          "internalType": "string",
          "name": "walletManager",
          "type": "string"
        },
        {
          "components": [
            {
              "internalType": "bytes",
              "name": "callData",
              "type": "bytes"
            },
            {
              "internalType": "address",
              "name": "router",
              "type": "address"
            },
            {
              "internalType": "address",
              "name": "tokenIn",
              "type": "address"
            },
            {
              "internalType": "address",
              "name": "tokenOut",
              "type": "address"
            },
            {
              "internalType": "uint256",
              "name": "tokenAmountIn",
              "type": "uint256"
            },
            {
              "internalType": "uint256",
              "name": "tokenAmountOutMin",
              "type": "uint256"
            },
            {
              "internalType": "uint256",
              "name": "payableAmountIn",
              "type": "uint256"
            },
            {
              "internalType": "bytes32",
              "name": "liquidityUuid",
              "type": "bytes32"
            },
            {
              "internalType": "bytes32",
              "name": "poolId",
              "type": "bytes32"
            },
            {
              "internalType": "bool",
              "name": "stable",
              "type": "bool"
            },
            {
              "components": [
                {
                  "internalType": "address",
                  "name": "token0",
                  "type": "address"
                },
                {
                  "internalType": "address",
                  "name": "token1",
                  "type": "address"
                }
              ],
              "internalType": "struct IWeb3PacksDefs.Route[]",
              "name": "reverseRoute",
              "type": "tuple[]"
            },
            {
              "internalType": "enum IWeb3PacksDefs.RouterType",
              "name": "routerType",
              "type": "uint8"
            }
          ],
          "internalType": "struct IWeb3PacksDefs.ERC20SwapOrderGeneric[]",
          "name": "erc20SwapOrders",
          "type": "tuple[]"
        },
        {
          "components": [
            {
              "components": [
                {
                  "internalType": "address",
                  "name": "token",
                  "type": "address"
                },
                {
                  "internalType": "uint256",
                  "name": "amount",
                  "type": "uint256"
                }
              ],
              "internalType": "struct IWeb3PacksDefs.TokenAmount",
              "name": "token0",
              "type": "tuple"
            },
            {
              "components": [
                {
                  "internalType": "address",
                  "name": "token",
                  "type": "address"
                },
                {
                  "internalType": "uint256",
                  "name": "amount",
                  "type": "uint256"
                }
              ],
              "internalType": "struct IWeb3PacksDefs.TokenAmount",
              "name": "token1",
              "type": "tuple"
            },
            {
              "internalType": "uint256",
              "name": "slippage",
              "type": "uint256"
            },
            {
              "internalType": "bytes32",
              "name": "poolId",
              "type": "bytes32"
            },
            {
              "internalType": "address",
              "name": "router",
              "type": "address"
            },
            {
              "internalType": "enum IWeb3PacksDefs.RouterType",
              "name": "routerType",
              "type": "uint8"
            },
            {
              "internalType": "bool",
              "name": "exitLpOnUnbundle",
              "type": "bool"
            },
            {
              "components": [
                {
                  "internalType": "address",
                  "name": "token0",
                  "type": "address"
                },
                {
                  "internalType": "address",
                  "name": "token1",
                  "type": "address"
                }
              ],
              "internalType": "struct IWeb3PacksDefs.Route[]",
              "name": "reverseRoute",
              "type": "tuple[]"
            },
            {
              "internalType": "bool",
              "name": "stable",
              "type": "bool"
            }
          ],
          "internalType": "struct IWeb3PacksDefs.LiquidityPairs[]",
          "name": "liquidityPairs",
          "type": "tuple[]"
        },
        {
          "internalType": "bool",
          "name": "sellAll",
          "type": "bool"
        }
      ],
      "name": "unbundleFromManager",
      "outputs": [],
      "stateMutability": "payable",
      "type": "function"
    },
    {
      "inputs": [],
      "name": "unpause",
      "outputs": [],
      "stateMutability": "nonpayable",
      "type": "function"
    },
    {
      "inputs": [
        {
          "internalType": "address payable",
          "name": "receiver",
          "type": "address"
        },
        {
          "internalType": "address",
          "name": "tokenAddress",
          "type": "address"
        },
        {
          "internalType": "uint256",
          "name": "tokenId",
          "type": "uint256"
        },
        {
          "internalType": "uint256",
          "name": "amount",
          "type": "uint256"
        }
      ],
      "name": "withdrawERC1155",
      "outputs": [],
      "stateMutability": "nonpayable",
      "type": "function"
    },
    {
      "inputs": [
        {
          "internalType": "address payable",
          "name": "receiver",
          "type": "address"
        },
        {
          "internalType": "address",
          "name": "tokenAddress",
          "type": "address"
        },
        {
          "internalType": "uint256",
          "name": "tokenId",
          "type": "uint256"
        }
      ],
      "name": "withdrawERC721",
      "outputs": [],
      "stateMutability": "nonpayable",
      "type": "function"
    },
    {
      "inputs": [
        {
          "internalType": "address payable",
          "name": "receiver",
          "type": "address"
        },
        {
          "internalType": "address",
          "name": "tokenAddress",
          "type": "address"
        },
        {
          "internalType": "uint256",
          "name": "amount",
          "type": "uint256"
        }
      ],
      "name": "withdrawErc20",
      "outputs": [],
      "stateMutability": "nonpayable",
      "type": "function"
    },
    {
      "inputs": [
        {
          "internalType": "address payable",
          "name": "receiver",
          "type": "address"
        },
        {
          "internalType": "uint256",
          "name": "amount",
          "type": "uint256"
        }
      ],
      "name": "withdrawEther",
      "outputs": [],
      "stateMutability": "nonpayable",
      "type": "function"
    }
  ],
  "transactionHash": "0x3c6cdd404b40d36d9c1324a1df1e7f3e412f3baa586b2dd2d61e7635d5ba398a",
  "args": [
    "0x4200000000000000000000000000000000000006",
    "0x76a5df1c6F53A4B80c8c8177edf52FBbC368E825",
    "0x0288280Df6221E7e9f23c1BB398c820ae0Aa6c10",
    "0x2691B4f4251408bA4b8bf9530B6961b9D0C1231F"
  ],
  "numDeployments": 3,
  "solcInputHash": "5e4a2495c3b8b307011f8f698a91a439",
  "bytecode": "0x60c0604052600960809081526833b2b732b934b1972160b91b60a052600a906200002a9082620001f0565b5060408051808201909152600981526833b2b732b934b1972160b91b6020820152600b906200005a9082620001f0565b503480156200006857600080fd5b50604051620040ef380380620040ef8339810160408190526200008b91620002d9565b6200009633620000fb565b6000805460ff60a01b1916905560018055600280546001600160a01b039586166001600160a01b031991821617909155600380549486169482169490941790935560068054928516928416929092179091556007805491909316911617905562000336565b600080546001600160a01b038381166001600160a01b0319831681178455604051919092169283917f8be0079c531659141344cd1fd0a4f28419497f9722a3daafe3b4186f6b6457e09190a35050565b634e487b7160e01b600052604160045260246000fd5b600181811c908216806200017657607f821691505b6020821081036200019757634e487b7160e01b600052602260045260246000fd5b50919050565b601f821115620001eb57600081815260208120601f850160051c81016020861015620001c65750805b601f850160051c820191505b81811015620001e757828155600101620001d2565b5050505b505050565b81516001600160401b038111156200020c576200020c6200014b565b62000224816200021d845462000161565b846200019d565b602080601f8311600181146200025c5760008415620002435750858301515b600019600386901b1c1916600185901b178555620001e7565b600085815260208120601f198616915b828110156200028d578886015182559484019460019091019084016200026c565b5085821015620002ac5787850151600019600388901b60f8161c191681555b5050505050600190811b01905550565b80516001600160a01b0381168114620002d457600080fd5b919050565b60008060008060808587031215620002f057600080fd5b620002fb85620002bc565b93506200030b60208601620002bc565b92506200031b60408601620002bc565b91506200032b60608601620002bc565b905092959194509250565b613da980620003466000396000f3fe6080604052600436106101e35760003560e01c80636e5559fd11610102578063a8499fdf11610095578063cf30e87111610064578063cf30e87114610574578063dafb944914610587578063f0f44260146105a7578063f2fde38b146105c757600080fd5b8063a8499fdf146104f4578063b7683e9314610514578063bd32661614610534578063c0d3895e1461055457600080fd5b80638da5cb5b116100d15780638da5cb5b146104765780639261968514610494578063a0edb48b146104b4578063a1764595146104d457600080fd5b80636e5559fd1461040c578063715018a61461042c578063787dce3d146104415780638456cb591461046157600080fd5b806330219ef41161017a578063522f681511610149578063522f68151461038d5780635c975abb146103ad578063609b8813146103d757806369d09c4c146103ec57600080fd5b806330219ef41461032557806334d71c9b146103455780633f4ba83a146103585780634025feb21461036d57600080fd5b80631593dee1116101b65780631593dee11461028b5780631c588e76146102ab578063230f1544146102cb578063252c9c941461030357600080fd5b80630385b1f2146101e85780630846f99e146101fd578063108e4db71461021d578063150b7a0214610246575b600080fd5b6101fb6101f6366004612889565b6105e7565b005b34801561020957600080fd5b506101fb61021836600461293a565b610703565b34801561022957600080fd5b5061023360095481565b6040519081526020015b60405180910390f35b34801561025257600080fd5b5061027261026136600461299f565b630a85bd0160e11b95945050505050565b6040516001600160e01b0319909116815260200161023d565b34801561029757600080fd5b506101fb6102a6366004612a11565b6107b0565b3480156102b757600080fd5b506101fb6102c636600461293a565b6107c8565b3480156102d757600080fd5b506005546102eb906001600160a01b031681565b6040516001600160a01b03909116815260200161023d565b34801561030f57600080fd5b5061031861087c565b60405161023d9190612aa2565b34801561033157600080fd5b506006546102eb906001600160a01b031681565b6101fb610353366004612ab5565b61090a565b34801561036457600080fd5b506101fb6109cd565b34801561037957600080fd5b506101fb610388366004612a11565b6109df565b34801561039957600080fd5b506101fb6103a8366004612b8d565b6109f2565b3480156103b957600080fd5b50600054600160a01b900460ff16604051901515815260200161023d565b3480156103e357600080fd5b50610318610a08565b3480156103f857600080fd5b506004546102eb906001600160a01b031681565b34801561041857600080fd5b506101fb61042736600461293a565b610a15565b34801561043857600080fd5b506101fb610ac9565b34801561044d57600080fd5b506101fb61045c366004612bb9565b610adb565b34801561046d57600080fd5b506101fb610b1e565b34801561048257600080fd5b506000546001600160a01b03166102eb565b3480156104a057600080fd5b506101fb6104af366004612bd2565b610b2e565b3480156104c057600080fd5b506101fb6104cf366004612bf9565b610c73565b3480156104e057600080fd5b506002546102eb906001600160a01b031681565b34801561050057600080fd5b506007546102eb906001600160a01b031681565b34801561052057600080fd5b506101fb61052f36600461293a565b610c87565b34801561054057600080fd5b506101fb61054f36600461293a565b610d2f565b34801561056057600080fd5b506101fb61056f366004612bd2565b610dd7565b610233610582366004612c9c565b610ef3565b34801561059357600080fd5b506003546102eb906001600160a01b031681565b3480156105b357600080fd5b506101fb6105c236600461293a565b610f79565b3480156105d357600080fd5b506101fb6105e236600461293a565b611021565b6105ef61109a565b6105f76110e7565b6106016000611140565b60006106a9898989600a805461061690612da2565b80601f016020809104026020016040519081016040528092919081815260200182805461064290612da2565b801561068f5780601f106106645761010080835404028352916020019161068f565b820191906000526020600020905b81548152906001019060200180831161067257829003601f168201915b50505050508a8a8a8a906106a39190612fa1565b89611244565b9050886001600160a01b0316877f1143d14cf0b7fdb46022761b1a9b421b27c63d51cbf67363a425c415b14a8ad3836040516106e791815260200190565b60405180910390a3506106f960018055565b5050505050505050565b61070b6115c0565b6001600160a01b0381166107665760405162461bcd60e51b815260206004820152601b60248201527f496e76616c6964206164647265737320666f72206d616e61676572000000000060448201526064015b60405180910390fd5b600480546001600160a01b0319166001600160a01b0383169081179091556040517f29c3be2a07cd721ad5a371231bdf132e57fbe87625b604811898342f90c9582f90600090a250565b6107b86115c0565b6107c383838361161a565b505050565b6107d06115c0565b6001600160a01b0381166108325760405162461bcd60e51b8152602060048201526024808201527f496e76616c6964206164647265737320666f722065786368616e6765206d616e60448201526330b3b2b960e11b606482015260840161075d565b600580546001600160a01b0319166001600160a01b0383169081179091556040517f663a3795dae72ac547c8ad14f2e26841e13a309f9331ede150ba6bbabd29e8b490600090a250565b600a805461088990612da2565b80601f01602080910402602001604051908101604052809291908181526020018280546108b590612da2565b80156109025780601f106108d757610100808354040283529160200191610902565b820191906000526020600020905b8154815290600101906020018083116108e557829003601f168201915b505050505081565b61091261109a565b61091a6110e7565b6109246000611140565b60006109718b8b8b8b8b8080601f0160208091040260200160405190810160405280939291908181526020018383808284376000920191909152508d92508c91506106a390508a8c612fa1565b90508a6001600160a01b0316897f1143d14cf0b7fdb46022761b1a9b421b27c63d51cbf67363a425c415b14a8ad3836040516109af91815260200190565b60405180910390a3506109c160018055565b50505050505050505050565b6109d56115c0565b6109dd611715565b565b6109e76115c0565b6107c383838361176a565b6109fa6115c0565b610a0482826118b7565b5050565b600b805461088990612da2565b610a1d6115c0565b6001600160a01b038116610a7f5760405162461bcd60e51b8152602060048201526024808201527f496e76616c6964206164647265737320666f7220636861726765645061727469604482015263636c657360e01b606482015260840161075d565b600680546001600160a01b0319166001600160a01b0383169081179091556040517f5ce0e6b7fd36339ee97339831b6c72694ecee88c62aab49919d9cabe0a732e4190600090a250565b610ad16115c0565b6109dd600061193d565b610ae36115c0565b60098190556040518181527fdb5aafdb29539329e37d4e3ee869bc4031941fd55a5dfc92824fbe34b204e30d9060200160405180910390a150565b610b266115c0565b6109dd61198d565b610b3661109a565b6005546001600160a01b03163314610b605760405162461bcd60e51b815260040161075d906130cd565b80600003610bd3576040516370a0823160e01b81523060048201526001600160a01b038316906370a0823190602401602060405180830381865afa158015610bac573d6000803e3d6000fd5b505050506040513d601f19601f82011682018060405250810190610bd09190613111565b90505b600654610beb9083906001600160a01b0316836119d0565b6006546003546040516305eef16560e11b81526001600160a01b0392831692630bdde2ca92610c2a929116908790600a908890889030906004016131ce565b6020604051808303816000875af1158015610c49573d6000803e3d6000fd5b505050506040513d601f19601f82011682018060405250810190610c6d9190613111565b50505050565b610c7b6115c0565b610c6d84848484611ad0565b610c8f6115c0565b6001600160a01b038116610ce55760405162461bcd60e51b815260206004820181905260248201527f496e76616c6964206164647265737320666f7220636861726765645374617465604482015260640161075d565b600780546001600160a01b0319166001600160a01b0383169081179091556040517f62ff39aed768a426c7582b6e1062ab2631df1869b2d574e36f8274d2e2b0ab8190600090a250565b610d376115c0565b6001600160a01b038116610d8d5760405162461bcd60e51b815260206004820152601a60248201527f496e76616c6964206164647265737320666f722070726f746f6e000000000000604482015260640161075d565b600380546001600160a01b0319166001600160a01b0383169081179091556040517fa3d7b0fff2d93a7ba440166a8f7eba4acfe6e000fe19b8218e64264d62ef272690600090a250565b610ddf61109a565b6005546001600160a01b03163314610e095760405162461bcd60e51b815260040161075d906130cd565b60065460405163a22cb46560e01b81526001600160a01b039182166004820152600160248201529083169063a22cb46590604401600060405180830381600087803b158015610e5757600080fd5b505af1158015610e6b573d6000803e3d6000fd5b5050600654600354604051630ffe55b360e21b81526001600160a01b039283169450633ff956cc9350610eb092909116908790600a9088908890600190600401613216565b6020604051808303816000875af1158015610ecf573d6000803e3d6000fd5b505050506040513d601f19601f82011682018060405250810190610c6d9190613266565b6000610efd61109a565b610f056110e7565b610f0e84611140565b610f208d8d8d8d8d8d8d8d8d8d611c3b565b6040805184815260208101869052919250339183917f95ffb382011ac522a14d92886627d820825a61f8168310c38c8507b1dedc5fac910160405180910390a3610f6960018055565b9c9b505050505050505050505050565b610f816115c0565b6001600160a01b038116610fd75760405162461bcd60e51b815260206004820152601c60248201527f496e76616c6964206164647265737320666f7220747265617375727900000000604482015260640161075d565b600880546001600160a01b0319166001600160a01b0383169081179091556040517febbf9e77f4905707c811ea2da45f04b959c1132fecd092aae1fe0dac5b176c3290600090a250565b6110296115c0565b6001600160a01b03811661108e5760405162461bcd60e51b815260206004820152602660248201527f4f776e61626c653a206e6577206f776e657220697320746865207a65726f206160448201526564647265737360d01b606482015260840161075d565b6110978161193d565b50565b600054600160a01b900460ff16156109dd5760405162461bcd60e51b815260206004820152601060248201526f14185d5cd8589b194e881c185d5cd95960821b604482015260640161075d565b6002600154036111395760405162461bcd60e51b815260206004820152601f60248201527f5265656e7472616e637947756172643a207265656e7472616e742063616c6c00604482015260640161075d565b6002600155565b600060095411801561115e57508060095461115b9190613299565b34105b156111905760095460405163562cac4d60e01b815234600482015260248101839052604481019190915260640161075d565b600061119c82346132ac565b6008546040519192506000916001600160a01b039091169083908381818185875af1925050503d80600081146111ee576040519150601f19603f3d011682016040523d82523d6000602084013e6111f3565b606091505b50509050806107c35760405162461bcd60e51b815260206004820152601f60248201527f4661696c656420746f2073656e64206665657320746f20547265617375727900604482015260640161075d565b6040516331a9108f60e11b81526004810187905260009081906001600160a01b038a1690636352211e90602401602060405180830381865afa15801561128e573d6000803e3d6000fd5b505050506040513d601f19601f820116820180604052508101906112b291906132ca565b9050336001600160a01b038216146112dd57604051636d8a29e760e11b815260040160405180910390fd5b6000836112ea578a6112f7565b6005546001600160a01b03165b905060005b86811015611512576002546001600160a01b0316888883818110611322576113226132e7565b905060200281019061133491906132fd565b61134590606081019060400161293a565b6001600160a01b031614611402576006546001600160a01b031663acab923c838d8d8d8d8d8881811061137a5761137a6132e7565b905060200281019061138c91906132fd565b61139d90606081019060400161293a565b6040518663ffffffff1660e01b81526004016113bd95949392919061331e565b60408051808303816000875af11580156113db573d6000803e3d6000fd5b505050506040513d601f19601f820116820180604052508101906113ff9190613363565b50505b6002546001600160a01b0316888883818110611420576114206132e7565b905060200281019061143291906132fd565b61144390608081019060600161293a565b6001600160a01b031614611500576006546001600160a01b031663acab923c838d8d8d8d8d88818110611478576114786132e7565b905060200281019061148a91906132fd565b61149b90608081019060600161293a565b6040518663ffffffff1660e01b81526004016114bb95949392919061331e565b60408051808303816000875af11580156114d9573d6000803e3d6000fd5b505050506040513d601f19601f820116820180604052508101906114fd9190613363565b50505b8061150a81613387565b9150506112fc565b5061151f8b8a8787611ef7565b83156115b257600560009054906101000a90046001600160a01b03166001600160a01b03166345b315cf8888888f6040518563ffffffff1660e01b815260040161156c9493929190613747565b6020604051808303816000875af115801561158b573d6000803e3d6000fd5b505050506040513d601f19601f820116820180604052508101906115af9190613111565b92505b505098975050505050505050565b6000546001600160a01b031633146109dd5760405162461bcd60e51b815260206004820181905260248201527f4f776e61626c653a2063616c6c6572206973206e6f7420746865206f776e6572604482015260640161075d565b6001600160a01b0383166116405760405162461bcd60e51b815260040161075d906137d0565b6040516370a0823160e01b815230600482015281906001600160a01b038416906370a0823190602401602060405180830381865afa158015611686573d6000803e3d6000fd5b505050506040513d601f19601f820116820180604052508101906116aa9190613111565b106107c3576116c36001600160a01b0383168483612276565b816001600160a01b0316836001600160a01b03167f6c9d637297625e945b296ff73a71fcfbd0a9e062652b6491a921c4c60194176b8360405161170891815260200190565b60405180910390a3505050565b61171d6122c8565b6000805460ff60a01b191690557f5db9ee0a495bf2e6ff9c91a7834c1ba4fdd244a5e8aa4e537bd38aeae4b073aa335b6040516001600160a01b03909116815260200160405180910390a1565b6001600160a01b0383166117905760405162461bcd60e51b815260040161075d906137d0565b6040516331a9108f60e11b81526004810182905230906001600160a01b03841690636352211e90602401602060405180830381865afa1580156117d7573d6000803e3d6000fd5b505050506040513d601f19601f820116820180604052508101906117fb91906132ca565b6001600160a01b0316036107c3576040516323b872dd60e01b81523060048201526001600160a01b038481166024830152604482018390528316906323b872dd90606401600060405180830381600087803b15801561185957600080fd5b505af115801561186d573d6000803e3d6000fd5b5050505080826001600160a01b0316846001600160a01b03167ffefe036cac4ee3a4aca074a81cbcc4376e1484693289078dbec149c890101d5b60405160405180910390a4505050565b6001600160a01b0382166118dd5760405162461bcd60e51b815260040161075d906137d0565b804710610a04576118f76001600160a01b03831682612318565b816001600160a01b03167eddb683bb45cd5d0ad8a200c6fae7152b1c236ee90a4a37db692407f5cc38bd8260405161193191815260200190565b60405180910390a25050565b600080546001600160a01b038381166001600160a01b0319831681178455604051919092169283917f8be0079c531659141344cd1fd0a4f28419497f9722a3daafe3b4186f6b6457e09190a35050565b61199561109a565b6000805460ff60a01b1916600160a01b1790557f62e78cea01bee320cd4e420270b5ea74000d11b0c9f74754ebdbfc544b05a25861174d3390565b604080516001600160a01b038481166024830152604480830185905283518084039091018152606490920183526020820180516001600160e01b031663095ea7b360e01b1790529151600092839290871691611a2c91906137f3565b6000604051808303816000865af19150503d8060008114611a69576040519150601f19603f3d011682016040523d82523d6000602084013e611a6e565b606091505b5091509150818015611a98575080511580611a98575080806020019051810190611a989190613266565b611ac95760405162461bcd60e51b8152602060048201526002602482015261534160f01b604482015260640161075d565b5050505050565b6001600160a01b038416611af65760405162461bcd60e51b815260040161075d906137d0565b604051627eeac760e11b81523060048201526024810183905281906001600160a01b0385169062fdd58e90604401602060405180830381865afa158015611b41573d6000803e3d6000fd5b505050506040513d601f19601f82011682018060405250810190611b659190613111565b10610c6d57604051637921219560e11b81523060048201526001600160a01b038581166024830152604482018490526064820183905260a06084830152600060a483015284169063f242432a9060c401600060405180830381600087803b158015611bcf57600080fd5b505af1158015611be3573d6000803e3d6000fd5b5050505081836001600160a01b0316856001600160a01b03167f620337bf89eea2b9ae2657beead83b5fa620452817118348aff96e201d52598b84604051611c2d91815260200190565b60405180910390a450505050565b6000611c7c8b8b8080601f01602080910402602001604051908101604052809392919081815260200183838082843760009201919091525061243192505050565b6005546040519192506000916001600160a01b039091169084908381818185875af1925050503d8060008114611cce576040519150601f19603f3d011682016040523d82523d6000602084013e611cd3565b606091505b5050905080611d345760405162461bcd60e51b815260206004820152602760248201527f4661696c656420746f2073656e64206665657320746f2045786368616e67652060448201526626b0b730b3b2b960c91b606482015260840161075d565b600554604051634deae21d60e11b81526001600160a01b0390911690639bd5c43a90611d66908d908d90600401613805565b600060405180830381600087803b158015611d8057600080fd5b505af1158015611d94573d6000803e3d6000fd5b5050600554604051635b54e5bf60e11b81526001600160a01b03909116925063b6a9cb7e9150611dcc908b908b9087906004016138b0565b600060405180830381600087803b158015611de657600080fd5b505af1158015611dfa573d6000803e3d6000fd5b505060055460405163684433fb60e01b81526001600160a01b03909116925063684433fb9150611e32908990899087906004016138ee565b600060405180830381600087803b158015611e4c57600080fd5b505af1158015611e60573d6000803e3d6000fd5b50505050611e6e84836124af565b6003546001600160a01b03166342842e0e30336040516001600160e01b031960e085901b1681526001600160a01b0392831660048201529116602482015260448101859052606401600060405180830381600087803b158015611ed057600080fd5b505af1158015611ee4573d6000803e3d6000fd5b50505050509a9950505050505050505050565b60048054604051630c71c67f60e41b81529182018590526000916001600160a01b039091169063c71c67f0906024016000604051808303816000875af1158015611f45573d6000803e3d6000fd5b505050506040513d6000823e601f3d908101601f19168201604052611f6d9190810190613a4a565b905060005b815181101561226e576000828281518110611f8f57611f8f6132e7565b602002602001015190506000858381518110611fad57611fad6132e7565b6020026020010151905060008580611fc657508160c001515b611fd05788611fdd565b6005546001600160a01b03165b60055460405163549dea8960e11b815291925060009182916001600160a01b03169063a93bd51290612013908890600401613c3d565b60408051808303816000875af1158015612031573d6000803e3d6000fd5b505050506040513d601f19601f820116820180604052508101906120559190613c4c565b909250905080156120eb5760065460035460405162fe02fb60e81b81526001600160a01b039283169263fe02fb00926120a2928892909116908f90600b9089908990600190600401613c7a565b6020604051808303816000875af11580156120c1573d6000803e3d6000fd5b505050506040513d601f19601f820116820180604052508101906120e59190613266565b5061216e565b600654600354604051632b2ae48f60e21b81526001600160a01b039283169263acab923c92612129928892909116908f90600b908990600401613cc8565b60408051808303816000875af1158015612147573d6000803e3d6000fd5b505050506040513d601f19601f8201168201806040525081019061216b9190613363565b50505b878061217b57508360c001515b156121fa57600560009054906101000a90046001600160a01b03166001600160a01b0316633bffd3b886868e8c6040518563ffffffff1660e01b81526004016121c79493929190613cf8565b600060405180830381600087803b1580156121e157600080fd5b505af11580156121f5573d6000803e3d6000fd5b505050505b6004805460405163ed00ebf560e01b81529182018c90526001600160a01b03169063ed00ebf590602401600060405180830381600087803b15801561223e57600080fd5b505af1158015612252573d6000803e3d6000fd5b505050505050505050808061226690613387565b915050611f72565b505050505050565b604080516001600160a01b038416602482015260448082018490528251808303909101815260649091019091526020810180516001600160e01b031663a9059cbb60e01b1790526107c390849061259e565b600054600160a01b900460ff166109dd5760405162461bcd60e51b815260206004820152601460248201527314185d5cd8589b194e881b9bdd081c185d5cd95960621b604482015260640161075d565b804710156123685760405162461bcd60e51b815260206004820152601d60248201527f416464726573733a20696e73756666696369656e742062616c616e6365000000604482015260640161075d565b6000826001600160a01b03168260405160006040518083038185875af1925050503d80600081146123b5576040519150601f19603f3d011682016040523d82523d6000602084013e6123ba565b606091505b50509050806107c35760405162461bcd60e51b815260206004820152603a60248201527f416464726573733a20756e61626c6520746f2073656e642076616c75652c207260448201527f6563697069656e74206d61792068617665207265766572746564000000000000606482015260840161075d565b600354604051632c0cd5a360e01b81526000916001600160a01b031690632c0cd5a39061246690309081908790600401613d3e565b6020604051808303816000875af1158015612485573d6000803e3d6000fd5b505050506040513d601f19601f820116820180604052508101906124a99190613111565b92915050565b8135156125265760075460035460405163048001e960e11b81526001600160a01b039182166004820152602481018490528435604482015291169063090003d290606401600060405180830381600087803b15801561250d57600080fd5b505af1158015612521573d6000803e3d6000fd5b505050505b602082013515610a0457600754600354604051639079900160e01b81526001600160a01b0391821660048201526024810184905260208501356044820152911690639079900190606401600060405180830381600087803b15801561258a57600080fd5b505af115801561226e573d6000803e3d6000fd5b60006125f3826040518060400160405280602081526020017f5361666545524332303a206c6f772d6c6576656c2063616c6c206661696c6564815250856001600160a01b03166126709092919063ffffffff16565b8051909150156107c357808060200190518101906126119190613266565b6107c35760405162461bcd60e51b815260206004820152602a60248201527f5361666545524332303a204552433230206f7065726174696f6e20646964206e6044820152691bdd081cdd58d8d9595960b21b606482015260840161075d565b606061267f8484600085612687565b949350505050565b6060824710156126e85760405162461bcd60e51b815260206004820152602660248201527f416464726573733a20696e73756666696369656e742062616c616e636520666f6044820152651c8818d85b1b60d21b606482015260840161075d565b600080866001600160a01b0316858760405161270491906137f3565b60006040518083038185875af1925050503d8060008114612741576040519150601f19603f3d011682016040523d82523d6000602084013e612746565b606091505b509150915061275787838387612762565b979650505050505050565b606083156127d15782516000036127ca576001600160a01b0385163b6127ca5760405162461bcd60e51b815260206004820152601d60248201527f416464726573733a2063616c6c20746f206e6f6e2d636f6e7472616374000000604482015260640161075d565b508161267f565b61267f83838151156127e65781518083602001fd5b8060405162461bcd60e51b815260040161075d9190612aa2565b6001600160a01b038116811461109757600080fd5b803561282081612800565b919050565b60008083601f84011261283757600080fd5b5081356001600160401b0381111561284e57600080fd5b6020830191508360208260051b850101111561286957600080fd5b9250929050565b801515811461109757600080fd5b803561282081612870565b60008060008060008060008060c0898b0312156128a557600080fd5b88356128b081612800565b975060208901356128c081612800565b96506040890135955060608901356001600160401b03808211156128e357600080fd5b6128ef8c838d01612825565b909750955060808b013591508082111561290857600080fd5b506129158b828c01612825565b90945092505060a089013561292981612870565b809150509295985092959890939650565b60006020828403121561294c57600080fd5b813561295781612800565b9392505050565b60008083601f84011261297057600080fd5b5081356001600160401b0381111561298757600080fd5b60208301915083602082850101111561286957600080fd5b6000806000806000608086880312156129b757600080fd5b85356129c281612800565b945060208601356129d281612800565b93506040860135925060608601356001600160401b038111156129f457600080fd5b612a008882890161295e565b969995985093965092949392505050565b600080600060608486031215612a2657600080fd5b8335612a3181612800565b92506020840135612a4181612800565b929592945050506040919091013590565b60005b83811015612a6d578181015183820152602001612a55565b50506000910152565b60008151808452612a8e816020860160208601612a52565b601f01601f19169290920160200192915050565b6020815260006129576020830184612a76565b60008060008060008060008060008060e08b8d031215612ad457600080fd5b8a35612adf81612800565b995060208b0135612aef81612800565b985060408b0135975060608b01356001600160401b0380821115612b1257600080fd5b612b1e8e838f0161295e565b909950975060808d0135915080821115612b3757600080fd5b612b438e838f01612825565b909750955060a08d0135915080821115612b5c57600080fd5b50612b698d828e01612825565b9094509250612b7c905060c08c0161287e565b90509295989b9194979a5092959850565b60008060408385031215612ba057600080fd5b8235612bab81612800565b946020939093013593505050565b600060208284031215612bcb57600080fd5b5035919050565b600080600060608486031215612be757600080fd5b833592506020840135612a4181612800565b60008060008060808587031215612c0f57600080fd5b8435612c1a81612800565b93506020850135612c2a81612800565b93969395505050506040820135916060013590565b60008083601f840112612c5157600080fd5b5081356001600160401b03811115612c6857600080fd5b6020830191508360206101c08302850101111561286957600080fd5b600060408284031215612c9657600080fd5b50919050565b6000806000806000806000806000806000806101208d8f031215612cbf57600080fd5b6001600160401b038d351115612cd457600080fd5b612ce18e8e358f0161295e565b909c509a506001600160401b0360208e01351115612cfe57600080fd5b612d0e8e60208f01358f01612825565b909a5098506001600160401b0360408e01351115612d2b57600080fd5b612d3b8e60408f01358f01612825565b90985096506001600160401b0360608e01351115612d5857600080fd5b612d688e60608f01358f01612c3f565b9096509450612d7a8e60808f01612c84565b935060c08d0135925060e08d013591506101008d013590509295989b509295989b509295989b565b600181811c90821680612db657607f821691505b602082108103612c9657634e487b7160e01b600052602260045260246000fd5b634e487b7160e01b600052604160045260246000fd5b604080519081016001600160401b0381118282101715612e0e57612e0e612dd6565b60405290565b60405161012081016001600160401b0381118282101715612e0e57612e0e612dd6565b60405161014081016001600160401b0381118282101715612e0e57612e0e612dd6565b604051601f8201601f191681016001600160401b0381118282101715612e8257612e82612dd6565b604052919050565b60006001600160401b03821115612ea357612ea3612dd6565b5060051b60200190565b600060408284031215612ebf57600080fd5b612ec7612dec565b90508135612ed481612800565b808252506020820135602082015292915050565b6005811061109757600080fd5b803561282081612ee8565b600082601f830112612f1157600080fd5b81356020612f26612f2183612e8a565b612e5a565b82815260069290921b84018101918181019086841115612f4557600080fd5b8286015b84811015612f965760408189031215612f625760008081fd5b612f6a612dec565b8135612f7581612800565b815281850135612f8481612800565b81860152835291830191604001612f49565b509695505050505050565b6000612faf612f2184612e8a565b80848252602080830192508560051b850136811115612fcd57600080fd5b855b818110156130c15780356001600160401b0380821115612fef5760008081fd5b818901915061016082360312156130065760008081fd5b61300e612e14565b6130183684612ead565b8152604061302836828601612ead565b878301526080808501358284015260a0915081850135606084015260c0613050818701612815565b8285015260e09150613063828701612ef5565b83850152610100925061307783870161287e565b908401526101208501358481111561308f5760008081fd5b61309b36828801612f00565b8285015250506130ae610140850161287e565b9082015287525050938201938201612fcf565b50919695505050505050565b60208082526024908201527f576562335061636b73202d20496e76616c69642045786368616e6765204d616e60408201526330b3b2b960e11b606082015260800190565b60006020828403121561312357600080fd5b5051919050565b8054600090600181811c908083168061314457607f831692505b6020808410820361316557634e487b7160e01b600052602260045260246000fd5b838852602088018280156131805760018114613196576131c1565b60ff198716825285151560051b820197506131c1565b60008981526020902060005b878110156131bb578154848201529086019084016131a2565b83019850505b5050505050505092915050565b600060018060a01b03808916835287602084015260c060408401526131f660c084018861312a565b9581166060840152608083019490945250911660a0909101529392505050565b600060018060a01b03808916835287602084015260c0604084015261323e60c084018861312a565b9516606083015250608081019290925260a0909101529392505050565b805161282081612870565b60006020828403121561327857600080fd5b815161295781612870565b634e487b7160e01b600052601160045260246000fd5b808201808211156124a9576124a9613283565b818103818111156124a9576124a9613283565b805161282081612800565b6000602082840312156132dc57600080fd5b815161295781612800565b634e487b7160e01b600052603260045260246000fd5b6000823561017e1983360301811261331457600080fd5b9190910192915050565b600060018060a01b038088168352808716602084015285604084015260a0606084015261334e60a0840186612a76565b91508084166080840152509695505050505050565b6000806040838503121561337657600080fd5b505080516020909101519092909150565b60006001820161339957613399613283565b5060010190565b6000808335601e198436030181126133b757600080fd5b83016020810192503590506001600160401b038111156133d657600080fd5b80360382131561286957600080fd5b81835281816020850137506000828201602090810191909152601f909101601f19169091010190565b6000808335601e1984360301811261342557600080fd5b83016020810192503590506001600160401b0381111561344457600080fd5b8060061b360382131561286957600080fd5b8183526000602080850194508260005b858110156134ac57813561347981612800565b6001600160a01b039081168852828401359061349482612800565b16878401526040968701969190910190600101613466565b509495945050505050565b600581106134d557634e487b7160e01b600052602160045260246000fd5b9052565b60008383855260208086019550808560051b830101846000805b8881101561362557858403601f19018a5282353689900361017e19018112613519578283fd5b880161018061352882806133a0565b82885261353883890182846133e5565b92505050613547878301612815565b6001600160a01b0316878701526040613561838201612815565b6001600160a01b031690870152606061357b838201612815565b6001600160a01b0316908701526080828101359087015260a0808301359087015260c0808301359087015260e0808301359087015261010080830135908701526101206135c981840161287e565b1515908701526101406135de8382018461340e565b888403838a01526135f0848284613456565b9350505050610160613603818401612ef5565b9250613611818801846134b7565b509a86019a945050918401916001016134f3565b509198975050505050505050565b600081518084526020808501945080840160005b838110156134ac57815180516001600160a01b03908116895290840151168388015260409096019590820190600101613647565b600061016061369e84845180516001600160a01b03168252602090810151910152565b60208381015180516001600160a01b031660408701529081015160608601525060408301516080850152606083015160a085015260808301516136ec60c08601826001600160a01b03169052565b5060a08301516136ff60e08601826134b7565b5060c08301516101006137158187018315159052565b60e085015191508261012087015261372f83870183613633565b94015115156101409590950194909452509092915050565b60608152600061375b6060830186886134d9565b6020838203818501528186518084528284019150828160051b85010183890160005b838110156137ab57601f1987840301855261379983835161367b565b9486019492509085019060010161377d565b50506001600160a01b0397909716604096909601959095525093979650505050505050565b6020808252600990820152684248503a452d34303360b81b604082015260600190565b60008251613314818460208701612a52565b60208082528181018390526000906040808401600586901b850182018785805b898110156138a157888403603f190185528235368c9003605e1901811261384a578283fd5b8b01606061385882806133a0565b82885261386883890182846133e5565b925050508882013561387981612800565b6001600160a01b0316868a015290870135948701949094529386019391860191600101613825565b50919998505050505050505050565b6040815260006138c46040830185876134d9565b9050826020830152949350505050565b8060020b811461109757600080fd5b8035612820816138d4565b6040808252818101849052600090606080840187845b88811015613a1e576139268361391984612815565b6001600160a01b03169052565b6020613933818401612815565b6001600160a01b03169084015261394b828601612815565b6001600160a01b03168584015283820135848401526080808301359084015260a0808301359084015260c0808301359084015260e0808301359084015261010080830135908401526101206139a18184016138e3565b6139af8286018260020b9052565b50506101406139bf8184016138e3565b6139cd8286018260020b9052565b50506101606139dd81840161287e565b15159084015261018082810135908401526101a06139fc818401612ef5565b613a08828601826134b7565b50506101c0928301929190910190600101613904565b5050809350505050826020830152949350505050565b8051612820816138d4565b805161282081612ee8565b60006020808385031215613a5d57600080fd5b82516001600160401b03811115613a7357600080fd5b8301601f81018513613a8457600080fd5b8051613a92612f2182612e8a565b8181526101409182028301840191848201919088841115613ab257600080fd5b938501935b83851015613b755780858a031215613acf5760008081fd5b613ad7612e37565b8551815286860151878201526040613af081880161325b565b908201526060613b018782016132bf565b908201526080613b128782016132bf565b9082015260a0613b23878201613a34565b9082015260c0613b34878201613a34565b9082015260e08681015190820152610100613b508188016132bf565b90820152610120613b62878201613a3f565b9082015283529384019391850191613ab7565b50979650505050505050565b80518252602081015160208301526040810151613ba2604084018215159052565b506060810151613bbd60608401826001600160a01b03169052565b506080810151613bd860808401826001600160a01b03169052565b5060a0810151613bed60a084018260020b9052565b5060c0810151613c0260c084018260020b9052565b5060e081015160e083015261010080820151613c28828501826001600160a01b03169052565b505061012080820151610c6d828501826134b7565b61014081016124a98284613b81565b60008060408385031215613c5f57600080fd5b8251613c6a81612800565b6020939093015192949293505050565b600060018060a01b03808a168352808916602084015287604084015260e06060840152613caa60e084018861312a565b951660808301525060a081019290925260c090910152949350505050565b600060018060a01b038088168352808716602084015285604084015260a0606084015261334e60a084018661312a565b60006101a0613d078388613b81565b80610140840152613d1a8184018761367b565b6001600160a01b039590951661016084015250509015156101809091015292915050565b6001600160a01b03848116825283166020820152606060408201819052600090613d6a90830184612a76565b9594505050505056fea26469706673582212203fb4dd49ce947a70bd66dc98e1f8af3b1160824f658066c9e7825cc1a19974c364736f6c63430008110033",
  "devdoc": {
    "kind": "dev",
    "methods": {
      "owner()": {
        "details": "Returns the address of the current owner."
      },
      "paused()": {
        "details": "Returns true if the contract is paused, and false otherwise."
      },
      "renounceOwnership()": {
        "details": "Leaves the contract without owner. It will not be possible to call `onlyOwner` functions anymore. Can only be called by the current owner. NOTE: Renouncing ownership will leave the contract without an owner, thereby removing any functionality that is only available to the owner."
      },
      "setChargedParticles(address)": {
        "details": "Setup the ChargedParticles Interface"
      },
      "transferOwnership(address)": {
        "details": "Transfers ownership of the contract to a new account (`newOwner`). Can only be called by the current owner."
      }
    },
    "version": 1
  },
  "userdoc": {
    "kind": "user",
    "methods": {},
    "version": 1
  },
  "storageLayout": {
    "storage": [
      {
        "astId": 7,
        "contract": "contracts/Web3PacksMode.sol:Web3PacksMode",
        "label": "_owner",
        "offset": 0,
        "slot": "0",
        "type": "t_address"
      },
      {
        "astId": 130,
        "contract": "contracts/Web3PacksMode.sol:Web3PacksMode",
        "label": "_paused",
        "offset": 20,
        "slot": "0",
        "type": "t_bool"
      },
      {
        "astId": 231,
        "contract": "contracts/Web3PacksMode.sol:Web3PacksMode",
        "label": "_status",
        "offset": 0,
        "slot": "1",
        "type": "t_uint256"
      },
      {
        "astId": 3619,
        "contract": "contracts/Web3PacksMode.sol:Web3PacksMode",
        "label": "_weth",
        "offset": 0,
        "slot": "2",
        "type": "t_address"
      },
      {
        "astId": 3621,
        "contract": "contracts/Web3PacksMode.sol:Web3PacksMode",
        "label": "_proton",
        "offset": 0,
        "slot": "3",
        "type": "t_address"
      },
      {
        "astId": 3623,
        "contract": "contracts/Web3PacksMode.sol:Web3PacksMode",
        "label": "_web3PacksManager",
        "offset": 0,
        "slot": "4",
        "type": "t_address"
      },
      {
        "astId": 3625,
        "contract": "contracts/Web3PacksMode.sol:Web3PacksMode",
        "label": "_web3PacksExchangeManager",
        "offset": 0,
        "slot": "5",
        "type": "t_address"
      },
      {
        "astId": 3627,
        "contract": "contracts/Web3PacksMode.sol:Web3PacksMode",
        "label": "_chargedParticles",
        "offset": 0,
        "slot": "6",
        "type": "t_address"
      },
      {
        "astId": 3629,
        "contract": "contracts/Web3PacksMode.sol:Web3PacksMode",
        "label": "_chargedState",
        "offset": 0,
        "slot": "7",
        "type": "t_address"
      },
      {
        "astId": 3631,
        "contract": "contracts/Web3PacksMode.sol:Web3PacksMode",
        "label": "_treasury",
        "offset": 0,
        "slot": "8",
        "type": "t_address_payable"
      },
      {
        "astId": 3633,
        "contract": "contracts/Web3PacksMode.sol:Web3PacksMode",
        "label": "_protocolFee",
        "offset": 0,
        "slot": "9",
        "type": "t_uint256"
      },
      {
        "astId": 3636,
        "contract": "contracts/Web3PacksMode.sol:Web3PacksMode",
        "label": "_cpWalletManager",
        "offset": 0,
        "slot": "10",
        "type": "t_string_storage"
      },
      {
        "astId": 3639,
        "contract": "contracts/Web3PacksMode.sol:Web3PacksMode",
        "label": "_cpBasketManager",
        "offset": 0,
        "slot": "11",
        "type": "t_string_storage"
      }
    ],
    "types": {
      "t_address": {
        "encoding": "inplace",
        "label": "address",
        "numberOfBytes": "20"
      },
      "t_address_payable": {
        "encoding": "inplace",
        "label": "address payable",
        "numberOfBytes": "20"
      },
      "t_bool": {
        "encoding": "inplace",
        "label": "bool",
        "numberOfBytes": "1"
      },
      "t_string_storage": {
        "encoding": "bytes",
        "label": "string",
        "numberOfBytes": "32"
      },
      "t_uint256": {
        "encoding": "inplace",
        "label": "uint256",
        "numberOfBytes": "32"
      }
    }
  }
}