{
  "address": "0x750663B16Bd6404D06Ddc21Ea9A2A0148Ac968B6",
  "abi": [
    {
      "inputs": [
        {
          "internalType": "address",
          "name": "weth",
          "type": "address"
        },
        {
          "internalType": "address",
          "name": "proton",
          "type": "address"
        },
        {
          "internalType": "address",
          "name": "chargedParticles",
          "type": "address"
        },
        {
          "internalType": "address",
          "name": "chargedState",
          "type": "address"
        }
      ],
      "stateMutability": "nonpayable",
      "type": "constructor"
    },
    {
      "inputs": [],
      "name": "ContractNotAllowed",
      "type": "error"
    },
    {
      "inputs": [],
      "name": "FundingFailed",
      "type": "error"
    },
    {
      "inputs": [
        {
          "internalType": "uint256",
          "name": "value",
          "type": "uint256"
        },
        {
          "internalType": "uint256",
          "name": "ethPackPrice",
          "type": "uint256"
        },
        {
          "internalType": "uint256",
          "name": "protocolFee",
          "type": "uint256"
        }
      ],
      "name": "InsufficientForFee",
      "type": "error"
    },
    {
      "inputs": [],
      "name": "MismatchedTokens",
      "type": "error"
    },
    {
      "inputs": [
        {
          "internalType": "address",
          "name": "tokenAddress",
          "type": "address"
        }
      ],
      "name": "MissingLiquidityUUID",
      "type": "error"
    },
    {
      "inputs": [],
      "name": "NativeAssetTransferFailed",
      "type": "error"
    },
    {
      "inputs": [],
      "name": "NotOwnerOrApproved",
      "type": "error"
    },
    {
      "inputs": [],
      "name": "NullReceiver",
      "type": "error"
    },
    {
      "inputs": [
        {
          "internalType": "address",
          "name": "tokenOut",
          "type": "address"
        },
        {
          "internalType": "uint256",
          "name": "amountIn",
          "type": "uint256"
        },
        {
          "internalType": "address",
          "name": "router",
          "type": "address"
        }
      ],
      "name": "UnsucessfulSwap",
      "type": "error"
    },
    {
      "anonymous": false,
      "inputs": [
        {
          "indexed": true,
          "internalType": "address",
          "name": "chargedParticles",
          "type": "address"
        }
      ],
      "name": "ChargedParticlesSet",
      "type": "event"
    },
    {
      "anonymous": false,
      "inputs": [
        {
          "indexed": true,
          "internalType": "address",
          "name": "chargedState",
          "type": "address"
        }
      ],
      "name": "ChargedStateSet",
      "type": "event"
    },
    {
      "anonymous": false,
      "inputs": [
        {
          "indexed": true,
          "internalType": "address",
          "name": "previousOwner",
          "type": "address"
        },
        {
          "indexed": true,
          "internalType": "address",
          "name": "newOwner",
          "type": "address"
        }
      ],
      "name": "OwnershipTransferred",
      "type": "event"
    },
    {
      "anonymous": false,
      "inputs": [
        {
          "indexed": true,
          "internalType": "uint256",
          "name": "tokenId",
          "type": "uint256"
        },
        {
          "indexed": true,
          "internalType": "address",
          "name": "receiver",
          "type": "address"
        },
        {
          "indexed": false,
          "internalType": "bytes32",
          "name": "packType",
          "type": "bytes32"
        },
        {
          "indexed": false,
          "internalType": "bytes32",
          "name": "usdPackPrice",
          "type": "bytes32"
        }
      ],
      "name": "PackBundled",
      "type": "event"
    },
    {
      "anonymous": false,
      "inputs": [
        {
          "indexed": true,
          "internalType": "uint256",
          "name": "tokenId",
          "type": "uint256"
        },
        {
          "indexed": true,
          "internalType": "address",
          "name": "receiver",
          "type": "address"
        },
        {
          "indexed": false,
          "internalType": "uint256",
          "name": "ethAmount",
          "type": "uint256"
        }
      ],
      "name": "PackUnbundled",
      "type": "event"
    },
    {
      "anonymous": false,
      "inputs": [
        {
          "indexed": false,
          "internalType": "address",
          "name": "account",
          "type": "address"
        }
      ],
      "name": "Paused",
      "type": "event"
    },
    {
      "anonymous": false,
      "inputs": [
        {
          "indexed": false,
          "internalType": "uint256",
          "name": "fee",
          "type": "uint256"
        }
      ],
      "name": "ProtocolFeeSet",
      "type": "event"
    },
    {
      "anonymous": false,
      "inputs": [
        {
          "indexed": true,
          "internalType": "address",
          "name": "proton",
          "type": "address"
        }
      ],
      "name": "ProtonSet",
      "type": "event"
    },
    {
      "anonymous": false,
      "inputs": [
        {
          "indexed": true,
          "internalType": "address",
          "name": "router",
          "type": "address"
        }
      ],
      "name": "RouterSet",
      "type": "event"
    },
    {
      "anonymous": false,
      "inputs": [
        {
          "indexed": false,
          "internalType": "address",
          "name": "account",
          "type": "address"
        }
      ],
      "name": "Unpaused",
      "type": "event"
    },
    {
      "anonymous": false,
      "inputs": [
        {
          "indexed": true,
          "internalType": "address",
          "name": "manager",
          "type": "address"
        }
      ],
      "name": "Web3PacksExchangeManagerSet",
      "type": "event"
    },
    {
      "anonymous": false,
      "inputs": [
        {
          "indexed": true,
          "internalType": "address",
          "name": "manager",
          "type": "address"
        }
      ],
      "name": "Web3PacksManagerSet",
      "type": "event"
    },
    {
      "anonymous": false,
      "inputs": [
        {
          "indexed": true,
          "internalType": "address",
          "name": "web3packs",
          "type": "address"
        }
      ],
      "name": "Web3PacksSet",
      "type": "event"
    },
    {
      "anonymous": false,
      "inputs": [
        {
          "indexed": true,
          "internalType": "address",
          "name": "treasury",
          "type": "address"
        }
      ],
      "name": "Web3PacksTreasurySet",
      "type": "event"
    },
    {
      "anonymous": false,
      "inputs": [
        {
          "indexed": true,
          "internalType": "address",
          "name": "receiver",
          "type": "address"
        },
        {
          "indexed": true,
          "internalType": "address",
          "name": "tokenAddress",
          "type": "address"
        },
        {
          "indexed": true,
          "internalType": "uint256",
          "name": "tokenId",
          "type": "uint256"
        },
        {
          "indexed": false,
          "internalType": "uint256",
          "name": "amount",
          "type": "uint256"
        }
      ],
      "name": "WithdrawStuckERC1155",
      "type": "event"
    },
    {
      "anonymous": false,
      "inputs": [
        {
          "indexed": true,
          "internalType": "address",
          "name": "receiver",
          "type": "address"
        },
        {
          "indexed": true,
          "internalType": "address",
          "name": "tokenAddress",
          "type": "address"
        },
        {
          "indexed": false,
          "internalType": "uint256",
          "name": "amount",
          "type": "uint256"
        }
      ],
      "name": "WithdrawStuckERC20",
      "type": "event"
    },
    {
      "anonymous": false,
      "inputs": [
        {
          "indexed": true,
          "internalType": "address",
          "name": "receiver",
          "type": "address"
        },
        {
          "indexed": true,
          "internalType": "address",
          "name": "tokenAddress",
          "type": "address"
        },
        {
          "indexed": true,
          "internalType": "uint256",
          "name": "tokenId",
          "type": "uint256"
        }
      ],
      "name": "WithdrawStuckERC721",
      "type": "event"
    },
    {
      "anonymous": false,
      "inputs": [
        {
          "indexed": true,
          "internalType": "address",
          "name": "receiver",
          "type": "address"
        },
        {
          "indexed": false,
          "internalType": "uint256",
          "name": "amount",
          "type": "uint256"
        }
      ],
      "name": "WithdrawStuckEther",
      "type": "event"
    },
    {
      "inputs": [],
      "name": "_chargedParticles",
      "outputs": [
        {
          "internalType": "address",
          "name": "",
          "type": "address"
        }
      ],
      "stateMutability": "view",
      "type": "function"
    },
    {
      "inputs": [],
      "name": "_chargedState",
      "outputs": [
        {
          "internalType": "address",
          "name": "",
          "type": "address"
        }
      ],
      "stateMutability": "view",
      "type": "function"
    },
    {
      "inputs": [],
      "name": "_cpBasketManager",
      "outputs": [
        {
          "internalType": "string",
          "name": "",
          "type": "string"
        }
      ],
      "stateMutability": "view",
      "type": "function"
    },
    {
      "inputs": [],
      "name": "_cpWalletManager",
      "outputs": [
        {
          "internalType": "string",
          "name": "",
          "type": "string"
        }
      ],
      "stateMutability": "view",
      "type": "function"
    },
    {
      "inputs": [],
      "name": "_protocolFee",
      "outputs": [
        {
          "internalType": "uint256",
          "name": "",
          "type": "uint256"
        }
      ],
      "stateMutability": "view",
      "type": "function"
    },
    {
      "inputs": [],
      "name": "_proton",
      "outputs": [
        {
          "internalType": "address",
          "name": "",
          "type": "address"
        }
      ],
      "stateMutability": "view",
      "type": "function"
    },
    {
      "inputs": [],
      "name": "_web3PacksExchangeManager",
      "outputs": [
        {
          "internalType": "address",
          "name": "",
          "type": "address"
        }
      ],
      "stateMutability": "view",
      "type": "function"
    },
    {
      "inputs": [],
      "name": "_web3PacksManager",
      "outputs": [
        {
          "internalType": "address",
          "name": "",
          "type": "address"
        }
      ],
      "stateMutability": "view",
      "type": "function"
    },
    {
      "inputs": [],
      "name": "_weth",
      "outputs": [
        {
          "internalType": "address",
          "name": "",
          "type": "address"
        }
      ],
      "stateMutability": "view",
      "type": "function"
    },
    {
      "inputs": [
        {
          "internalType": "uint256",
          "name": "tokenId",
          "type": "uint256"
        },
        {
          "internalType": "address",
          "name": "nftTokenAddress",
          "type": "address"
        },
        {
          "internalType": "uint256",
          "name": "mintedTokenId",
          "type": "uint256"
        }
      ],
      "name": "bond",
      "outputs": [],
      "stateMutability": "nonpayable",
      "type": "function"
    },
    {
      "inputs": [
        {
          "internalType": "string",
          "name": "tokenMetaUri",
          "type": "string"
        },
        {
          "components": [
            {
              "internalType": "bytes",
              "name": "callData",
              "type": "bytes"
            },
            {
              "internalType": "address",
              "name": "contractAddress",
              "type": "address"
            },
            {
              "internalType": "uint256",
              "name": "amountIn",
              "type": "uint256"
            }
          ],
          "internalType": "struct IWeb3PacksDefs.ContractCallGeneric[]",
          "name": "contractCalls",
          "type": "tuple[]"
        },
        {
          "components": [
            {
              "internalType": "bytes",
              "name": "callData",
              "type": "bytes"
            },
            {
              "internalType": "address",
              "name": "router",
              "type": "address"
            },
            {
              "internalType": "address",
              "name": "tokenIn",
              "type": "address"
            },
            {
              "internalType": "address",
              "name": "tokenOut",
              "type": "address"
            },
            {
              "internalType": "uint256",
              "name": "tokenAmountIn",
              "type": "uint256"
            },
            {
              "internalType": "uint256",
              "name": "tokenAmountOutMin",
              "type": "uint256"
            },
            {
              "internalType": "uint256",
              "name": "payableAmountIn",
              "type": "uint256"
            },
            {
              "internalType": "bytes32",
              "name": "liquidityUuid",
              "type": "bytes32"
            },
            {
              "internalType": "bytes32",
              "name": "poolId",
              "type": "bytes32"
            },
            {
              "internalType": "enum IWeb3PacksDefs.RouterType",
              "name": "routerType",
              "type": "uint8"
            }
          ],
          "internalType": "struct IWeb3PacksDefs.ERC20SwapOrderGeneric[]",
          "name": "erc20SwapOrders",
          "type": "tuple[]"
        },
        {
          "components": [
            {
              "internalType": "address",
              "name": "router",
              "type": "address"
            },
            {
              "internalType": "address",
              "name": "token0",
              "type": "address"
            },
            {
              "internalType": "address",
              "name": "token1",
              "type": "address"
            },
            {
              "internalType": "bytes32",
              "name": "liquidityUuidToken0",
              "type": "bytes32"
            },
            {
              "internalType": "bytes32",
              "name": "liquidityUuidToken1",
              "type": "bytes32"
            },
            {
              "internalType": "uint256",
              "name": "percentToken0",
              "type": "uint256"
            },
            {
              "internalType": "uint256",
              "name": "percentToken1",
              "type": "uint256"
            },
            {
              "internalType": "uint256",
              "name": "minimumLpTokens",
              "type": "uint256"
            },
            {
              "internalType": "uint256",
              "name": "slippage",
              "type": "uint256"
            },
            {
              "internalType": "int24",
              "name": "tickLower",
              "type": "int24"
            },
            {
              "internalType": "int24",
              "name": "tickUpper",
              "type": "int24"
            },
            {
              "internalType": "bool",
              "name": "stable",
              "type": "bool"
            },
            {
              "internalType": "bytes32",
              "name": "poolId",
              "type": "bytes32"
            },
            {
              "internalType": "enum IWeb3PacksDefs.RouterType",
              "name": "routerType",
              "type": "uint8"
            }
          ],
          "internalType": "struct IWeb3PacksDefs.LiquidityOrderGeneric[]",
          "name": "liquidityOrders",
          "type": "tuple[]"
        },
        {
          "components": [
            {
              "internalType": "uint256",
              "name": "ERC20Timelock",
              "type": "uint256"
            },
            {
              "internalType": "uint256",
              "name": "ERC721Timelock",
              "type": "uint256"
            }
          ],
          "internalType": "struct IWeb3PacksDefs.LockState",
          "name": "lockState",
          "type": "tuple"
        },
        {
          "internalType": "uint256",
          "name": "ethPackPrice",
          "type": "uint256"
        },
        {
          "internalType": "bytes32",
          "name": "usdPackPrice",
          "type": "bytes32"
        },
        {
          "internalType": "bytes32",
          "name": "packType",
          "type": "bytes32"
        }
      ],
      "name": "bundle",
      "outputs": [
        {
          "internalType": "uint256",
          "name": "tokenId",
          "type": "uint256"
        }
      ],
      "stateMutability": "payable",
      "type": "function"
    },
    {
      "inputs": [
        {
          "internalType": "uint256",
          "name": "tokenId",
          "type": "uint256"
        },
        {
          "internalType": "address",
          "name": "tokenAddress",
          "type": "address"
        },
        {
          "internalType": "uint256",
          "name": "tokenAmount",
          "type": "uint256"
        }
      ],
      "name": "energize",
      "outputs": [],
      "stateMutability": "nonpayable",
      "type": "function"
    },
    {
      "inputs": [
        {
          "internalType": "address",
          "name": "",
          "type": "address"
        },
        {
          "internalType": "address",
          "name": "",
          "type": "address"
        },
        {
          "internalType": "uint256",
          "name": "",
          "type": "uint256"
        },
        {
          "internalType": "bytes",
          "name": "",
          "type": "bytes"
        }
      ],
      "name": "onERC721Received",
      "outputs": [
        {
          "internalType": "bytes4",
          "name": "",
          "type": "bytes4"
        }
      ],
      "stateMutability": "pure",
      "type": "function"
    },
    {
      "inputs": [],
      "name": "owner",
      "outputs": [
        {
          "internalType": "address",
          "name": "",
          "type": "address"
        }
      ],
      "stateMutability": "view",
      "type": "function"
    },
    {
      "inputs": [],
      "name": "pause",
      "outputs": [],
      "stateMutability": "nonpayable",
      "type": "function"
    },
    {
      "inputs": [],
      "name": "paused",
      "outputs": [
        {
          "internalType": "bool",
          "name": "",
          "type": "bool"
        }
      ],
      "stateMutability": "view",
      "type": "function"
    },
    {
      "inputs": [],
      "name": "renounceOwnership",
      "outputs": [],
      "stateMutability": "nonpayable",
      "type": "function"
    },
    {
      "inputs": [
        {
          "internalType": "address",
          "name": "chargedParticles",
          "type": "address"
        }
      ],
      "name": "setChargedParticles",
      "outputs": [],
      "stateMutability": "nonpayable",
      "type": "function"
    },
    {
      "inputs": [
        {
          "internalType": "address",
          "name": "chargedState",
          "type": "address"
        }
      ],
      "name": "setChargedState",
      "outputs": [],
      "stateMutability": "nonpayable",
      "type": "function"
    },
    {
      "inputs": [
        {
          "internalType": "uint256",
          "name": "fee",
          "type": "uint256"
        }
      ],
      "name": "setProtocolFee",
      "outputs": [],
      "stateMutability": "nonpayable",
      "type": "function"
    },
    {
      "inputs": [
        {
          "internalType": "address",
          "name": "proton",
          "type": "address"
        }
      ],
      "name": "setProton",
      "outputs": [],
      "stateMutability": "nonpayable",
      "type": "function"
    },
    {
      "inputs": [
        {
          "internalType": "address payable",
          "name": "treasury",
          "type": "address"
        }
      ],
      "name": "setTreasury",
      "outputs": [],
      "stateMutability": "nonpayable",
      "type": "function"
    },
    {
      "inputs": [
        {
          "internalType": "address",
          "name": "manager",
          "type": "address"
        }
      ],
      "name": "setWeb3PacksExchangeManager",
      "outputs": [],
      "stateMutability": "nonpayable",
      "type": "function"
    },
    {
      "inputs": [
        {
          "internalType": "address",
          "name": "manager",
          "type": "address"
        }
      ],
      "name": "setWeb3PacksManager",
      "outputs": [],
      "stateMutability": "nonpayable",
      "type": "function"
    },
    {
      "inputs": [
        {
          "internalType": "address",
          "name": "newOwner",
          "type": "address"
        }
      ],
      "name": "transferOwnership",
      "outputs": [],
      "stateMutability": "nonpayable",
      "type": "function"
    },
    {
      "inputs": [
        {
          "internalType": "address",
          "name": "receiver",
          "type": "address"
        },
        {
          "internalType": "address",
          "name": "tokenAddress",
          "type": "address"
        },
        {
          "internalType": "uint256",
          "name": "tokenId",
          "type": "uint256"
        },
        {
          "components": [
            {
              "internalType": "bytes",
              "name": "callData",
              "type": "bytes"
            },
            {
              "internalType": "address",
              "name": "router",
              "type": "address"
            },
            {
              "internalType": "address",
              "name": "tokenIn",
              "type": "address"
            },
            {
              "internalType": "address",
              "name": "tokenOut",
              "type": "address"
            },
            {
              "internalType": "uint256",
              "name": "tokenAmountIn",
              "type": "uint256"
            },
            {
              "internalType": "uint256",
              "name": "tokenAmountOutMin",
              "type": "uint256"
            },
            {
              "internalType": "uint256",
              "name": "payableAmountIn",
              "type": "uint256"
            },
            {
              "internalType": "bytes32",
              "name": "liquidityUuid",
              "type": "bytes32"
            },
            {
              "internalType": "bytes32",
              "name": "poolId",
              "type": "bytes32"
            },
            {
              "internalType": "enum IWeb3PacksDefs.RouterType",
              "name": "routerType",
              "type": "uint8"
            }
          ],
          "internalType": "struct IWeb3PacksDefs.ERC20SwapOrderGeneric[]",
          "name": "erc20SwapOrders",
          "type": "tuple[]"
        },
        {
          "components": [
            {
              "components": [
                {
                  "internalType": "address",
                  "name": "token",
                  "type": "address"
                },
                {
                  "internalType": "uint256",
                  "name": "amount",
                  "type": "uint256"
                }
              ],
              "internalType": "struct IWeb3PacksDefs.TokenAmount",
              "name": "token0",
              "type": "tuple"
            },
            {
              "components": [
                {
                  "internalType": "address",
                  "name": "token",
                  "type": "address"
                },
                {
                  "internalType": "uint256",
                  "name": "amount",
                  "type": "uint256"
                }
              ],
              "internalType": "struct IWeb3PacksDefs.TokenAmount",
              "name": "token1",
              "type": "tuple"
            },
            {
              "internalType": "uint256",
              "name": "slippage",
              "type": "uint256"
            },
            {
              "internalType": "bytes32",
              "name": "poolId",
              "type": "bytes32"
            },
            {
              "internalType": "address",
              "name": "router",
              "type": "address"
            },
            {
              "internalType": "enum IWeb3PacksDefs.RouterType",
              "name": "routerType",
              "type": "uint8"
            },
            {
              "internalType": "bool",
              "name": "exitLpOnUnbundle",
              "type": "bool"
            },
            {
              "internalType": "bool",
              "name": "stable",
              "type": "bool"
            }
          ],
          "internalType": "struct IWeb3PacksDefs.LiquidityPairs[]",
          "name": "liquidityPairs",
          "type": "tuple[]"
        },
        {
          "internalType": "bool",
          "name": "sellAll",
          "type": "bool"
        }
      ],
      "name": "unbundle",
      "outputs": [],
      "stateMutability": "payable",
      "type": "function"
    },
    {
      "inputs": [
        {
          "internalType": "address",
          "name": "receiver",
          "type": "address"
        },
        {
          "internalType": "address",
          "name": "tokenAddress",
          "type": "address"
        },
        {
          "internalType": "uint256",
          "name": "tokenId",
          "type": "uint256"
        },
        {
          "internalType": "string",
          "name": "walletManager",
          "type": "string"
        },
        {
          "components": [
            {
              "internalType": "bytes",
              "name": "callData",
              "type": "bytes"
            },
            {
              "internalType": "address",
              "name": "router",
              "type": "address"
            },
            {
              "internalType": "address",
              "name": "tokenIn",
              "type": "address"
            },
            {
              "internalType": "address",
              "name": "tokenOut",
              "type": "address"
            },
            {
              "internalType": "uint256",
              "name": "tokenAmountIn",
              "type": "uint256"
            },
            {
              "internalType": "uint256",
              "name": "tokenAmountOutMin",
              "type": "uint256"
            },
            {
              "internalType": "uint256",
              "name": "payableAmountIn",
              "type": "uint256"
            },
            {
              "internalType": "bytes32",
              "name": "liquidityUuid",
              "type": "bytes32"
            },
            {
              "internalType": "bytes32",
              "name": "poolId",
              "type": "bytes32"
            },
            {
              "internalType": "enum IWeb3PacksDefs.RouterType",
              "name": "routerType",
              "type": "uint8"
            }
          ],
          "internalType": "struct IWeb3PacksDefs.ERC20SwapOrderGeneric[]",
          "name": "erc20SwapOrders",
          "type": "tuple[]"
        },
        {
          "components": [
            {
              "components": [
                {
                  "internalType": "address",
                  "name": "token",
                  "type": "address"
                },
                {
                  "internalType": "uint256",
                  "name": "amount",
                  "type": "uint256"
                }
              ],
              "internalType": "struct IWeb3PacksDefs.TokenAmount",
              "name": "token0",
              "type": "tuple"
            },
            {
              "components": [
                {
                  "internalType": "address",
                  "name": "token",
                  "type": "address"
                },
                {
                  "internalType": "uint256",
                  "name": "amount",
                  "type": "uint256"
                }
              ],
              "internalType": "struct IWeb3PacksDefs.TokenAmount",
              "name": "token1",
              "type": "tuple"
            },
            {
              "internalType": "uint256",
              "name": "slippage",
              "type": "uint256"
            },
            {
              "internalType": "bytes32",
              "name": "poolId",
              "type": "bytes32"
            },
            {
              "internalType": "address",
              "name": "router",
              "type": "address"
            },
            {
              "internalType": "enum IWeb3PacksDefs.RouterType",
              "name": "routerType",
              "type": "uint8"
            },
            {
              "internalType": "bool",
              "name": "exitLpOnUnbundle",
              "type": "bool"
            },
            {
              "internalType": "bool",
              "name": "stable",
              "type": "bool"
            }
          ],
          "internalType": "struct IWeb3PacksDefs.LiquidityPairs[]",
          "name": "liquidityPairs",
          "type": "tuple[]"
        },
        {
          "internalType": "bool",
          "name": "sellAll",
          "type": "bool"
        }
      ],
      "name": "unbundleFromManager",
      "outputs": [],
      "stateMutability": "payable",
      "type": "function"
    },
    {
      "inputs": [],
      "name": "unpause",
      "outputs": [],
      "stateMutability": "nonpayable",
      "type": "function"
    },
    {
      "inputs": [
        {
          "internalType": "address payable",
          "name": "receiver",
          "type": "address"
        },
        {
          "internalType": "address",
          "name": "tokenAddress",
          "type": "address"
        },
        {
          "internalType": "uint256",
          "name": "tokenId",
          "type": "uint256"
        },
        {
          "internalType": "uint256",
          "name": "amount",
          "type": "uint256"
        }
      ],
      "name": "withdrawERC1155",
      "outputs": [],
      "stateMutability": "nonpayable",
      "type": "function"
    },
    {
      "inputs": [
        {
          "internalType": "address payable",
          "name": "receiver",
          "type": "address"
        },
        {
          "internalType": "address",
          "name": "tokenAddress",
          "type": "address"
        },
        {
          "internalType": "uint256",
          "name": "tokenId",
          "type": "uint256"
        }
      ],
      "name": "withdrawERC721",
      "outputs": [],
      "stateMutability": "nonpayable",
      "type": "function"
    },
    {
      "inputs": [
        {
          "internalType": "address payable",
          "name": "receiver",
          "type": "address"
        },
        {
          "internalType": "address",
          "name": "tokenAddress",
          "type": "address"
        },
        {
          "internalType": "uint256",
          "name": "amount",
          "type": "uint256"
        }
      ],
      "name": "withdrawErc20",
      "outputs": [],
      "stateMutability": "nonpayable",
      "type": "function"
    },
    {
      "inputs": [
        {
          "internalType": "address payable",
          "name": "receiver",
          "type": "address"
        },
        {
          "internalType": "uint256",
          "name": "amount",
          "type": "uint256"
        }
      ],
      "name": "withdrawEther",
      "outputs": [],
      "stateMutability": "nonpayable",
      "type": "function"
    }
  ],
  "transactionHash": "0x5a33f0da8acd0b0bba18d9760b1b62fca8e3f3eed92457b417541aa95059517a",
  "args": [
    "0x4200000000000000000000000000000000000006",
    "0x76a5df1c6F53A4B80c8c8177edf52FBbC368E825",
    "0x0288280Df6221E7e9f23c1BB398c820ae0Aa6c10",
    "0x2691B4f4251408bA4b8bf9530B6961b9D0C1231F"
  ],
  "numDeployments": 1,
  "solcInputHash": "1d4b1cd2107d0075f054236dd8cec228",
  "bytecode": "0x60c0604052600960809081526833b2b732b934b1972160b91b60a052600a906200002a9082620001f0565b5060408051808201909152600981526833b2b732b934b1972160b91b6020820152600b906200005a9082620001f0565b503480156200006857600080fd5b5060405162003f0838038062003f088339810160408190526200008b91620002d9565b6200009633620000fb565b6000805460ff60a01b1916905560018055600280546001600160a01b039586166001600160a01b031991821617909155600380549486169482169490941790935560068054928516928416929092179091556007805491909316911617905562000336565b600080546001600160a01b038381166001600160a01b0319831681178455604051919092169283917f8be0079c531659141344cd1fd0a4f28419497f9722a3daafe3b4186f6b6457e09190a35050565b634e487b7160e01b600052604160045260246000fd5b600181811c908216806200017657607f821691505b6020821081036200019757634e487b7160e01b600052602260045260246000fd5b50919050565b601f821115620001eb57600081815260208120601f850160051c81016020861015620001c65750805b601f850160051c820191505b81811015620001e757828155600101620001d2565b5050505b505050565b81516001600160401b038111156200020c576200020c6200014b565b62000224816200021d845462000161565b846200019d565b602080601f8311600181146200025c5760008415620002435750858301515b600019600386901b1c1916600185901b178555620001e7565b600085815260208120601f198616915b828110156200028d578886015182559484019460019091019084016200026c565b5085821015620002ac5787850151600019600388901b60f8161c191681555b5050505050600190811b01905550565b80516001600160a01b0381168114620002d457600080fd5b919050565b60008060008060808587031215620002f057600080fd5b620002fb85620002bc565b93506200030b60208601620002bc565b92506200031b60408601620002bc565b91506200032b60608601620002bc565b905092959194509250565b613bc280620003466000396000f3fe6080604052600436106101e35760003560e01c80636e5559fd11610102578063a8499fdf11610095578063dafb944911610064578063dafb944914610574578063e610759914610594578063f0f44260146105a7578063f2fde38b146105c757600080fd5b8063a8499fdf146104f4578063b7683e9314610514578063bd32661614610534578063c0d3895e1461055457600080fd5b80638da5cb5b116100d15780638da5cb5b146104765780639261968514610494578063a0edb48b146104b4578063a1764595146104d457600080fd5b80636e5559fd1461040c578063715018a61461042c578063787dce3d146104415780638456cb591461046157600080fd5b8063252c9c941161017a578063522f681511610149578063522f68151461038d5780635c975abb146103ad578063609b8813146103d757806369d09c4c146103ec57600080fd5b8063252c9c941461031657806330219ef4146103385780633f4ba83a146103585780634025feb21461036d57600080fd5b80631593dee1116101b65780631593dee11461028b5780631a7c49df146102ab5780631c588e76146102be578063230f1544146102de57600080fd5b806304aafd25146101e85780630846f99e1461020e578063108e4db714610230578063150b7a0214610246575b600080fd5b6101fb6101f6366004612981565b6105e7565b6040519081526020015b60405180910390f35b34801561021a57600080fd5b5061022e610229366004612aac565b61066d565b005b34801561023c57600080fd5b506101fb60095481565b34801561025257600080fd5b50610272610261366004612ad0565b630a85bd0160e11b95945050505050565b6040516001600160e01b03199091168152602001610205565b34801561029757600080fd5b5061022e6102a6366004612b42565b61071a565b61022e6102b9366004612be1565b610732565b3480156102ca57600080fd5b5061022e6102d9366004612aac565b610851565b3480156102ea57600080fd5b506005546102fe906001600160a01b031681565b6040516001600160a01b039091168152602001610205565b34801561032257600080fd5b5061032b610905565b6040516102059190612d09565b34801561034457600080fd5b506006546102fe906001600160a01b031681565b34801561036457600080fd5b5061022e610993565b34801561037957600080fd5b5061022e610388366004612b42565b6109a5565b34801561039957600080fd5b5061022e6103a8366004612d1c565b6109b8565b3480156103b957600080fd5b50600054600160a01b900460ff166040519015158152602001610205565b3480156103e357600080fd5b5061032b6109ce565b3480156103f857600080fd5b506004546102fe906001600160a01b031681565b34801561041857600080fd5b5061022e610427366004612aac565b6109db565b34801561043857600080fd5b5061022e610a8f565b34801561044d57600080fd5b5061022e61045c366004612d48565b610aa1565b34801561046d57600080fd5b5061022e610ae4565b34801561048257600080fd5b506000546001600160a01b03166102fe565b3480156104a057600080fd5b5061022e6104af366004612d61565b610af4565b3480156104c057600080fd5b5061022e6104cf366004612d88565b610c39565b3480156104e057600080fd5b506002546102fe906001600160a01b031681565b34801561050057600080fd5b506007546102fe906001600160a01b031681565b34801561052057600080fd5b5061022e61052f366004612aac565b610c4d565b34801561054057600080fd5b5061022e61054f366004612aac565b610cf5565b34801561056057600080fd5b5061022e61056f366004612d61565b610d9d565b34801561058057600080fd5b506003546102fe906001600160a01b031681565b61022e6105a2366004612dce565b610eb9565b3480156105b357600080fd5b5061022e6105c2366004612aac565b611011565b3480156105d357600080fd5b5061022e6105e2366004612aac565b6110b9565b60006105f1611132565b6105f961117f565b610602846111d8565b6106148d8d8d8d8d8d8d8d8d8d6112dc565b6040805184815260208101869052919250339183917f95ffb382011ac522a14d92886627d820825a61f8168310c38c8507b1dedc5fac910160405180910390a361065d60018055565b9c9b505050505050505050505050565b610675611598565b6001600160a01b0381166106d05760405162461bcd60e51b815260206004820152601b60248201527f496e76616c6964206164647265737320666f72206d616e61676572000000000060448201526064015b60405180910390fd5b600480546001600160a01b0319166001600160a01b0383169081179091556040517f29c3be2a07cd721ad5a371231bdf132e57fbe87625b604811898342f90c9582f90600090a250565b610722611598565b61072d8383836115f2565b505050565b61073a611132565b61074261117f565b61074c60006111d8565b60006107f58b8b8b8b8b8080601f016020809104026020016040519081016040528093929190818152602001838380828437600081840152601f19601f820116905080830192505050505050508a8a8a8a808060200260200160405190810160405280939291908181526020016000905b828210156107ea576107db6101408302860136819003810190612f81565b815260200190600101906107bd565b5050505050896116ed565b90508a6001600160a01b0316897f1143d14cf0b7fdb46022761b1a9b421b27c63d51cbf67363a425c415b14a8ad38360405161083391815260200190565b60405180910390a35061084560018055565b50505050505050505050565b610859611598565b6001600160a01b0381166108bb5760405162461bcd60e51b8152602060048201526024808201527f496e76616c6964206164647265737320666f722065786368616e6765206d616e60448201526330b3b2b960e11b60648201526084016106c7565b600580546001600160a01b0319166001600160a01b0383169081179091556040517f663a3795dae72ac547c8ad14f2e26841e13a309f9331ede150ba6bbabd29e8b490600090a250565b600a80546109129061301b565b80601f016020809104026020016040519081016040528092919081815260200182805461093e9061301b565b801561098b5780601f106109605761010080835404028352916020019161098b565b820191906000526020600020905b81548152906001019060200180831161096e57829003601f168201915b505050505081565b61099b611598565b6109a3611a69565b565b6109ad611598565b61072d838383611abe565b6109c0611598565b6109ca8282611c0b565b5050565b600b80546109129061301b565b6109e3611598565b6001600160a01b038116610a455760405162461bcd60e51b8152602060048201526024808201527f496e76616c6964206164647265737320666f7220636861726765645061727469604482015263636c657360e01b60648201526084016106c7565b600680546001600160a01b0319166001600160a01b0383169081179091556040517f5ce0e6b7fd36339ee97339831b6c72694ecee88c62aab49919d9cabe0a732e4190600090a250565b610a97611598565b6109a36000611c91565b610aa9611598565b60098190556040518181527fdb5aafdb29539329e37d4e3ee869bc4031941fd55a5dfc92824fbe34b204e30d9060200160405180910390a150565b610aec611598565b6109a3611ce1565b610afc611132565b6005546001600160a01b03163314610b265760405162461bcd60e51b81526004016106c79061304f565b80600003610b99576040516370a0823160e01b81523060048201526001600160a01b038316906370a0823190602401602060405180830381865afa158015610b72573d6000803e3d6000fd5b505050506040513d601f19601f82011682018060405250810190610b969190613093565b90505b600654610bb19083906001600160a01b031683611d24565b6006546003546040516305eef16560e11b81526001600160a01b0392831692630bdde2ca92610bf0929116908790600a90889088903090600401613150565b6020604051808303816000875af1158015610c0f573d6000803e3d6000fd5b505050506040513d601f19601f82011682018060405250810190610c339190613093565b50505050565b610c41611598565b610c3384848484611e24565b610c55611598565b6001600160a01b038116610cab5760405162461bcd60e51b815260206004820181905260248201527f496e76616c6964206164647265737320666f722063686172676564537461746560448201526064016106c7565b600780546001600160a01b0319166001600160a01b0383169081179091556040517f62ff39aed768a426c7582b6e1062ab2631df1869b2d574e36f8274d2e2b0ab8190600090a250565b610cfd611598565b6001600160a01b038116610d535760405162461bcd60e51b815260206004820152601a60248201527f496e76616c6964206164647265737320666f722070726f746f6e00000000000060448201526064016106c7565b600380546001600160a01b0319166001600160a01b0383169081179091556040517fa3d7b0fff2d93a7ba440166a8f7eba4acfe6e000fe19b8218e64264d62ef272690600090a250565b610da5611132565b6005546001600160a01b03163314610dcf5760405162461bcd60e51b81526004016106c79061304f565b60065460405163a22cb46560e01b81526001600160a01b039182166004820152600160248201529083169063a22cb46590604401600060405180830381600087803b158015610e1d57600080fd5b505af1158015610e31573d6000803e3d6000fd5b5050600654600354604051630ffe55b360e21b81526001600160a01b039283169450633ff956cc9350610e7692909116908790600a9088908890600190600401613198565b6020604051808303816000875af1158015610e95573d6000803e3d6000fd5b505050506040513d601f19601f82011682018060405250810190610c3391906131e8565b610ec1611132565b610ec961117f565b610ed360006111d8565b6000610fb7898989600a8054610ee89061301b565b80601f0160208091040260200160405190810160405280929190818152602001828054610f149061301b565b8015610f615780601f10610f3657610100808354040283529160200191610f61565b820191906000526020600020905b815481529060010190602001808311610f4457829003601f168201915b50505050508a8a8a8a808060200260200160405190810160405280939291908181526020016000905b828210156107ea57610fa86101408302860136819003810190612f81565b81526020019060010190610f8a565b9050886001600160a01b0316877f1143d14cf0b7fdb46022761b1a9b421b27c63d51cbf67363a425c415b14a8ad383604051610ff591815260200190565b60405180910390a35061100760018055565b5050505050505050565b611019611598565b6001600160a01b03811661106f5760405162461bcd60e51b815260206004820152601c60248201527f496e76616c6964206164647265737320666f722074726561737572790000000060448201526064016106c7565b600880546001600160a01b0319166001600160a01b0383169081179091556040517febbf9e77f4905707c811ea2da45f04b959c1132fecd092aae1fe0dac5b176c3290600090a250565b6110c1611598565b6001600160a01b0381166111265760405162461bcd60e51b815260206004820152602660248201527f4f776e61626c653a206e6577206f776e657220697320746865207a65726f206160448201526564647265737360d01b60648201526084016106c7565b61112f81611c91565b50565b600054600160a01b900460ff16156109a35760405162461bcd60e51b815260206004820152601060248201526f14185d5cd8589b194e881c185d5cd95960821b60448201526064016106c7565b6002600154036111d15760405162461bcd60e51b815260206004820152601f60248201527f5265656e7472616e637947756172643a207265656e7472616e742063616c6c0060448201526064016106c7565b6002600155565b60006009541180156111f65750806009546111f3919061321b565b34105b156112285760095460405163562cac4d60e01b81523460048201526024810183905260448101919091526064016106c7565b6000611234823461322e565b6008546040519192506000916001600160a01b039091169083908381818185875af1925050503d8060008114611286576040519150601f19603f3d011682016040523d82523d6000602084013e61128b565b606091505b505090508061072d5760405162461bcd60e51b815260206004820152601f60248201527f4661696c656420746f2073656e64206665657320746f2054726561737572790060448201526064016106c7565b600061131d8b8b8080601f016020809104026020016040519081016040528093929190818152602001838380828437600092019190915250611f8f92505050565b6005546040519192506000916001600160a01b039091169084908381818185875af1925050503d806000811461136f576040519150601f19603f3d011682016040523d82523d6000602084013e611374565b606091505b50509050806113d55760405162461bcd60e51b815260206004820152602760248201527f4661696c656420746f2073656e64206665657320746f2045786368616e67652060448201526626b0b730b3b2b960c91b60648201526084016106c7565b600554604051634deae21d60e11b81526001600160a01b0390911690639bd5c43a90611407908d908d906004016132af565b600060405180830381600087803b15801561142157600080fd5b505af1158015611435573d6000803e3d6000fd5b50506005546040516304d9521f60e21b81526001600160a01b039091169250631365487c915061146d908b908b908790600401613498565b600060405180830381600087803b15801561148757600080fd5b505af115801561149b573d6000803e3d6000fd5b505060055460405163684433fb60e01b81526001600160a01b03909116925063684433fb91506114d3908990899087906004016134d6565b600060405180830381600087803b1580156114ed57600080fd5b505af1158015611501573d6000803e3d6000fd5b5050505061150f848361200d565b6003546001600160a01b03166342842e0e30336040516001600160e01b031960e085901b1681526001600160a01b0392831660048201529116602482015260448101859052606401600060405180830381600087803b15801561157157600080fd5b505af1158015611585573d6000803e3d6000fd5b50505050509a9950505050505050505050565b6000546001600160a01b031633146109a35760405162461bcd60e51b815260206004820181905260248201527f4f776e61626c653a2063616c6c6572206973206e6f7420746865206f776e657260448201526064016106c7565b6001600160a01b0383166116185760405162461bcd60e51b81526004016106c79061361c565b6040516370a0823160e01b815230600482015281906001600160a01b038416906370a0823190602401602060405180830381865afa15801561165e573d6000803e3d6000fd5b505050506040513d601f19601f820116820180604052508101906116829190613093565b1061072d5761169b6001600160a01b0383168483612104565b816001600160a01b0316836001600160a01b03167f6c9d637297625e945b296ff73a71fcfbd0a9e062652b6491a921c4c60194176b836040516116e091815260200190565b60405180910390a3505050565b6040516331a9108f60e11b81526004810187905260009081906001600160a01b038a1690636352211e90602401602060405180830381865afa158015611737573d6000803e3d6000fd5b505050506040513d601f19601f8201168201806040525081019061175b919061364a565b9050336001600160a01b0382161461178657604051636d8a29e760e11b815260040160405180910390fd5b600083611793578a6117a0565b6005546001600160a01b03165b905060005b868110156119bb576002546001600160a01b03168888838181106117cb576117cb613667565b90506020028101906117dd919061367d565b6117ee906060810190604001612aac565b6001600160a01b0316146118ab576006546001600160a01b031663acab923c838d8d8d8d8d8881811061182357611823613667565b9050602002810190611835919061367d565b611846906060810190604001612aac565b6040518663ffffffff1660e01b815260040161186695949392919061369e565b60408051808303816000875af1158015611884573d6000803e3d6000fd5b505050506040513d601f19601f820116820180604052508101906118a891906136e3565b50505b6002546001600160a01b03168888838181106118c9576118c9613667565b90506020028101906118db919061367d565b6118ec906080810190606001612aac565b6001600160a01b0316146119a9576006546001600160a01b031663acab923c838d8d8d8d8d8881811061192157611921613667565b9050602002810190611933919061367d565b611944906080810190606001612aac565b6040518663ffffffff1660e01b815260040161196495949392919061369e565b60408051808303816000875af1158015611982573d6000803e3d6000fd5b505050506040513d601f19601f820116820180604052508101906119a691906136e3565b50505b806119b381613707565b9150506117a5565b506119c88b8a8787612156565b8315611a5b57600560009054906101000a90046001600160a01b03166001600160a01b031663b1f570a68888888f6040518563ffffffff1660e01b8152600401611a1594939291906137b3565b6020604051808303816000875af1158015611a34573d6000803e3d6000fd5b505050506040513d601f19601f82011682018060405250810190611a589190613093565b92505b505098975050505050505050565b611a716124cd565b6000805460ff60a01b191690557f5db9ee0a495bf2e6ff9c91a7834c1ba4fdd244a5e8aa4e537bd38aeae4b073aa335b6040516001600160a01b03909116815260200160405180910390a1565b6001600160a01b038316611ae45760405162461bcd60e51b81526004016106c79061361c565b6040516331a9108f60e11b81526004810182905230906001600160a01b03841690636352211e90602401602060405180830381865afa158015611b2b573d6000803e3d6000fd5b505050506040513d601f19601f82011682018060405250810190611b4f919061364a565b6001600160a01b03160361072d576040516323b872dd60e01b81523060048201526001600160a01b038481166024830152604482018390528316906323b872dd90606401600060405180830381600087803b158015611bad57600080fd5b505af1158015611bc1573d6000803e3d6000fd5b5050505080826001600160a01b0316846001600160a01b03167ffefe036cac4ee3a4aca074a81cbcc4376e1484693289078dbec149c890101d5b60405160405180910390a4505050565b6001600160a01b038216611c315760405162461bcd60e51b81526004016106c79061361c565b8047106109ca57611c4b6001600160a01b0383168261251d565b816001600160a01b03167eddb683bb45cd5d0ad8a200c6fae7152b1c236ee90a4a37db692407f5cc38bd82604051611c8591815260200190565b60405180910390a25050565b600080546001600160a01b038381166001600160a01b0319831681178455604051919092169283917f8be0079c531659141344cd1fd0a4f28419497f9722a3daafe3b4186f6b6457e09190a35050565b611ce9611132565b6000805460ff60a01b1916600160a01b1790557f62e78cea01bee320cd4e420270b5ea74000d11b0c9f74754ebdbfc544b05a258611aa13390565b604080516001600160a01b038481166024830152604480830185905283518084039091018152606490920183526020820180516001600160e01b031663095ea7b360e01b1790529151600092839290871691611d80919061382c565b6000604051808303816000865af19150503d8060008114611dbd576040519150601f19603f3d011682016040523d82523d6000602084013e611dc2565b606091505b5091509150818015611dec575080511580611dec575080806020019051810190611dec91906131e8565b611e1d5760405162461bcd60e51b8152602060048201526002602482015261534160f01b60448201526064016106c7565b5050505050565b6001600160a01b038416611e4a5760405162461bcd60e51b81526004016106c79061361c565b604051627eeac760e11b81523060048201526024810183905281906001600160a01b0385169062fdd58e90604401602060405180830381865afa158015611e95573d6000803e3d6000fd5b505050506040513d601f19601f82011682018060405250810190611eb99190613093565b10610c3357604051637921219560e11b81523060048201526001600160a01b038581166024830152604482018490526064820183905260a06084830152600060a483015284169063f242432a9060c401600060405180830381600087803b158015611f2357600080fd5b505af1158015611f37573d6000803e3d6000fd5b5050505081836001600160a01b0316856001600160a01b03167f620337bf89eea2b9ae2657beead83b5fa620452817118348aff96e201d52598b84604051611f8191815260200190565b60405180910390a450505050565b600354604051632c0cd5a360e01b81526000916001600160a01b031690632c0cd5a390611fc49030908190879060040161383e565b6020604051808303816000875af1158015611fe3573d6000803e3d6000fd5b505050506040513d601f19601f820116820180604052508101906120079190613093565b92915050565b8135156120845760075460035460405163048001e960e11b81526001600160a01b039182166004820152602481018490528435604482015291169063090003d290606401600060405180830381600087803b15801561206b57600080fd5b505af115801561207f573d6000803e3d6000fd5b505050505b6020820135156109ca57600754600354604051639079900160e01b81526001600160a01b0391821660048201526024810184905260208501356044820152911690639079900190606401600060405180830381600087803b1580156120e857600080fd5b505af11580156120fc573d6000803e3d6000fd5b505050505050565b604080516001600160a01b038416602482015260448082018490528251808303909101815260649091019091526020810180516001600160e01b031663a9059cbb60e01b17905261072d908490612636565b60048054604051630c71c67f60e41b81529182018590526000916001600160a01b039091169063c71c67f0906024016000604051808303816000875af11580156121a4573d6000803e3d6000fd5b505050506040513d6000823e601f3d908101601f191682016040526121cc9190810190613889565b905060005b81518110156120fc5760008282815181106121ee576121ee613667565b60200260200101519050600085838151811061220c5761220c613667565b602002602001015190506000858061222557508160c001515b61222f578861223c565b6005546001600160a01b03165b60055460405163549dea8960e11b815291925060009182916001600160a01b03169063a93bd51290612272908890600401613a92565b60408051808303816000875af1158015612290573d6000803e3d6000fd5b505050506040513d601f19601f820116820180604052508101906122b49190613aa1565b9092509050801561234a5760065460035460405162fe02fb60e81b81526001600160a01b039283169263fe02fb0092612301928892909116908f90600b9089908990600190600401613acf565b6020604051808303816000875af1158015612320573d6000803e3d6000fd5b505050506040513d601f19601f8201168201806040525081019061234491906131e8565b506123cd565b600654600354604051632b2ae48f60e21b81526001600160a01b039283169263acab923c92612388928892909116908f90600b908990600401613b1d565b60408051808303816000875af11580156123a6573d6000803e3d6000fd5b505050506040513d601f19601f820116820180604052508101906123ca91906136e3565b50505b87806123da57508360c001515b1561245957600560009054906101000a90046001600160a01b03166001600160a01b031663e7eed69d86868e8c6040518563ffffffff1660e01b81526004016124269493929190613b4d565b600060405180830381600087803b15801561244057600080fd5b505af1158015612454573d6000803e3d6000fd5b505050505b6004805460405163ed00ebf560e01b81529182018c90526001600160a01b03169063ed00ebf590602401600060405180830381600087803b15801561249d57600080fd5b505af11580156124b1573d6000803e3d6000fd5b50505050505050505080806124c590613707565b9150506121d1565b600054600160a01b900460ff166109a35760405162461bcd60e51b815260206004820152601460248201527314185d5cd8589b194e881b9bdd081c185d5cd95960621b60448201526064016106c7565b8047101561256d5760405162461bcd60e51b815260206004820152601d60248201527f416464726573733a20696e73756666696369656e742062616c616e636500000060448201526064016106c7565b6000826001600160a01b03168260405160006040518083038185875af1925050503d80600081146125ba576040519150601f19603f3d011682016040523d82523d6000602084013e6125bf565b606091505b505090508061072d5760405162461bcd60e51b815260206004820152603a60248201527f416464726573733a20756e61626c6520746f2073656e642076616c75652c207260448201527f6563697069656e74206d6179206861766520726576657274656400000000000060648201526084016106c7565b600061268b826040518060400160405280602081526020017f5361666545524332303a206c6f772d6c6576656c2063616c6c206661696c6564815250856001600160a01b03166127089092919063ffffffff16565b80519091501561072d57808060200190518101906126a991906131e8565b61072d5760405162461bcd60e51b815260206004820152602a60248201527f5361666545524332303a204552433230206f7065726174696f6e20646964206e6044820152691bdd081cdd58d8d9595960b21b60648201526084016106c7565b6060612717848460008561271f565b949350505050565b6060824710156127805760405162461bcd60e51b815260206004820152602660248201527f416464726573733a20696e73756666696369656e742062616c616e636520666f6044820152651c8818d85b1b60d21b60648201526084016106c7565b600080866001600160a01b0316858760405161279c919061382c565b60006040518083038185875af1925050503d80600081146127d9576040519150601f19603f3d011682016040523d82523d6000602084013e6127de565b606091505b50915091506127ef878383876127fa565b979650505050505050565b60608315612869578251600003612862576001600160a01b0385163b6128625760405162461bcd60e51b815260206004820152601d60248201527f416464726573733a2063616c6c20746f206e6f6e2d636f6e747261637400000060448201526064016106c7565b5081612717565b612717838381511561287e5781518083602001fd5b8060405162461bcd60e51b81526004016106c79190612d09565b60008083601f8401126128aa57600080fd5b5081356001600160401b038111156128c157600080fd5b6020830191508360208285010111156128d957600080fd5b9250929050565b60008083601f8401126128f257600080fd5b5081356001600160401b0381111561290957600080fd5b6020830191508360208260051b85010111156128d957600080fd5b60008083601f84011261293657600080fd5b5081356001600160401b0381111561294d57600080fd5b6020830191508360206101c0830285010111156128d957600080fd5b60006040828403121561297b57600080fd5b50919050565b6000806000806000806000806000806000806101208d8f0312156129a457600080fd5b6001600160401b038d3511156129b957600080fd5b6129c68e8e358f01612898565b909c509a506001600160401b0360208e013511156129e357600080fd5b6129f38e60208f01358f016128e0565b909a5098506001600160401b0360408e01351115612a1057600080fd5b612a208e60408f01358f016128e0565b90985096506001600160401b0360608e01351115612a3d57600080fd5b612a4d8e60608f01358f01612924565b9096509450612a5f8e60808f01612969565b935060c08d0135925060e08d013591506101008d013590509295989b509295989b509295989b565b6001600160a01b038116811461112f57600080fd5b8035612aa781612a87565b919050565b600060208284031215612abe57600080fd5b8135612ac981612a87565b9392505050565b600080600080600060808688031215612ae857600080fd5b8535612af381612a87565b94506020860135612b0381612a87565b93506040860135925060608601356001600160401b03811115612b2557600080fd5b612b3188828901612898565b969995985093965092949392505050565b600080600060608486031215612b5757600080fd5b8335612b6281612a87565b92506020840135612b7281612a87565b929592945050506040919091013590565b60008083601f840112612b9557600080fd5b5081356001600160401b03811115612bac57600080fd5b602083019150836020610140830285010111156128d957600080fd5b801515811461112f57600080fd5b8035612aa781612bc8565b60008060008060008060008060008060e08b8d031215612c0057600080fd5b8a35612c0b81612a87565b995060208b0135612c1b81612a87565b985060408b0135975060608b01356001600160401b0380821115612c3e57600080fd5b612c4a8e838f01612898565b909950975060808d0135915080821115612c6357600080fd5b612c6f8e838f016128e0565b909750955060a08d0135915080821115612c8857600080fd5b50612c958d828e01612b83565b9094509250612ca8905060c08c01612bd6565b90509295989b9194979a5092959850565b60005b83811015612cd4578181015183820152602001612cbc565b50506000910152565b60008151808452612cf5816020860160208601612cb9565b601f01601f19169290920160200192915050565b602081526000612ac96020830184612cdd565b60008060408385031215612d2f57600080fd5b8235612d3a81612a87565b946020939093013593505050565b600060208284031215612d5a57600080fd5b5035919050565b600080600060608486031215612d7657600080fd5b833592506020840135612b7281612a87565b60008060008060808587031215612d9e57600080fd5b8435612da981612a87565b93506020850135612db981612a87565b93969395505050506040820135916060013590565b60008060008060008060008060c0898b031215612dea57600080fd5b8835612df581612a87565b97506020890135612e0581612a87565b96506040890135955060608901356001600160401b0380821115612e2857600080fd5b612e348c838d016128e0565b909750955060808b0135915080821115612e4d57600080fd5b50612e5a8b828c01612b83565b90945092505060a0890135612e6e81612bc8565b809150509295985092959890939650565b634e487b7160e01b600052604160045260246000fd5b60405161010081016001600160401b0381118282101715612eb857612eb8612e7f565b60405290565b60405161014081016001600160401b0381118282101715612eb857612eb8612e7f565b604051601f8201601f191681016001600160401b0381118282101715612f0957612f09612e7f565b604052919050565b600060408284031215612f2357600080fd5b604051604081018181106001600160401b0382111715612f4557612f45612e7f565b6040529050808235612f5681612a87565b8152602092830135920191909152919050565b6005811061112f57600080fd5b8035612aa781612f69565b60006101408284031215612f9457600080fd5b612f9c612e95565b612fa68484612f11565b8152612fb58460408501612f11565b60208201526080830135604082015260a08301356060820152612fda60c08401612a9c565b6080820152612feb60e08401612f76565b60a0820152612ffd6101008401612bd6565b60c082015261300f6101208401612bd6565b60e08201529392505050565b600181811c9082168061302f57607f821691505b60208210810361297b57634e487b7160e01b600052602260045260246000fd5b60208082526024908201527f576562335061636b73202d20496e76616c69642045786368616e6765204d616e60408201526330b3b2b960e11b606082015260800190565b6000602082840312156130a557600080fd5b5051919050565b8054600090600181811c90808316806130c657607f831692505b602080841082036130e757634e487b7160e01b600052602260045260246000fd5b83885260208801828015613102576001811461311857613143565b60ff198716825285151560051b82019750613143565b60008981526020902060005b8781101561313d57815484820152908601908401613124565b83019850505b5050505050505092915050565b600060018060a01b03808916835287602084015260c0604084015261317860c08401886130ac565b9581166060840152608083019490945250911660a0909101529392505050565b600060018060a01b03808916835287602084015260c060408401526131c060c08401886130ac565b9516606083015250608081019290925260a0909101529392505050565b8051612aa781612bc8565b6000602082840312156131fa57600080fd5b8151612ac981612bc8565b634e487b7160e01b600052601160045260246000fd5b8082018082111561200757612007613205565b8181038181111561200757612007613205565b6000808335601e1984360301811261325857600080fd5b83016020810192503590506001600160401b0381111561327757600080fd5b8036038213156128d957600080fd5b81835281816020850137506000828201602090810191909152601f909101601f19169091010190565b60208082528181018390526000906040808401600586901b850182018785805b8981101561334b57888403603f190185528235368c9003605e190181126132f4578283fd5b8b0160606133028280613241565b8288526133128389018284613286565b925050508882013561332381612a87565b6001600160a01b0316868a0152908701359487019490945293860193918601916001016132cf565b50919998505050505050505050565b6005811061337857634e487b7160e01b600052602160045260246000fd5b9052565b81835260006020808501808196508560051b81019150846000805b8881101561348a578385038a52823561013e198936030181126133b8578283fd5b88016101406133c78280613241565b8289526133d7838a018284613286565b925050506133e6888301612a9c565b6001600160a01b0316888801526040613400838201612a9c565b6001600160a01b031690880152606061341a838201612a9c565b6001600160a01b0316908801526080828101359088015260a0808301359088015260c0808301359088015260e080830135908801526101008083013590880152610120613468818401612f76565b92506134768189018461335a565b509a87019a95505091850191600101613397565b509298975050505050505050565b6040815260006134ac60408301858761337c565b9050826020830152949350505050565b8060020b811461112f57600080fd5b8035612aa7816134bc565b6040808252818101849052600090606080840187845b888110156136065761350e8361350184612a9c565b6001600160a01b03169052565b602061351b818401612a9c565b6001600160a01b031690840152613533828601612a9c565b6001600160a01b03168584015283820135848401526080808301359084015260a0808301359084015260c0808301359084015260e0808301359084015261010080830135908401526101206135898184016134cb565b6135978286018260020b9052565b50506101406135a78184016134cb565b6135b58286018260020b9052565b50506101606135c5818401612bd6565b15159084015261018082810135908401526101a06135e4818401612f76565b6135f08286018261335a565b50506101c09283019291909101906001016134ec565b5050809350505050826020830152949350505050565b6020808252600990820152684248503a452d34303360b81b604082015260600190565b8051612aa781612a87565b60006020828403121561365c57600080fd5b8151612ac981612a87565b634e487b7160e01b600052603260045260246000fd5b6000823561013e1983360301811261369457600080fd5b9190910192915050565b600060018060a01b038088168352808716602084015285604084015260a060608401526136ce60a0840186612cdd565b91508084166080840152509695505050505050565b600080604083850312156136f657600080fd5b505080516020909101519092909150565b60006001820161371957613719613205565b5060010190565b61373e82825180516001600160a01b03168252602090810151910152565b60208181015180516001600160a01b031660408501529081015160608401525060408101516080830152606081015160a083015260018060a01b0360808201511660c083015260a081015161379660e084018261335a565b5060c0810151151561010083015260e00151151561012090910152565b6060815260006137c760608301868861337c565b82810360208481019190915285518083528682019282019060005b81811015613809576137f5838651613720565b9383019361014092909201916001016137e2565b50506001600160a01b039590951660409490940193909352509195945050505050565b60008251613694818460208701612cb9565b6001600160a01b0384811682528316602082015260606040820181905260009061386a90830184612cdd565b95945050505050565b8051612aa7816134bc565b8051612aa781612f69565b6000602080838503121561389c57600080fd5b82516001600160401b03808211156138b357600080fd5b818501915085601f8301126138c757600080fd5b8151818111156138d9576138d9612e7f565b6138e7848260051b01612ee1565b818152848101925061014091820284018501918883111561390757600080fd5b938501935b828510156139ca5780858a0312156139245760008081fd5b61392c612ebe565b85518152868601518782015260406139458188016131dd565b90820152606061395687820161363f565b90820152608061396787820161363f565b9082015260a0613978878201613873565b9082015260c0613989878201613873565b9082015260e086810151908201526101006139a581880161363f565b908201526101206139b787820161387e565b908201528452938401939285019261390c565b50979650505050505050565b805182526020810151602083015260408101516139f7604084018215159052565b506060810151613a1260608401826001600160a01b03169052565b506080810151613a2d60808401826001600160a01b03169052565b5060a0810151613a4260a084018260020b9052565b5060c0810151613a5760c084018260020b9052565b5060e081015160e083015261010080820151613a7d828501826001600160a01b03169052565b505061012080820151610c338285018261335a565b610140810161200782846139d6565b60008060408385031215613ab457600080fd5b8251613abf81612a87565b6020939093015192949293505050565b600060018060a01b03808a168352808916602084015287604084015260e06060840152613aff60e08401886130ac565b951660808301525060a081019290925260c090910152949350505050565b600060018060a01b038088168352808716602084015285604084015260a060608401526136ce60a08401866130ac565b6102c08101613b5c82876139d6565b613b6a610140830186613720565b6001600160a01b03939093166102808201529015156102a0909101529291505056fea26469706673582212207570ae2b5be468c865e365b0967349dd626c4e1bc9b394c2257f64f37b9bd1d864736f6c63430008110033",
  "devdoc": {
    "kind": "dev",
    "methods": {
      "owner()": {
        "details": "Returns the address of the current owner."
      },
      "paused()": {
        "details": "Returns true if the contract is paused, and false otherwise."
      },
      "renounceOwnership()": {
        "details": "Leaves the contract without owner. It will not be possible to call `onlyOwner` functions anymore. Can only be called by the current owner. NOTE: Renouncing ownership will leave the contract without an owner, thereby removing any functionality that is only available to the owner."
      },
      "setChargedParticles(address)": {
        "details": "Setup the ChargedParticles Interface"
      },
      "transferOwnership(address)": {
        "details": "Transfers ownership of the contract to a new account (`newOwner`). Can only be called by the current owner."
      }
    },
    "version": 1
  },
  "userdoc": {
    "kind": "user",
    "methods": {},
    "version": 1
  },
  "storageLayout": {
    "storage": [
      {
        "astId": 7,
        "contract": "contracts/Web3PacksMode.sol:Web3PacksMode",
        "label": "_owner",
        "offset": 0,
        "slot": "0",
        "type": "t_address"
      },
      {
        "astId": 130,
        "contract": "contracts/Web3PacksMode.sol:Web3PacksMode",
        "label": "_paused",
        "offset": 20,
        "slot": "0",
        "type": "t_bool"
      },
      {
        "astId": 231,
        "contract": "contracts/Web3PacksMode.sol:Web3PacksMode",
        "label": "_status",
        "offset": 0,
        "slot": "1",
        "type": "t_uint256"
      },
      {
        "astId": 3494,
        "contract": "contracts/Web3PacksMode.sol:Web3PacksMode",
        "label": "_weth",
        "offset": 0,
        "slot": "2",
        "type": "t_address"
      },
      {
        "astId": 3496,
        "contract": "contracts/Web3PacksMode.sol:Web3PacksMode",
        "label": "_proton",
        "offset": 0,
        "slot": "3",
        "type": "t_address"
      },
      {
        "astId": 3498,
        "contract": "contracts/Web3PacksMode.sol:Web3PacksMode",
        "label": "_web3PacksManager",
        "offset": 0,
        "slot": "4",
        "type": "t_address"
      },
      {
        "astId": 3500,
        "contract": "contracts/Web3PacksMode.sol:Web3PacksMode",
        "label": "_web3PacksExchangeManager",
        "offset": 0,
        "slot": "5",
        "type": "t_address"
      },
      {
        "astId": 3502,
        "contract": "contracts/Web3PacksMode.sol:Web3PacksMode",
        "label": "_chargedParticles",
        "offset": 0,
        "slot": "6",
        "type": "t_address"
      },
      {
        "astId": 3504,
        "contract": "contracts/Web3PacksMode.sol:Web3PacksMode",
        "label": "_chargedState",
        "offset": 0,
        "slot": "7",
        "type": "t_address"
      },
      {
        "astId": 3506,
        "contract": "contracts/Web3PacksMode.sol:Web3PacksMode",
        "label": "_treasury",
        "offset": 0,
        "slot": "8",
        "type": "t_address_payable"
      },
      {
        "astId": 3508,
        "contract": "contracts/Web3PacksMode.sol:Web3PacksMode",
        "label": "_protocolFee",
        "offset": 0,
        "slot": "9",
        "type": "t_uint256"
      },
      {
        "astId": 3511,
        "contract": "contracts/Web3PacksMode.sol:Web3PacksMode",
        "label": "_cpWalletManager",
        "offset": 0,
        "slot": "10",
        "type": "t_string_storage"
      },
      {
        "astId": 3514,
        "contract": "contracts/Web3PacksMode.sol:Web3PacksMode",
        "label": "_cpBasketManager",
        "offset": 0,
        "slot": "11",
        "type": "t_string_storage"
      }
    ],
    "types": {
      "t_address": {
        "encoding": "inplace",
        "label": "address",
        "numberOfBytes": "20"
      },
      "t_address_payable": {
        "encoding": "inplace",
        "label": "address payable",
        "numberOfBytes": "20"
      },
      "t_bool": {
        "encoding": "inplace",
        "label": "bool",
        "numberOfBytes": "1"
      },
      "t_string_storage": {
        "encoding": "bytes",
        "label": "string",
        "numberOfBytes": "32"
      },
      "t_uint256": {
        "encoding": "inplace",
        "label": "uint256",
        "numberOfBytes": "32"
      }
    }
  }
}