{
  "address": "0xEC2e2772cB202c9532a37cE25204fC0d163B3ddA",
  "abi": [
    {
      "inputs": [
        {
          "internalType": "address",
          "name": "weth",
          "type": "address"
        },
        {
          "internalType": "address",
          "name": "proton",
          "type": "address"
        },
        {
          "internalType": "address",
          "name": "nonfungiblePositionManager",
          "type": "address"
        },
        {
          "internalType": "address",
          "name": "chargedParticles",
          "type": "address"
        },
        {
          "internalType": "address",
          "name": "chargedState",
          "type": "address"
        }
      ],
      "stateMutability": "nonpayable",
      "type": "constructor"
    },
    {
      "inputs": [],
      "name": "ContractNotAllowed",
      "type": "error"
    },
    {
      "inputs": [],
      "name": "FundingFailed",
      "type": "error"
    },
    {
      "inputs": [],
      "name": "InsufficientForFee",
      "type": "error"
    },
    {
      "inputs": [],
      "name": "MismatchedTokens",
      "type": "error"
    },
    {
      "inputs": [
        {
          "internalType": "address",
          "name": "tokenAddress",
          "type": "address"
        }
      ],
      "name": "MissingLiquidityUUID",
      "type": "error"
    },
    {
      "inputs": [],
      "name": "NativeAssetTransferFailed",
      "type": "error"
    },
    {
      "inputs": [],
      "name": "NotOwnerOrApproved",
      "type": "error"
    },
    {
      "inputs": [],
      "name": "NullReceiver",
      "type": "error"
    },
    {
      "inputs": [
        {
          "internalType": "address",
          "name": "tokenOut",
          "type": "address"
        },
        {
          "internalType": "uint256",
          "name": "amountIn",
          "type": "uint256"
        },
        {
          "internalType": "address",
          "name": "router",
          "type": "address"
        }
      ],
      "name": "UnsucessfulSwap",
      "type": "error"
    },
    {
      "anonymous": false,
      "inputs": [
        {
          "indexed": true,
          "internalType": "address",
          "name": "chargedParticles",
          "type": "address"
        }
      ],
      "name": "ChargedParticlesSet",
      "type": "event"
    },
    {
      "anonymous": false,
      "inputs": [
        {
          "indexed": true,
          "internalType": "address",
          "name": "chargedState",
          "type": "address"
        }
      ],
      "name": "ChargedStateSet",
      "type": "event"
    },
    {
      "anonymous": false,
      "inputs": [
        {
          "indexed": true,
          "internalType": "address",
          "name": "previousOwner",
          "type": "address"
        },
        {
          "indexed": true,
          "internalType": "address",
          "name": "newOwner",
          "type": "address"
        }
      ],
      "name": "OwnershipTransferred",
      "type": "event"
    },
    {
      "anonymous": false,
      "inputs": [
        {
          "indexed": true,
          "internalType": "uint256",
          "name": "tokenId",
          "type": "uint256"
        },
        {
          "indexed": true,
          "internalType": "address",
          "name": "receiver",
          "type": "address"
        }
      ],
      "name": "PackBundled",
      "type": "event"
    },
    {
      "anonymous": false,
      "inputs": [
        {
          "indexed": true,
          "internalType": "uint256",
          "name": "tokenId",
          "type": "uint256"
        },
        {
          "indexed": true,
          "internalType": "address",
          "name": "receiver",
          "type": "address"
        }
      ],
      "name": "PackUnbundled",
      "type": "event"
    },
    {
      "anonymous": false,
      "inputs": [
        {
          "indexed": false,
          "internalType": "address",
          "name": "account",
          "type": "address"
        }
      ],
      "name": "Paused",
      "type": "event"
    },
    {
      "anonymous": false,
      "inputs": [
        {
          "indexed": false,
          "internalType": "uint256",
          "name": "fee",
          "type": "uint256"
        }
      ],
      "name": "ProtocolFeeSet",
      "type": "event"
    },
    {
      "anonymous": false,
      "inputs": [
        {
          "indexed": true,
          "internalType": "address",
          "name": "proton",
          "type": "address"
        }
      ],
      "name": "ProtonSet",
      "type": "event"
    },
    {
      "anonymous": false,
      "inputs": [
        {
          "indexed": true,
          "internalType": "address",
          "name": "router",
          "type": "address"
        }
      ],
      "name": "RouterSet",
      "type": "event"
    },
    {
      "anonymous": false,
      "inputs": [
        {
          "indexed": false,
          "internalType": "address",
          "name": "account",
          "type": "address"
        }
      ],
      "name": "Unpaused",
      "type": "event"
    },
    {
      "anonymous": false,
      "inputs": [
        {
          "indexed": true,
          "internalType": "address",
          "name": "manager",
          "type": "address"
        }
      ],
      "name": "Web3PacksManagerSet",
      "type": "event"
    },
    {
      "anonymous": false,
      "inputs": [
        {
          "indexed": true,
          "internalType": "address",
          "name": "receiver",
          "type": "address"
        },
        {
          "indexed": true,
          "internalType": "address",
          "name": "tokenAddress",
          "type": "address"
        },
        {
          "indexed": true,
          "internalType": "uint256",
          "name": "tokenId",
          "type": "uint256"
        },
        {
          "indexed": false,
          "internalType": "uint256",
          "name": "amount",
          "type": "uint256"
        }
      ],
      "name": "WithdrawStuckERC1155",
      "type": "event"
    },
    {
      "anonymous": false,
      "inputs": [
        {
          "indexed": true,
          "internalType": "address",
          "name": "receiver",
          "type": "address"
        },
        {
          "indexed": true,
          "internalType": "address",
          "name": "tokenAddress",
          "type": "address"
        },
        {
          "indexed": false,
          "internalType": "uint256",
          "name": "amount",
          "type": "uint256"
        }
      ],
      "name": "WithdrawStuckERC20",
      "type": "event"
    },
    {
      "anonymous": false,
      "inputs": [
        {
          "indexed": true,
          "internalType": "address",
          "name": "receiver",
          "type": "address"
        },
        {
          "indexed": true,
          "internalType": "address",
          "name": "tokenAddress",
          "type": "address"
        },
        {
          "indexed": true,
          "internalType": "uint256",
          "name": "tokenId",
          "type": "uint256"
        }
      ],
      "name": "WithdrawStuckERC721",
      "type": "event"
    },
    {
      "anonymous": false,
      "inputs": [
        {
          "indexed": true,
          "internalType": "address",
          "name": "receiver",
          "type": "address"
        },
        {
          "indexed": false,
          "internalType": "uint256",
          "name": "amount",
          "type": "uint256"
        }
      ],
      "name": "WithdrawStuckEther",
      "type": "event"
    },
    {
      "inputs": [
        {
          "internalType": "string",
          "name": "tokenMetaUri",
          "type": "string"
        },
        {
          "components": [
            {
              "internalType": "bytes",
              "name": "callData",
              "type": "bytes"
            },
            {
              "internalType": "address",
              "name": "contractAddress",
              "type": "address"
            },
            {
              "internalType": "uint256",
              "name": "amountIn",
              "type": "uint256"
            }
          ],
          "internalType": "struct IWeb3PacksDefs.ContractCallGeneric[]",
          "name": "contractCalls",
          "type": "tuple[]"
        },
        {
          "components": [
            {
              "internalType": "bytes",
              "name": "callData",
              "type": "bytes"
            },
            {
              "internalType": "address",
              "name": "router",
              "type": "address"
            },
            {
              "internalType": "address",
              "name": "tokenIn",
              "type": "address"
            },
            {
              "internalType": "address",
              "name": "tokenOut",
              "type": "address"
            },
            {
              "internalType": "uint256",
              "name": "tokenAmountIn",
              "type": "uint256"
            },
            {
              "internalType": "uint256",
              "name": "payableAmountIn",
              "type": "uint256"
            },
            {
              "internalType": "bytes32",
              "name": "liquidityUuid",
              "type": "bytes32"
            },
            {
              "internalType": "enum IWeb3PacksDefs.RouterType",
              "name": "routerType",
              "type": "uint8"
            }
          ],
          "internalType": "struct IWeb3PacksDefs.ERC20SwapOrderGeneric[]",
          "name": "erc20SwapOrders",
          "type": "tuple[]"
        },
        {
          "components": [
            {
              "internalType": "address",
              "name": "router",
              "type": "address"
            },
            {
              "internalType": "address",
              "name": "token0",
              "type": "address"
            },
            {
              "internalType": "address",
              "name": "token1",
              "type": "address"
            },
            {
              "internalType": "bytes32",
              "name": "liquidityUuidToken0",
              "type": "bytes32"
            },
            {
              "internalType": "bytes32",
              "name": "liquidityUuidToken1",
              "type": "bytes32"
            },
            {
              "internalType": "uint256",
              "name": "percentToken0",
              "type": "uint256"
            },
            {
              "internalType": "uint256",
              "name": "percentToken1",
              "type": "uint256"
            },
            {
              "internalType": "uint256",
              "name": "slippage",
              "type": "uint256"
            },
            {
              "internalType": "int24",
              "name": "tickLower",
              "type": "int24"
            },
            {
              "internalType": "int24",
              "name": "tickUpper",
              "type": "int24"
            },
            {
              "internalType": "bool",
              "name": "stable",
              "type": "bool"
            },
            {
              "internalType": "enum IWeb3PacksDefs.RouterType",
              "name": "routerType",
              "type": "uint8"
            }
          ],
          "internalType": "struct IWeb3PacksDefs.LiquidityOrderGeneric[]",
          "name": "liquidityOrders",
          "type": "tuple[]"
        },
        {
          "components": [
            {
              "internalType": "uint256",
              "name": "ERC20Timelock",
              "type": "uint256"
            },
            {
              "internalType": "uint256",
              "name": "ERC721Timelock",
              "type": "uint256"
            }
          ],
          "internalType": "struct IWeb3PacksDefs.LockState",
          "name": "lockState",
          "type": "tuple"
        },
        {
          "internalType": "uint256",
          "name": "ethPackPrice",
          "type": "uint256"
        }
      ],
      "name": "bundle",
      "outputs": [
        {
          "internalType": "uint256",
          "name": "tokenId",
          "type": "uint256"
        }
      ],
      "stateMutability": "payable",
      "type": "function"
    },
    {
      "inputs": [
        {
          "internalType": "address",
          "name": "",
          "type": "address"
        },
        {
          "internalType": "address",
          "name": "",
          "type": "address"
        },
        {
          "internalType": "uint256",
          "name": "",
          "type": "uint256"
        },
        {
          "internalType": "bytes",
          "name": "",
          "type": "bytes"
        }
      ],
      "name": "onERC721Received",
      "outputs": [
        {
          "internalType": "bytes4",
          "name": "",
          "type": "bytes4"
        }
      ],
      "stateMutability": "pure",
      "type": "function"
    },
    {
      "inputs": [],
      "name": "owner",
      "outputs": [
        {
          "internalType": "address",
          "name": "",
          "type": "address"
        }
      ],
      "stateMutability": "view",
      "type": "function"
    },
    {
      "inputs": [],
      "name": "pause",
      "outputs": [],
      "stateMutability": "nonpayable",
      "type": "function"
    },
    {
      "inputs": [],
      "name": "paused",
      "outputs": [
        {
          "internalType": "bool",
          "name": "",
          "type": "bool"
        }
      ],
      "stateMutability": "view",
      "type": "function"
    },
    {
      "inputs": [],
      "name": "renounceOwnership",
      "outputs": [],
      "stateMutability": "nonpayable",
      "type": "function"
    },
    {
      "inputs": [
        {
          "internalType": "address",
          "name": "chargedParticles",
          "type": "address"
        }
      ],
      "name": "setChargedParticles",
      "outputs": [],
      "stateMutability": "nonpayable",
      "type": "function"
    },
    {
      "inputs": [
        {
          "internalType": "address",
          "name": "chargedState",
          "type": "address"
        }
      ],
      "name": "setChargedState",
      "outputs": [],
      "stateMutability": "nonpayable",
      "type": "function"
    },
    {
      "inputs": [
        {
          "internalType": "uint256",
          "name": "fee",
          "type": "uint256"
        }
      ],
      "name": "setProtocolFee",
      "outputs": [],
      "stateMutability": "nonpayable",
      "type": "function"
    },
    {
      "inputs": [
        {
          "internalType": "address",
          "name": "proton",
          "type": "address"
        }
      ],
      "name": "setProton",
      "outputs": [],
      "stateMutability": "nonpayable",
      "type": "function"
    },
    {
      "inputs": [
        {
          "internalType": "address",
          "name": "manager",
          "type": "address"
        }
      ],
      "name": "setWeb3PacksManager",
      "outputs": [],
      "stateMutability": "nonpayable",
      "type": "function"
    },
    {
      "inputs": [
        {
          "internalType": "address",
          "name": "tokenAddress",
          "type": "address"
        },
        {
          "internalType": "uint256",
          "name": "tokenId",
          "type": "uint256"
        }
      ],
      "name": "simulateUnbundleFromLP",
      "outputs": [
        {
          "components": [
            {
              "internalType": "address",
              "name": "token0",
              "type": "address"
            },
            {
              "internalType": "address",
              "name": "token1",
              "type": "address"
            },
            {
              "internalType": "uint256",
              "name": "amount0",
              "type": "uint256"
            },
            {
              "internalType": "uint256",
              "name": "amount1",
              "type": "uint256"
            }
          ],
          "internalType": "struct IWeb3PacksDefs.LiquidityPositionResult[]",
          "name": "results",
          "type": "tuple[]"
        }
      ],
      "stateMutability": "nonpayable",
      "type": "function"
    },
    {
      "inputs": [
        {
          "internalType": "address",
          "name": "newOwner",
          "type": "address"
        }
      ],
      "name": "transferOwnership",
      "outputs": [],
      "stateMutability": "nonpayable",
      "type": "function"
    },
    {
      "inputs": [
        {
          "internalType": "address",
          "name": "receiver",
          "type": "address"
        },
        {
          "internalType": "address",
          "name": "tokenAddress",
          "type": "address"
        },
        {
          "internalType": "uint256",
          "name": "tokenId",
          "type": "uint256"
        },
        {
          "components": [
            {
              "internalType": "address[]",
              "name": "erc20TokenAddresses",
              "type": "address[]"
            },
            {
              "components": [
                {
                  "internalType": "address",
                  "name": "tokenAddress",
                  "type": "address"
                },
                {
                  "internalType": "uint256",
                  "name": "id",
                  "type": "uint256"
                }
              ],
              "internalType": "struct IWeb3PacksDefs.NFT[]",
              "name": "nfts",
              "type": "tuple[]"
            }
          ],
          "internalType": "struct IWeb3PacksDefs.Web3PackOrder",
          "name": "web3PackOrder",
          "type": "tuple"
        }
      ],
      "name": "unbundle",
      "outputs": [],
      "stateMutability": "payable",
      "type": "function"
    },
    {
      "inputs": [
        {
          "internalType": "address",
          "name": "receiver",
          "type": "address"
        },
        {
          "internalType": "address",
          "name": "tokenAddress",
          "type": "address"
        },
        {
          "internalType": "uint256",
          "name": "tokenId",
          "type": "uint256"
        },
        {
          "internalType": "string",
          "name": "walletManager",
          "type": "string"
        },
        {
          "components": [
            {
              "internalType": "address[]",
              "name": "erc20TokenAddresses",
              "type": "address[]"
            },
            {
              "components": [
                {
                  "internalType": "address",
                  "name": "tokenAddress",
                  "type": "address"
                },
                {
                  "internalType": "uint256",
                  "name": "id",
                  "type": "uint256"
                }
              ],
              "internalType": "struct IWeb3PacksDefs.NFT[]",
              "name": "nfts",
              "type": "tuple[]"
            }
          ],
          "internalType": "struct IWeb3PacksDefs.Web3PackOrder",
          "name": "web3PackOrder",
          "type": "tuple"
        }
      ],
      "name": "unbundleFromManager",
      "outputs": [],
      "stateMutability": "payable",
      "type": "function"
    },
    {
      "inputs": [],
      "name": "unpause",
      "outputs": [],
      "stateMutability": "nonpayable",
      "type": "function"
    },
    {
      "inputs": [
        {
          "internalType": "address payable",
          "name": "receiver",
          "type": "address"
        },
        {
          "internalType": "address",
          "name": "tokenAddress",
          "type": "address"
        },
        {
          "internalType": "uint256",
          "name": "tokenId",
          "type": "uint256"
        },
        {
          "internalType": "uint256",
          "name": "amount",
          "type": "uint256"
        }
      ],
      "name": "withdrawERC1155",
      "outputs": [],
      "stateMutability": "nonpayable",
      "type": "function"
    },
    {
      "inputs": [
        {
          "internalType": "address payable",
          "name": "receiver",
          "type": "address"
        },
        {
          "internalType": "address",
          "name": "tokenAddress",
          "type": "address"
        },
        {
          "internalType": "uint256",
          "name": "tokenId",
          "type": "uint256"
        }
      ],
      "name": "withdrawERC721",
      "outputs": [],
      "stateMutability": "nonpayable",
      "type": "function"
    },
    {
      "inputs": [
        {
          "internalType": "address payable",
          "name": "receiver",
          "type": "address"
        },
        {
          "internalType": "address",
          "name": "tokenAddress",
          "type": "address"
        },
        {
          "internalType": "uint256",
          "name": "amount",
          "type": "uint256"
        }
      ],
      "name": "withdrawErc20",
      "outputs": [],
      "stateMutability": "nonpayable",
      "type": "function"
    },
    {
      "inputs": [
        {
          "internalType": "address payable",
          "name": "receiver",
          "type": "address"
        },
        {
          "internalType": "uint256",
          "name": "amount",
          "type": "uint256"
        }
      ],
      "name": "withdrawEther",
      "outputs": [],
      "stateMutability": "nonpayable",
      "type": "function"
    }
  ],
  "transactionHash": "0x836510d1a4b4a2fc822e1a1c2426206af4c6086859fd755588522c432eaeb2e8",
  "args": [
    "0x4200000000000000000000000000000000000006",
    "0x76a5df1c6F53A4B80c8c8177edf52FBbC368E825",
    "0x2e8614625226D26180aDf6530C3b1677d3D7cf10",
    "0x0288280Df6221E7e9f23c1BB398c820ae0Aa6c10",
    "0x2691B4f4251408bA4b8bf9530B6961b9D0C1231F"
  ],
  "numDeployments": 1,
  "solcInputHash": "6f1cc3a5c1fe73a3bb7f96447d50e0f4",
  "bytecode": "0x60c0604052600960809081526833b2b732b934b1972160b91b60a052600a906200002a9082620001ff565b5060408051808201909152600981526833b2b732b934b1972160b91b6020820152600b906200005a9082620001ff565b503480156200006857600080fd5b5060405162004668380380620046688339810160408190526200008b91620002e8565b62000096336200010a565b6000805460ff60a01b1916905560018055600280546001600160a01b03199081166001600160a01b0397881617909155600380548216958716959095179094556005805485169386169390931790925560068054841691851691909117905560078054909216921691909117905562000358565b600080546001600160a01b038381166001600160a01b0319831681178455604051919092169283917f8be0079c531659141344cd1fd0a4f28419497f9722a3daafe3b4186f6b6457e09190a35050565b634e487b7160e01b600052604160045260246000fd5b600181811c908216806200018557607f821691505b602082108103620001a657634e487b7160e01b600052602260045260246000fd5b50919050565b601f821115620001fa57600081815260208120601f850160051c81016020861015620001d55750805b601f850160051c820191505b81811015620001f657828155600101620001e1565b5050505b505050565b81516001600160401b038111156200021b576200021b6200015a565b62000233816200022c845462000170565b84620001ac565b602080601f8311600181146200026b5760008415620002525750858301515b600019600386901b1c1916600185901b178555620001f6565b600085815260208120601f198616915b828110156200029c578886015182559484019460019091019084016200027b565b5085821015620002bb5787850151600019600388901b60f8161c191681555b5050505050600190811b01905550565b80516001600160a01b0381168114620002e357600080fd5b919050565b600080600080600060a086880312156200030157600080fd5b6200030c86620002cb565b94506200031c60208701620002cb565b93506200032c60408701620002cb565b92506200033c60608701620002cb565b91506200034c60808701620002cb565b90509295509295909350565b61430080620003686000396000f3fe60806040526004361061011f5760003560e01c8063787dce3d116100a0578063bd32661611610064578063bd32661614610322578063d3d9cd5f14610342578063d8214b4914610355578063e4c8475814610368578063f2fde38b1461039557600080fd5b8063787dce3d146102855780638456cb59146102a55780638da5cb5b146102ba578063a0edb48b146102e2578063b7683e931461030257600080fd5b80634025feb2116100e75780634025feb2146101e6578063522f6815146102065780635c975abb146102265780636e5559fd14610250578063715018a61461027057600080fd5b80630846f99e146101245780630b8e844e14610146578063150b7a021461016c5780631593dee1146101b15780633f4ba83a146101d1575b600080fd5b34801561013057600080fd5b5061014461013f366004613251565b6103b5565b005b610159610154366004613357565b610407565b6040519081526020015b60405180910390f35b34801561017857600080fd5b50610198610187366004613435565b630a85bd0160e11b95945050505050565b6040516001600160e01b03199091168152602001610163565b3480156101bd57600080fd5b506101446101cc3660046134a7565b61055b565b3480156101dd57600080fd5b50610144610573565b3480156101f257600080fd5b506101446102013660046134a7565b610585565b34801561021257600080fd5b506101446102213660046134e8565b610598565b34801561023257600080fd5b50600054600160a01b900460ff166040519015158152602001610163565b34801561025c57600080fd5b5061014461026b366004613251565b6105ae565b34801561027c57600080fd5b50610144610600565b34801561029157600080fd5b506101446102a0366004613514565b610612565b3480156102b157600080fd5b50610144610655565b3480156102c657600080fd5b506000546040516001600160a01b039091168152602001610163565b3480156102ee57600080fd5b506101446102fd36600461352d565b610665565b34801561030e57600080fd5b5061014461031d366004613251565b61067f565b34801561032e57600080fd5b5061014461033d366004613251565b6106d1565b610144610350366004613573565b610723565b6101446103633660046135de565b610813565b34801561037457600080fd5b506103886103833660046134e8565b6108b8565b6040516101639190613674565b3480156103a157600080fd5b506101446103b0366004613251565b610965565b6103bd6109e3565b600480546001600160a01b0319166001600160a01b0383169081179091556040517f29c3be2a07cd721ad5a371231bdf132e57fbe87625b604811898342f90c9582f90600090a250565b6000610411610a3d565b610419610a8a565b61042282610ae3565b6104618b8b8080601f016020809104026020016040519081016040528093929190818152602001838380828437600092019190915250610b4292505050565b905061046d8989610bba565b610478878783610c0c565b610483858583610c60565b61048d8382610caf565b6003546001600160a01b03166342842e0e30336040516001600160e01b031960e085901b1681526001600160a01b0392831660048201529116602482015260448101849052606401600060405180830381600087803b1580156104ef57600080fd5b505af1158015610503573d6000803e3d6000fd5b5050505061050e3390565b6001600160a01b0316817ff8779000d9fe2bd438edb299891b05fae0b929d746d3c3e5560d065c690f357d60405160405180910390a361054d60018055565b9a9950505050505050505050565b6105636109e3565b61056e838383610d9e565b505050565b61057b6109e3565b610583610e99565b565b61058d6109e3565b61056e838383610eee565b6105a06109e3565b6105aa828261103b565b5050565b6105b66109e3565b600680546001600160a01b0319166001600160a01b0383169081179091556040517f5ce0e6b7fd36339ee97339831b6c72694ecee88c62aab49919d9cabe0a732e4190600090a250565b6106086109e3565b61058360006110c1565b61061a6109e3565b60098190556040518181527fdb5aafdb29539329e37d4e3ee869bc4031941fd55a5dfc92824fbe34b204e30d9060200160405180910390a150565b61065d6109e3565b610583611111565b61066d6109e3565b61067984848484611154565b50505050565b6106876109e3565b600680546001600160a01b0319166001600160a01b0383169081179091556040517f62ff39aed768a426c7582b6e1062ab2631df1869b2d574e36f8274d2e2b0ab8190600090a250565b6106d96109e3565b600380546001600160a01b0319166001600160a01b0383169081179091556040517fa3d7b0fff2d93a7ba440166a8f7eba4acfe6e000fe19b8218e64264d62ef272690600090a250565b61072b610a3d565b610733610a8a565b61073d6000610ae3565b6107d4848484600a8054610750906136e4565b80601f016020809104026020016040519081016040528092919081815260200182805461077c906136e4565b80156107c95780601f1061079e576101008083540402835291602001916107c9565b820191906000526020600020905b8154815290600101906020018083116107ac57829003601f168201915b5050505050856112bf565b6040516001600160a01b0385169083907fa93981b9cfa5fc675dd31c2c87b0d4f1f590180abd86d15f509ccb544775b2b990600090a361067960018055565b61081b610a3d565b610823610a8a565b61082d6000610ae3565b61087186868686868080601f0160208091040260200160405190810160405280939291908181526020018383808284376000920191909152508892506112bf915050565b6040516001600160a01b0387169085907fa93981b9cfa5fc675dd31c2c87b0d4f1f590180abd86d15f509ccb544775b2b990600090a36108b060018055565b505050505050565b6040516331a9108f60e11b8152600481018290526060906000906001600160a01b03851690636352211e90602401602060405180830381865afa158015610903573d6000803e3d6000fd5b505050506040513d601f19601f820116820180604052508101906109279190613718565b9050336001600160a01b0382161461095257604051636d8a29e760e11b815260040160405180910390fd5b61095b83611535565b9150505b92915050565b61096d6109e3565b6001600160a01b0381166109d75760405162461bcd60e51b815260206004820152602660248201527f4f776e61626c653a206e6577206f776e657220697320746865207a65726f206160448201526564647265737360d01b60648201526084015b60405180910390fd5b6109e0816110c1565b50565b6000546001600160a01b031633146105835760405162461bcd60e51b815260206004820181905260248201527f4f776e61626c653a2063616c6c6572206973206e6f7420746865206f776e657260448201526064016109ce565b600054600160a01b900460ff16156105835760405162461bcd60e51b815260206004820152601060248201526f14185d5cd8589b194e881c185d5cd95960821b60448201526064016109ce565b600260015403610adc5760405162461bcd60e51b815260206004820152601f60248201527f5265656e7472616e637947756172643a207265656e7472616e742063616c6c0060448201526064016109ce565b6002600155565b6000600954118015610b01575080600954610afe919061374b565b34105b15610b1f5760405163c53f371760e01b815260040160405180910390fd5b610b29813461375e565b60086000828254610b3a919061374b565b909155505050565b600354604051632c0cd5a360e01b81526000916001600160a01b031690632c0cd5a390610b77903090819087906004016137c1565b6020604051808303816000875af1158015610b96573d6000803e3d6000fd5b505050506040513d601f19601f8201168201806040525081019061095f91906137f6565b60005b8181101561056e57610bfa838383818110610bda57610bda61380f565b9050602002810190610bec9190613825565b610bf590613968565b611695565b80610c04816139e6565b915050610bbd565b60005b8281101561067957610c4d848483818110610c2c57610c2c61380f565b9050602002810190610c3e91906139ff565b610c4790613a2d565b83611720565b5080610c58816139e6565b915050610c0f565b60005b8281101561067957610c9d848483818110610c8057610c8061380f565b90506101800201803603810190610c979190613b00565b836118ef565b80610ca7816139e6565b915050610c63565b813515610d265760075460035460405163048001e960e11b81526001600160a01b039182166004820152602481018490528435604482015291169063090003d290606401600060405180830381600087803b158015610d0d57600080fd5b505af1158015610d21573d6000803e3d6000fd5b505050505b6020820135156105aa57600754600354604051639079900160e01b81526001600160a01b0391821660048201526024810184905260208501356044820152911690639079900190606401600060405180830381600087803b158015610d8a57600080fd5b505af11580156108b0573d6000803e3d6000fd5b6001600160a01b038316610dc45760405162461bcd60e51b81526004016109ce90613bc9565b6040516370a0823160e01b815230600482015281906001600160a01b038416906370a0823190602401602060405180830381865afa158015610e0a573d6000803e3d6000fd5b505050506040513d601f19601f82011682018060405250810190610e2e91906137f6565b1061056e57610e476001600160a01b0383168483612170565b816001600160a01b0316836001600160a01b03167f6c9d637297625e945b296ff73a71fcfbd0a9e062652b6491a921c4c60194176b83604051610e8c91815260200190565b60405180910390a3505050565b610ea16121c2565b6000805460ff60a01b191690557f5db9ee0a495bf2e6ff9c91a7834c1ba4fdd244a5e8aa4e537bd38aeae4b073aa335b6040516001600160a01b03909116815260200160405180910390a1565b6001600160a01b038316610f145760405162461bcd60e51b81526004016109ce90613bc9565b6040516331a9108f60e11b81526004810182905230906001600160a01b03841690636352211e90602401602060405180830381865afa158015610f5b573d6000803e3d6000fd5b505050506040513d601f19601f82011682018060405250810190610f7f9190613718565b6001600160a01b03160361056e576040516323b872dd60e01b81523060048201526001600160a01b038481166024830152604482018390528316906323b872dd90606401600060405180830381600087803b158015610fdd57600080fd5b505af1158015610ff1573d6000803e3d6000fd5b5050505080826001600160a01b0316846001600160a01b03167ffefe036cac4ee3a4aca074a81cbcc4376e1484693289078dbec149c890101d5b60405160405180910390a4505050565b6001600160a01b0382166110615760405162461bcd60e51b81526004016109ce90613bc9565b8047106105aa5761107b6001600160a01b03831682612212565b816001600160a01b03167eddb683bb45cd5d0ad8a200c6fae7152b1c236ee90a4a37db692407f5cc38bd826040516110b591815260200190565b60405180910390a25050565b600080546001600160a01b038381166001600160a01b0319831681178455604051919092169283917f8be0079c531659141344cd1fd0a4f28419497f9722a3daafe3b4186f6b6457e09190a35050565b611119610a3d565b6000805460ff60a01b1916600160a01b1790557f62e78cea01bee320cd4e420270b5ea74000d11b0c9f74754ebdbfc544b05a258610ed13390565b6001600160a01b03841661117a5760405162461bcd60e51b81526004016109ce90613bc9565b604051627eeac760e11b81523060048201526024810183905281906001600160a01b0385169062fdd58e90604401602060405180830381865afa1580156111c5573d6000803e3d6000fd5b505050506040513d601f19601f820116820180604052508101906111e991906137f6565b1061067957604051637921219560e11b81523060048201526001600160a01b038581166024830152604482018490526064820183905260a06084830152600060a483015284169063f242432a9060c401600060405180830381600087803b15801561125357600080fd5b505af1158015611267573d6000803e3d6000fd5b5050505081836001600160a01b0316856001600160a01b03167f620337bf89eea2b9ae2657beead83b5fa620452817118348aff96e201d52598b846040516112b191815260200190565b60405180910390a450505050565b6040516331a9108f60e11b8152600481018490526000906001600160a01b03861690636352211e90602401602060405180830381865afa158015611307573d6000803e3d6000fd5b505050506040513d601f19601f8201168201806040525081019061132b9190613718565b9050336001600160a01b0382161461135657604051636d8a29e760e11b815260040160405180910390fd5b60005b6113638380613bec565b9050811015611427576006546001600160a01b031663acab923c8888888861138b8980613bec565b8881811061139b5761139b61380f565b90506020020160208101906113b09190613251565b6040518663ffffffff1660e01b81526004016113d0959493929190613c35565b60408051808303816000875af11580156113ee573d6000803e3d6000fd5b505050506040513d601f19601f820116820180604052508101906114129190613c7a565b5050808061141f906139e6565b915050611359565b5060005b6114386020840184613c9e565b905081101561152a576006546001600160a01b031663fe02fb008888888861146360208a018a613c9e565b888181106114735761147361380f565b6114899260206040909202019081019150613251565b61149660208b018b613c9e565b898181106114a6576114a661380f565b9050604002016020013560016040518863ffffffff1660e01b81526004016114d49796959493929190613ce7565b6020604051808303816000875af11580156114f3573d6000803e3d6000fd5b505050506040513d601f19601f820116820180604052508101906115179190613d35565b5080611522816139e6565b91505061142b565b506108b0848761232b565b60048054604051630c71c67f60e41b8152918201839052606091600091829182916001600160a01b03169063c71c67f0906024016000604051808303816000875af1158015611588573d6000803e3d6000fd5b505050506040513d6000823e601f3d908101601f191682016040526115b09190810190613d80565b905060005b815181101561168c5760008282815181106115d2576115d261380f565b602002602001015190506115e681886124aa565b6115ef81612633565b909550935060018160c00151600281111561160c5761160c613e95565b036116205761161a8161292c565b90955093505b604051806080016040528082606001516001600160a01b0316815260200182608001516001600160a01b031681526020018681526020018581525086838151811061166d5761166d61380f565b6020026020010181905250508080611684906139e6565b9150506115b5565b50505050919050565b6116a281602001516129a8565b60008082602001516001600160a01b0316836040015184600001516040516116ca9190613eab565b60006040518083038185875af1925050503d8060008114611707576040519150601f19603f3d011682016040523d82523d6000602084013e61170c565b606091505b50915091508161056e578051602082018181fd5b600061172f83602001516129a8565b611746836040015184602001518560800151612a37565b60008084602001516001600160a01b03168560a00151866000015160405161176e9190613eab565b60006040518083038185875af1925050503d80600081146117ab576040519150601f19603f3d011682016040523d82523d6000602084013e6117b0565b606091505b5091509150816117c4578051602082018181fd5b60008560e0015160028111156117dc576117dc613e95565b14806117fd575060028560e0015160028111156117fb576117fb613e95565b145b15611845576000818060200190518101906118189190613ebd565b90508060018251611829919061375e565b815181106118395761183961380f565b60200260200101519350505b60018560e00151600281111561185d5761185d613e95565b03611879578080602001905181019061187691906137f6565b92505b60c08501516118965761189184866060015185612b37565b6118e7565b60408051808201825260608701516001600160a01b039081168252602080830187815260c08a01516000908152600c909252939020915182546001600160a01b031916911617815590516001909101555b505092915050565b81516118fa906129a8565b6002546040516370a0823160e01b81523060048201526000916001600160a01b0316906370a0823190602401602060405180830381865afa158015611943573d6000803e3d6000fd5b505050506040513d601f19601f8201168201806040525081019061196791906137f6565b905060008060008060008060008019168960600151036119ab57602089015160405163bf6ada5160e01b81526001600160a01b0390911660048201526024016109ce565b630ae8aa8960e31b896060015114611a3c5760608901516000908152600c6020908152604090912054908a01516001600160a01b03908116911614611a035760405163d0e96f5b60e01b815260040160405180910390fd5b6060890180516000908152600c60205260408082206001908101549351835290822080546001600160a01b031916815501559550611a40565b8695505b6080890151611a73576040808a0151905163bf6ada5160e01b81526001600160a01b0390911660048201526024016109ce565b630ae8aa8960e31b896080015114611b035760808901516000908152600c60205260409081902054908a01516001600160a01b03908116911614611aca5760405163d0e96f5b60e01b815260040160405180910390fd5b6080890180516000908152600c60205260408082206001908101549351835290822080546001600160a01b031916815501559450611b07565b8694505b6127108960a0015187611b1a9190613f42565b611b249190613f59565b95506127108960c0015186611b399190613f42565b611b439190613f59565b945060006127108a60e00151612710611b5c919061375e565b611b669089613f42565b611b709190613f59565b905060006127108b60e00151612710611b89919061375e565b611b939089613f42565b611b9d9190613f59565b905060008b61016001516002811115611bb857611bb8613e95565b1480611bda575060028b61016001516002811115611bd857611bd8613e95565b145b15611c0557611bf28b602001518c600001518a612a37565b611c058b604001518c6000015189612a37565b60018b61016001516002811115611c1e57611c1e613e95565b03611c5b5760208b0151600554611c3f91906001600160a01b03168a612a37565b60408b0151600554611c5b91906001600160a01b031689612a37565b60028b61016001516002811115611c7457611c74613e95565b03611d78578a5160208c01516040808e01516101408f01519151635a47ddc360e01b81526001600160a01b03938416600482015290831660248201529015156044820152606481018b9052608481018a905260a4810185905260c481018490523060e482015242610104820152911690635a47ddc390610124016060604051808303816000875af1158015611d0d573d6000803e3d6000fd5b505050506040513d601f19601f82011682018060405250810190611d319190613f7b565b8097508195508296505050506000611d5c8c61016001518d600001518e602001518f60400151612c44565b9050806001600160a01b03169650611d768b826000612b37565b505b60008b61016001516002811115611d9157611d91613e95565b03611e85578a5160208c01516040808e0151905162e8e33760e81b81526001600160a01b0392831660048201529082166024820152604481018b9052606481018a90526084810185905260a481018490523060c48201524260e482015291169063e8e3370090610104016060604051808303816000875af1158015611e1a573d6000803e3d6000fd5b505050506040513d601f19601f82011682018060405250810190611e3e9190613f7b565b8097508195508296505050506000611e698c61016001518d600001518e602001518f60400151612c44565b9050806001600160a01b03169650611e838b826000612b37565b505b60018b61016001516002811115611e9e57611e9e613e95565b036120705760006040518061014001604052808d602001516001600160a01b031681526020018d604001516001600160a01b031681526020018d610100015160020b81526020018d610120015160020b81526020018a8152602001898152602001848152602001838152602001306001600160a01b03168152602001428152509050600560009054906101000a90046001600160a01b03166001600160a01b0316639cc1a283826040518263ffffffff1660e01b8152600401611f619190613fa9565b6080604051808303816000875af1158015611f80573d6000803e3d6000fd5b505050506040513d601f19601f82011682018060405250810190611fa49190614054565b600354600b8054959c506001600160801b039094169a50919850965061206e926001600160a01b03909116918e91611fdb906136e4565b80601f0160208091040260200160405190810160405280929190818152602001828054612007906136e4565b80156120545780601f1061202957610100808354040283529160200191612054565b820191906000526020600020905b81548152906001019060200180831161203757829003601f168201915b50506005546001600160a01b031692508d9150612d6c9050565b505b60006040518060e001604052808881526020018781526020018d6101400151151581526020018d602001516001600160a01b031681526020018d604001516001600160a01b031681526020018d600001516001600160a01b031681526020018d610160015160028111156120e6576120e6613e95565b905260048054604051630e077d5d60e31b81529293506001600160a01b03169163703beae89161211a918f9186910161409e565b600060405180830381600087803b15801561213457600080fd5b505af1158015612148573d6000803e3d6000fd5b505050506121628c60200151868b8f60400151888d612e50565b505050505050505050505050565b604080516001600160a01b038416602482015260448082018490528251808303909101815260649091019091526020810180516001600160e01b031663a9059cbb60e01b17905261056e908490612ecf565b600054600160a01b900460ff166105835760405162461bcd60e51b815260206004820152601460248201527314185d5cd8589b194e881b9bdd081c185d5cd95960621b60448201526064016109ce565b804710156122625760405162461bcd60e51b815260206004820152601d60248201527f416464726573733a20696e73756666696369656e742062616c616e636500000060448201526064016109ce565b6000826001600160a01b03168260405160006040518083038185875af1925050503d80600081146122af576040519150601f19603f3d011682016040523d82523d6000602084013e6122b4565b606091505b505090508061056e5760405162461bcd60e51b815260206004820152603a60248201527f416464726573733a20756e61626c6520746f2073656e642076616c75652c207260448201527f6563697069656e74206d6179206861766520726576657274656400000000000060648201526084016109ce565b60048054604051630c71c67f60e41b8152918201849052600091829182916001600160a01b039091169063c71c67f0906024016000604051808303816000875af115801561237d573d6000803e3d6000fd5b505050506040513d6000823e601f3d908101601f191682016040526123a59190810190613d80565b905060005b81518110156124465760008282815181106123c7576123c761380f565b602002602001015190506123db81886124aa565b6123e481612633565b909550935060018160c00151600281111561240157612401613e95565b036124155761240f8161292c565b90955093505b61242481606001518787612fa1565b61243381608001518786612fa1565b508061243e816139e6565b9150506123aa565b506004805460405163ed00ebf560e01b81529182018790526001600160a01b03169063ed00ebf590602401600060405180830381600087803b15801561248b57600080fd5b505af115801561249f573d6000803e3d6000fd5b505050505050505050565b60008260c0015160028111156124c2576124c2613e95565b14806124e3575060028260c0015160028111156124e1576124e1613e95565b145b1561258c5760006125068360c001518460a0015185606001518660800151612c44565b600654600354604051632b2ae48f60e21b81529293506001600160a01b039182169263acab923c926125469230929116908790600b9088906004016141ca565b60408051808303816000875af1158015612564573d6000803e3d6000fd5b505050506040513d601f19601f820116820180604052508101906125889190613c7a565b5050505b60018260c0015160028111156125a4576125a4613e95565b036105aa57600654600354600554845160405162fe02fb60e81b81526001600160a01b039485169463fe02fb00946125f0943094918316938993600b93921691906001906004016141fa565b6020604051808303816000875af115801561260f573d6000803e3d6000fd5b505050506040513d601f19601f8201168201806040525081019061056e9190613d35565b60008060028360c00151600281111561264e5761264e613e95565b036127405760006126718460c001518560a0015186606001518760800151612c44565b9050612686818560a001518660200151612a37565b60a0840151606085015160808601516040808801516020890151915163037b79b160e21b81526001600160a01b039485166004820152928416602484015215156044830152606482015260006084820181905260a48201523060c48201524260e4820152911690630dede6c4906101040160408051808303816000875af1158015612715573d6000803e3d6000fd5b505050506040513d601f19601f820116820180604052508101906127399190613c7a565b9093509150505b60008360c00151600281111561275857612758613e95565b0361283d57600061277b8460c001518560a0015186606001518760800151612c44565b9050612790818560a001518660200151612a37565b60a0840151606085015160808601516020870151604051635d5155ef60e11b81526001600160a01b0393841660048201529183166024830152604482015260006064820181905260848201523060a48201524260c482015291169063baa2abde9060e40160408051808303816000875af1158015612812573d6000803e3d6000fd5b505050506040513d601f19601f820116820180604052508101906128369190613c7a565b9093509150505b60018360c00151600281111561285557612855613e95565b03612927576040805160a081018252845181526020808601516001600160801b0390811691830191825260008385018181526060850191825242608086019081526005549651630624e65f60e11b8152865160048201529451909316602485015251604484015251606483015251608482015290916001600160a01b031690630c49ccbe9060a4015b60408051808303816000875af11580156128fc573d6000803e3d6000fd5b505050506040513d601f19601f820116820180604052508101906129209190613c7a565b9093509150505b915091565b604080516080810182528251815230602082019081526001600160801b0382840181815260608401828152600554955163fc6f786560e01b81528551600482015293516001600160a01b03908116602486015291518316604485015251909116606483015260009384939291169063fc6f7865906084016128de565b60048054604051636f2ddb5f60e01b81526001600160a01b0384811693820193909352911690636f2ddb5f906024016020604051808303816000875af11580156129f6573d6000803e3d6000fd5b505050506040513d601f19601f82011682018060405250810190612a1a9190613d35565b6109e0576040516311970e2d60e31b815260040160405180910390fd5b604080516001600160a01b038481166024830152604480830185905283518084039091018152606490920183526020820180516001600160e01b031663095ea7b360e01b1790529151600092839290871691612a939190613eab565b6000604051808303816000865af19150503d8060008114612ad0576040519150601f19603f3d011682016040523d82523d6000602084013e612ad5565b606091505b5091509150818015612aff575080511580612aff575080806020019051810190612aff9190613d35565b612b305760405162461bcd60e51b8152602060048201526002602482015261534160f01b60448201526064016109ce565b5050505050565b80600003612baa576040516370a0823160e01b81523060048201526001600160a01b038316906370a0823190602401602060405180830381865afa158015612b83573d6000803e3d6000fd5b505050506040513d601f19601f82011682018060405250810190612ba791906137f6565b90505b600654612bc29083906001600160a01b031683612a37565b6006546003546040516305eef16560e11b81526001600160a01b0392831692630bdde2ca92612c01929116908790600a9088908890309060040161422a565b6020604051808303816000875af1158015612c20573d6000803e3d6000fd5b505050506040513d601f19601f8201168201806040525081019061067991906137f6565b60006002856002811115612c5a57612c5a613e95565b03612cdf5760405163147585a560e11b81526001600160a01b0384811660048301528381166024830152600060448301528516906328eb0b4a90606401602060405180830381865afa158015612cb4573d6000803e3d6000fd5b505050506040513d601f19601f82011682018060405250810190612cd89190613718565b9050612d64565b6000612cea8561309a565b60405163e6a4390560e01b81526001600160a01b03868116600483015285811660248301529192509082169063e6a4390590604401602060405180830381865afa158015612d3c573d6000803e3d6000fd5b505050506040513d601f19601f82011682018060405250810190612d609190613718565b9150505b949350505050565b60065460405163a22cb46560e01b81526001600160a01b039182166004820152600160248201529083169063a22cb46590604401600060405180830381600087803b158015612dba57600080fd5b505af1158015612dce573d6000803e3d6000fd5b5050600654604051630ffe55b360e21b81526001600160a01b039091169250633ff956cc9150612e0d9088908890889088908890600190600401614272565b6020604051808303816000875af1158015612e2c573d6000803e3d6000fd5b505050506040513d601f19601f820116820180604052508101906108b09190613d35565b83851015612e8d57600554612e719087906001600160a01b03166000612a37565b6000612e7d868661375e565b9050612e8b87335b83612fa1565b505b808210156108b057600554612eae9084906001600160a01b03166000612a37565b6000612eba838361375e565b9050612ec68433612e85565b50505050505050565b6000612f24826040518060400160405280602081526020017f5361666545524332303a206c6f772d6c6576656c2063616c6c206661696c6564815250856001600160a01b03166131099092919063ffffffff16565b80519091501561056e5780806020019051810190612f429190613d35565b61056e5760405162461bcd60e51b815260206004820152602a60248201527f5361666545524332303a204552433230206f7065726174696f6e20646964206e6044820152691bdd081cdd58d8d9595960b21b60648201526084016109ce565b604080516001600160a01b038481166024830152604480830185905283518084039091018152606490920183526020820180516001600160e01b031663a9059cbb60e01b1790529151600092839290871691612ffd9190613eab565b6000604051808303816000865af19150503d806000811461303a576040519150601f19603f3d011682016040523d82523d6000602084013e61303f565b606091505b50915091508180156130695750805115806130695750808060200190518101906130699190613d35565b612b305760405162461bcd60e51b815260206004820152600260248201526114d560f21b60448201526064016109ce565b600080829050806001600160a01b031663c45a01556040518163ffffffff1660e01b8152600401602060405180830381865afa1580156130de573d6000803e3d6000fd5b505050506040513d601f19601f820116820180604052508101906131029190613718565b9392505050565b6060612d64848460008585600080866001600160a01b031685876040516131309190613eab565b60006040518083038185875af1925050503d806000811461316d576040519150601f19603f3d011682016040523d82523d6000602084013e613172565b606091505b50915091506131838783838761318e565b979650505050505050565b606083156131fd5782516000036131f6576001600160a01b0385163b6131f65760405162461bcd60e51b815260206004820152601d60248201527f416464726573733a2063616c6c20746f206e6f6e2d636f6e747261637400000060448201526064016109ce565b5081612d64565b612d6483838151156132125781518083602001fd5b8060405162461bcd60e51b81526004016109ce91906142b7565b6001600160a01b03811681146109e057600080fd5b803561324c8161322c565b919050565b60006020828403121561326357600080fd5b81356131028161322c565b60008083601f84011261328057600080fd5b5081356001600160401b0381111561329757600080fd5b6020830191508360208285010111156132af57600080fd5b9250929050565b60008083601f8401126132c857600080fd5b5081356001600160401b038111156132df57600080fd5b6020830191508360208260051b85010111156132af57600080fd5b60008083601f84011261330c57600080fd5b5081356001600160401b0381111561332357600080fd5b602083019150836020610180830285010111156132af57600080fd5b60006040828403121561335157600080fd5b50919050565b60008060008060008060008060008060e08b8d03121561337657600080fd5b8a356001600160401b038082111561338d57600080fd5b6133998e838f0161326e565b909c509a5060208d01359150808211156133b257600080fd5b6133be8e838f016132b6565b909a50985060408d01359150808211156133d757600080fd5b6133e38e838f016132b6565b909850965060608d01359150808211156133fc57600080fd5b506134098d828e016132fa565b909550935061341d90508c60808d0161333f565b915060c08b013590509295989b9194979a5092959850565b60008060008060006080868803121561344d57600080fd5b85356134588161322c565b945060208601356134688161322c565b93506040860135925060608601356001600160401b0381111561348a57600080fd5b6134968882890161326e565b969995985093965092949392505050565b6000806000606084860312156134bc57600080fd5b83356134c78161322c565b925060208401356134d78161322c565b929592945050506040919091013590565b600080604083850312156134fb57600080fd5b82356135068161322c565b946020939093013593505050565b60006020828403121561352657600080fd5b5035919050565b6000806000806080858703121561354357600080fd5b843561354e8161322c565b9350602085013561355e8161322c565b93969395505050506040820135916060013590565b6000806000806080858703121561358957600080fd5b84356135948161322c565b935060208501356135a48161322c565b92506040850135915060608501356001600160401b038111156135c657600080fd5b6135d28782880161333f565b91505092959194509250565b60008060008060008060a087890312156135f757600080fd5b86356136028161322c565b955060208701356136128161322c565b94506040870135935060608701356001600160401b038082111561363557600080fd5b6136418a838b0161326e565b9095509350608089013591508082111561365a57600080fd5b5061366789828a0161333f565b9150509295509295509295565b602080825282518282018190526000919060409081850190868401855b828110156136d757815180516001600160a01b03908116865287820151168786015285810151868601526060908101519085015260809093019290850190600101613691565b5091979650505050505050565b600181811c908216806136f857607f821691505b60208210810361335157634e487b7160e01b600052602260045260246000fd5b60006020828403121561372a57600080fd5b81516131028161322c565b634e487b7160e01b600052601160045260246000fd5b8082018082111561095f5761095f613735565b8181038181111561095f5761095f613735565b60005b8381101561378c578181015183820152602001613774565b50506000910152565b600081518084526137ad816020860160208601613771565b601f01601f19169290920160200192915050565b6001600160a01b038481168252831660208201526060604082018190526000906137ed90830184613795565b95945050505050565b60006020828403121561380857600080fd5b5051919050565b634e487b7160e01b600052603260045260246000fd5b60008235605e1983360301811261383b57600080fd5b9190910192915050565b634e487b7160e01b600052604160045260246000fd5b60405161010081016001600160401b038111828210171561387e5761387e613845565b60405290565b60405161018081016001600160401b038111828210171561387e5761387e613845565b60405160e081016001600160401b038111828210171561387e5761387e613845565b604051601f8201601f191681016001600160401b03811182821017156138f1576138f1613845565b604052919050565b600082601f83011261390a57600080fd5b81356001600160401b0381111561392357613923613845565b613936601f8201601f19166020016138c9565b81815284602083860101111561394b57600080fd5b816020850160208301376000918101602001919091529392505050565b60006060823603121561397a57600080fd5b604051606081016001600160401b03828210818311171561399d5761399d613845565b8160405284359150808211156139b257600080fd5b506139bf368286016138f9565b82525060208301356139d08161322c565b6020820152604092830135928101929092525090565b6000600182016139f8576139f8613735565b5060010190565b6000823560fe1983360301811261383b57600080fd5b600381106109e057600080fd5b803561324c81613a15565b60006101008236031215613a4057600080fd5b613a4861385b565b82356001600160401b03811115613a5e57600080fd5b613a6a368286016138f9565b825250613a7960208401613241565b6020820152613a8a60408401613241565b6040820152613a9b60608401613241565b60608201526080830135608082015260a083013560a082015260c083013560c0820152613aca60e08401613a22565b60e082015292915050565b8035600281900b811461324c57600080fd5b80151581146109e057600080fd5b803561324c81613ae7565b60006101808284031215613b1357600080fd5b613b1b613884565b613b2483613241565b8152613b3260208401613241565b6020820152613b4360408401613241565b6040820152606083013560608201526080830135608082015260a083013560a082015260c083013560c082015260e083013560e0820152610100613b88818501613ad5565b90820152610120613b9a848201613ad5565b90820152610140613bac848201613af5565b90820152610160613bbe848201613a22565b908201529392505050565b6020808252600990820152684248503a452d34303360b81b604082015260600190565b6000808335601e19843603018112613c0357600080fd5b8301803591506001600160401b03821115613c1d57600080fd5b6020019150600581901b36038213156132af57600080fd5b600060018060a01b038088168352808716602084015285604084015260a06060840152613c6560a0840186613795565b91508084166080840152509695505050505050565b60008060408385031215613c8d57600080fd5b505080516020909101519092909150565b6000808335601e19843603018112613cb557600080fd5b8301803591506001600160401b03821115613ccf57600080fd5b6020019150600681901b36038213156132af57600080fd5b600060018060a01b03808a168352808916602084015287604084015260e06060840152613d1760e0840188613795565b951660808301525060a081019290925260c090910152949350505050565b600060208284031215613d4757600080fd5b815161310281613ae7565b60006001600160401b03821115613d6b57613d6b613845565b5060051b60200190565b805161324c81613a15565b60006020808385031215613d9357600080fd5b82516001600160401b03811115613da957600080fd5b8301601f81018513613dba57600080fd5b8051613dcd613dc882613d52565b6138c9565b81815260e09182028301840191848201919088841115613dec57600080fd5b938501935b83851015613e895780858a031215613e095760008081fd5b613e116138a7565b855181528686015187820152604080870151613e2c81613ae7565b90820152606086810151613e3f8161322c565b90820152608086810151613e528161322c565b9082015260a086810151613e658161322c565b9082015260c0613e76878201613d75565b9082015283529384019391850191613df1565b50979650505050505050565b634e487b7160e01b600052602160045260246000fd5b6000825161383b818460208701613771565b60006020808385031215613ed057600080fd5b82516001600160401b03811115613ee657600080fd5b8301601f81018513613ef757600080fd5b8051613f05613dc882613d52565b81815260059190911b82018301908381019087831115613f2457600080fd5b928401925b8284101561318357835182529284019290840190613f29565b808202811582820484141761095f5761095f613735565b600082613f7657634e487b7160e01b600052601260045260246000fd5b500490565b600080600060608486031215613f9057600080fd5b8351925060208401519150604084015190509250925092565b81516001600160a01b0316815261014081016020830151613fd560208401826001600160a01b03169052565b506040830151613fea604084018260020b9052565b506060830151613fff606084018260020b9052565b506080830151608083015260a083015160a083015260c083015160c083015260e083015160e083015261010080840151614043828501826001600160a01b03169052565b505061012092830151919092015290565b6000806000806080858703121561406a57600080fd5b8451935060208501516001600160801b038116811461408857600080fd5b6040860151606090960151949790965092505050565b6000610100820190508382528251602083015260208301516040830152604083015115156060830152606083015160018060a01b0380821660808501528060808601511660a08501528060a08601511660c0850152505060c08301516003811061411857634e487b7160e01b600052602160045260246000fd5b8060e0840152509392505050565b8054600090600181811c908083168061414057607f831692505b6020808410820361416157634e487b7160e01b600052602260045260246000fd5b8388526020880182801561417c5760018114614192576141bd565b60ff198716825285151560051b820197506141bd565b60008981526020902060005b878110156141b75781548482015290860190840161419e565b83019850505b5050505050505092915050565b600060018060a01b038088168352808716602084015285604084015260a06060840152613c6560a0840186614126565b600060018060a01b03808a168352808916602084015287604084015260e06060840152613d1760e0840188614126565b600060018060a01b03808916835287602084015260c0604084015261425260c0840188614126565b9581166060840152608083019490945250911660a0909101529392505050565b600060018060a01b03808916835287602084015260c0604084015261429a60c0840188613795565b9516606083015250608081019290925260a0909101529392505050565b602081526000613102602083018461379556fea2646970667358221220fed425bda9c6789132dc32e2f8b71620b49f956c4c06136ab4972904f25ba0b064736f6c63430008110033",
  "devdoc": {
    "kind": "dev",
    "methods": {
      "owner()": {
        "details": "Returns the address of the current owner."
      },
      "paused()": {
        "details": "Returns true if the contract is paused, and false otherwise."
      },
      "renounceOwnership()": {
        "details": "Leaves the contract without owner. It will not be possible to call `onlyOwner` functions anymore. Can only be called by the current owner. NOTE: Renouncing ownership will leave the contract without an owner, thereby removing any functionality that is only available to the owner."
      },
      "setChargedParticles(address)": {
        "details": "Setup the ChargedParticles Interface"
      },
      "transferOwnership(address)": {
        "details": "Transfers ownership of the contract to a new account (`newOwner`). Can only be called by the current owner."
      }
    },
    "version": 1
  },
  "userdoc": {
    "kind": "user",
    "methods": {},
    "version": 1
  },
  "storageLayout": {
    "storage": [
      {
        "astId": 7,
        "contract": "contracts/Web3PacksMode.sol:Web3PacksMode",
        "label": "_owner",
        "offset": 0,
        "slot": "0",
        "type": "t_address"
      },
      {
        "astId": 130,
        "contract": "contracts/Web3PacksMode.sol:Web3PacksMode",
        "label": "_paused",
        "offset": 20,
        "slot": "0",
        "type": "t_bool"
      },
      {
        "astId": 231,
        "contract": "contracts/Web3PacksMode.sol:Web3PacksMode",
        "label": "_status",
        "offset": 0,
        "slot": "1",
        "type": "t_uint256"
      },
      {
        "astId": 2396,
        "contract": "contracts/Web3PacksMode.sol:Web3PacksMode",
        "label": "_weth",
        "offset": 0,
        "slot": "2",
        "type": "t_address"
      },
      {
        "astId": 2398,
        "contract": "contracts/Web3PacksMode.sol:Web3PacksMode",
        "label": "_proton",
        "offset": 0,
        "slot": "3",
        "type": "t_address"
      },
      {
        "astId": 2400,
        "contract": "contracts/Web3PacksMode.sol:Web3PacksMode",
        "label": "_web3PacksManager",
        "offset": 0,
        "slot": "4",
        "type": "t_address"
      },
      {
        "astId": 2402,
        "contract": "contracts/Web3PacksMode.sol:Web3PacksMode",
        "label": "_nonfungiblePositionManager",
        "offset": 0,
        "slot": "5",
        "type": "t_address"
      },
      {
        "astId": 2404,
        "contract": "contracts/Web3PacksMode.sol:Web3PacksMode",
        "label": "_chargedParticles",
        "offset": 0,
        "slot": "6",
        "type": "t_address"
      },
      {
        "astId": 2406,
        "contract": "contracts/Web3PacksMode.sol:Web3PacksMode",
        "label": "_chargedState",
        "offset": 0,
        "slot": "7",
        "type": "t_address"
      },
      {
        "astId": 2408,
        "contract": "contracts/Web3PacksMode.sol:Web3PacksMode",
        "label": "_feesCollected",
        "offset": 0,
        "slot": "8",
        "type": "t_uint256"
      },
      {
        "astId": 2410,
        "contract": "contracts/Web3PacksMode.sol:Web3PacksMode",
        "label": "_protocolFee",
        "offset": 0,
        "slot": "9",
        "type": "t_uint256"
      },
      {
        "astId": 2413,
        "contract": "contracts/Web3PacksMode.sol:Web3PacksMode",
        "label": "_cpWalletManager",
        "offset": 0,
        "slot": "10",
        "type": "t_string_storage"
      },
      {
        "astId": 2416,
        "contract": "contracts/Web3PacksMode.sol:Web3PacksMode",
        "label": "_cpBasketManager",
        "offset": 0,
        "slot": "11",
        "type": "t_string_storage"
      },
      {
        "astId": 2421,
        "contract": "contracts/Web3PacksMode.sol:Web3PacksMode",
        "label": "_swapForLiquidityAmount",
        "offset": 0,
        "slot": "12",
        "type": "t_mapping(t_bytes32,t_struct(TokenAmount)5459_storage)"
      }
    ],
    "types": {
      "t_address": {
        "encoding": "inplace",
        "label": "address",
        "numberOfBytes": "20"
      },
      "t_bool": {
        "encoding": "inplace",
        "label": "bool",
        "numberOfBytes": "1"
      },
      "t_bytes32": {
        "encoding": "inplace",
        "label": "bytes32",
        "numberOfBytes": "32"
      },
      "t_mapping(t_bytes32,t_struct(TokenAmount)5459_storage)": {
        "encoding": "mapping",
        "key": "t_bytes32",
        "label": "mapping(bytes32 => struct IWeb3PacksDefs.TokenAmount)",
        "numberOfBytes": "32",
        "value": "t_struct(TokenAmount)5459_storage"
      },
      "t_string_storage": {
        "encoding": "bytes",
        "label": "string",
        "numberOfBytes": "32"
      },
      "t_struct(TokenAmount)5459_storage": {
        "encoding": "inplace",
        "label": "struct IWeb3PacksDefs.TokenAmount",
        "members": [
          {
            "astId": 5456,
            "contract": "contracts/Web3PacksMode.sol:Web3PacksMode",
            "label": "token",
            "offset": 0,
            "slot": "0",
            "type": "t_address"
          },
          {
            "astId": 5458,
            "contract": "contracts/Web3PacksMode.sol:Web3PacksMode",
            "label": "amount",
            "offset": 0,
            "slot": "1",
            "type": "t_uint256"
          }
        ],
        "numberOfBytes": "64"
      },
      "t_uint256": {
        "encoding": "inplace",
        "label": "uint256",
        "numberOfBytes": "32"
      }
    }
  }
}