{
  "address": "0xB3781bbB4799C47C7f803979e308f686B79A5997",
  "abi": [
    {
      "inputs": [
        {
          "internalType": "address",
          "name": "weth",
          "type": "address"
        }
      ],
      "stateMutability": "nonpayable",
      "type": "constructor"
    },
    {
      "inputs": [],
      "name": "ContractNotAllowed",
      "type": "error"
    },
    {
      "inputs": [],
      "name": "FundingFailed",
      "type": "error"
    },
    {
      "inputs": [
        {
          "internalType": "uint256",
          "name": "value",
          "type": "uint256"
        },
        {
          "internalType": "uint256",
          "name": "ethPackPrice",
          "type": "uint256"
        },
        {
          "internalType": "uint256",
          "name": "protocolFee",
          "type": "uint256"
        }
      ],
      "name": "InsufficientForFee",
      "type": "error"
    },
    {
      "inputs": [],
      "name": "MismatchedTokens",
      "type": "error"
    },
    {
      "inputs": [
        {
          "internalType": "address",
          "name": "tokenAddress",
          "type": "address"
        }
      ],
      "name": "MissingLiquidityUUID",
      "type": "error"
    },
    {
      "inputs": [],
      "name": "NativeAssetTransferFailed",
      "type": "error"
    },
    {
      "inputs": [],
      "name": "NotOwnerOrApproved",
      "type": "error"
    },
    {
      "inputs": [],
      "name": "NullReceiver",
      "type": "error"
    },
    {
      "inputs": [
        {
          "internalType": "address",
          "name": "tokenOut",
          "type": "address"
        },
        {
          "internalType": "uint256",
          "name": "amountIn",
          "type": "uint256"
        },
        {
          "internalType": "address",
          "name": "router",
          "type": "address"
        }
      ],
      "name": "UnsucessfulSwap",
      "type": "error"
    },
    {
      "anonymous": false,
      "inputs": [
        {
          "indexed": true,
          "internalType": "address",
          "name": "chargedParticles",
          "type": "address"
        }
      ],
      "name": "ChargedParticlesSet",
      "type": "event"
    },
    {
      "anonymous": false,
      "inputs": [
        {
          "indexed": true,
          "internalType": "address",
          "name": "chargedState",
          "type": "address"
        }
      ],
      "name": "ChargedStateSet",
      "type": "event"
    },
    {
      "anonymous": false,
      "inputs": [
        {
          "indexed": true,
          "internalType": "address",
          "name": "previousOwner",
          "type": "address"
        },
        {
          "indexed": true,
          "internalType": "address",
          "name": "newOwner",
          "type": "address"
        }
      ],
      "name": "OwnershipTransferred",
      "type": "event"
    },
    {
      "anonymous": false,
      "inputs": [
        {
          "indexed": true,
          "internalType": "uint256",
          "name": "tokenId",
          "type": "uint256"
        },
        {
          "indexed": true,
          "internalType": "address",
          "name": "receiver",
          "type": "address"
        },
        {
          "indexed": false,
          "internalType": "bytes32",
          "name": "packType",
          "type": "bytes32"
        },
        {
          "indexed": false,
          "internalType": "bytes32",
          "name": "usdPackPrice",
          "type": "bytes32"
        }
      ],
      "name": "PackBundled",
      "type": "event"
    },
    {
      "anonymous": false,
      "inputs": [
        {
          "indexed": true,
          "internalType": "uint256",
          "name": "tokenId",
          "type": "uint256"
        },
        {
          "indexed": true,
          "internalType": "address",
          "name": "receiver",
          "type": "address"
        },
        {
          "indexed": false,
          "internalType": "uint256",
          "name": "ethAmount",
          "type": "uint256"
        }
      ],
      "name": "PackUnbundled",
      "type": "event"
    },
    {
      "anonymous": false,
      "inputs": [
        {
          "indexed": false,
          "internalType": "address",
          "name": "account",
          "type": "address"
        }
      ],
      "name": "Paused",
      "type": "event"
    },
    {
      "anonymous": false,
      "inputs": [
        {
          "indexed": false,
          "internalType": "uint256",
          "name": "fee",
          "type": "uint256"
        }
      ],
      "name": "ProtocolFeeSet",
      "type": "event"
    },
    {
      "anonymous": false,
      "inputs": [
        {
          "indexed": true,
          "internalType": "address",
          "name": "proton",
          "type": "address"
        }
      ],
      "name": "ProtonSet",
      "type": "event"
    },
    {
      "anonymous": false,
      "inputs": [
        {
          "indexed": true,
          "internalType": "address",
          "name": "router",
          "type": "address"
        }
      ],
      "name": "RouterSet",
      "type": "event"
    },
    {
      "anonymous": false,
      "inputs": [
        {
          "indexed": false,
          "internalType": "address",
          "name": "account",
          "type": "address"
        }
      ],
      "name": "Unpaused",
      "type": "event"
    },
    {
      "anonymous": false,
      "inputs": [
        {
          "indexed": true,
          "internalType": "address",
          "name": "manager",
          "type": "address"
        }
      ],
      "name": "Web3PacksExchangeManagerSet",
      "type": "event"
    },
    {
      "anonymous": false,
      "inputs": [
        {
          "indexed": true,
          "internalType": "address",
          "name": "manager",
          "type": "address"
        }
      ],
      "name": "Web3PacksManagerSet",
      "type": "event"
    },
    {
      "anonymous": false,
      "inputs": [
        {
          "indexed": true,
          "internalType": "address",
          "name": "web3packs",
          "type": "address"
        }
      ],
      "name": "Web3PacksSet",
      "type": "event"
    },
    {
      "anonymous": false,
      "inputs": [
        {
          "indexed": true,
          "internalType": "address",
          "name": "treasury",
          "type": "address"
        }
      ],
      "name": "Web3PacksTreasurySet",
      "type": "event"
    },
    {
      "anonymous": false,
      "inputs": [
        {
          "indexed": true,
          "internalType": "address",
          "name": "receiver",
          "type": "address"
        },
        {
          "indexed": true,
          "internalType": "address",
          "name": "tokenAddress",
          "type": "address"
        },
        {
          "indexed": true,
          "internalType": "uint256",
          "name": "tokenId",
          "type": "uint256"
        },
        {
          "indexed": false,
          "internalType": "uint256",
          "name": "amount",
          "type": "uint256"
        }
      ],
      "name": "WithdrawStuckERC1155",
      "type": "event"
    },
    {
      "anonymous": false,
      "inputs": [
        {
          "indexed": true,
          "internalType": "address",
          "name": "receiver",
          "type": "address"
        },
        {
          "indexed": true,
          "internalType": "address",
          "name": "tokenAddress",
          "type": "address"
        },
        {
          "indexed": false,
          "internalType": "uint256",
          "name": "amount",
          "type": "uint256"
        }
      ],
      "name": "WithdrawStuckERC20",
      "type": "event"
    },
    {
      "anonymous": false,
      "inputs": [
        {
          "indexed": true,
          "internalType": "address",
          "name": "receiver",
          "type": "address"
        },
        {
          "indexed": true,
          "internalType": "address",
          "name": "tokenAddress",
          "type": "address"
        },
        {
          "indexed": true,
          "internalType": "uint256",
          "name": "tokenId",
          "type": "uint256"
        }
      ],
      "name": "WithdrawStuckERC721",
      "type": "event"
    },
    {
      "anonymous": false,
      "inputs": [
        {
          "indexed": true,
          "internalType": "address",
          "name": "receiver",
          "type": "address"
        },
        {
          "indexed": false,
          "internalType": "uint256",
          "name": "amount",
          "type": "uint256"
        }
      ],
      "name": "WithdrawStuckEther",
      "type": "event"
    },
    {
      "stateMutability": "payable",
      "type": "fallback"
    },
    {
      "inputs": [],
      "name": "_web3Packs",
      "outputs": [
        {
          "internalType": "address",
          "name": "",
          "type": "address"
        }
      ],
      "stateMutability": "view",
      "type": "function"
    },
    {
      "inputs": [],
      "name": "_web3PacksManager",
      "outputs": [
        {
          "internalType": "address",
          "name": "",
          "type": "address"
        }
      ],
      "stateMutability": "view",
      "type": "function"
    },
    {
      "inputs": [],
      "name": "_weth",
      "outputs": [
        {
          "internalType": "address",
          "name": "",
          "type": "address"
        }
      ],
      "stateMutability": "view",
      "type": "function"
    },
    {
      "inputs": [
        {
          "components": [
            {
              "internalType": "address",
              "name": "router",
              "type": "address"
            },
            {
              "internalType": "address",
              "name": "token0",
              "type": "address"
            },
            {
              "internalType": "address",
              "name": "token1",
              "type": "address"
            },
            {
              "internalType": "bytes32",
              "name": "liquidityUuidToken0",
              "type": "bytes32"
            },
            {
              "internalType": "bytes32",
              "name": "liquidityUuidToken1",
              "type": "bytes32"
            },
            {
              "internalType": "uint256",
              "name": "percentToken0",
              "type": "uint256"
            },
            {
              "internalType": "uint256",
              "name": "percentToken1",
              "type": "uint256"
            },
            {
              "internalType": "uint256",
              "name": "minimumLpTokens",
              "type": "uint256"
            },
            {
              "internalType": "uint256",
              "name": "slippage",
              "type": "uint256"
            },
            {
              "internalType": "int24",
              "name": "tickLower",
              "type": "int24"
            },
            {
              "internalType": "int24",
              "name": "tickUpper",
              "type": "int24"
            },
            {
              "internalType": "bool",
              "name": "stable",
              "type": "bool"
            },
            {
              "internalType": "bytes32",
              "name": "poolId",
              "type": "bytes32"
            },
            {
              "internalType": "enum IWeb3PacksDefs.RouterType",
              "name": "routerType",
              "type": "uint8"
            }
          ],
          "internalType": "struct IWeb3PacksDefs.LiquidityOrderGeneric[]",
          "name": "orders",
          "type": "tuple[]"
        },
        {
          "internalType": "uint256",
          "name": "web3PacksTokenId",
          "type": "uint256"
        }
      ],
      "name": "depositLiquidity",
      "outputs": [],
      "stateMutability": "nonpayable",
      "type": "function"
    },
    {
      "inputs": [
        {
          "components": [
            {
              "internalType": "uint256",
              "name": "lpTokenId",
              "type": "uint256"
            },
            {
              "internalType": "uint256",
              "name": "liquidity",
              "type": "uint256"
            },
            {
              "internalType": "bool",
              "name": "stable",
              "type": "bool"
            },
            {
              "internalType": "address",
              "name": "token0",
              "type": "address"
            },
            {
              "internalType": "address",
              "name": "token1",
              "type": "address"
            },
            {
              "internalType": "int24",
              "name": "tickLower",
              "type": "int24"
            },
            {
              "internalType": "int24",
              "name": "tickUpper",
              "type": "int24"
            },
            {
              "internalType": "bytes32",
              "name": "poolId",
              "type": "bytes32"
            },
            {
              "internalType": "address",
              "name": "router",
              "type": "address"
            },
            {
              "internalType": "enum IWeb3PacksDefs.RouterType",
              "name": "routerType",
              "type": "uint8"
            }
          ],
          "internalType": "struct IWeb3PacksDefs.LiquidityPosition",
          "name": "liquidityPosition",
          "type": "tuple"
        }
      ],
      "name": "getLiquidityTokenData",
      "outputs": [
        {
          "internalType": "address",
          "name": "lpTokenAddress",
          "type": "address"
        },
        {
          "internalType": "uint256",
          "name": "lpTokenId",
          "type": "uint256"
        }
      ],
      "stateMutability": "view",
      "type": "function"
    },
    {
      "inputs": [
        {
          "internalType": "address",
          "name": "",
          "type": "address"
        },
        {
          "internalType": "address",
          "name": "",
          "type": "address"
        },
        {
          "internalType": "uint256",
          "name": "",
          "type": "uint256"
        },
        {
          "internalType": "bytes",
          "name": "",
          "type": "bytes"
        }
      ],
      "name": "onERC721Received",
      "outputs": [
        {
          "internalType": "bytes4",
          "name": "",
          "type": "bytes4"
        }
      ],
      "stateMutability": "pure",
      "type": "function"
    },
    {
      "inputs": [],
      "name": "owner",
      "outputs": [
        {
          "internalType": "address",
          "name": "",
          "type": "address"
        }
      ],
      "stateMutability": "view",
      "type": "function"
    },
    {
      "inputs": [],
      "name": "paused",
      "outputs": [
        {
          "internalType": "bool",
          "name": "",
          "type": "bool"
        }
      ],
      "stateMutability": "view",
      "type": "function"
    },
    {
      "inputs": [
        {
          "components": [
            {
              "internalType": "bytes",
              "name": "callData",
              "type": "bytes"
            },
            {
              "internalType": "address",
              "name": "contractAddress",
              "type": "address"
            },
            {
              "internalType": "uint256",
              "name": "amountIn",
              "type": "uint256"
            }
          ],
          "internalType": "struct IWeb3PacksDefs.ContractCallGeneric[]",
          "name": "contractCalls",
          "type": "tuple[]"
        }
      ],
      "name": "performContractCalls",
      "outputs": [],
      "stateMutability": "nonpayable",
      "type": "function"
    },
    {
      "inputs": [
        {
          "components": [
            {
              "internalType": "bytes",
              "name": "callData",
              "type": "bytes"
            },
            {
              "internalType": "address",
              "name": "router",
              "type": "address"
            },
            {
              "internalType": "address",
              "name": "tokenIn",
              "type": "address"
            },
            {
              "internalType": "address",
              "name": "tokenOut",
              "type": "address"
            },
            {
              "internalType": "uint256",
              "name": "tokenAmountIn",
              "type": "uint256"
            },
            {
              "internalType": "uint256",
              "name": "tokenAmountOutMin",
              "type": "uint256"
            },
            {
              "internalType": "uint256",
              "name": "payableAmountIn",
              "type": "uint256"
            },
            {
              "internalType": "bytes32",
              "name": "liquidityUuid",
              "type": "bytes32"
            },
            {
              "internalType": "bytes32",
              "name": "poolId",
              "type": "bytes32"
            },
            {
              "internalType": "enum IWeb3PacksDefs.RouterType",
              "name": "routerType",
              "type": "uint8"
            }
          ],
          "internalType": "struct IWeb3PacksDefs.ERC20SwapOrderGeneric[]",
          "name": "orders",
          "type": "tuple[]"
        },
        {
          "internalType": "uint256",
          "name": "web3packsTokenId",
          "type": "uint256"
        }
      ],
      "name": "performSwaps",
      "outputs": [],
      "stateMutability": "nonpayable",
      "type": "function"
    },
    {
      "inputs": [
        {
          "components": [
            {
              "internalType": "uint256",
              "name": "lpTokenId",
              "type": "uint256"
            },
            {
              "internalType": "uint256",
              "name": "liquidity",
              "type": "uint256"
            },
            {
              "internalType": "bool",
              "name": "stable",
              "type": "bool"
            },
            {
              "internalType": "address",
              "name": "token0",
              "type": "address"
            },
            {
              "internalType": "address",
              "name": "token1",
              "type": "address"
            },
            {
              "internalType": "int24",
              "name": "tickLower",
              "type": "int24"
            },
            {
              "internalType": "int24",
              "name": "tickUpper",
              "type": "int24"
            },
            {
              "internalType": "bytes32",
              "name": "poolId",
              "type": "bytes32"
            },
            {
              "internalType": "address",
              "name": "router",
              "type": "address"
            },
            {
              "internalType": "enum IWeb3PacksDefs.RouterType",
              "name": "routerType",
              "type": "uint8"
            }
          ],
          "internalType": "struct IWeb3PacksDefs.LiquidityPosition",
          "name": "liquidityPosition",
          "type": "tuple"
        },
        {
          "components": [
            {
              "components": [
                {
                  "internalType": "address",
                  "name": "token",
                  "type": "address"
                },
                {
                  "internalType": "uint256",
                  "name": "amount",
                  "type": "uint256"
                }
              ],
              "internalType": "struct IWeb3PacksDefs.TokenAmount",
              "name": "token0",
              "type": "tuple"
            },
            {
              "components": [
                {
                  "internalType": "address",
                  "name": "token",
                  "type": "address"
                },
                {
                  "internalType": "uint256",
                  "name": "amount",
                  "type": "uint256"
                }
              ],
              "internalType": "struct IWeb3PacksDefs.TokenAmount",
              "name": "token1",
              "type": "tuple"
            },
            {
              "internalType": "uint256",
              "name": "slippage",
              "type": "uint256"
            },
            {
              "internalType": "bytes32",
              "name": "poolId",
              "type": "bytes32"
            },
            {
              "internalType": "address",
              "name": "router",
              "type": "address"
            },
            {
              "internalType": "enum IWeb3PacksDefs.RouterType",
              "name": "routerType",
              "type": "uint8"
            },
            {
              "internalType": "bool",
              "name": "exitLpOnUnbundle",
              "type": "bool"
            },
            {
              "internalType": "bool",
              "name": "stable",
              "type": "bool"
            }
          ],
          "internalType": "struct IWeb3PacksDefs.LiquidityPairs",
          "name": "liquidityPair",
          "type": "tuple"
        },
        {
          "internalType": "address",
          "name": "receiver",
          "type": "address"
        },
        {
          "internalType": "bool",
          "name": "sellAll",
          "type": "bool"
        }
      ],
      "name": "removeLiquidity",
      "outputs": [],
      "stateMutability": "nonpayable",
      "type": "function"
    },
    {
      "inputs": [],
      "name": "renounceOwnership",
      "outputs": [],
      "stateMutability": "nonpayable",
      "type": "function"
    },
    {
      "inputs": [
        {
          "internalType": "address",
          "name": "web3packs",
          "type": "address"
        }
      ],
      "name": "setWeb3Packs",
      "outputs": [],
      "stateMutability": "nonpayable",
      "type": "function"
    },
    {
      "inputs": [
        {
          "internalType": "address",
          "name": "manager",
          "type": "address"
        }
      ],
      "name": "setWeb3PacksManager",
      "outputs": [],
      "stateMutability": "nonpayable",
      "type": "function"
    },
    {
      "inputs": [
        {
          "components": [
            {
              "internalType": "bytes",
              "name": "callData",
              "type": "bytes"
            },
            {
              "internalType": "address",
              "name": "router",
              "type": "address"
            },
            {
              "internalType": "address",
              "name": "tokenIn",
              "type": "address"
            },
            {
              "internalType": "address",
              "name": "tokenOut",
              "type": "address"
            },
            {
              "internalType": "uint256",
              "name": "tokenAmountIn",
              "type": "uint256"
            },
            {
              "internalType": "uint256",
              "name": "tokenAmountOutMin",
              "type": "uint256"
            },
            {
              "internalType": "uint256",
              "name": "payableAmountIn",
              "type": "uint256"
            },
            {
              "internalType": "bytes32",
              "name": "liquidityUuid",
              "type": "bytes32"
            },
            {
              "internalType": "bytes32",
              "name": "poolId",
              "type": "bytes32"
            },
            {
              "internalType": "enum IWeb3PacksDefs.RouterType",
              "name": "routerType",
              "type": "uint8"
            }
          ],
          "internalType": "struct IWeb3PacksDefs.ERC20SwapOrderGeneric[]",
          "name": "erc20SwapOrders",
          "type": "tuple[]"
        },
        {
          "components": [
            {
              "components": [
                {
                  "internalType": "address",
                  "name": "token",
                  "type": "address"
                },
                {
                  "internalType": "uint256",
                  "name": "amount",
                  "type": "uint256"
                }
              ],
              "internalType": "struct IWeb3PacksDefs.TokenAmount",
              "name": "token0",
              "type": "tuple"
            },
            {
              "components": [
                {
                  "internalType": "address",
                  "name": "token",
                  "type": "address"
                },
                {
                  "internalType": "uint256",
                  "name": "amount",
                  "type": "uint256"
                }
              ],
              "internalType": "struct IWeb3PacksDefs.TokenAmount",
              "name": "token1",
              "type": "tuple"
            },
            {
              "internalType": "uint256",
              "name": "slippage",
              "type": "uint256"
            },
            {
              "internalType": "bytes32",
              "name": "poolId",
              "type": "bytes32"
            },
            {
              "internalType": "address",
              "name": "router",
              "type": "address"
            },
            {
              "internalType": "enum IWeb3PacksDefs.RouterType",
              "name": "routerType",
              "type": "uint8"
            },
            {
              "internalType": "bool",
              "name": "exitLpOnUnbundle",
              "type": "bool"
            },
            {
              "internalType": "bool",
              "name": "stable",
              "type": "bool"
            }
          ],
          "internalType": "struct IWeb3PacksDefs.LiquidityPairs[]",
          "name": "liquidityPairs",
          "type": "tuple[]"
        },
        {
          "internalType": "address",
          "name": "receiver",
          "type": "address"
        }
      ],
      "name": "swapAllForEth",
      "outputs": [
        {
          "internalType": "uint256",
          "name": "ethAmount",
          "type": "uint256"
        }
      ],
      "stateMutability": "nonpayable",
      "type": "function"
    },
    {
      "inputs": [
        {
          "internalType": "address",
          "name": "newOwner",
          "type": "address"
        }
      ],
      "name": "transferOwnership",
      "outputs": [],
      "stateMutability": "nonpayable",
      "type": "function"
    },
    {
      "inputs": [],
      "name": "weth",
      "outputs": [
        {
          "internalType": "address",
          "name": "",
          "type": "address"
        }
      ],
      "stateMutability": "view",
      "type": "function"
    },
    {
      "inputs": [
        {
          "internalType": "address payable",
          "name": "receiver",
          "type": "address"
        },
        {
          "internalType": "address",
          "name": "tokenAddress",
          "type": "address"
        },
        {
          "internalType": "uint256",
          "name": "tokenId",
          "type": "uint256"
        },
        {
          "internalType": "uint256",
          "name": "amount",
          "type": "uint256"
        }
      ],
      "name": "withdrawERC1155",
      "outputs": [],
      "stateMutability": "nonpayable",
      "type": "function"
    },
    {
      "inputs": [
        {
          "internalType": "address payable",
          "name": "receiver",
          "type": "address"
        },
        {
          "internalType": "address",
          "name": "tokenAddress",
          "type": "address"
        },
        {
          "internalType": "uint256",
          "name": "tokenId",
          "type": "uint256"
        }
      ],
      "name": "withdrawERC721",
      "outputs": [],
      "stateMutability": "nonpayable",
      "type": "function"
    },
    {
      "inputs": [
        {
          "internalType": "address payable",
          "name": "receiver",
          "type": "address"
        },
        {
          "internalType": "address",
          "name": "tokenAddress",
          "type": "address"
        },
        {
          "internalType": "uint256",
          "name": "amount",
          "type": "uint256"
        }
      ],
      "name": "withdrawErc20",
      "outputs": [],
      "stateMutability": "nonpayable",
      "type": "function"
    },
    {
      "inputs": [
        {
          "internalType": "address payable",
          "name": "receiver",
          "type": "address"
        },
        {
          "internalType": "uint256",
          "name": "amount",
          "type": "uint256"
        }
      ],
      "name": "withdrawEther",
      "outputs": [],
      "stateMutability": "nonpayable",
      "type": "function"
    },
    {
      "stateMutability": "payable",
      "type": "receive"
    }
  ],
  "transactionHash": "0x9fa2a54d12829577b5e3e3109fc4abfa78bbb9e6be3c3b7231d6d9fea60f2843",
  "args": [
    "0x4200000000000000000000000000000000000006"
  ],
  "numDeployments": 1,
  "solcInputHash": "1d4b1cd2107d0075f054236dd8cec228",
  "bytecode": "0x60806040523480156200001157600080fd5b506040516200535e3803806200535e833981016040819052620000349162000108565b808080806200004333620000b8565b6000805460ff60a01b1916905560018055600280546001600160a01b03199081166001600160a01b03938416179091556003805482169383169390931790925560048054831693821693909317909255600580548216938316939093179092556006805490921692169190911790556200013a565b600080546001600160a01b038381166001600160a01b0319831681178455604051919092169283917f8be0079c531659141344cd1fd0a4f28419497f9722a3daafe3b4186f6b6457e09190a35050565b6000602082840312156200011b57600080fd5b81516001600160a01b03811681146200013357600080fd5b9392505050565b615214806200014a6000396000f3fe60806040526004361061012e5760003560e01c8063684433fb116100ab578063a0edb48b1161006f578063a0edb48b14610364578063a176459514610384578063a93bd512146103a4578063b1f570a6146103e3578063e7eed69d14610411578063f2fde38b146104315761013b565b8063684433fb146102d157806369d09c4c146102f1578063715018a6146103115780638da5cb5b146103265780639bd5c43a146103445761013b565b80634025feb2116100f25780634025feb214610227578063522f6815146102475780635c975abb146102675780636452906514610291578063669d0921146102b15761013b565b80630846f99e146101435780631365487c14610165578063150b7a02146101855780631593dee1146101cf5780633fc8cef3146101ef5761013b565b3661013b57346009819055005b346009819055005b34801561014f57600080fd5b5061016361015e366004613fc8565b610451565b005b34801561017157600080fd5b50610163610180366004614029565b61050c565b34801561019157600080fd5b506101b16101a0366004614074565b630a85bd0160e11b95945050505050565b6040516001600160e01b031990911681526020015b60405180910390f35b3480156101db57600080fd5b506101636101ea366004614112565b610590565b3480156101fb57600080fd5b5060055461020f906001600160a01b031681565b6040516001600160a01b0390911681526020016101c6565b34801561023357600080fd5b50610163610242366004614112565b6105a8565b34801561025357600080fd5b50610163610262366004614153565b6105bb565b34801561027357600080fd5b50600054600160a01b900460ff1660405190151581526020016101c6565b34801561029d57600080fd5b506101636102ac366004613fc8565b6105d1565b3480156102bd57600080fd5b5060075461020f906001600160a01b031681565b3480156102dd57600080fd5b506101636102ec36600461417f565b610679565b3480156102fd57600080fd5b5060085461020f906001600160a01b031681565b34801561031d57600080fd5b5061016361080d565b34801561033257600080fd5b506000546001600160a01b031661020f565b34801561035057600080fd5b5061016361035f3660046141fa565b610821565b34801561037057600080fd5b5061016361037f36600461422f565b61089d565b34801561039057600080fd5b5060065461020f906001600160a01b031681565b3480156103b057600080fd5b506103c46103bf36600461428e565b6108b1565b604080516001600160a01b0390931683526020830191909152016101c6565b3480156103ef57600080fd5b506104036103fe36600461449e565b6109cd565b6040519081526020016101c6565b34801561041d57600080fd5b5061016361042c36600461457d565b610ce8565b34801561043d57600080fd5b5061016361044c366004613fc8565b610d80565b610459610df9565b6001600160a01b0381166104c25760405162461bcd60e51b815260206004820152602560248201527f496e76616c6964206164647265737320666f7220776562337061636b73206d616044820152643730b3b2b960d91b60648201526084015b60405180910390fd5b600880546001600160a01b0319166001600160a01b0383169081179091556040517f29c3be2a07cd721ad5a371231bdf132e57fbe87625b604811898342f90c9582f90600090a250565b6007546001600160a01b031633146105365760405162461bcd60e51b81526004016104b9906145db565b60005b8281101561058a5761057784848381811061055657610556614627565b9050602002810190610568919061463d565b610571906146cd565b83610e53565b5080610582816147a2565b915050610539565b50505050565b610598610df9565b6105a3838383610f95565b505050565b6105b0610df9565b6105a3838383611090565b6105c3610df9565b6105cd82826111dd565b5050565b6105d9610df9565b6001600160a01b03811661062f5760405162461bcd60e51b815260206004820152601d60248201527f496e76616c6964206164647265737320666f7220776562337061636b7300000060448201526064016104b9565b600780546001600160a01b0319166001600160a01b0383169081179091556040517f68ca72fc2a01b105d181de42d44a6c7a3c1061d13fa12f95feb7bc55ffd6d07590600090a250565b6007546001600160a01b031633146106a35760405162461bcd60e51b81526004016104b9906145db565b6000805b8381101561072757630ae8aa8960e31b8585838181106106c9576106c9614627565b90506101c002016060013514806107025750630ae8aa8960e31b8585838181106106f5576106f5614627565b90506101c0020160800135145b156107155781610711816147a2565b9250505b8061071f816147a2565b9150506106a7565b506006546040516370a0823160e01b81523060048201526000916001600160a01b0316906370a0823190602401602060405180830381865afa158015610771573d6000803e3d6000fd5b505050506040513d601f19601f8201168201806040525081019061079591906147bb565b90506000600183116107a85760006107b2565b6107b283836147d4565b905060005b85811015610804576107f28787838181106107d4576107d4614627565b90506101c002018036038101906107eb9190614808565b8684611263565b806107fc816147a2565b9150506107b7565b50505050505050565b610815610df9565b61081f6000611533565b565b6007546001600160a01b0316331461084b5760405162461bcd60e51b81526004016104b9906145db565b60005b818110156105a35761088b83838381811061086b5761086b614627565b905060200281019061087d91906148e8565b610886906148fe565b611583565b80610895816147a2565b91505061084e565b6108a5610df9565b61058a84848484611664565b60008060036108c861014085016101208601614992565b60048111156108d9576108d961497c565b036108fe576108f56108f0368590038501856149ad565b6117cf565b91509150915091565b600261091261014085016101208601614992565b60048111156109235761092361497c565b0361093f576108f561093a368590038501856149ad565b611857565b600061095361014085016101208601614992565b60048111156109645761096461497c565b03610980576108f561097b368590038501856149ad565b61187c565b600161099461014085016101208601614992565b60048111156109a5576109a561497c565b036109c8576108f56109bc368590038501856149ad565b61010081015190519091565b915091565b6007546000906001600160a01b031633146109fa5760405162461bcd60e51b81526004016104b9906145db565b60005b84811015610b30576000868683818110610a1957610a19614627565b9050602002810190610a2b919061463d565b610a34906146cd565b9050610a438160200151611897565b60038161012001516004811115610a5c57610a5c61497c565b03610a7e57610a7e816040015182606001518360200151846101000151611924565b60028161012001516004811115610a9757610a9761497c565b03610ab357610ab3816040015182606001518360200151611c06565b60008161012001516004811115610acc57610acc61497c565b03610ae857610ae8816040015182606001518360200151611ef6565b60018161012001516004811115610b0157610b0161497c565b03610b1d57610b1d8160400151826060015183602001516121ac565b5080610b28816147a2565b9150506109fd565b5060005b8351811015610c59576000848281518110610b5157610b51614627565b60200260200101519050610b688160800151611897565b60038160a001516004811115610b8057610b8061497c565b03610ba45780515160208201515160808301516060840151610ba493929190611924565b60028160a001516004811115610bbc57610bbc61497c565b03610bda578051516020820151516080830151610bda929190611c06565b60008160a001516004811115610bf257610bf261497c565b03610c10578051516020820151516080830151610c10929190611ef6565b60018160a001516004811115610c2857610c2861497c565b03610c46578051516020820151516080830151610c469291906121ac565b5080610c51816147a2565b915050610b34565b506006546040516370a0823160e01b81523060048201526001600160a01b03909116906370a0823190602401602060405180830381865afa158015610ca2573d6000803e3d6000fd5b505050506040513d601f19601f82011682018060405250810190610cc691906147bb565b600654909150610ce0906001600160a01b0316838361245a565b949350505050565b6007546001600160a01b03163314610d125760405162461bcd60e51b81526004016104b9906145db565b600080610d3b610d27368890038801886149ad565b610d3636889003880188614a55565b612553565b9150915082610d7857610d5e610d576080880160608901613fc8565b858461245a565b610d78610d7160a0880160808901613fc8565b858361245a565b505050505050565b610d88610df9565b6001600160a01b038116610ded5760405162461bcd60e51b815260206004820152602660248201527f4f776e61626c653a206e6577206f776e657220697320746865207a65726f206160448201526564647265737360d01b60648201526084016104b9565b610df681611533565b50565b6000546001600160a01b0316331461081f5760405162461bcd60e51b815260206004820181905260248201527f4f776e61626c653a2063616c6c6572206973206e6f7420746865206f776e657260448201526064016104b9565b6000610e628360200151611897565b610e79836040015184602001518560800151612631565b60038361012001516004811115610e9257610e9261497c565b03610ea357610ea08361272a565b90505b60028361012001516004811115610ebc57610ebc61497c565b03610ecd57610eca8361282b565b90505b60008361012001516004811115610ee657610ee661497c565b03610ef757610ef48361282b565b90505b60018361012001516004811115610f1057610f1061497c565b03610f2157610f1e836128f4565b90505b60e0830151610f3e57610f3982846060015183612988565b610f8f565b60408051808201825260608501516001600160a01b039081168252602080830185815260e08801516000908152600a909252939020915182546001600160a01b031916911617815590516001909101555b92915050565b6001600160a01b038316610fbb5760405162461bcd60e51b81526004016104b990614a72565b6040516370a0823160e01b815230600482015281906001600160a01b038416906370a0823190602401602060405180830381865afa158015611001573d6000803e3d6000fd5b505050506040513d601f19601f8201168201806040525081019061102591906147bb565b106105a35761103e6001600160a01b0383168483612a7d565b816001600160a01b0316836001600160a01b03167f6c9d637297625e945b296ff73a71fcfbd0a9e062652b6491a921c4c60194176b8360405161108391815260200190565b60405180910390a3505050565b6001600160a01b0383166110b65760405162461bcd60e51b81526004016104b990614a72565b6040516331a9108f60e11b81526004810182905230906001600160a01b03841690636352211e90602401602060405180830381865afa1580156110fd573d6000803e3d6000fd5b505050506040513d601f19601f820116820180604052508101906111219190614a95565b6001600160a01b0316036105a3576040516323b872dd60e01b81523060048201526001600160a01b038481166024830152604482018390528316906323b872dd90606401600060405180830381600087803b15801561117f57600080fd5b505af1158015611193573d6000803e3d6000fd5b5050505080826001600160a01b0316846001600160a01b03167ffefe036cac4ee3a4aca074a81cbcc4376e1484693289078dbec149c890101d5b60405160405180910390a4505050565b6001600160a01b0382166112035760405162461bcd60e51b81526004016104b990614a72565b8047106105cd5761121d6001600160a01b03831682612acf565b816001600160a01b03167eddb683bb45cd5d0ad8a200c6fae7152b1c236ee90a4a37db692407f5cc38bd8260405161125791815260200190565b60405180910390a25050565b825161126e90611897565b6000806000806000806112818988612be8565b9150915060006127108a610100015161271061129d9190614ab2565b6112a79085614ac5565b6112b191906147d4565b905060006127108b61010001516127106112cb9190614ab2565b6112d59085614ac5565b6112df91906147d4565b90506112f48b602001518c6000015186612631565b6113078b604001518c6000015185612631565b60038b6101a0015160048111156113205761132061497c565b03611345576113308b8585612e8b565b929a50909850965094506113458a8989612988565b60028b6101a00151600481111561135e5761135e61497c565b03611386576113708b8585858561321b565b929a50909850965094506113868a896000612988565b60008b6101a00151600481111561139f5761139f61497c565b036113c7576113b18b8585858561331a565b929a50909850965094506113c78a896000612988565b60018b6101a0015160048111156113e0576113e061497c565b0361140a576113f28b858585856133ef565b8e51939b509199509750955061140a908b908a613503565b60006040518061014001604052808a81526020018981526020018d6101600151151581526020018d602001516001600160a01b031681526020018d604001516001600160a01b031681526020018d610120015160020b81526020018d610140015160020b81526020018d610180015181526020018d600001516001600160a01b031681526020018d6101a0015160048111156114a8576114a861497c565b905260085460405163759a46d760e11b81529192506001600160a01b03169063eb348dae906114dd908e908590600401614af0565b600060405180830381600087803b1580156114f757600080fd5b505af115801561150b573d6000803e3d6000fd5b505050506115258c6020015188878f604001518a896135af565b505050505050505050505050565b600080546001600160a01b038381166001600160a01b0319831681178455604051919092169283917f8be0079c531659141344cd1fd0a4f28419497f9722a3daafe3b4186f6b6457e09190a35050565b6115908160200151611897565b806040015160095410156115e65760405162461bcd60e51b815260206004820152601f60248201527f496e76616c696420616d6f756e7420666f7220436f6e747261637443616c6c0060448201526064016104b9565b60008082602001516001600160a01b03168360400151846000015160405161160e9190614bdd565b60006040518083038185875af1925050503d806000811461164b576040519150601f19603f3d011682016040523d82523d6000602084013e611650565b606091505b5091509150816105a3578051602082018181fd5b6001600160a01b03841661168a5760405162461bcd60e51b81526004016104b990614a72565b604051627eeac760e11b81523060048201526024810183905281906001600160a01b0385169062fdd58e90604401602060405180830381865afa1580156116d5573d6000803e3d6000fd5b505050506040513d601f19601f820116820180604052508101906116f991906147bb565b1061058a57604051637921219560e11b81523060048201526001600160a01b038581166024830152604482018490526064820183905260a06084830152600060a483015284169063f242432a9060c401600060405180830381600087803b15801561176357600080fd5b505af1158015611777573d6000803e3d6000fd5b5050505081836001600160a01b0316856001600160a01b03167f620337bf89eea2b9ae2657beead83b5fa620452817118348aff96e201d52598b846040516117c191815260200190565b60405180910390a450505050565b60008060008361010001516001600160a01b031663f6c009278560e001516040518263ffffffff1660e01b815260040161180b91815260200190565b6040805180830381865afa158015611827573d6000803e3d6000fd5b505050506040513d601f19601f8201168201806040525081019061184b9190614bef565b50946000945092505050565b600080611872836101000151846060015185608001516135f3565b9360009350915050565b60008061187283610100015184606001518560800151613670565b600854604051636f2ddb5f60e01b81526001600160a01b03838116600483015290911690636f2ddb5f906024016020604051808303816000875af11580156118e3573d6000803e3d6000fd5b505050506040513d601f19601f820116820180604052508101906119079190614c2d565b610df6576040516311970e2d60e31b815260040160405180910390fd5b6002546000906001600160a01b03868116911614611a93576040516370a0823160e01b81523060048201526001600160a01b038616906370a0823190602401602060405180830381865afa158015611980573d6000803e3d6000fd5b505050506040513d601f19601f820116820180604052508101906119a491906147bb565b90506119b1858483612631565b8015611a93576040805160c081018252838152600060208083018290526001600160a01b0389811684860152600254811660608086019190915260808086018890528651808501885285815260a0870152865190810187523080825293810185905280870193909352820183905293516352bbbe2960e01b815292939092908716916352bbbe2991611a4c9186918691904290600401614cdd565b6020604051808303816000875af1158015611a6b573d6000803e3d6000fd5b505050506040513d601f19601f82011682018060405250810190611a8f91906147bb565b5050505b6002546001600160a01b03858116911614611bff576040516370a0823160e01b81523060048201526001600160a01b038516906370a0823190602401602060405180830381865afa158015611aec573d6000803e3d6000fd5b505050506040513d601f19601f82011682018060405250810190611b1091906147bb565b9050611b1d848483612631565b8015611bff576040805160c081018252838152600060208083018290526001600160a01b0388811684860152600254811660608086019190915260808086018890528651808501885285815260a0870152865190810187523080825293810185905280870193909352820183905293516352bbbe2960e01b815292939092908716916352bbbe2991611bb89186918691904290600401614cdd565b6020604051808303816000875af1158015611bd7573d6000803e3d6000fd5b505050506040513d601f19601f82011682018060405250810190611bfb91906147bb565b5050505b5050505050565b604080516001808252818301909252600091829190816020015b6040805160608101825260008082526020808301829052928201528252600019909201910181611c20579050506005549091506001600160a01b03868116911614611da4576040516370a0823160e01b81523060048201526001600160a01b038616906370a0823190602401602060405180830381865afa158015611ca9573d6000803e3d6000fd5b505050506040513d601f19601f82011682018060405250810190611ccd91906147bb565b604080516060810182526001600160a01b0380891682526005541660208201526000918101829052835192945091839190611d0a57611d0a614627565b60209081029190910101528115611da457611d26858484612631565b604051631e82ecdb60e31b81526001600160a01b0384169063f41766d890611d5b908590600090869030904290600401614d41565b6000604051808303816000875af1158015611d7a573d6000803e3d6000fd5b505050506040513d6000823e601f3d908101601f19168201604052611da29190810190614dd6565b505b6005546001600160a01b03858116911614611bff576040516370a0823160e01b81523060048201526001600160a01b038516906370a0823190602401602060405180830381865afa158015611dfd573d6000803e3d6000fd5b505050506040513d601f19601f82011682018060405250810190611e2191906147bb565b604080516060810182526001600160a01b0380881682526005541660208201526000918101829052835192945091839190611e5e57611e5e614627565b60209081029190910101528115611bff57611e7a848484612631565b604051631e82ecdb60e31b81526001600160a01b0384169063f41766d890611eaf908590600090869030904290600401614d41565b6000604051808303816000875af1158015611ece573d6000803e3d6000fd5b505050506040513d6000823e601f3d908101601f19168201604052610d789190810190614dd6565b6003546000906060906001600160a01b03868116911614612051576040516370a0823160e01b81523060048201526001600160a01b038616906370a0823190602401602060405180830381865afa158015611f55573d6000803e3d6000fd5b505050506040513d601f19601f82011682018060405250810190611f7991906147bb565b91508481600081518110611f8f57611f8f614627565b6001600160a01b039283166020918202929092010152600354825191169082906001908110611fc057611fc0614627565b6001600160a01b0390921660209283029190910190910152811561205157611fe9858484612631565b60405163791ac94760e01b81526001600160a01b0384169063791ac9479061201e908590600090869030904290600401614e5b565b600060405180830381600087803b15801561203857600080fd5b505af115801561204c573d6000803e3d6000fd5b505050505b6003546001600160a01b03858116911614611bff576040516370a0823160e01b81523060048201526001600160a01b038516906370a0823190602401602060405180830381865afa1580156120aa573d6000803e3d6000fd5b505050506040513d601f19601f820116820180604052508101906120ce91906147bb565b915083816000815181106120e4576120e4614627565b6001600160a01b03928316602091820292909201015260035482519116908290600190811061211557612115614627565b6001600160a01b03909216602092830291909101909101528115611bff5761213e848484612631565b60405163791ac94760e01b81526001600160a01b0384169063791ac94790612173908590600090869030904290600401614e5b565b600060405180830381600087803b15801561218d57600080fd5b505af11580156121a1573d6000803e3d6000fd5b505050505050505050565b6040805160e081018252600080825260208201819052918101829052606081018290526080810182905260a0810182905260c081018290526004546001600160a01b03868116911614612320576040516370a0823160e01b81523060048201526001600160a01b038616906370a0823190602401602060405180830381865afa15801561223d573d6000803e3d6000fd5b505050506040513d601f19601f8201168201806040525081019061226191906147bb565b9150811561232057612274858484612631565b506040805160e0810182526001600160a01b0380871682526004805482166020840152308385015242606084015260808301859052600060a0840181905260c0840152925163178ca23160e31b815291929085169163bc651188916122db91859101614ecc565b6020604051808303816000875af11580156122fa573d6000803e3d6000fd5b505050506040513d601f19601f8201168201806040525081019061231e91906147bb565b505b6004546001600160a01b03858116911614611bff576040516370a0823160e01b81523060048201526001600160a01b038516906370a0823190602401602060405180830381865afa158015612379573d6000803e3d6000fd5b505050506040513d601f19601f8201168201806040525081019061239d91906147bb565b91508115611bff576123b0848484612631565b506040805160e0810182526001600160a01b0380861682526004805482166020840152308385015242606084015260808301859052600060a0840181905260c0840152925163178ca23160e31b815291929085169163bc6511889161241791859101614ecc565b6020604051808303816000875af1158015612436573d6000803e3d6000fd5b505050506040513d601f19601f82011682018060405250810190610d7891906147bb565b604080516001600160a01b038481166024830152604480830185905283518084039091018152606490920183526020820180516001600160e01b031663a9059cbb60e01b17905291516000928392908716916124b69190614bdd565b6000604051808303816000865af19150503d80600081146124f3576040519150601f19603f3d011682016040523d82523d6000602084013e6124f8565b606091505b50915091508180156125225750805115806125225750808060200190518101906125229190614c2d565b611bff5760405162461bcd60e51b815260206004820152600260248201526114d560f21b60448201526064016104b9565b600080612564846101000151611897565b6003846101200151600481111561257d5761257d61497c565b036125925761258c84846136fb565b90925090505b600284610120015160048111156125ab576125ab61497c565b036125c0576125ba8484613a2b565b90925090505b600084610120015160048111156125d9576125d961497c565b036125ee576125e88484613b2d565b90925090505b600184610120015160048111156126075761260761497c565b0361262a576126168484613bda565b909250905061262484613c78565b90925090505b9250929050565b604080516001600160a01b038481166024830152604480830185905283518084039091018152606490920183526020820180516001600160e01b031663095ea7b360e01b179052915160009283929087169161268d9190614bdd565b6000604051808303816000865af19150503d80600081146126ca576040519150601f19603f3d011682016040523d82523d6000602084013e6126cf565b606091505b50915091508180156126f95750805115806126f95750808060200190518101906126f99190614c2d565b611bff5760405162461bcd60e51b8152602060048201526002602482015261534160f01b60448201526064016104b9565b6000806040518060c001604052808461010001518152602001600060018111156127565761275661497c565b81526040808601516001600160a01b039081166020808501919091526060808901518316848601526080808a015182870152845180840186526000808252968201528451908101855230808252818401879052818601529081019490945287015160a088015192516352bbbe2960e01b815294955092939216916352bbbe29916127e891869186914290600401614cdd565b6020604051808303816000875af1158015612807573d6000803e3d6000fd5b505050506040513d601f19601f82011682018060405250810190610ce091906147bb565b600080600083602001516001600160a01b03168460c0015185600001516040516128559190614bdd565b60006040518083038185875af1925050503d8060008114612892576040519150601f19603f3d011682016040523d82523d6000602084013e612897565b606091505b5091509150816128ab578051602082018181fd5b6000818060200190518101906128c19190614dd6565b905080600182516128d29190614ab2565b815181106128e2576128e2614627565b60200260200101519350505050919050565b600080600083602001516001600160a01b03168460c00151856000015160405161291e9190614bdd565b60006040518083038185875af1925050503d806000811461295b576040519150601f19603f3d011682016040523d82523d6000602084013e612960565b606091505b509150915081612974578051602082018181fd5b80806020019051810190610ce091906147bb565b806000036129fb576040516370a0823160e01b81523060048201526001600160a01b038316906370a0823190602401602060405180830381865afa1580156129d4573d6000803e3d6000fd5b505050506040513d601f19601f820116820180604052508101906129f891906147bb565b90505b600754612a139083906001600160a01b03168361245a565b600754604051639261968560e01b8152600481018590526001600160a01b03848116602483015260448201849052909116906392619685906064015b600060405180830381600087803b158015612a6957600080fd5b505af1158015610804573d6000803e3d6000fd5b604080516001600160a01b038416602482015260448082018490528251808303909101815260649091019091526020810180516001600160e01b031663a9059cbb60e01b1790526105a3908490613d3f565b80471015612b1f5760405162461bcd60e51b815260206004820152601d60248201527f416464726573733a20696e73756666696369656e742062616c616e636500000060448201526064016104b9565b6000826001600160a01b03168260405160006040518083038185875af1925050503d8060008114612b6c576040519150601f19603f3d011682016040523d82523d6000602084013e612b71565b606091505b50509050806105a35760405162461bcd60e51b815260206004820152603a60248201527f416464726573733a20756e61626c6520746f2073656e642076616c75652c207260448201527f6563697069656e74206d6179206861766520726576657274656400000000000060648201526084016104b9565b6006546040516370a0823160e01b8152306004820152600091829182916001600160a01b0316906370a0823190602401602060405180830381865afa158015612c35573d6000803e3d6000fd5b505050506040513d601f19601f82011682018060405250810190612c5991906147bb565b6060860151909150612c8f57602085015160405163bf6ada5160e01b81526001600160a01b0390911660048201526024016104b9565b630ae8aa8960e31b856060015114612d205760608501516000908152600a6020908152604090912054908601516001600160a01b03908116911614612ce75760405163d0e96f5b60e01b815260040160405180910390fd5b6060850180516000908152600a60205260408082206001908101549351835290822080546001600160a01b031916815501559250612d33565b60008411612d2e5780612d30565b835b92505b6080850151612d6657604080860151905163bf6ada5160e01b81526001600160a01b0390911660048201526024016104b9565b630ae8aa8960e31b856080015114612df65760808501516000908152600a60205260409081902054908601516001600160a01b03908116911614612dbd5760405163d0e96f5b60e01b815260040160405180910390fd5b6080850180516000908152600a60205260408082206001908101549351835290822080546001600160a01b031916815501559150612e09565b60008411612e045780612e06565b835b91505b630ae8aa8960e31b8560600151141580612e21575083155b15612e46576127108560a0015184612e399190614ac5565b612e4391906147d4565b92505b630ae8aa8960e31b8560800151141580612e5e575083155b15612e83576127108560c0015183612e769190614ac5565b612e8091906147d4565b91505b509250929050565b600080600080600087600001516001600160a01b031663f6c009278961018001516040518263ffffffff1660e01b8152600401612eca91815260200190565b6040805180830381865afa158015612ee6573d6000803e3d6000fd5b505050506040513d601f19601f82011682018060405250810190612f0a9190614bef565b506040805160028082526060820183529293506000929091602083019080368337019050509050886020015181600081518110612f4957612f49614627565b60200260200101906001600160a01b031690816001600160a01b031681525050886040015181600181518110612f8157612f81614627565b6001600160a01b039290921660209283029190910182015260408051600280825260608201835260009391929091830190803683370190505090508881600081518110612fd057612fd0614627565b6020026020010181815250508781600181518110612ff057612ff0614627565b60200260200101818152505060006001828c60e0015160405160200161301893929190614f70565b60408051601f1981840301815260808301825285835260208301859052828201819052600060608401528d516101808f0151925163172b958560e31b81529194506001600160a01b03169163b95cac289161307c9190309081908790600401615031565b600060405180830381600087803b15801561309657600080fd5b505af11580156130aa573d6000803e3d6000fd5b50506040516370a0823160e01b81523060048201526001600160a01b0388169b508b92506370a082319150602401602060405180830381865afa1580156130f5573d6000803e3d6000fd5b505050506040513d601f19601f8201168201806040525081019061311991906147bb565b60208d01516040516370a0823160e01b81523060048201529199506001600160a01b0316906370a0823190602401602060405180830381865afa158015613164573d6000803e3d6000fd5b505050506040513d601f19601f8201168201806040525081019061318891906147bb565b613192908c614ab2565b6040808e015190516370a0823160e01b81523060048201529198506001600160a01b0316906370a0823190602401602060405180830381865afa1580156131dd573d6000803e3d6000fd5b505050506040513d601f19601f8201168201806040525081019061320191906147bb565b61320b908b614ab2565b9550505050505093509350935093565b845160208601516040808801516101608901519151635a47ddc360e01b81526001600160a01b03938416600482015290831660248201529015156044820152606481018790526084810186905260a4810185905260c481018490523060e4820152426101048201526000928392839283929190911690635a47ddc390610124016060604051808303816000875af11580156132ba573d6000803e3d6000fd5b505050506040513d601f19601f820116820180604052508101906132de919061506d565b8b5160208d015160408e015192975093955091935060009261330092916135f3565b6001600160a01b03169a9399509197509550909350505050565b84516020860151604080880151905162e8e33760e81b81526001600160a01b039283166004820152908216602482015260448101879052606481018690526084810185905260a481018490523060c48201524260e4820152600092839283928392919091169063e8e3370090610104016060604051808303816000875af11580156133a9573d6000803e3d6000fd5b505050506040513d601f19601f820116820180604052508101906133cd919061506d565b8b5160208d015160408e01519297509395509193506000926133009291613670565b60008060008060006040518061014001604052808b602001516001600160a01b031681526020018b604001516001600160a01b031681526020018b610120015160020b81526020018b610140015160020b81526020018a8152602001898152602001888152602001878152602001306001600160a01b0316815260200142815250905089600001516001600160a01b0316639cc1a283826040518263ffffffff1660e01b81526004016134a2919061509b565b6080604051808303816000875af11580156134c1573d6000803e3d6000fd5b505050506040513d601f19601f820116820180604052508101906134e59190615146565b929d6001600160801b039092169c509a509098509650505050505050565b600754604051632142170760e11b81523060048201526001600160a01b03918216602482015260448101839052908316906342842e0e90606401600060405180830381600087803b15801561355757600080fd5b505af115801561356b573d6000803e3d6000fd5b5050600754604051636069c4af60e11b8152600481018790526001600160a01b03868116602483015260448201869052909116925063c0d3895e9150606401612a4f565b838510156135d35760006135c38686614ab2565b90506135d187335b8361245a565b505b80821015610d785760006135e78383614ab2565b905061080484336135cb565b60405163147585a560e11b81526001600160a01b038381166004830152828116602483015260006044830181905291908516906328eb0b4a90606401602060405180830381865afa15801561364c573d6000803e3d6000fd5b505050506040513d601f19601f82011682018060405250810190610ce09190614a95565b60008061367c85613e11565b60405163e6a4390560e01b81526001600160a01b03868116600483015285811660248301529192509082169063e6a4390590604401602060405180830381865afa1580156136ce573d6000803e3d6000fd5b505050506040513d601f19601f820116820180604052508101906136f29190614a95565b95945050505050565b60008060008461010001516001600160a01b031663f6c009278660e001516040518263ffffffff1660e01b815260040161373791815260200190565b6040805180830381865afa158015613753573d6000803e3d6000fd5b505050506040513d601f19601f820116820180604052508101906137779190614bef565b5060408051600280825260608201835292935060009290916020830190803683370190505090508560600151816000815181106137b6576137b6614627565b60200260200101906001600160a01b031690816001600160a01b0316815250508560800151816001815181106137ee576137ee614627565b6001600160a01b039290921660209283029190910182015260408051600280825260608201835260009391929091830190803683370190505090508560000151602001518160008151811061384557613845614627565b6020026020010181815250508560200151602001518160018151811061386d5761386d614627565b60200260200101818152505061388d838861010001518960200151612631565b6000600188602001516040516020016138a7929190615190565b60408051601f1981840301815260808301825285835260208301859052828201819052600060608401526101008b015160e08c01519251638bdb391360e01b81529194506001600160a01b031691638bdb39139161390e9190309081908790600401615031565b600060405180830381600087803b15801561392857600080fd5b505af115801561393c573d6000803e3d6000fd5b50505060608a01516040516370a0823160e01b81523060048201526001600160a01b0390911691506370a0823190602401602060405180830381865afa15801561398a573d6000803e3d6000fd5b505050506040513d601f19601f820116820180604052508101906139ae91906147bb565b60808a01516040516370a0823160e01b81523060048201529198506001600160a01b0316906370a0823190602401602060405180830381865afa1580156139f9573d6000803e3d6000fd5b505050506040513d601f19601f82011682018060405250810190613a1d91906147bb565b955050505050509250929050565b6000806000613a48856101000151866060015187608001516135f3565b9050613a5e818661010001518760200151612631565b610100850151606086015160808701516040808901516020808b01518a518201518b83015190920151935163037b79b160e21b81526001600160a01b039687166004820152948616602486015291151560448501526064840191909152608483015260a48201523060c48201524260e4820152911690630dede6c490610104015b60408051808303816000875af1158015613afd573d6000803e3d6000fd5b505050506040513d601f19601f82011682018060405250810190613b2191906151a7565b90969095509350505050565b6000806000613b4a85610100015186606001518760800151613670565b9050613b60818661010001518760200151612631565b6101008501516060860151608087015160208089015188518201518983015190920151604051635d5155ef60e11b81526001600160a01b03958616600482015293851660248501526044840191909152606483019190915260848201523060a48201524260c482015291169063baa2abde9060e401613adf565b6040805160a081018252835181526020808501516001600160801b03908116828401908152855183015184860190815286840151909301516060850190815242608086019081526101008901519651630624e65f60e11b8152865160048201529251909316602483015292516044820152915160648301525160848201526000928392916001600160a01b0390911690630c49ccbe9060a401613adf565b604080516080810182528251815230602082019081526001600160801b0382840181815260608401828152610100870151955163fc6f786560e01b81528551600482015293516001600160a01b03908116602486015291518316604485015251909116606483015260009384939291169063fc6f78659060840160408051808303816000875af1158015613d10573d6000803e3d6000fd5b505050506040513d601f19601f82011682018060405250810190613d3491906151a7565b909590945092505050565b6000613d94826040518060400160405280602081526020017f5361666545524332303a206c6f772d6c6576656c2063616c6c206661696c6564815250856001600160a01b0316613e809092919063ffffffff16565b8051909150156105a35780806020019051810190613db29190614c2d565b6105a35760405162461bcd60e51b815260206004820152602a60248201527f5361666545524332303a204552433230206f7065726174696f6e20646964206e6044820152691bdd081cdd58d8d9595960b21b60648201526084016104b9565b600080829050806001600160a01b031663c45a01556040518163ffffffff1660e01b8152600401602060405180830381865afa158015613e55573d6000803e3d6000fd5b505050506040513d601f19601f82011682018060405250810190613e799190614a95565b9392505050565b6060610ce0848460008585600080866001600160a01b03168587604051613ea79190614bdd565b60006040518083038185875af1925050503d8060008114613ee4576040519150601f19603f3d011682016040523d82523d6000602084013e613ee9565b606091505b5091509150613efa87838387613f05565b979650505050505050565b60608315613f74578251600003613f6d576001600160a01b0385163b613f6d5760405162461bcd60e51b815260206004820152601d60248201527f416464726573733a2063616c6c20746f206e6f6e2d636f6e747261637400000060448201526064016104b9565b5081610ce0565b610ce08383815115613f895781518083602001fd5b8060405162461bcd60e51b81526004016104b991906151cb565b6001600160a01b0381168114610df657600080fd5b8035613fc381613fa3565b919050565b600060208284031215613fda57600080fd5b8135613e7981613fa3565b60008083601f840112613ff757600080fd5b5081356001600160401b0381111561400e57600080fd5b6020830191508360208260051b850101111561262a57600080fd5b60008060006040848603121561403e57600080fd5b83356001600160401b0381111561405457600080fd5b61406086828701613fe5565b909790965060209590950135949350505050565b60008060008060006080868803121561408c57600080fd5b853561409781613fa3565b945060208601356140a781613fa3565b93506040860135925060608601356001600160401b03808211156140ca57600080fd5b818801915088601f8301126140de57600080fd5b8135818111156140ed57600080fd5b8960208285010111156140ff57600080fd5b9699959850939650602001949392505050565b60008060006060848603121561412757600080fd5b833561413281613fa3565b9250602084013561414281613fa3565b929592945050506040919091013590565b6000806040838503121561416657600080fd5b823561417181613fa3565b946020939093013593505050565b60008060006040848603121561419457600080fd5b83356001600160401b03808211156141ab57600080fd5b818601915086601f8301126141bf57600080fd5b8135818111156141ce57600080fd5b8760206101c0830285010111156141e457600080fd5b6020928301989097509590910135949350505050565b6000806020838503121561420d57600080fd5b82356001600160401b0381111561422357600080fd5b613b2185828601613fe5565b6000806000806080858703121561424557600080fd5b843561425081613fa3565b9350602085013561426081613fa3565b93969395505050506040820135916060013590565b6000610140828403121561428857600080fd5b50919050565b600061014082840312156142a157600080fd5b613e798383614275565b634e487b7160e01b600052604160045260246000fd5b60405161010081016001600160401b03811182821017156142e4576142e46142ab565b60405290565b60405161014081016001600160401b03811182821017156142e4576142e46142ab565b6040516101c081016001600160401b03811182821017156142e4576142e46142ab565b604051601f8201601f191681016001600160401b0381118282101715614358576143586142ab565b604052919050565b60006001600160401b03821115614379576143796142ab565b5060051b60200190565b60006040828403121561439557600080fd5b604051604081018181106001600160401b03821117156143b7576143b76142ab565b60405290508082356143c881613fa3565b8152602092830135920191909152919050565b803560058110613fc357600080fd5b8015158114610df657600080fd5b8035613fc3816143ea565b6000610140828403121561441657600080fd5b61441e6142c1565b905061442a8383614383565b81526144398360408401614383565b60208201526080820135604082015260a0820135606082015261445e60c08301613fb8565b608082015261446f60e083016143db565b60a082015261448161010083016143f8565b60c082015261449361012083016143f8565b60e082015292915050565b600080600080606085870312156144b457600080fd5b84356001600160401b03808211156144cb57600080fd5b6144d788838901613fe5565b90965094506020915086820135818111156144f157600080fd5b87019050601f8101881361450457600080fd5b803561451761451282614360565b614330565b818152610140918202830184019184820191908b84111561453757600080fd5b938501935b8385101561455d5761454e8c86614403565b8352938401939185019161453c565b50809650505050505061457260408601613fb8565b905092959194509250565b6000806000806102c0858703121561459457600080fd5b61459e8686614275565b93506145ae866101408701614275565b92506102808501356145bf81613fa3565b91506102a08501356145d0816143ea565b939692955090935050565b6020808252602c908201527f576562335061636b7345786368616e67654d616e61676572202d20496e76616c60408201526b696420576562335061636b7360a01b606082015260800190565b634e487b7160e01b600052603260045260246000fd5b6000823561013e1983360301811261465457600080fd5b9190910192915050565b600082601f83011261466f57600080fd5b81356001600160401b03811115614688576146886142ab565b61469b601f8201601f1916602001614330565b8181528460208386010111156146b057600080fd5b816020850160208301376000918101602001919091529392505050565b600061014082360312156146e057600080fd5b6146e86142ea565b82356001600160401b038111156146fe57600080fd5b61470a3682860161465e565b82525061471960208401613fb8565b602082015261472a60408401613fb8565b604082015261473b60608401613fb8565b60608201526080830135608082015260a083013560a082015260c083013560c082015260e083013560e08201526101008084013581830152506101206147828185016143db565b9082015292915050565b634e487b7160e01b600052601160045260246000fd5b6000600182016147b4576147b461478c565b5060010190565b6000602082840312156147cd57600080fd5b5051919050565b6000826147f157634e487b7160e01b600052601260045260246000fd5b500490565b8035600281900b8114613fc357600080fd5b60006101c0828403121561481b57600080fd5b61482361430d565b61482c83613fb8565b815261483a60208401613fb8565b602082015261484b60408401613fb8565b6040820152606083013560608201526080830135608082015260a083013560a082015260c083013560c082015260e083013560e082015261010080840135818301525061012061489c8185016147f6565b908201526101406148ae8482016147f6565b908201526101606148c08482016143f8565b9082015261018083810135908201526101a06148dd8185016143db565b908201529392505050565b60008235605e1983360301811261465457600080fd5b60006060823603121561491057600080fd5b604051606081016001600160401b038282108183111715614933576149336142ab565b81604052843591508082111561494857600080fd5b506149553682860161465e565b825250602083013561496681613fa3565b6020820152604092830135928101929092525090565b634e487b7160e01b600052602160045260246000fd5b6000602082840312156149a457600080fd5b613e79826143db565b600061014082840312156149c057600080fd5b6149c86142ea565b82358152602083013560208201526149e2604084016143f8565b60408201526149f360608401613fb8565b6060820152614a0460808401613fb8565b6080820152614a1560a084016147f6565b60a0820152614a2660c084016147f6565b60c082015260e083013560e0820152610100614a43818501613fb8565b908201526101206148dd8482016143db565b60006101408284031215614a6857600080fd5b613e798383614403565b6020808252600990820152684248503a452d34303360b81b604082015260600190565b600060208284031215614aa757600080fd5b8151613e7981613fa3565b81810381811115610f8f57610f8f61478c565b8082028115828204841417610f8f57610f8f61478c565b60058110614aec57614aec61497c565b9052565b60006101608201905083825282516020830152602083015160408301526040830151614b20606084018215159052565b5060608301516001600160a01b03811660808401525060808301516001600160a01b03811660a08401525060a0830151614b5f60c084018260020b9052565b5060c0830151614b7460e084018260020b9052565b5060e083015161010083810191909152830151610120614b9e818501836001600160a01b03169052565b8401519050614bb1610140840182614adc565b509392505050565b60005b83811015614bd4578181015183820152602001614bbc565b50506000910152565b60008251614654818460208701614bb9565b60008060408385031215614c0257600080fd5b8251614c0d81613fa3565b602084015190925060038110614c2257600080fd5b809150509250929050565b600060208284031215614c3f57600080fd5b8151613e79816143ea565b60008151808452614c62816020860160208601614bb9565b601f01601f19169290920160200192915050565b805182526000602082015160028110614c9157614c9161497c565b80602085015250604082015160018060a01b03808216604086015280606085015116606086015250506080820151608084015260a082015160c060a0850152610ce060c0850182614c4a565b60e081526000614cf060e0830187614c76565b9050614d2f602083018680516001600160a01b039081168352602080830151151590840152604080830151909116908301526060908101511515910152565b60a082019390935260c0015292915050565b600060a0820187835260208781850152604060a08186015282885180855260c087019150838a01945060005b81811015614daa57855180516001600160a01b03908116855286820151168685015284015115158484015294840194606090920191600101614d6d565b50506001600160a01b03881660608701529350614dc692505050565b8260808301529695505050505050565b60006020808385031215614de957600080fd5b82516001600160401b03811115614dff57600080fd5b8301601f81018513614e1057600080fd5b8051614e1e61451282614360565b81815260059190911b82018301908381019087831115614e3d57600080fd5b928401925b82841015613efa57835182529284019290840190614e42565b600060a082018783526020878185015260a0604085015281875180845260c086019150828901935060005b81811015614eab5784516001600160a01b031683529383019391830191600101614e86565b50506001600160a01b03969096166060850152505050608001529392505050565b81516001600160a01b039081168252602080840151821690830152604080840151821690830152606080840151908301526080808401519083015260a0838101519083015260c092830151169181019190915260e00190565b60048110610df657610df661497c565b600081518084526020808501945080840160005b83811015614f6557815187529582019590820190600101614f49565b509495945050505050565b614f7984614f25565b838152606060208201526000614f926060830185614f35565b9050826040830152949350505050565b8051608080845281519084018190526000916020919082019060a0860190845b81811015614fe75783516001600160a01b031683529284019291840191600101614fc2565b5050828501519150858103838701526150008183614f35565b925050506040830151848203604086015261501b8282614c4a565b9150506060830151614bb1606086018215159052565b8481526001600160a01b0384811660208301528316604082015260806060820181905260009061506390830184614fa2565b9695505050505050565b60008060006060848603121561508257600080fd5b8351925060208401519150604084015190509250925092565b81516001600160a01b03168152610140810160208301516150c760208401826001600160a01b03169052565b5060408301516150dc604084018260020b9052565b5060608301516150f1606084018260020b9052565b506080830151608083015260a083015160a083015260c083015160c083015260e083015160e083015261010080840151615135828501826001600160a01b03169052565b505061012092830151919092015290565b6000806000806080858703121561515c57600080fd5b8451935060208501516001600160801b038116811461517a57600080fd5b6040860151606090960151949790965092505050565b6040810161519d84614f25565b9281526020015290565b600080604083850312156151ba57600080fd5b505080516020909101519092909150565b602081526000613e796020830184614c4a56fea264697066735822122031e4b7ee022a1ce5b3bf391c5c0ebe636413c748faa30f962b51ce7fcfa1859b64736f6c63430008110033",
  "devdoc": {
    "kind": "dev",
    "methods": {
      "owner()": {
        "details": "Returns the address of the current owner."
      },
      "paused()": {
        "details": "Returns true if the contract is paused, and false otherwise."
      },
      "renounceOwnership()": {
        "details": "Leaves the contract without owner. It will not be possible to call `onlyOwner` functions anymore. Can only be called by the current owner. NOTE: Renouncing ownership will leave the contract without an owner, thereby removing any functionality that is only available to the owner."
      },
      "setWeb3Packs(address)": {
        "details": "Setup the Web3Packs Interface"
      },
      "setWeb3PacksManager(address)": {
        "details": "Setup the Web3Packs Interface"
      },
      "transferOwnership(address)": {
        "details": "Transfers ownership of the contract to a new account (`newOwner`). Can only be called by the current owner."
      }
    },
    "version": 1
  },
  "userdoc": {
    "kind": "user",
    "methods": {},
    "version": 1
  },
  "storageLayout": {
    "storage": [
      {
        "astId": 7,
        "contract": "contracts/Web3PacksExchangeManager.sol:Web3PacksExchangeManager",
        "label": "_owner",
        "offset": 0,
        "slot": "0",
        "type": "t_address"
      },
      {
        "astId": 130,
        "contract": "contracts/Web3PacksExchangeManager.sol:Web3PacksExchangeManager",
        "label": "_paused",
        "offset": 20,
        "slot": "0",
        "type": "t_bool"
      },
      {
        "astId": 231,
        "contract": "contracts/Web3PacksExchangeManager.sol:Web3PacksExchangeManager",
        "label": "_status",
        "offset": 0,
        "slot": "1",
        "type": "t_uint256"
      },
      {
        "astId": 6342,
        "contract": "contracts/Web3PacksExchangeManager.sol:Web3PacksExchangeManager",
        "label": "_weth",
        "offset": 0,
        "slot": "2",
        "type": "t_address"
      },
      {
        "astId": 7238,
        "contract": "contracts/Web3PacksExchangeManager.sol:Web3PacksExchangeManager",
        "label": "_weth",
        "offset": 0,
        "slot": "3",
        "type": "t_address"
      },
      {
        "astId": 7649,
        "contract": "contracts/Web3PacksExchangeManager.sol:Web3PacksExchangeManager",
        "label": "_weth",
        "offset": 0,
        "slot": "4",
        "type": "t_address"
      },
      {
        "astId": 8017,
        "contract": "contracts/Web3PacksExchangeManager.sol:Web3PacksExchangeManager",
        "label": "weth",
        "offset": 0,
        "slot": "5",
        "type": "t_address"
      },
      {
        "astId": 1938,
        "contract": "contracts/Web3PacksExchangeManager.sol:Web3PacksExchangeManager",
        "label": "_weth",
        "offset": 0,
        "slot": "6",
        "type": "t_address"
      },
      {
        "astId": 1940,
        "contract": "contracts/Web3PacksExchangeManager.sol:Web3PacksExchangeManager",
        "label": "_web3Packs",
        "offset": 0,
        "slot": "7",
        "type": "t_address"
      },
      {
        "astId": 1942,
        "contract": "contracts/Web3PacksExchangeManager.sol:Web3PacksExchangeManager",
        "label": "_web3PacksManager",
        "offset": 0,
        "slot": "8",
        "type": "t_address"
      },
      {
        "astId": 1944,
        "contract": "contracts/Web3PacksExchangeManager.sol:Web3PacksExchangeManager",
        "label": "_receivedAmount",
        "offset": 0,
        "slot": "9",
        "type": "t_uint256"
      },
      {
        "astId": 1949,
        "contract": "contracts/Web3PacksExchangeManager.sol:Web3PacksExchangeManager",
        "label": "_swapForLiquidityAmount",
        "offset": 0,
        "slot": "10",
        "type": "t_mapping(t_bytes32,t_struct(TokenAmount)6091_storage)"
      }
    ],
    "types": {
      "t_address": {
        "encoding": "inplace",
        "label": "address",
        "numberOfBytes": "20"
      },
      "t_bool": {
        "encoding": "inplace",
        "label": "bool",
        "numberOfBytes": "1"
      },
      "t_bytes32": {
        "encoding": "inplace",
        "label": "bytes32",
        "numberOfBytes": "32"
      },
      "t_mapping(t_bytes32,t_struct(TokenAmount)6091_storage)": {
        "encoding": "mapping",
        "key": "t_bytes32",
        "label": "mapping(bytes32 => struct IWeb3PacksDefs.TokenAmount)",
        "numberOfBytes": "32",
        "value": "t_struct(TokenAmount)6091_storage"
      },
      "t_struct(TokenAmount)6091_storage": {
        "encoding": "inplace",
        "label": "struct IWeb3PacksDefs.TokenAmount",
        "members": [
          {
            "astId": 6088,
            "contract": "contracts/Web3PacksExchangeManager.sol:Web3PacksExchangeManager",
            "label": "token",
            "offset": 0,
            "slot": "0",
            "type": "t_address"
          },
          {
            "astId": 6090,
            "contract": "contracts/Web3PacksExchangeManager.sol:Web3PacksExchangeManager",
            "label": "amount",
            "offset": 0,
            "slot": "1",
            "type": "t_uint256"
          }
        ],
        "numberOfBytes": "64"
      },
      "t_uint256": {
        "encoding": "inplace",
        "label": "uint256",
        "numberOfBytes": "32"
      }
    }
  }
}