{
  "address": "0xe60B8502C05079B4A9315B64B7F39b3fA6bd893d",
  "abi": [
    {
      "inputs": [],
      "stateMutability": "nonpayable",
      "type": "constructor"
    },
    {
      "inputs": [],
      "name": "ContractNotAllowed",
      "type": "error"
    },
    {
      "inputs": [],
      "name": "FundingFailed",
      "type": "error"
    },
    {
      "inputs": [],
      "name": "InsufficientForFee",
      "type": "error"
    },
    {
      "inputs": [],
      "name": "MismatchedTokens",
      "type": "error"
    },
    {
      "inputs": [
        {
          "internalType": "address",
          "name": "tokenAddress",
          "type": "address"
        }
      ],
      "name": "MissingLiquidityUUID",
      "type": "error"
    },
    {
      "inputs": [],
      "name": "NativeAssetTransferFailed",
      "type": "error"
    },
    {
      "inputs": [],
      "name": "NotOwnerOrApproved",
      "type": "error"
    },
    {
      "inputs": [],
      "name": "NullReceiver",
      "type": "error"
    },
    {
      "inputs": [
        {
          "internalType": "address",
          "name": "tokenOut",
          "type": "address"
        },
        {
          "internalType": "uint256",
          "name": "amountIn",
          "type": "uint256"
        },
        {
          "internalType": "address",
          "name": "router",
          "type": "address"
        }
      ],
      "name": "UnsucessfulSwap",
      "type": "error"
    },
    {
      "anonymous": false,
      "inputs": [
        {
          "indexed": true,
          "internalType": "address",
          "name": "chargedParticles",
          "type": "address"
        }
      ],
      "name": "ChargedParticlesSet",
      "type": "event"
    },
    {
      "anonymous": false,
      "inputs": [
        {
          "indexed": true,
          "internalType": "address",
          "name": "chargedState",
          "type": "address"
        }
      ],
      "name": "ChargedStateSet",
      "type": "event"
    },
    {
      "anonymous": false,
      "inputs": [
        {
          "indexed": true,
          "internalType": "address",
          "name": "previousOwner",
          "type": "address"
        },
        {
          "indexed": true,
          "internalType": "address",
          "name": "newOwner",
          "type": "address"
        }
      ],
      "name": "OwnershipTransferred",
      "type": "event"
    },
    {
      "anonymous": false,
      "inputs": [
        {
          "indexed": true,
          "internalType": "uint256",
          "name": "tokenId",
          "type": "uint256"
        },
        {
          "indexed": true,
          "internalType": "address",
          "name": "receiver",
          "type": "address"
        }
      ],
      "name": "PackBundled",
      "type": "event"
    },
    {
      "anonymous": false,
      "inputs": [
        {
          "indexed": true,
          "internalType": "uint256",
          "name": "tokenId",
          "type": "uint256"
        },
        {
          "indexed": true,
          "internalType": "address",
          "name": "receiver",
          "type": "address"
        }
      ],
      "name": "PackUnbundled",
      "type": "event"
    },
    {
      "anonymous": false,
      "inputs": [
        {
          "indexed": false,
          "internalType": "uint256",
          "name": "fee",
          "type": "uint256"
        }
      ],
      "name": "ProtocolFeeSet",
      "type": "event"
    },
    {
      "anonymous": false,
      "inputs": [
        {
          "indexed": true,
          "internalType": "address",
          "name": "proton",
          "type": "address"
        }
      ],
      "name": "ProtonSet",
      "type": "event"
    },
    {
      "anonymous": false,
      "inputs": [
        {
          "indexed": true,
          "internalType": "address",
          "name": "router",
          "type": "address"
        }
      ],
      "name": "RouterSet",
      "type": "event"
    },
    {
      "anonymous": false,
      "inputs": [
        {
          "indexed": true,
          "internalType": "address",
          "name": "manager",
          "type": "address"
        }
      ],
      "name": "Web3PacksManagerSet",
      "type": "event"
    },
    {
      "anonymous": false,
      "inputs": [
        {
          "indexed": true,
          "internalType": "address",
          "name": "receiver",
          "type": "address"
        },
        {
          "indexed": true,
          "internalType": "address",
          "name": "tokenAddress",
          "type": "address"
        },
        {
          "indexed": true,
          "internalType": "uint256",
          "name": "tokenId",
          "type": "uint256"
        },
        {
          "indexed": false,
          "internalType": "uint256",
          "name": "amount",
          "type": "uint256"
        }
      ],
      "name": "WithdrawStuckERC1155",
      "type": "event"
    },
    {
      "anonymous": false,
      "inputs": [
        {
          "indexed": true,
          "internalType": "address",
          "name": "receiver",
          "type": "address"
        },
        {
          "indexed": true,
          "internalType": "address",
          "name": "tokenAddress",
          "type": "address"
        },
        {
          "indexed": false,
          "internalType": "uint256",
          "name": "amount",
          "type": "uint256"
        }
      ],
      "name": "WithdrawStuckERC20",
      "type": "event"
    },
    {
      "anonymous": false,
      "inputs": [
        {
          "indexed": true,
          "internalType": "address",
          "name": "receiver",
          "type": "address"
        },
        {
          "indexed": true,
          "internalType": "address",
          "name": "tokenAddress",
          "type": "address"
        },
        {
          "indexed": true,
          "internalType": "uint256",
          "name": "tokenId",
          "type": "uint256"
        }
      ],
      "name": "WithdrawStuckERC721",
      "type": "event"
    },
    {
      "anonymous": false,
      "inputs": [
        {
          "indexed": true,
          "internalType": "address",
          "name": "receiver",
          "type": "address"
        },
        {
          "indexed": false,
          "internalType": "uint256",
          "name": "amount",
          "type": "uint256"
        }
      ],
      "name": "WithdrawStuckEther",
      "type": "event"
    },
    {
      "inputs": [
        {
          "internalType": "uint256",
          "name": "tokenId",
          "type": "uint256"
        }
      ],
      "name": "clearLiquidityPositions",
      "outputs": [],
      "stateMutability": "nonpayable",
      "type": "function"
    },
    {
      "inputs": [
        {
          "internalType": "uint256",
          "name": "tokenId",
          "type": "uint256"
        }
      ],
      "name": "getLiquidityPositions",
      "outputs": [
        {
          "components": [
            {
              "internalType": "uint256",
              "name": "lpTokenId",
              "type": "uint256"
            },
            {
              "internalType": "uint256",
              "name": "liquidity",
              "type": "uint256"
            },
            {
              "internalType": "bool",
              "name": "stable",
              "type": "bool"
            },
            {
              "internalType": "address",
              "name": "token0",
              "type": "address"
            },
            {
              "internalType": "address",
              "name": "token1",
              "type": "address"
            },
            {
              "internalType": "address",
              "name": "router",
              "type": "address"
            },
            {
              "internalType": "enum IWeb3PacksDefs.RouterType",
              "name": "routerType",
              "type": "uint8"
            }
          ],
          "internalType": "struct IWeb3PacksDefs.LiquidityPosition[]",
          "name": "positions",
          "type": "tuple[]"
        }
      ],
      "stateMutability": "view",
      "type": "function"
    },
    {
      "inputs": [
        {
          "internalType": "address",
          "name": "contractAddress",
          "type": "address"
        }
      ],
      "name": "isContractAllowed",
      "outputs": [
        {
          "internalType": "bool",
          "name": "isAllowed",
          "type": "bool"
        }
      ],
      "stateMutability": "view",
      "type": "function"
    },
    {
      "inputs": [],
      "name": "owner",
      "outputs": [
        {
          "internalType": "address",
          "name": "",
          "type": "address"
        }
      ],
      "stateMutability": "view",
      "type": "function"
    },
    {
      "inputs": [],
      "name": "renounceOwnership",
      "outputs": [],
      "stateMutability": "nonpayable",
      "type": "function"
    },
    {
      "inputs": [
        {
          "internalType": "uint256",
          "name": "tokenId",
          "type": "uint256"
        },
        {
          "components": [
            {
              "internalType": "uint256",
              "name": "lpTokenId",
              "type": "uint256"
            },
            {
              "internalType": "uint256",
              "name": "liquidity",
              "type": "uint256"
            },
            {
              "internalType": "bool",
              "name": "stable",
              "type": "bool"
            },
            {
              "internalType": "address",
              "name": "token0",
              "type": "address"
            },
            {
              "internalType": "address",
              "name": "token1",
              "type": "address"
            },
            {
              "internalType": "address",
              "name": "router",
              "type": "address"
            },
            {
              "internalType": "enum IWeb3PacksDefs.RouterType",
              "name": "routerType",
              "type": "uint8"
            }
          ],
          "internalType": "struct IWeb3PacksDefs.LiquidityPosition",
          "name": "position",
          "type": "tuple"
        }
      ],
      "name": "saveLiquidityPosition",
      "outputs": [],
      "stateMutability": "nonpayable",
      "type": "function"
    },
    {
      "inputs": [
        {
          "internalType": "address",
          "name": "contractAddress",
          "type": "address"
        },
        {
          "internalType": "bool",
          "name": "isAllowed",
          "type": "bool"
        }
      ],
      "name": "setContractAllowlist",
      "outputs": [],
      "stateMutability": "nonpayable",
      "type": "function"
    },
    {
      "inputs": [
        {
          "internalType": "address",
          "name": "contractAddress",
          "type": "address"
        },
        {
          "internalType": "bool",
          "name": "isAllowed",
          "type": "bool"
        }
      ],
      "name": "setWeb3PacksContract",
      "outputs": [],
      "stateMutability": "nonpayable",
      "type": "function"
    },
    {
      "inputs": [
        {
          "internalType": "address",
          "name": "newOwner",
          "type": "address"
        }
      ],
      "name": "transferOwnership",
      "outputs": [],
      "stateMutability": "nonpayable",
      "type": "function"
    },
    {
      "inputs": [
        {
          "internalType": "address payable",
          "name": "receiver",
          "type": "address"
        },
        {
          "internalType": "address",
          "name": "tokenAddress",
          "type": "address"
        },
        {
          "internalType": "uint256",
          "name": "tokenId",
          "type": "uint256"
        },
        {
          "internalType": "uint256",
          "name": "amount",
          "type": "uint256"
        }
      ],
      "name": "withdrawERC1155",
      "outputs": [],
      "stateMutability": "nonpayable",
      "type": "function"
    },
    {
      "inputs": [
        {
          "internalType": "address payable",
          "name": "receiver",
          "type": "address"
        },
        {
          "internalType": "address",
          "name": "tokenAddress",
          "type": "address"
        },
        {
          "internalType": "uint256",
          "name": "tokenId",
          "type": "uint256"
        }
      ],
      "name": "withdrawERC721",
      "outputs": [],
      "stateMutability": "nonpayable",
      "type": "function"
    },
    {
      "inputs": [
        {
          "internalType": "address payable",
          "name": "receiver",
          "type": "address"
        },
        {
          "internalType": "address",
          "name": "tokenAddress",
          "type": "address"
        },
        {
          "internalType": "uint256",
          "name": "amount",
          "type": "uint256"
        }
      ],
      "name": "withdrawErc20",
      "outputs": [],
      "stateMutability": "nonpayable",
      "type": "function"
    },
    {
      "inputs": [
        {
          "internalType": "address payable",
          "name": "receiver",
          "type": "address"
        },
        {
          "internalType": "uint256",
          "name": "amount",
          "type": "uint256"
        }
      ],
      "name": "withdrawEther",
      "outputs": [],
      "stateMutability": "nonpayable",
      "type": "function"
    }
  ],
  "transactionHash": "0x9ef945783697c4e6299d598214aa9b0743266db7cd05ce5ce0e13f00ce92c54e",
  "args": [],
  "numDeployments": 2,
  "solcInputHash": "6f1cc3a5c1fe73a3bb7f96447d50e0f4",
  "bytecode": "0x608060405234801561001057600080fd5b5061001a3361001f565b61006f565b600080546001600160a01b038381166001600160a01b0319831681178455604051919092169283917f8be0079c531659141344cd1fd0a4f28419497f9722a3daafe3b4186f6b6457e09190a35050565b6113c48061007e6000396000f3fe608060405234801561001057600080fd5b50600436106100cf5760003560e01c8063715018a61161008c578063c1dc6b5611610066578063c1dc6b56146101ac578063c71c67f0146101bf578063ed00ebf5146101df578063f2fde38b146101f257600080fd5b8063715018a6146101765780638da5cb5b1461017e578063a0edb48b1461019957600080fd5b80631593dee1146100d45780634025feb2146100e957806342c49a29146100fc578063522f68151461010f5780636f2ddb5f14610122578063703beae814610163575b600080fd5b6100e76100e2366004610f75565b610205565b005b6100e76100f7366004610f75565b61021d565b6100e761010a366004610fcf565b610230565b6100e761011d366004611008565b6102b4565b61014e610130366004611034565b6001600160a01b031660009081526002602052604090205460ff1690565b60405190151581526020015b60405180910390f35b6100e7610171366004611067565b6102ca565b6100e76103f8565b6000546040516001600160a01b03909116815260200161015a565b6100e76101a736600461113a565b61040c565b6100e76101ba366004610fcf565b610426565b6101d26101cd366004611180565b610459565b60405161015a91906111af565b6100e76101ed366004611180565b610554565b6100e7610200366004611034565b6105ba565b61020d610633565b61021883838361068d565b505050565b610225610633565b610218838383610788565b60005433906001600160a01b031681148061026357506001600160a01b03811660009081526001602052604090205460ff165b6102885760405162461bcd60e51b815260040161027f90611264565b60405180910390fd5b506001600160a01b03919091166000908152600260205260409020805460ff1916911515919091179055565b6102bc610633565b6102c682826108d5565b5050565b60005433906001600160a01b03168114806102fd57506001600160a01b03811660009081526001602052604090205460ff165b6103195760405162461bcd60e51b815260040161027f90611264565b600083815260036020818152604080842080546001808201835591865294839020875160059096020194855591860151918401919091558401516002808401805460608801516001600160a81b0319918216941515610100600160a81b031916949094176101006001600160a01b039586160217909155608087015193850180546001600160a01b031990811695851695909517905560a087015160048601805495861691909416908117845560c088015188969590949392161790600160a01b9084908111156103ec576103ec611199565b02179055505050505050565b610400610633565b61040a600061095b565b565b610414610633565b610420848484846109ab565b50505050565b61042e610633565b6001600160a01b03919091166000908152600160205260409020805460ff1916911515919091179055565b606060036000838152602001908152602001600020805480602002602001604051908101604052809291908181526020016000905b828210156105495760008481526020908190206040805160e081018252600586029092018054835260018101549383019390935260028084015460ff8082161515938501939093526001600160a01b0361010090910481166060850152600385015481166080850152600485015490811660a085015292939260c0850192600160a01b909104169081111561052557610525611199565b600281111561053657610536611199565b815250508152602001906001019061048e565b505050509050919050565b60005433906001600160a01b031681148061058757506001600160a01b03811660009081526001602052604090205460ff165b6105a35760405162461bcd60e51b815260040161027f90611264565b60008281526003602052604081206102c691610ee3565b6105c2610633565b6001600160a01b0381166106275760405162461bcd60e51b815260206004820152602660248201527f4f776e61626c653a206e6577206f776e657220697320746865207a65726f206160448201526564647265737360d01b606482015260840161027f565b6106308161095b565b50565b6000546001600160a01b0316331461040a5760405162461bcd60e51b815260206004820181905260248201527f4f776e61626c653a2063616c6c6572206973206e6f7420746865206f776e6572604482015260640161027f565b6001600160a01b0383166106b35760405162461bcd60e51b815260040161027f906112a5565b6040516370a0823160e01b815230600482015281906001600160a01b038416906370a0823190602401602060405180830381865afa1580156106f9573d6000803e3d6000fd5b505050506040513d601f19601f8201168201806040525081019061071d91906112c8565b10610218576107366001600160a01b0383168483610b16565b816001600160a01b0316836001600160a01b03167f6c9d637297625e945b296ff73a71fcfbd0a9e062652b6491a921c4c60194176b8360405161077b91815260200190565b60405180910390a3505050565b6001600160a01b0383166107ae5760405162461bcd60e51b815260040161027f906112a5565b6040516331a9108f60e11b81526004810182905230906001600160a01b03841690636352211e90602401602060405180830381865afa1580156107f5573d6000803e3d6000fd5b505050506040513d601f19601f8201168201806040525081019061081991906112e1565b6001600160a01b031603610218576040516323b872dd60e01b81523060048201526001600160a01b038481166024830152604482018390528316906323b872dd90606401600060405180830381600087803b15801561087757600080fd5b505af115801561088b573d6000803e3d6000fd5b5050505080826001600160a01b0316846001600160a01b03167ffefe036cac4ee3a4aca074a81cbcc4376e1484693289078dbec149c890101d5b60405160405180910390a4505050565b6001600160a01b0382166108fb5760405162461bcd60e51b815260040161027f906112a5565b8047106102c6576109156001600160a01b03831682610b68565b816001600160a01b03167eddb683bb45cd5d0ad8a200c6fae7152b1c236ee90a4a37db692407f5cc38bd8260405161094f91815260200190565b60405180910390a25050565b600080546001600160a01b038381166001600160a01b0319831681178455604051919092169283917f8be0079c531659141344cd1fd0a4f28419497f9722a3daafe3b4186f6b6457e09190a35050565b6001600160a01b0384166109d15760405162461bcd60e51b815260040161027f906112a5565b604051627eeac760e11b81523060048201526024810183905281906001600160a01b0385169062fdd58e90604401602060405180830381865afa158015610a1c573d6000803e3d6000fd5b505050506040513d601f19601f82011682018060405250810190610a4091906112c8565b1061042057604051637921219560e11b81523060048201526001600160a01b038581166024830152604482018490526064820183905260a06084830152600060a483015284169063f242432a9060c401600060405180830381600087803b158015610aaa57600080fd5b505af1158015610abe573d6000803e3d6000fd5b5050505081836001600160a01b0316856001600160a01b03167f620337bf89eea2b9ae2657beead83b5fa620452817118348aff96e201d52598b84604051610b0891815260200190565b60405180910390a450505050565b604080516001600160a01b038416602482015260448082018490528251808303909101815260649091019091526020810180516001600160e01b031663a9059cbb60e01b179052610218908490610c81565b80471015610bb85760405162461bcd60e51b815260206004820152601d60248201527f416464726573733a20696e73756666696369656e742062616c616e6365000000604482015260640161027f565b6000826001600160a01b03168260405160006040518083038185875af1925050503d8060008114610c05576040519150601f19603f3d011682016040523d82523d6000602084013e610c0a565b606091505b50509050806102185760405162461bcd60e51b815260206004820152603a60248201527f416464726573733a20756e61626c6520746f2073656e642076616c75652c207260448201527f6563697069656e74206d61792068617665207265766572746564000000000000606482015260840161027f565b6000610cd6826040518060400160405280602081526020017f5361666545524332303a206c6f772d6c6576656c2063616c6c206661696c6564815250856001600160a01b0316610d539092919063ffffffff16565b8051909150156102185780806020019051810190610cf491906112fe565b6102185760405162461bcd60e51b815260206004820152602a60248201527f5361666545524332303a204552433230206f7065726174696f6e20646964206e6044820152691bdd081cdd58d8d9595960b21b606482015260840161027f565b6060610d628484600085610d6a565b949350505050565b606082471015610dcb5760405162461bcd60e51b815260206004820152602660248201527f416464726573733a20696e73756666696369656e742062616c616e636520666f6044820152651c8818d85b1b60d21b606482015260840161027f565b600080866001600160a01b03168587604051610de7919061133f565b60006040518083038185875af1925050503d8060008114610e24576040519150601f19603f3d011682016040523d82523d6000602084013e610e29565b606091505b5091509150610e3a87838387610e45565b979650505050505050565b60608315610eb4578251600003610ead576001600160a01b0385163b610ead5760405162461bcd60e51b815260206004820152601d60248201527f416464726573733a2063616c6c20746f206e6f6e2d636f6e7472616374000000604482015260640161027f565b5081610d62565b610d628383815115610ec95781518083602001fd5b8060405162461bcd60e51b815260040161027f919061135b565b508054600082556005029060005260206000209081019061063091905b80821115610f4c57600080825560018201556002810180546001600160a81b03199081169091556003820180546001600160a01b03191690556004820180549091169055600501610f00565b5090565b6001600160a01b038116811461063057600080fd5b8035610f7081610f50565b919050565b600080600060608486031215610f8a57600080fd5b8335610f9581610f50565b92506020840135610fa581610f50565b929592945050506040919091013590565b801515811461063057600080fd5b8035610f7081610fb6565b60008060408385031215610fe257600080fd5b8235610fed81610f50565b91506020830135610ffd81610fb6565b809150509250929050565b6000806040838503121561101b57600080fd5b823561102681610f50565b946020939093013593505050565b60006020828403121561104657600080fd5b813561105181610f50565b9392505050565b803560038110610f7057600080fd5b60008082840361010081121561107c57600080fd5b8335925060e0601f198201121561109257600080fd5b5060405160e0810181811067ffffffffffffffff821117156110c457634e487b7160e01b600052604160045260246000fd5b806040525060208401358152604084013560208201526110e660608501610fc4565b60408201526110f760808501610f65565b606082015261110860a08501610f65565b608082015261111960c08501610f65565b60a082015261112a60e08501611058565b60c0820152809150509250929050565b6000806000806080858703121561115057600080fd5b843561115b81610f50565b9350602085013561116b81610f50565b93969395505050506040820135916060013590565b60006020828403121561119257600080fd5b5035919050565b634e487b7160e01b600052602160045260246000fd5b60208082528251828201819052600091906040908185019086840185805b83811015611256578251805186528781015188870152868101511515878701526060808201516001600160a01b039081169188019190915260808083015182169088015260a0808301519091169087015260c090810151906003821061124157634e487b7160e01b84526021600452602484fd5b86015260e090940193918601916001016111cd565b509298975050505050505050565b60208082526021908201527f576562335061636b734d616e61676572202d20496e76616c69642063616c6c656040820152603960f91b606082015260800190565b6020808252600990820152684248503a452d34303360b81b604082015260600190565b6000602082840312156112da57600080fd5b5051919050565b6000602082840312156112f357600080fd5b815161105181610f50565b60006020828403121561131057600080fd5b815161105181610fb6565b60005b8381101561133657818101518382015260200161131e565b50506000910152565b6000825161135181846020870161131b565b9190910192915050565b602081526000825180602084015261137a81604085016020870161131b565b601f01601f1916919091016040019291505056fea26469706673582212209d8b1ba6edb4eed4ecf18b9e32c6724f203852b5e3e8cdb487bca6cb3ae21dc364736f6c63430008110033",
  "devdoc": {
    "kind": "dev",
    "methods": {
      "owner()": {
        "details": "Returns the address of the current owner."
      },
      "renounceOwnership()": {
        "details": "Leaves the contract without owner. It will not be possible to call `onlyOwner` functions anymore. Can only be called by the current owner. NOTE: Renouncing ownership will leave the contract without an owner, thereby removing any functionality that is only available to the owner."
      },
      "transferOwnership(address)": {
        "details": "Transfers ownership of the contract to a new account (`newOwner`). Can only be called by the current owner."
      }
    },
    "version": 1
  },
  "userdoc": {
    "kind": "user",
    "methods": {},
    "version": 1
  },
  "storageLayout": {
    "storage": [
      {
        "astId": 7,
        "contract": "contracts/Web3PacksManager.sol:Web3PacksManager",
        "label": "_owner",
        "offset": 0,
        "slot": "0",
        "type": "t_address"
      },
      {
        "astId": 2160,
        "contract": "contracts/Web3PacksManager.sol:Web3PacksManager",
        "label": "_web3packsContracts",
        "offset": 0,
        "slot": "1",
        "type": "t_mapping(t_address,t_bool)"
      },
      {
        "astId": 2164,
        "contract": "contracts/Web3PacksManager.sol:Web3PacksManager",
        "label": "_allowlistedContracts",
        "offset": 0,
        "slot": "2",
        "type": "t_mapping(t_address,t_bool)"
      },
      {
        "astId": 2170,
        "contract": "contracts/Web3PacksManager.sol:Web3PacksManager",
        "label": "_liquidityPositions",
        "offset": 0,
        "slot": "3",
        "type": "t_mapping(t_uint256,t_array(t_struct(LiquidityPosition)5534_storage)dyn_storage)"
      }
    ],
    "types": {
      "t_address": {
        "encoding": "inplace",
        "label": "address",
        "numberOfBytes": "20"
      },
      "t_array(t_struct(LiquidityPosition)5534_storage)dyn_storage": {
        "base": "t_struct(LiquidityPosition)5534_storage",
        "encoding": "dynamic_array",
        "label": "struct IWeb3PacksDefs.LiquidityPosition[]",
        "numberOfBytes": "32"
      },
      "t_bool": {
        "encoding": "inplace",
        "label": "bool",
        "numberOfBytes": "1"
      },
      "t_enum(RouterType)5454": {
        "encoding": "inplace",
        "label": "enum IWeb3PacksDefs.RouterType",
        "numberOfBytes": "1"
      },
      "t_mapping(t_address,t_bool)": {
        "encoding": "mapping",
        "key": "t_address",
        "label": "mapping(address => bool)",
        "numberOfBytes": "32",
        "value": "t_bool"
      },
      "t_mapping(t_uint256,t_array(t_struct(LiquidityPosition)5534_storage)dyn_storage)": {
        "encoding": "mapping",
        "key": "t_uint256",
        "label": "mapping(uint256 => struct IWeb3PacksDefs.LiquidityPosition[])",
        "numberOfBytes": "32",
        "value": "t_array(t_struct(LiquidityPosition)5534_storage)dyn_storage"
      },
      "t_struct(LiquidityPosition)5534_storage": {
        "encoding": "inplace",
        "label": "struct IWeb3PacksDefs.LiquidityPosition",
        "members": [
          {
            "astId": 5520,
            "contract": "contracts/Web3PacksManager.sol:Web3PacksManager",
            "label": "lpTokenId",
            "offset": 0,
            "slot": "0",
            "type": "t_uint256"
          },
          {
            "astId": 5522,
            "contract": "contracts/Web3PacksManager.sol:Web3PacksManager",
            "label": "liquidity",
            "offset": 0,
            "slot": "1",
            "type": "t_uint256"
          },
          {
            "astId": 5524,
            "contract": "contracts/Web3PacksManager.sol:Web3PacksManager",
            "label": "stable",
            "offset": 0,
            "slot": "2",
            "type": "t_bool"
          },
          {
            "astId": 5526,
            "contract": "contracts/Web3PacksManager.sol:Web3PacksManager",
            "label": "token0",
            "offset": 1,
            "slot": "2",
            "type": "t_address"
          },
          {
            "astId": 5528,
            "contract": "contracts/Web3PacksManager.sol:Web3PacksManager",
            "label": "token1",
            "offset": 0,
            "slot": "3",
            "type": "t_address"
          },
          {
            "astId": 5530,
            "contract": "contracts/Web3PacksManager.sol:Web3PacksManager",
            "label": "router",
            "offset": 0,
            "slot": "4",
            "type": "t_address"
          },
          {
            "astId": 5533,
            "contract": "contracts/Web3PacksManager.sol:Web3PacksManager",
            "label": "routerType",
            "offset": 20,
            "slot": "4",
            "type": "t_enum(RouterType)5454"
          }
        ],
        "numberOfBytes": "160"
      },
      "t_uint256": {
        "encoding": "inplace",
        "label": "uint256",
        "numberOfBytes": "32"
      }
    }
  }
}