{
  "address": "0x395Bbb9776B0CC6F180862f814BF66e42894Ad61",
  "abi": [
    {
      "inputs": [
        {
          "internalType": "address",
          "name": "weth",
          "type": "address"
        }
      ],
      "stateMutability": "nonpayable",
      "type": "constructor"
    },
    {
      "inputs": [],
      "name": "ContractNotAllowed",
      "type": "error"
    },
    {
      "inputs": [],
      "name": "FundingFailed",
      "type": "error"
    },
    {
      "inputs": [
        {
          "internalType": "uint256",
          "name": "value",
          "type": "uint256"
        },
        {
          "internalType": "uint256",
          "name": "ethPackPrice",
          "type": "uint256"
        },
        {
          "internalType": "uint256",
          "name": "protocolFee",
          "type": "uint256"
        }
      ],
      "name": "InsufficientForFee",
      "type": "error"
    },
    {
      "inputs": [],
      "name": "MismatchedTokens",
      "type": "error"
    },
    {
      "inputs": [
        {
          "internalType": "address",
          "name": "tokenAddress",
          "type": "address"
        }
      ],
      "name": "MissingLiquidityUUID",
      "type": "error"
    },
    {
      "inputs": [],
      "name": "NativeAssetTransferFailed",
      "type": "error"
    },
    {
      "inputs": [],
      "name": "NotOwnerOrApproved",
      "type": "error"
    },
    {
      "inputs": [],
      "name": "NullReceiver",
      "type": "error"
    },
    {
      "inputs": [
        {
          "internalType": "address",
          "name": "tokenOut",
          "type": "address"
        },
        {
          "internalType": "uint256",
          "name": "amountIn",
          "type": "uint256"
        },
        {
          "internalType": "address",
          "name": "router",
          "type": "address"
        }
      ],
      "name": "UnsucessfulSwap",
      "type": "error"
    },
    {
      "anonymous": false,
      "inputs": [
        {
          "indexed": true,
          "internalType": "address",
          "name": "chargedParticles",
          "type": "address"
        }
      ],
      "name": "ChargedParticlesSet",
      "type": "event"
    },
    {
      "anonymous": false,
      "inputs": [
        {
          "indexed": true,
          "internalType": "address",
          "name": "chargedState",
          "type": "address"
        }
      ],
      "name": "ChargedStateSet",
      "type": "event"
    },
    {
      "anonymous": false,
      "inputs": [
        {
          "indexed": true,
          "internalType": "address",
          "name": "previousOwner",
          "type": "address"
        },
        {
          "indexed": true,
          "internalType": "address",
          "name": "newOwner",
          "type": "address"
        }
      ],
      "name": "OwnershipTransferred",
      "type": "event"
    },
    {
      "anonymous": false,
      "inputs": [
        {
          "indexed": true,
          "internalType": "uint256",
          "name": "tokenId",
          "type": "uint256"
        },
        {
          "indexed": true,
          "internalType": "address",
          "name": "receiver",
          "type": "address"
        },
        {
          "indexed": false,
          "internalType": "bytes32",
          "name": "packType",
          "type": "bytes32"
        },
        {
          "indexed": false,
          "internalType": "bytes32",
          "name": "usdPackPrice",
          "type": "bytes32"
        }
      ],
      "name": "PackBundled",
      "type": "event"
    },
    {
      "anonymous": false,
      "inputs": [
        {
          "indexed": true,
          "internalType": "uint256",
          "name": "tokenId",
          "type": "uint256"
        },
        {
          "indexed": true,
          "internalType": "address",
          "name": "receiver",
          "type": "address"
        },
        {
          "indexed": false,
          "internalType": "uint256",
          "name": "ethAmount",
          "type": "uint256"
        }
      ],
      "name": "PackUnbundled",
      "type": "event"
    },
    {
      "anonymous": false,
      "inputs": [
        {
          "indexed": false,
          "internalType": "address",
          "name": "account",
          "type": "address"
        }
      ],
      "name": "Paused",
      "type": "event"
    },
    {
      "anonymous": false,
      "inputs": [
        {
          "indexed": false,
          "internalType": "uint256",
          "name": "fee",
          "type": "uint256"
        }
      ],
      "name": "ProtocolFeeSet",
      "type": "event"
    },
    {
      "anonymous": false,
      "inputs": [
        {
          "indexed": true,
          "internalType": "address",
          "name": "proton",
          "type": "address"
        }
      ],
      "name": "ProtonSet",
      "type": "event"
    },
    {
      "anonymous": false,
      "inputs": [
        {
          "indexed": true,
          "internalType": "address",
          "name": "router",
          "type": "address"
        }
      ],
      "name": "RouterSet",
      "type": "event"
    },
    {
      "anonymous": false,
      "inputs": [
        {
          "indexed": false,
          "internalType": "address",
          "name": "account",
          "type": "address"
        }
      ],
      "name": "Unpaused",
      "type": "event"
    },
    {
      "anonymous": false,
      "inputs": [
        {
          "indexed": true,
          "internalType": "address",
          "name": "manager",
          "type": "address"
        }
      ],
      "name": "Web3PacksExchangeManagerSet",
      "type": "event"
    },
    {
      "anonymous": false,
      "inputs": [
        {
          "indexed": true,
          "internalType": "address",
          "name": "manager",
          "type": "address"
        }
      ],
      "name": "Web3PacksManagerSet",
      "type": "event"
    },
    {
      "anonymous": false,
      "inputs": [
        {
          "indexed": true,
          "internalType": "address",
          "name": "web3packs",
          "type": "address"
        }
      ],
      "name": "Web3PacksSet",
      "type": "event"
    },
    {
      "anonymous": false,
      "inputs": [
        {
          "indexed": true,
          "internalType": "address",
          "name": "treasury",
          "type": "address"
        }
      ],
      "name": "Web3PacksTreasurySet",
      "type": "event"
    },
    {
      "anonymous": false,
      "inputs": [
        {
          "indexed": true,
          "internalType": "address",
          "name": "receiver",
          "type": "address"
        },
        {
          "indexed": true,
          "internalType": "address",
          "name": "tokenAddress",
          "type": "address"
        },
        {
          "indexed": true,
          "internalType": "uint256",
          "name": "tokenId",
          "type": "uint256"
        },
        {
          "indexed": false,
          "internalType": "uint256",
          "name": "amount",
          "type": "uint256"
        }
      ],
      "name": "WithdrawStuckERC1155",
      "type": "event"
    },
    {
      "anonymous": false,
      "inputs": [
        {
          "indexed": true,
          "internalType": "address",
          "name": "receiver",
          "type": "address"
        },
        {
          "indexed": true,
          "internalType": "address",
          "name": "tokenAddress",
          "type": "address"
        },
        {
          "indexed": false,
          "internalType": "uint256",
          "name": "amount",
          "type": "uint256"
        }
      ],
      "name": "WithdrawStuckERC20",
      "type": "event"
    },
    {
      "anonymous": false,
      "inputs": [
        {
          "indexed": true,
          "internalType": "address",
          "name": "receiver",
          "type": "address"
        },
        {
          "indexed": true,
          "internalType": "address",
          "name": "tokenAddress",
          "type": "address"
        },
        {
          "indexed": true,
          "internalType": "uint256",
          "name": "tokenId",
          "type": "uint256"
        }
      ],
      "name": "WithdrawStuckERC721",
      "type": "event"
    },
    {
      "anonymous": false,
      "inputs": [
        {
          "indexed": true,
          "internalType": "address",
          "name": "receiver",
          "type": "address"
        },
        {
          "indexed": false,
          "internalType": "uint256",
          "name": "amount",
          "type": "uint256"
        }
      ],
      "name": "WithdrawStuckEther",
      "type": "event"
    },
    {
      "stateMutability": "payable",
      "type": "fallback"
    },
    {
      "inputs": [],
      "name": "_web3Packs",
      "outputs": [
        {
          "internalType": "address",
          "name": "",
          "type": "address"
        }
      ],
      "stateMutability": "view",
      "type": "function"
    },
    {
      "inputs": [],
      "name": "_web3PacksManager",
      "outputs": [
        {
          "internalType": "address",
          "name": "",
          "type": "address"
        }
      ],
      "stateMutability": "view",
      "type": "function"
    },
    {
      "inputs": [],
      "name": "_weth",
      "outputs": [
        {
          "internalType": "address",
          "name": "",
          "type": "address"
        }
      ],
      "stateMutability": "view",
      "type": "function"
    },
    {
      "inputs": [
        {
          "components": [
            {
              "internalType": "address",
              "name": "router",
              "type": "address"
            },
            {
              "internalType": "address",
              "name": "token0",
              "type": "address"
            },
            {
              "internalType": "address",
              "name": "token1",
              "type": "address"
            },
            {
              "internalType": "bytes32",
              "name": "liquidityUuidToken0",
              "type": "bytes32"
            },
            {
              "internalType": "bytes32",
              "name": "liquidityUuidToken1",
              "type": "bytes32"
            },
            {
              "internalType": "uint256",
              "name": "percentToken0",
              "type": "uint256"
            },
            {
              "internalType": "uint256",
              "name": "percentToken1",
              "type": "uint256"
            },
            {
              "internalType": "uint256",
              "name": "minimumLpTokens",
              "type": "uint256"
            },
            {
              "internalType": "uint256",
              "name": "slippage",
              "type": "uint256"
            },
            {
              "internalType": "int24",
              "name": "tickLower",
              "type": "int24"
            },
            {
              "internalType": "int24",
              "name": "tickUpper",
              "type": "int24"
            },
            {
              "internalType": "bool",
              "name": "stable",
              "type": "bool"
            },
            {
              "internalType": "bytes32",
              "name": "poolId",
              "type": "bytes32"
            },
            {
              "internalType": "enum IWeb3PacksDefs.RouterType",
              "name": "routerType",
              "type": "uint8"
            }
          ],
          "internalType": "struct IWeb3PacksDefs.LiquidityOrderGeneric[]",
          "name": "orders",
          "type": "tuple[]"
        },
        {
          "internalType": "uint256",
          "name": "web3PacksTokenId",
          "type": "uint256"
        }
      ],
      "name": "depositLiquidity",
      "outputs": [],
      "stateMutability": "nonpayable",
      "type": "function"
    },
    {
      "inputs": [
        {
          "components": [
            {
              "internalType": "uint256",
              "name": "lpTokenId",
              "type": "uint256"
            },
            {
              "internalType": "uint256",
              "name": "liquidity",
              "type": "uint256"
            },
            {
              "internalType": "bool",
              "name": "stable",
              "type": "bool"
            },
            {
              "internalType": "address",
              "name": "token0",
              "type": "address"
            },
            {
              "internalType": "address",
              "name": "token1",
              "type": "address"
            },
            {
              "internalType": "int24",
              "name": "tickLower",
              "type": "int24"
            },
            {
              "internalType": "int24",
              "name": "tickUpper",
              "type": "int24"
            },
            {
              "internalType": "bytes32",
              "name": "poolId",
              "type": "bytes32"
            },
            {
              "internalType": "address",
              "name": "router",
              "type": "address"
            },
            {
              "internalType": "enum IWeb3PacksDefs.RouterType",
              "name": "routerType",
              "type": "uint8"
            }
          ],
          "internalType": "struct IWeb3PacksDefs.LiquidityPosition",
          "name": "liquidityPosition",
          "type": "tuple"
        }
      ],
      "name": "getLiquidityTokenData",
      "outputs": [
        {
          "internalType": "address",
          "name": "lpTokenAddress",
          "type": "address"
        },
        {
          "internalType": "uint256",
          "name": "lpTokenId",
          "type": "uint256"
        }
      ],
      "stateMutability": "view",
      "type": "function"
    },
    {
      "inputs": [
        {
          "internalType": "address",
          "name": "",
          "type": "address"
        },
        {
          "internalType": "address",
          "name": "",
          "type": "address"
        },
        {
          "internalType": "uint256",
          "name": "",
          "type": "uint256"
        },
        {
          "internalType": "bytes",
          "name": "",
          "type": "bytes"
        }
      ],
      "name": "onERC721Received",
      "outputs": [
        {
          "internalType": "bytes4",
          "name": "",
          "type": "bytes4"
        }
      ],
      "stateMutability": "pure",
      "type": "function"
    },
    {
      "inputs": [],
      "name": "owner",
      "outputs": [
        {
          "internalType": "address",
          "name": "",
          "type": "address"
        }
      ],
      "stateMutability": "view",
      "type": "function"
    },
    {
      "inputs": [],
      "name": "paused",
      "outputs": [
        {
          "internalType": "bool",
          "name": "",
          "type": "bool"
        }
      ],
      "stateMutability": "view",
      "type": "function"
    },
    {
      "inputs": [
        {
          "components": [
            {
              "internalType": "bytes",
              "name": "callData",
              "type": "bytes"
            },
            {
              "internalType": "address",
              "name": "contractAddress",
              "type": "address"
            },
            {
              "internalType": "uint256",
              "name": "amountIn",
              "type": "uint256"
            }
          ],
          "internalType": "struct IWeb3PacksDefs.ContractCallGeneric[]",
          "name": "contractCalls",
          "type": "tuple[]"
        }
      ],
      "name": "performContractCalls",
      "outputs": [],
      "stateMutability": "nonpayable",
      "type": "function"
    },
    {
      "inputs": [
        {
          "components": [
            {
              "internalType": "bytes",
              "name": "callData",
              "type": "bytes"
            },
            {
              "internalType": "address",
              "name": "router",
              "type": "address"
            },
            {
              "internalType": "address",
              "name": "tokenIn",
              "type": "address"
            },
            {
              "internalType": "address",
              "name": "tokenOut",
              "type": "address"
            },
            {
              "internalType": "uint256",
              "name": "tokenAmountIn",
              "type": "uint256"
            },
            {
              "internalType": "uint256",
              "name": "tokenAmountOutMin",
              "type": "uint256"
            },
            {
              "internalType": "uint256",
              "name": "payableAmountIn",
              "type": "uint256"
            },
            {
              "internalType": "bytes32",
              "name": "liquidityUuid",
              "type": "bytes32"
            },
            {
              "internalType": "bytes32",
              "name": "poolId",
              "type": "bytes32"
            },
            {
              "internalType": "bool",
              "name": "stable",
              "type": "bool"
            },
            {
              "components": [
                {
                  "internalType": "address",
                  "name": "token0",
                  "type": "address"
                },
                {
                  "internalType": "address",
                  "name": "token1",
                  "type": "address"
                }
              ],
              "internalType": "struct IWeb3PacksDefs.Route[]",
              "name": "reverseRoute",
              "type": "tuple[]"
            },
            {
              "internalType": "enum IWeb3PacksDefs.RouterType",
              "name": "routerType",
              "type": "uint8"
            }
          ],
          "internalType": "struct IWeb3PacksDefs.ERC20SwapOrderGeneric[]",
          "name": "orders",
          "type": "tuple[]"
        },
        {
          "internalType": "uint256",
          "name": "web3packsTokenId",
          "type": "uint256"
        }
      ],
      "name": "performSwaps",
      "outputs": [],
      "stateMutability": "nonpayable",
      "type": "function"
    },
    {
      "inputs": [
        {
          "components": [
            {
              "internalType": "uint256",
              "name": "lpTokenId",
              "type": "uint256"
            },
            {
              "internalType": "uint256",
              "name": "liquidity",
              "type": "uint256"
            },
            {
              "internalType": "bool",
              "name": "stable",
              "type": "bool"
            },
            {
              "internalType": "address",
              "name": "token0",
              "type": "address"
            },
            {
              "internalType": "address",
              "name": "token1",
              "type": "address"
            },
            {
              "internalType": "int24",
              "name": "tickLower",
              "type": "int24"
            },
            {
              "internalType": "int24",
              "name": "tickUpper",
              "type": "int24"
            },
            {
              "internalType": "bytes32",
              "name": "poolId",
              "type": "bytes32"
            },
            {
              "internalType": "address",
              "name": "router",
              "type": "address"
            },
            {
              "internalType": "enum IWeb3PacksDefs.RouterType",
              "name": "routerType",
              "type": "uint8"
            }
          ],
          "internalType": "struct IWeb3PacksDefs.LiquidityPosition",
          "name": "liquidityPosition",
          "type": "tuple"
        },
        {
          "components": [
            {
              "components": [
                {
                  "internalType": "address",
                  "name": "token",
                  "type": "address"
                },
                {
                  "internalType": "uint256",
                  "name": "amount",
                  "type": "uint256"
                }
              ],
              "internalType": "struct IWeb3PacksDefs.TokenAmount",
              "name": "token0",
              "type": "tuple"
            },
            {
              "components": [
                {
                  "internalType": "address",
                  "name": "token",
                  "type": "address"
                },
                {
                  "internalType": "uint256",
                  "name": "amount",
                  "type": "uint256"
                }
              ],
              "internalType": "struct IWeb3PacksDefs.TokenAmount",
              "name": "token1",
              "type": "tuple"
            },
            {
              "internalType": "uint256",
              "name": "slippage",
              "type": "uint256"
            },
            {
              "internalType": "bytes32",
              "name": "poolId",
              "type": "bytes32"
            },
            {
              "internalType": "address",
              "name": "router",
              "type": "address"
            },
            {
              "internalType": "enum IWeb3PacksDefs.RouterType",
              "name": "routerType",
              "type": "uint8"
            },
            {
              "internalType": "bool",
              "name": "exitLpOnUnbundle",
              "type": "bool"
            },
            {
              "components": [
                {
                  "internalType": "address",
                  "name": "token0",
                  "type": "address"
                },
                {
                  "internalType": "address",
                  "name": "token1",
                  "type": "address"
                }
              ],
              "internalType": "struct IWeb3PacksDefs.Route[]",
              "name": "reverseRoute",
              "type": "tuple[]"
            },
            {
              "internalType": "bool",
              "name": "stable",
              "type": "bool"
            }
          ],
          "internalType": "struct IWeb3PacksDefs.LiquidityPairs",
          "name": "liquidityPair",
          "type": "tuple"
        },
        {
          "internalType": "address",
          "name": "receiver",
          "type": "address"
        },
        {
          "internalType": "bool",
          "name": "sellAll",
          "type": "bool"
        }
      ],
      "name": "removeLiquidity",
      "outputs": [],
      "stateMutability": "nonpayable",
      "type": "function"
    },
    {
      "inputs": [],
      "name": "renounceOwnership",
      "outputs": [],
      "stateMutability": "nonpayable",
      "type": "function"
    },
    {
      "inputs": [
        {
          "internalType": "address",
          "name": "web3packs",
          "type": "address"
        }
      ],
      "name": "setWeb3Packs",
      "outputs": [],
      "stateMutability": "nonpayable",
      "type": "function"
    },
    {
      "inputs": [
        {
          "internalType": "address",
          "name": "manager",
          "type": "address"
        }
      ],
      "name": "setWeb3PacksManager",
      "outputs": [],
      "stateMutability": "nonpayable",
      "type": "function"
    },
    {
      "inputs": [
        {
          "components": [
            {
              "internalType": "bytes",
              "name": "callData",
              "type": "bytes"
            },
            {
              "internalType": "address",
              "name": "router",
              "type": "address"
            },
            {
              "internalType": "address",
              "name": "tokenIn",
              "type": "address"
            },
            {
              "internalType": "address",
              "name": "tokenOut",
              "type": "address"
            },
            {
              "internalType": "uint256",
              "name": "tokenAmountIn",
              "type": "uint256"
            },
            {
              "internalType": "uint256",
              "name": "tokenAmountOutMin",
              "type": "uint256"
            },
            {
              "internalType": "uint256",
              "name": "payableAmountIn",
              "type": "uint256"
            },
            {
              "internalType": "bytes32",
              "name": "liquidityUuid",
              "type": "bytes32"
            },
            {
              "internalType": "bytes32",
              "name": "poolId",
              "type": "bytes32"
            },
            {
              "internalType": "bool",
              "name": "stable",
              "type": "bool"
            },
            {
              "components": [
                {
                  "internalType": "address",
                  "name": "token0",
                  "type": "address"
                },
                {
                  "internalType": "address",
                  "name": "token1",
                  "type": "address"
                }
              ],
              "internalType": "struct IWeb3PacksDefs.Route[]",
              "name": "reverseRoute",
              "type": "tuple[]"
            },
            {
              "internalType": "enum IWeb3PacksDefs.RouterType",
              "name": "routerType",
              "type": "uint8"
            }
          ],
          "internalType": "struct IWeb3PacksDefs.ERC20SwapOrderGeneric[]",
          "name": "erc20SwapOrders",
          "type": "tuple[]"
        },
        {
          "components": [
            {
              "components": [
                {
                  "internalType": "address",
                  "name": "token",
                  "type": "address"
                },
                {
                  "internalType": "uint256",
                  "name": "amount",
                  "type": "uint256"
                }
              ],
              "internalType": "struct IWeb3PacksDefs.TokenAmount",
              "name": "token0",
              "type": "tuple"
            },
            {
              "components": [
                {
                  "internalType": "address",
                  "name": "token",
                  "type": "address"
                },
                {
                  "internalType": "uint256",
                  "name": "amount",
                  "type": "uint256"
                }
              ],
              "internalType": "struct IWeb3PacksDefs.TokenAmount",
              "name": "token1",
              "type": "tuple"
            },
            {
              "internalType": "uint256",
              "name": "slippage",
              "type": "uint256"
            },
            {
              "internalType": "bytes32",
              "name": "poolId",
              "type": "bytes32"
            },
            {
              "internalType": "address",
              "name": "router",
              "type": "address"
            },
            {
              "internalType": "enum IWeb3PacksDefs.RouterType",
              "name": "routerType",
              "type": "uint8"
            },
            {
              "internalType": "bool",
              "name": "exitLpOnUnbundle",
              "type": "bool"
            },
            {
              "components": [
                {
                  "internalType": "address",
                  "name": "token0",
                  "type": "address"
                },
                {
                  "internalType": "address",
                  "name": "token1",
                  "type": "address"
                }
              ],
              "internalType": "struct IWeb3PacksDefs.Route[]",
              "name": "reverseRoute",
              "type": "tuple[]"
            },
            {
              "internalType": "bool",
              "name": "stable",
              "type": "bool"
            }
          ],
          "internalType": "struct IWeb3PacksDefs.LiquidityPairs[]",
          "name": "liquidityPairs",
          "type": "tuple[]"
        },
        {
          "internalType": "address",
          "name": "receiver",
          "type": "address"
        }
      ],
      "name": "swapAllForEth",
      "outputs": [
        {
          "internalType": "uint256",
          "name": "ethAmount",
          "type": "uint256"
        }
      ],
      "stateMutability": "nonpayable",
      "type": "function"
    },
    {
      "inputs": [
        {
          "internalType": "address",
          "name": "newOwner",
          "type": "address"
        }
      ],
      "name": "transferOwnership",
      "outputs": [],
      "stateMutability": "nonpayable",
      "type": "function"
    },
    {
      "inputs": [
        {
          "internalType": "address payable",
          "name": "receiver",
          "type": "address"
        },
        {
          "internalType": "address",
          "name": "tokenAddress",
          "type": "address"
        },
        {
          "internalType": "uint256",
          "name": "tokenId",
          "type": "uint256"
        },
        {
          "internalType": "uint256",
          "name": "amount",
          "type": "uint256"
        }
      ],
      "name": "withdrawERC1155",
      "outputs": [],
      "stateMutability": "nonpayable",
      "type": "function"
    },
    {
      "inputs": [
        {
          "internalType": "address payable",
          "name": "receiver",
          "type": "address"
        },
        {
          "internalType": "address",
          "name": "tokenAddress",
          "type": "address"
        },
        {
          "internalType": "uint256",
          "name": "tokenId",
          "type": "uint256"
        }
      ],
      "name": "withdrawERC721",
      "outputs": [],
      "stateMutability": "nonpayable",
      "type": "function"
    },
    {
      "inputs": [
        {
          "internalType": "address payable",
          "name": "receiver",
          "type": "address"
        },
        {
          "internalType": "address",
          "name": "tokenAddress",
          "type": "address"
        },
        {
          "internalType": "uint256",
          "name": "amount",
          "type": "uint256"
        }
      ],
      "name": "withdrawErc20",
      "outputs": [],
      "stateMutability": "nonpayable",
      "type": "function"
    },
    {
      "inputs": [
        {
          "internalType": "address payable",
          "name": "receiver",
          "type": "address"
        },
        {
          "internalType": "uint256",
          "name": "amount",
          "type": "uint256"
        }
      ],
      "name": "withdrawEther",
      "outputs": [],
      "stateMutability": "nonpayable",
      "type": "function"
    },
    {
      "stateMutability": "payable",
      "type": "receive"
    }
  ],
  "transactionHash": "0x456c80d8200a8563bf8672130a38f7f587b5d72f5f9c6910f29f4234a08faa37",
  "args": [
    "0x4200000000000000000000000000000000000006"
  ],
  "numDeployments": 3,
  "solcInputHash": "5e4a2495c3b8b307011f8f698a91a439",
  "bytecode": "0x60806040523480156200001157600080fd5b5060405162005fea38038062005fea83398101604081905262000034916200011b565b80808080806200004433620000cb565b6000805460ff60a01b1916905560018055600280546001600160a01b03199081166001600160a01b03938416179091556003805482169383169390931790925560048054831693821693909317909255600580548216938316939093179092556006805483169382169390931790925560078054909116929091169190911790556200014d565b600080546001600160a01b038381166001600160a01b0319831681178455604051919092169283917f8be0079c531659141344cd1fd0a4f28419497f9722a3daafe3b4186f6b6457e09190a35050565b6000602082840312156200012e57600080fd5b81516001600160a01b03811681146200014657600080fd5b9392505050565b615e8d806200015d6000396000f3fe6080604052600436106101235760003560e01c8063684433fb116100a0578063a0edb48b11610064578063a0edb48b14610367578063a176459514610387578063a93bd512146103a7578063b6a9cb7e146103e6578063f2fde38b1461040657610130565b8063684433fb146102d457806369d09c4c146102f4578063715018a6146103145780638da5cb5b146103295780639bd5c43a1461034757610130565b806345b315cf116100e757806345b315cf14610204578063522f6815146102325780635c975abb14610252578063645290651461027c578063669d09211461029c57610130565b80630846f99e14610138578063150b7a021461015a5780631593dee1146101a45780633bffd3b8146101c45780634025feb2146101e457610130565b366101305734600a819055005b34600a819055005b34801561014457600080fd5b50610158610153366004614ab7565b610426565b005b34801561016657600080fd5b50610186610175366004614ad4565b630a85bd0160e11b95945050505050565b6040516001600160e01b031990911681526020015b60405180910390f35b3480156101b057600080fd5b506101586101bf366004614b72565b6104e1565b3480156101d057600080fd5b506101586101df366004614be5565b6104f9565b3480156101f057600080fd5b506101586101ff366004614b72565b61058b565b34801561021057600080fd5b5061022461021f366004614f74565b61059e565b60405190815260200161019b565b34801561023e57600080fd5b5061015861024d36600461505e565b610949565b34801561025e57600080fd5b50600054600160a01b900460ff16604051901515815260200161019b565b34801561028857600080fd5b50610158610297366004614ab7565b61095f565b3480156102a857600080fd5b506008546102bc906001600160a01b031681565b6040516001600160a01b03909116815260200161019b565b3480156102e057600080fd5b506101586102ef36600461508a565b610a07565b34801561030057600080fd5b506009546102bc906001600160a01b031681565b34801561032057600080fd5b50610158610b9b565b34801561033557600080fd5b506000546001600160a01b03166102bc565b34801561035357600080fd5b50610158610362366004615105565b610baf565b34801561037357600080fd5b5061015861038236600461513a565b610c2b565b34801561039357600080fd5b506007546102bc906001600160a01b031681565b3480156103b357600080fd5b506103c76103c2366004615180565b610c45565b604080516001600160a01b03909316835260208301919091520161019b565b3480156103f257600080fd5b5061015861040136600461519d565b610da2565b34801561041257600080fd5b50610158610421366004614ab7565b610e20565b61042e610e99565b6001600160a01b0381166104975760405162461bcd60e51b815260206004820152602560248201527f496e76616c6964206164647265737320666f7220776562337061636b73206d616044820152643730b3b2b960d91b60648201526084015b60405180910390fd5b600980546001600160a01b0319166001600160a01b0383169081179091556040517f29c3be2a07cd721ad5a371231bdf132e57fbe87625b604811898342f90c9582f90600090a250565b6104e9610e99565b6104f4838383610ef3565b505050565b6008546001600160a01b031633146105235760405162461bcd60e51b815260040161048e906151e8565b60008061054661053836889003880188615246565b610541876152f9565b610fee565b9150915082610583576105696105626080880160608901614ab7565b85846110fa565b61058361057c60a0880160808901614ab7565b85836110fa565b505050505050565b610593610e99565b6104f48383836111fa565b6008546000906001600160a01b031633146105cb5760405162461bcd60e51b815260040161048e906151e8565b60005b848110156107485760008686838181106105ea576105ea615305565b90506020028101906105fc919061531b565b610605906153ab565b90506106148160200151611347565b6003816101600151600481111561062d5761062d61549e565b0361064f5761064f8160400151826060015183602001518461010001516113d4565b600281610160015160048111156106685761066861549e565b03610690576106908160400151826060015183602001518461014001518561012001516116b5565b600481610160015160048111156106a9576106a961549e565b036106cb576106cb8160400151826060015183602001518461014001516119df565b600081610160015160048111156106e4576106e461549e565b0361070057610700816040015182606001518360200151611cb0565b600181610160015160048111156107195761071961549e565b0361073557610735816040015182606001518360200151611f66565b5080610740816154ca565b9150506105ce565b5060005b83518110156108ba57600084828151811061076957610769615305565b602002602001015190506107808160800151611347565b60038160a0015160048111156107985761079861549e565b036107bc57805151602082015151608083015160608401516107bc939291906113d4565b60028160a0015160048111156107d4576107d461549e565b036107ff57805151602082015151608083015160e08401516101008501516107ff94939291906116b5565b60048160a0015160048111156108175761081761549e565b0361083b57805151602082015151608083015160e084015161083b939291906119df565b60008160a0015160048111156108535761085361549e565b03610871578051516020820151516080830151610871929190611cb0565b60018160a0015160048111156108895761088961549e565b036108a75780515160208201515160808301516108a7929190611f66565b50806108b2816154ca565b91505061074c565b506007546040516370a0823160e01b81523060048201526001600160a01b03909116906370a0823190602401602060405180830381865afa158015610903573d6000803e3d6000fd5b505050506040513d601f19601f8201168201806040525081019061092791906154e3565b600754909150610941906001600160a01b031683836110fa565b949350505050565b610951610e99565b61095b8282612214565b5050565b610967610e99565b6001600160a01b0381166109bd5760405162461bcd60e51b815260206004820152601d60248201527f496e76616c6964206164647265737320666f7220776562337061636b73000000604482015260640161048e565b600880546001600160a01b0319166001600160a01b0383169081179091556040517f68ca72fc2a01b105d181de42d44a6c7a3c1061d13fa12f95feb7bc55ffd6d07590600090a250565b6008546001600160a01b03163314610a315760405162461bcd60e51b815260040161048e906151e8565b6000805b83811015610ab557630ae8aa8960e31b858583818110610a5757610a57615305565b90506101c00201606001351480610a905750630ae8aa8960e31b858583818110610a8357610a83615305565b90506101c0020160800135145b15610aa35781610a9f816154ca565b9250505b80610aad816154ca565b915050610a35565b506007546040516370a0823160e01b81523060048201526000916001600160a01b0316906370a0823190602401602060405180830381865afa158015610aff573d6000803e3d6000fd5b505050506040513d601f19601f82011682018060405250810190610b2391906154e3565b9050600060018311610b36576000610b40565b610b4083836154fc565b905060005b85811015610b9257610b80878783818110610b6257610b62615305565b90506101c00201803603810190610b79919061551e565b868461229a565b80610b8a816154ca565b915050610b45565b50505050505050565b610ba3610e99565b610bad60006125ab565b565b6008546001600160a01b03163314610bd95760405162461bcd60e51b815260040161048e906151e8565b60005b818110156104f457610c19838383818110610bf957610bf9615305565b9050602002810190610c0b91906155f3565b610c1490615609565b6125fb565b80610c23816154ca565b915050610bdc565b610c33610e99565b610c3f848484846126dc565b50505050565b6000806003610c5c61014085016101208601615687565b6004811115610c6d57610c6d61549e565b03610c9257610c89610c8436859003850185615246565b612847565b91509150915091565b6002610ca661014085016101208601615687565b6004811115610cb757610cb761549e565b03610cd357610c89610cce36859003850185615246565b6128cf565b6004610ce761014085016101208601615687565b6004811115610cf857610cf861549e565b03610d1457610c89610d0f36859003850185615246565b6128f4565b6000610d2861014085016101208601615687565b6004811115610d3957610d3961549e565b03610d5557610c89610d5036859003850185615246565b61290f565b6001610d6961014085016101208601615687565b6004811115610d7a57610d7a61549e565b03610d9d57610c89610d9136859003850185615246565b61010081015190519091565b915091565b6008546001600160a01b03163314610dcc5760405162461bcd60e51b815260040161048e906151e8565b60005b82811015610c3f57610e0d848483818110610dec57610dec615305565b9050602002810190610dfe919061531b565b610e07906153ab565b8361292a565b5080610e18816154ca565b915050610dcf565b610e28610e99565b6001600160a01b038116610e8d5760405162461bcd60e51b815260206004820152602660248201527f4f776e61626c653a206e6577206f776e657220697320746865207a65726f206160448201526564647265737360d01b606482015260840161048e565b610e96816125ab565b50565b6000546001600160a01b03163314610bad5760405162461bcd60e51b815260206004820181905260248201527f4f776e61626c653a2063616c6c6572206973206e6f7420746865206f776e6572604482015260640161048e565b6001600160a01b038316610f195760405162461bcd60e51b815260040161048e906156a2565b6040516370a0823160e01b815230600482015281906001600160a01b038416906370a0823190602401602060405180830381865afa158015610f5f573d6000803e3d6000fd5b505050506040513d601f19601f82011682018060405250810190610f8391906154e3565b106104f457610f9c6001600160a01b0383168483612a96565b816001600160a01b0316836001600160a01b03167f6c9d637297625e945b296ff73a71fcfbd0a9e062652b6491a921c4c60194176b83604051610fe191815260200190565b60405180910390a3505050565b600080610fff846101000151611347565b600384610120015160048111156110185761101861549e565b0361102d576110278484612ae8565b90925090505b600284610120015160048111156110465761104661549e565b0361105b576110558484612d4a565b90925090505b600484610120015160048111156110745761107461549e565b03611089576110838484612e4c565b90925090505b600084610120015160048111156110a2576110a261549e565b036110b7576110b18484612ef9565b90925090505b600184610120015160048111156110d0576110d061549e565b036110f3576110df8484612f16565b90925090506110ed84612fb4565b90925090505b9250929050565b604080516001600160a01b038481166024830152604480830185905283518084039091018152606490920183526020820180516001600160e01b031663a9059cbb60e01b179052915160009283929087169161115691906156e9565b6000604051808303816000865af19150503d8060008114611193576040519150601f19603f3d011682016040523d82523d6000602084013e611198565b606091505b50915091508180156111c25750805115806111c25750808060200190518101906111c291906156fb565b6111f35760405162461bcd60e51b815260206004820152600260248201526114d560f21b604482015260640161048e565b5050505050565b6001600160a01b0383166112205760405162461bcd60e51b815260040161048e906156a2565b6040516331a9108f60e11b81526004810182905230906001600160a01b03841690636352211e90602401602060405180830381865afa158015611267573d6000803e3d6000fd5b505050506040513d601f19601f8201168201806040525081019061128b9190615718565b6001600160a01b0316036104f4576040516323b872dd60e01b81523060048201526001600160a01b038481166024830152604482018390528316906323b872dd90606401600060405180830381600087803b1580156112e957600080fd5b505af11580156112fd573d6000803e3d6000fd5b5050505080826001600160a01b0316846001600160a01b03167ffefe036cac4ee3a4aca074a81cbcc4376e1484693289078dbec149c890101d5b60405160405180910390a4505050565b600954604051636f2ddb5f60e01b81526001600160a01b03838116600483015290911690636f2ddb5f906024016020604051808303816000875af1158015611393573d6000803e3d6000fd5b505050506040513d601f19601f820116820180604052508101906113b791906156fb565b610e96576040516311970e2d60e31b815260040160405180910390fd5b6002546000906001600160a01b03868116911614611543576040516370a0823160e01b81523060048201526001600160a01b038616906370a0823190602401602060405180830381865afa158015611430573d6000803e3d6000fd5b505050506040513d601f19601f8201168201806040525081019061145491906154e3565b905061146185848361307b565b8015611543576040805160c081018252838152600060208083018290526001600160a01b0389811684860152600254811660608086019190915260808086018890528651808501885285815260a0870152865190810187523080825293810185905280870193909352820183905293516352bbbe2960e01b815292939092908716916352bbbe29916114fc91869186919042906004016157c8565b6020604051808303816000875af115801561151b573d6000803e3d6000fd5b505050506040513d601f19601f8201168201806040525081019061153f91906154e3565b5050505b6002546001600160a01b038581169116146111f3576040516370a0823160e01b81523060048201526001600160a01b038516906370a0823190602401602060405180830381865afa15801561159c573d6000803e3d6000fd5b505050506040513d601f19601f820116820180604052508101906115c091906154e3565b90506115cd84848361307b565b80156111f3576040805160c081018252838152600060208083018290526001600160a01b0388811684860152600254811660608086019190915260808086018890528651808501885285815260a0870152865190810187523080825293810185905280870193909352820183905293516352bbbe2960e01b815292939092908716916352bbbe299161166891869186919042906004016157c8565b6020604051808303816000875af1158015611687573d6000803e3d6000fd5b505050506040513d601f19601f820116820180604052508101906116ab91906154e3565b5050505050505050565b60008083516001600160401b038111156116d1576116d1614ca5565b60405190808252806020026020018201604052801561171c57816020015b60408051606081018252600080825260208083018290529282015282526000199092019101816116ef5790505b50905060005b84518110156117c457604051806060016040528086838151811061174857611748615305565b6020026020010151600001516001600160a01b0316815260200186838151811061177457611774615305565b6020026020010151602001516001600160a01b031681526020018515158152508282815181106117a6576117a6615305565b602002602001018190525080806117bc906154ca565b915050611722565b506005546001600160a01b038881169116146118d3576040516370a0823160e01b81523060048201526001600160a01b038816906370a0823190602401602060405180830381865afa15801561181e573d6000803e3d6000fd5b505050506040513d601f19601f8201168201806040525081019061184291906154e3565b915081156118d35761185587868461307b565b604051631e82ecdb60e31b81526001600160a01b0386169063f41766d89061188a90859060009086903090429060040161582c565b6000604051808303816000875af11580156118a9573d6000803e3d6000fd5b505050506040513d6000823e601f3d908101601f191682016040526118d191908101906158c1565b505b6005546001600160a01b03878116911614610b92576040516370a0823160e01b81523060048201526001600160a01b038716906370a0823190602401602060405180830381865afa15801561192c573d6000803e3d6000fd5b505050506040513d601f19601f8201168201806040525081019061195091906154e3565b91508115610b925761196386868461307b565b604051631e82ecdb60e31b81526001600160a01b0386169063f41766d89061199890859060009086903090429060040161582c565b6000604051808303816000875af11580156119b7573d6000803e3d6000fd5b505050506040513d6000823e601f3d908101601f191682016040526116ab91908101906158c1565b6040805160018082528183019092526000918291906020808301908036833701905050905082600081518110611a1757611a17615305565b60200260200101516000015181600081518110611a3657611a36615305565b60200260200101906001600160a01b031690816001600160a01b03168152505082600081518110611a6957611a69615305565b60200260200101516000015181600181518110611a8857611a88615305565b6001600160a01b039283166020918202929092010152600654878216911614611ba4576040516370a0823160e01b81523060048201526001600160a01b038716906370a0823190602401602060405180830381865afa158015611aef573d6000803e3d6000fd5b505050506040513d601f19601f82011682018060405250810190611b1391906154e3565b91508115611ba457611b2686858461307b565b6040516338ed173960e01b81526001600160a01b038516906338ed173990611b5b908590600090869030904290600401615946565b6000604051808303816000875af1158015611b7a573d6000803e3d6000fd5b505050506040513d6000823e601f3d908101601f19168201604052611ba291908101906158c1565b505b6006546001600160a01b03868116911614610583576040516370a0823160e01b81523060048201526001600160a01b038616906370a0823190602401602060405180830381865afa158015611bfd573d6000803e3d6000fd5b505050506040513d601f19601f82011682018060405250810190611c2191906154e3565b9150811561058357611c3485858461307b565b6040516338ed173960e01b81526001600160a01b038516906338ed173990611c69908590600090869030904290600401615946565b6000604051808303816000875af1158015611c88573d6000803e3d6000fd5b505050506040513d6000823e601f3d908101601f19168201604052610b9291908101906158c1565b6003546000906060906001600160a01b03868116911614611e0b576040516370a0823160e01b81523060048201526001600160a01b038616906370a0823190602401602060405180830381865afa158015611d0f573d6000803e3d6000fd5b505050506040513d601f19601f82011682018060405250810190611d3391906154e3565b91508481600081518110611d4957611d49615305565b6001600160a01b039283166020918202929092010152600354825191169082906001908110611d7a57611d7a615305565b6001600160a01b03909216602092830291909101909101528115611e0b57611da385848461307b565b60405163791ac94760e01b81526001600160a01b0384169063791ac94790611dd8908590600090869030904290600401615946565b600060405180830381600087803b158015611df257600080fd5b505af1158015611e06573d6000803e3d6000fd5b505050505b6003546001600160a01b038581169116146111f3576040516370a0823160e01b81523060048201526001600160a01b038516906370a0823190602401602060405180830381865afa158015611e64573d6000803e3d6000fd5b505050506040513d601f19601f82011682018060405250810190611e8891906154e3565b91508381600081518110611e9e57611e9e615305565b6001600160a01b039283166020918202929092010152600354825191169082906001908110611ecf57611ecf615305565b6001600160a01b039092166020928302919091019091015281156111f357611ef884848461307b565b60405163791ac94760e01b81526001600160a01b0384169063791ac94790611f2d908590600090869030904290600401615946565b600060405180830381600087803b158015611f4757600080fd5b505af1158015611f5b573d6000803e3d6000fd5b505050505050505050565b6040805160e081018252600080825260208201819052918101829052606081018290526080810182905260a0810182905260c081018290526004546001600160a01b038681169116146120da576040516370a0823160e01b81523060048201526001600160a01b038616906370a0823190602401602060405180830381865afa158015611ff7573d6000803e3d6000fd5b505050506040513d601f19601f8201168201806040525081019061201b91906154e3565b915081156120da5761202e85848461307b565b506040805160e0810182526001600160a01b0380871682526004805482166020840152308385015242606084015260808301859052600060a0840181905260c0840152925163178ca23160e31b815291929085169163bc65118891612095918591016159b7565b6020604051808303816000875af11580156120b4573d6000803e3d6000fd5b505050506040513d601f19601f820116820180604052508101906120d891906154e3565b505b6004546001600160a01b038581169116146111f3576040516370a0823160e01b81523060048201526001600160a01b038516906370a0823190602401602060405180830381865afa158015612133573d6000803e3d6000fd5b505050506040513d601f19601f8201168201806040525081019061215791906154e3565b915081156111f35761216a84848461307b565b506040805160e0810182526001600160a01b0380861682526004805482166020840152308385015242606084015260808301859052600060a0840181905260c0840152925163178ca23160e31b815291929085169163bc651188916121d1918591016159b7565b6020604051808303816000875af11580156121f0573d6000803e3d6000fd5b505050506040513d601f19601f8201168201806040525081019061058391906154e3565b6001600160a01b03821661223a5760405162461bcd60e51b815260040161048e906156a2565b80471061095b576122546001600160a01b03831682613174565b816001600160a01b03167eddb683bb45cd5d0ad8a200c6fae7152b1c236ee90a4a37db692407f5cc38bd8260405161228e91815260200190565b60405180910390a25050565b82516122a590611347565b6000806000806000806122b8898861328d565b9150915060006127108a61010001516127106122d49190615a10565b6122de9085615a23565b6122e891906154fc565b905060006127108b61010001516127106123029190615a10565b61230c9085615a23565b61231691906154fc565b905061232b8b602001518c600001518661307b565b61233e8b604001518c600001518561307b565b60038b6101a0015160048111156123575761235761549e565b0361237c576123678b8585613530565b929a509098509650945061237c8a89896137f3565b60028b6101a0015160048111156123955761239561549e565b036123bd576123a78b858585856138e8565b929a50909850965094506123bd8a8960006137f3565b60048b6101a0015160048111156123d6576123d661549e565b036123fe576123e88b858585856139e7565b929a50909850965094506123fe8a8960006137f3565b60008b6101a0015160048111156124175761241761549e565b0361243f576124298b85858585613a98565b929a509098509650945061243f8a8960006137f3565b60018b6101a0015160048111156124585761245861549e565b036124825761246a8b85858585613b49565b8e51939b5091995097509550612482908b908a613c5d565b60006040518061014001604052808a81526020018981526020018d6101600151151581526020018d602001516001600160a01b031681526020018d604001516001600160a01b031681526020018d610120015160020b81526020018d610140015160020b81526020018d610180015181526020018d600001516001600160a01b031681526020018d6101a0015160048111156125205761252061549e565b905260095460405163759a46d760e11b81529192506001600160a01b03169063eb348dae90612555908e908590600401615a4e565b600060405180830381600087803b15801561256f57600080fd5b505af1158015612583573d6000803e3d6000fd5b5050505061259d8c6020015188878f604001518a89613d09565b505050505050505050505050565b600080546001600160a01b038381166001600160a01b0319831681178455604051919092169283917f8be0079c531659141344cd1fd0a4f28419497f9722a3daafe3b4186f6b6457e09190a35050565b6126088160200151611347565b8060400151600a54101561265e5760405162461bcd60e51b815260206004820152601f60248201527f496e76616c696420616d6f756e7420666f7220436f6e747261637443616c6c00604482015260640161048e565b60008082602001516001600160a01b03168360400151846000015160405161268691906156e9565b60006040518083038185875af1925050503d80600081146126c3576040519150601f19603f3d011682016040523d82523d6000602084013e6126c8565b606091505b5091509150816104f4578051602082018181fd5b6001600160a01b0384166127025760405162461bcd60e51b815260040161048e906156a2565b604051627eeac760e11b81523060048201526024810183905281906001600160a01b0385169062fdd58e90604401602060405180830381865afa15801561274d573d6000803e3d6000fd5b505050506040513d601f19601f8201168201806040525081019061277191906154e3565b10610c3f57604051637921219560e11b81523060048201526001600160a01b038581166024830152604482018490526064820183905260a06084830152600060a483015284169063f242432a9060c401600060405180830381600087803b1580156127db57600080fd5b505af11580156127ef573d6000803e3d6000fd5b5050505081836001600160a01b0316856001600160a01b03167f620337bf89eea2b9ae2657beead83b5fa620452817118348aff96e201d52598b8460405161283991815260200190565b60405180910390a450505050565b60008060008361010001516001600160a01b031663f6c009278560e001516040518263ffffffff1660e01b815260040161288391815260200190565b6040805180830381865afa15801561289f573d6000803e3d6000fd5b505050506040513d601f19601f820116820180604052508101906128c39190615b17565b50946000945092505050565b6000806128ea83610100015184606001518560800151613d4d565b9360009350915050565b6000806128ea83610100015184606001518560800151613dca565b6000806128ea83610100015184606001518560800151613e55565b60006129398360200151611347565b61295083604001518460200151856080015161307b565b600383610160015160048111156129695761296961549e565b0361297a5761297783613e61565b90505b600283610160015160048111156129935761299361549e565b036129a4576129a183613f62565b90505b600483610160015160048111156129bd576129bd61549e565b036129ce576129cb83613f62565b90505b600083610160015160048111156129e7576129e761549e565b036129f8576129f583613f62565b90505b60018361016001516004811115612a1157612a1161549e565b03612a2257612a1f8361402b565b90505b60e0830151612a3f57612a3a828460600151836137f3565b612a90565b60408051808201825260608501516001600160a01b039081168252602080830185815260e08801516000908152600b909252939020915182546001600160a01b031916911617815590516001909101555b92915050565b604080516001600160a01b038416602482015260448082018490528251808303909101815260649091019091526020810180516001600160e01b031663a9059cbb60e01b1790526104f49084906140bf565b60008060008461010001516001600160a01b031663f6c009278660e001516040518263ffffffff1660e01b8152600401612b2491815260200190565b6040805180830381865afa158015612b40573d6000803e3d6000fd5b505050506040513d601f19601f82011682018060405250810190612b649190615b17565b509050600080612b9487606001518860800151858960000151602001518a60200151602001518c60400151614191565b91509150612bac83886101000151896020015161307b565b600060018860200151604051602001612bc6929190615b65565b60408051601f1981840301815260808301825285835260208301859052828201819052600060608401526101008b015160e08c01519251638bdb391360e01b81529194506001600160a01b031691638bdb391391612c2d9190309081908790600401615c46565b600060405180830381600087803b158015612c4757600080fd5b505af1158015612c5b573d6000803e3d6000fd5b50505060608a01516040516370a0823160e01b81523060048201526001600160a01b0390911691506370a0823190602401602060405180830381865afa158015612ca9573d6000803e3d6000fd5b505050506040513d601f19601f82011682018060405250810190612ccd91906154e3565b60808a01516040516370a0823160e01b81523060048201529198506001600160a01b0316906370a0823190602401602060405180830381865afa158015612d18573d6000803e3d6000fd5b505050506040513d601f19601f82011682018060405250810190612d3c91906154e3565b955050505050509250929050565b6000806000612d6785610100015186606001518760800151613d4d565b9050612d7d81866101000151876020015161307b565b610100850151606086015160808701516040808901516020808b01518a518201518b83015190920151935163037b79b160e21b81526001600160a01b039687166004820152948616602486015291151560448501526064840191909152608483015260a48201523060c48201524260e4820152911690630dede6c490610104015b60408051808303816000875af1158015612e1c573d6000803e3d6000fd5b505050506040513d601f19601f82011682018060405250810190612e409190615c82565b90969095509350505050565b6000806000612e6985610100015186606001518760800151613dca565b9050612e7f81866101000151876020015161307b565b6101008501516060860151608087015160208089015188518201518983015190920151604051635d5155ef60e11b81526001600160a01b03958616600482015293851660248501526044840191909152606483019190915260848201523060a48201524260c482015291169063baa2abde9060e401612dfe565b6000806000612e6985610100015186606001518760800151613e55565b6040805160a081018252835181526020808501516001600160801b03908116828401908152855183015184860190815286840151909301516060850190815242608086019081526101008901519651630624e65f60e11b8152865160048201529251909316602483015292516044820152915160648301525160848201526000928392916001600160a01b0390911690630c49ccbe9060a401612dfe565b604080516080810182528251815230602082019081526001600160801b0382840181815260608401828152610100870151955163fc6f786560e01b81528551600482015293516001600160a01b03908116602486015291518316604485015251909116606483015260009384939291169063fc6f78659060840160408051808303816000875af115801561304c573d6000803e3d6000fd5b505050506040513d601f19601f820116820180604052508101906130709190615c82565b909590945092505050565b604080516001600160a01b038481166024830152604480830185905283518084039091018152606490920183526020820180516001600160e01b031663095ea7b360e01b17905291516000928392908716916130d791906156e9565b6000604051808303816000865af19150503d8060008114613114576040519150601f19603f3d011682016040523d82523d6000602084013e613119565b606091505b509150915081801561314357508051158061314357508080602001905181019061314391906156fb565b6111f35760405162461bcd60e51b8152602060048201526002602482015261534160f01b604482015260640161048e565b804710156131c45760405162461bcd60e51b815260206004820152601d60248201527f416464726573733a20696e73756666696369656e742062616c616e6365000000604482015260640161048e565b6000826001600160a01b03168260405160006040518083038185875af1925050503d8060008114613211576040519150601f19603f3d011682016040523d82523d6000602084013e613216565b606091505b50509050806104f45760405162461bcd60e51b815260206004820152603a60248201527f416464726573733a20756e61626c6520746f2073656e642076616c75652c207260448201527f6563697069656e74206d61792068617665207265766572746564000000000000606482015260840161048e565b6007546040516370a0823160e01b8152306004820152600091829182916001600160a01b0316906370a0823190602401602060405180830381865afa1580156132da573d6000803e3d6000fd5b505050506040513d601f19601f820116820180604052508101906132fe91906154e3565b606086015190915061333457602085015160405163bf6ada5160e01b81526001600160a01b03909116600482015260240161048e565b630ae8aa8960e31b8560600151146133c55760608501516000908152600b6020908152604090912054908601516001600160a01b0390811691161461338c5760405163d0e96f5b60e01b815260040160405180910390fd5b6060850180516000908152600b60205260408082206001908101549351835290822080546001600160a01b0319168155015592506133d8565b600084116133d357806133d5565b835b92505b608085015161340b57604080860151905163bf6ada5160e01b81526001600160a01b03909116600482015260240161048e565b630ae8aa8960e31b85608001511461349b5760808501516000908152600b60205260409081902054908601516001600160a01b039081169116146134625760405163d0e96f5b60e01b815260040160405180910390fd5b6080850180516000908152600b60205260408082206001908101549351835290822080546001600160a01b0319168155015591506134ae565b600084116134a957806134ab565b835b91505b630ae8aa8960e31b85606001511415806134c6575083155b156134eb576127108560a00151846134de9190615a23565b6134e891906154fc565b92505b630ae8aa8960e31b8560800151141580613503575083155b15613528576127108560c001518361351b9190615a23565b61352591906154fc565b91505b509250929050565b600080600080600087600001516001600160a01b031663f6c009278961018001516040518263ffffffff1660e01b815260040161356f91815260200190565b6040805180830381865afa15801561358b573d6000803e3d6000fd5b505050506040513d601f19601f820116820180604052508101906135af9190615b17565b5090506000806135d08a602001518b60400151858c8c8f6101600151614191565b9150915060006001828c60e001516040516020016135f093929190615ca6565b60408051601f1981840301815260808301825285835260208301859052828201819052600060608401528d516101808f0151925163172b958560e31b81529194506001600160a01b03169163b95cac28916136549190309081908790600401615c46565b600060405180830381600087803b15801561366e57600080fd5b505af1158015613682573d6000803e3d6000fd5b50506040516370a0823160e01b81523060048201526001600160a01b0388169b508b92506370a082319150602401602060405180830381865afa1580156136cd573d6000803e3d6000fd5b505050506040513d601f19601f820116820180604052508101906136f191906154e3565b60208d01516040516370a0823160e01b81523060048201529199506001600160a01b0316906370a0823190602401602060405180830381865afa15801561373c573d6000803e3d6000fd5b505050506040513d601f19601f8201168201806040525081019061376091906154e3565b61376a908c615a10565b6040808e015190516370a0823160e01b81523060048201529198506001600160a01b0316906370a0823190602401602060405180830381865afa1580156137b5573d6000803e3d6000fd5b505050506040513d601f19601f820116820180604052508101906137d991906154e3565b6137e3908b615a10565b9550505050505093509350935093565b80600003613866576040516370a0823160e01b81523060048201526001600160a01b038316906370a0823190602401602060405180830381865afa15801561383f573d6000803e3d6000fd5b505050506040513d601f19601f8201168201806040525081019061386391906154e3565b90505b60085461387e9083906001600160a01b0316836110fa565b600854604051639261968560e01b8152600481018590526001600160a01b03848116602483015260448201849052909116906392619685906064015b600060405180830381600087803b1580156138d457600080fd5b505af1158015610b92573d6000803e3d6000fd5b845160208601516040808801516101608901519151635a47ddc360e01b81526001600160a01b03938416600482015290831660248201529015156044820152606481018790526084810186905260a4810185905260c481018490523060e4820152426101048201526000928392839283929190911690635a47ddc390610124016060604051808303816000875af1158015613987573d6000803e3d6000fd5b505050506040513d601f19601f820116820180604052508101906139ab9190615cd8565b8b5160208d015160408e01519297509395509193506000926139cd9291613d4d565b6001600160a01b03169a9399509197509550909350505050565b60008060008088600001516001600160a01b031663e8e337008a602001518b604001518b8b8b8b30426040518963ffffffff1660e01b8152600401613a33989796959493929190615d06565b6060604051808303816000875af1158015613a52573d6000803e3d6000fd5b505050506040513d601f19601f82011682018060405250810190613a769190615cd8565b8b5160208d015160408e01519297509395509193506000926139cd9291613dca565b60008060008088600001516001600160a01b031663e8e337008a602001518b604001518b8b8b8b30426040518963ffffffff1660e01b8152600401613ae4989796959493929190615d06565b6060604051808303816000875af1158015613b03573d6000803e3d6000fd5b505050506040513d601f19601f82011682018060405250810190613b279190615cd8565b8b5160208d015160408e01519297509395509193506000926139cd9291613e55565b60008060008060006040518061014001604052808b602001516001600160a01b031681526020018b604001516001600160a01b031681526020018b610120015160020b81526020018b610140015160020b81526020018a8152602001898152602001888152602001878152602001306001600160a01b0316815260200142815250905089600001516001600160a01b0316639cc1a283826040518263ffffffff1660e01b8152600401613bfc9190615d4f565b6080604051808303816000875af1158015613c1b573d6000803e3d6000fd5b505050506040513d601f19601f82011682018060405250810190613c3f9190615dfa565b929d6001600160801b039092169c509a509098509650505050505050565b600854604051632142170760e11b81523060048201526001600160a01b03918216602482015260448101839052908316906342842e0e90606401600060405180830381600087803b158015613cb157600080fd5b505af1158015613cc5573d6000803e3d6000fd5b5050600854604051636069c4af60e11b8152600481018790526001600160a01b03868116602483015260448201869052909116925063c0d3895e91506064016138ba565b83851015613d2d576000613d1d8686615a10565b9050613d2b87335b836110fa565b505b80821015610583576000613d418383615a10565b9050610b928433613d25565b60405163147585a560e11b81526001600160a01b038381166004830152828116602483015260006044830181905291908516906328eb0b4a90606401602060405180830381865afa158015613da6573d6000803e3d6000fd5b505050506040513d601f19601f820116820180604052508101906109419190615718565b600080613dd68561489c565b60405163e6a4390560e01b81526001600160a01b03868116600483015285811660248301529192509082169063e6a4390590604401602060405180830381865afa158015613e28573d6000803e3d6000fd5b505050506040513d601f19601f82011682018060405250810190613e4c9190615718565b95945050505050565b600080613dd685614900565b6000806040518060c00160405280846101000151815260200160006001811115613e8d57613e8d61549e565b81526040808601516001600160a01b039081166020808501919091526060808901518316848601526080808a015182870152845180840186526000808252968201528451908101855230808252818401879052818601529081019490945287015160a088015192516352bbbe2960e01b815294955092939216916352bbbe2991613f1f918691869142906004016157c8565b6020604051808303816000875af1158015613f3e573d6000803e3d6000fd5b505050506040513d601f19601f8201168201806040525081019061094191906154e3565b600080600083602001516001600160a01b03168460c001518560000151604051613f8c91906156e9565b60006040518083038185875af1925050503d8060008114613fc9576040519150601f19603f3d011682016040523d82523d6000602084013e613fce565b606091505b509150915081613fe2578051602082018181fd5b600081806020019051810190613ff891906158c1565b905080600182516140099190615a10565b8151811061401957614019615305565b60200260200101519350505050919050565b600080600083602001516001600160a01b03168460c00151856000015160405161405591906156e9565b60006040518083038185875af1925050503d8060008114614092576040519150601f19603f3d011682016040523d82523d6000602084013e614097565b606091505b5091509150816140ab578051602082018181fd5b8080602001905181019061094191906154e3565b6000614114826040518060400160405280602081526020017f5361666545524332303a206c6f772d6c6576656c2063616c6c206661696c6564815250856001600160a01b031661496f9092919063ffffffff16565b8051909150156104f4578080602001905181019061413291906156fb565b6104f45760405162461bcd60e51b815260206004820152602a60248201527f5361666545524332303a204552433230206f7065726174696f6e20646964206e6044820152691bdd081cdd58d8d9595960b21b606482015260840161048e565b60608082156146f257604080516003808252608082019092529060208201606080368337505060408051600380825260808201909252929450905060208201606080368337019050509050866001600160a01b0316886001600160a01b0316111580156142105750856001600160a01b0316886001600160a01b031611155b156143cd57878260008151811061422957614229615305565b60200260200101906001600160a01b031690816001600160a01b031681525050848160008151811061425d5761425d615305565b602002602001018181525050856001600160a01b0316876001600160a01b03161161433057868260018151811061429657614296615305565b60200260200101906001600160a01b031690816001600160a01b03168152505085826002815181106142ca576142ca615305565b60200260200101906001600160a01b031690816001600160a01b03168152505083816001815181106142fe576142fe615305565b60200260200101818152505060008160028151811061431f5761431f615305565b602002602001018181525050614891565b858260018151811061434457614344615305565b60200260200101906001600160a01b031690816001600160a01b031681525050868260028151811061437857614378615305565b60200260200101906001600160a01b031690816001600160a01b0316815250506000816001815181106143ad576143ad615305565b602002602001018181525050838160028151811061431f5761431f615305565b876001600160a01b0316876001600160a01b0316111580156144015750856001600160a01b0316876001600160a01b031611155b1561458c57868260008151811061441a5761441a615305565b60200260200101906001600160a01b031690816001600160a01b031681525050838160008151811061444e5761444e615305565b602002602001018181525050856001600160a01b0316886001600160a01b0316116144ef57878260018151811061448757614487615305565b60200260200101906001600160a01b031690816001600160a01b03168152505085826002815181106144bb576144bb615305565b60200260200101906001600160a01b031690816001600160a01b03168152505084816001815181106142fe576142fe615305565b858260018151811061450357614503615305565b60200260200101906001600160a01b031690816001600160a01b031681525050878260028151811061453757614537615305565b60200260200101906001600160a01b031690816001600160a01b03168152505060008160018151811061456c5761456c615305565b602002602001018181525050848160028151811061431f5761431f615305565b85826000815181106145a0576145a0615305565b60200260200101906001600160a01b031690816001600160a01b0316815250506000816000815181106145d5576145d5615305565b602002602001018181525050866001600160a01b0316886001600160a01b03161161467657878260018151811061460e5761460e615305565b60200260200101906001600160a01b031690816001600160a01b031681525050868260028151811061464257614642615305565b60200260200101906001600160a01b031690816001600160a01b03168152505084816001815181106143ad576143ad615305565b868260018151811061468a5761468a615305565b60200260200101906001600160a01b031690816001600160a01b03168152505087826002815181106146be576146be615305565b60200260200101906001600160a01b031690816001600160a01b031681525050838160018151811061456c5761456c615305565b60408051600280825260608201835290916020830190803683375050604080516002808252606082018352939550929150602083019080368337019050509050866001600160a01b0316886001600160a01b031610156147e857878260008151811061476057614760615305565b60200260200101906001600160a01b031690816001600160a01b031681525050868260018151811061479457614794615305565b60200260200101906001600160a01b031690816001600160a01b03168152505084816000815181106147c8576147c8615305565b602002602001018181525050838160018151811061431f5761431f615305565b86826000815181106147fc576147fc615305565b60200260200101906001600160a01b031690816001600160a01b031681525050878260018151811061483057614830615305565b60200260200101906001600160a01b031690816001600160a01b031681525050838160008151811061486457614864615305565b602002602001018181525050848160018151811061488457614884615305565b6020026020010181815250505b965096945050505050565b6000816001600160a01b031663c45a01556040518163ffffffff1660e01b8152600401602060405180830381865afa1580156148dc573d6000803e3d6000fd5b505050506040513d601f19601f82011682018060405250810190612a909190615718565b600080829050806001600160a01b031663c45a01556040518163ffffffff1660e01b8152600401602060405180830381865afa158015614944573d6000803e3d6000fd5b505050506040513d601f19601f820116820180604052508101906149689190615718565b9392505050565b6060610941848460008585600080866001600160a01b0316858760405161499691906156e9565b60006040518083038185875af1925050503d80600081146149d3576040519150601f19603f3d011682016040523d82523d6000602084013e6149d8565b606091505b50915091506149e9878383876149f4565b979650505050505050565b60608315614a63578251600003614a5c576001600160a01b0385163b614a5c5760405162461bcd60e51b815260206004820152601d60248201527f416464726573733a2063616c6c20746f206e6f6e2d636f6e7472616374000000604482015260640161048e565b5081610941565b6109418383815115614a785781518083602001fd5b8060405162461bcd60e51b815260040161048e9190615e44565b6001600160a01b0381168114610e9657600080fd5b8035614ab281614a92565b919050565b600060208284031215614ac957600080fd5b813561496881614a92565b600080600080600060808688031215614aec57600080fd5b8535614af781614a92565b94506020860135614b0781614a92565b93506040860135925060608601356001600160401b0380821115614b2a57600080fd5b818801915088601f830112614b3e57600080fd5b813581811115614b4d57600080fd5b896020828501011115614b5f57600080fd5b9699959850939650602001949392505050565b600080600060608486031215614b8757600080fd5b8335614b9281614a92565b92506020840135614ba281614a92565b929592945050506040919091013590565b60006101408284031215614bc657600080fd5b50919050565b8015158114610e9657600080fd5b8035614ab281614bcc565b6000806000806101a08587031215614bfc57600080fd5b614c068686614bb3565b93506101408501356001600160401b03811115614c2257600080fd5b8501610160818803811315614c3657600080fd5b909350850135614c4581614a92565b9150610180850135614c5681614bcc565b939692955090935050565b60008083601f840112614c7357600080fd5b5081356001600160401b03811115614c8a57600080fd5b6020830191508360208260051b85010111156110f357600080fd5b634e487b7160e01b600052604160045260246000fd5b604080519081016001600160401b0381118282101715614cdd57614cdd614ca5565b60405290565b60405161012081016001600160401b0381118282101715614cdd57614cdd614ca5565b60405161014081016001600160401b0381118282101715614cdd57614cdd614ca5565b60405161018081016001600160401b0381118282101715614cdd57614cdd614ca5565b6040516101c081016001600160401b0381118282101715614cdd57614cdd614ca5565b604051601f8201601f191681016001600160401b0381118282101715614d9757614d97614ca5565b604052919050565b60006001600160401b03821115614db857614db8614ca5565b5060051b60200190565b600060408284031215614dd457600080fd5b614ddc614cbb565b90508135614de981614a92565b808252506020820135602082015292915050565b803560058110614ab257600080fd5b600082601f830112614e1d57600080fd5b81356020614e32614e2d83614d9f565b614d6f565b82815260069290921b84018101918181019086841115614e5157600080fd5b8286015b84811015614ea25760408189031215614e6e5760008081fd5b614e76614cbb565b8135614e8181614a92565b815281850135614e9081614a92565b81860152835291830191604001614e55565b509695505050505050565b60006101608284031215614ec057600080fd5b614ec8614ce3565b9050614ed48383614dc2565b8152614ee38360408401614dc2565b60208201526080820135604082015260a08201356060820152614f0860c08301614aa7565b6080820152614f1960e08301614dfd565b60a0820152610100614f2c818401614bda565b60c08301526101208301356001600160401b03811115614f4b57600080fd5b614f5785828601614e0c565b60e084015250614f6a6101408401614bda565b9082015292915050565b60008060008060608587031215614f8a57600080fd5b84356001600160401b0380821115614fa157600080fd5b614fad88838901614c61565b9096509450602091508682013581811115614fc757600080fd5b8701601f81018913614fd857600080fd5b8035614fe6614e2d82614d9f565b81815260059190911b8201840190848101908b83111561500557600080fd5b8584015b8381101561503d578035868111156150215760008081fd5b61502f8e8983890101614ead565b845250918601918601615009565b5080975050505050505061505360408601614aa7565b905092959194509250565b6000806040838503121561507157600080fd5b823561507c81614a92565b946020939093013593505050565b60008060006040848603121561509f57600080fd5b83356001600160401b03808211156150b657600080fd5b818601915086601f8301126150ca57600080fd5b8135818111156150d957600080fd5b8760206101c0830285010111156150ef57600080fd5b6020928301989097509590910135949350505050565b6000806020838503121561511857600080fd5b82356001600160401b0381111561512e57600080fd5b612e4085828601614c61565b6000806000806080858703121561515057600080fd5b843561515b81614a92565b9350602085013561516b81614a92565b93969395505050506040820135916060013590565b6000610140828403121561519357600080fd5b6149688383614bb3565b6000806000604084860312156151b257600080fd5b83356001600160401b038111156151c857600080fd5b6151d486828701614c61565b909790965060209590950135949350505050565b6020808252602c908201527f576562335061636b7345786368616e67654d616e61676572202d20496e76616c60408201526b696420576562335061636b7360a01b606082015260800190565b8035600281900b8114614ab257600080fd5b6000610140828403121561525957600080fd5b615261614d06565b823581526020830135602082015261527b60408401614bda565b604082015261528c60608401614aa7565b606082015261529d60808401614aa7565b60808201526152ae60a08401615234565b60a08201526152bf60c08401615234565b60c082015260e083013560e08201526101006152dc818501614aa7565b908201526101206152ee848201614dfd565b908201529392505050565b6000612a903683614ead565b634e487b7160e01b600052603260045260246000fd5b6000823561017e1983360301811261533257600080fd5b9190910192915050565b600082601f83011261534d57600080fd5b81356001600160401b0381111561536657615366614ca5565b615379601f8201601f1916602001614d6f565b81815284602083860101111561538e57600080fd5b816020850160208301376000918101602001919091529392505050565b600061018082360312156153be57600080fd5b6153c6614d29565b82356001600160401b03808211156153dd57600080fd5b6153e93683870161533c565b83526153f760208601614aa7565b602084015261540860408601614aa7565b604084015261541960608601614aa7565b60608401526080850135608084015260a085013560a084015260c085013560c084015260e085013560e0840152610100915081850135828401526101209150615463828601614bda565b828401526101409150818501358181111561547d57600080fd5b61548936828801614e0c565b83850152505050610160614f6a818501614dfd565b634e487b7160e01b600052602160045260246000fd5b634e487b7160e01b600052601160045260246000fd5b6000600182016154dc576154dc6154b4565b5060010190565b6000602082840312156154f557600080fd5b5051919050565b60008261551957634e487b7160e01b600052601260045260246000fd5b500490565b60006101c0828403121561553157600080fd5b615539614d4c565b61554283614aa7565b815261555060208401614aa7565b602082015261556160408401614aa7565b6040820152606083013560608201526080830135608082015260a083013560a082015260c083013560c082015260e083013560e08201526101008084013581830152506101206155b2818501615234565b908201526101406155c4848201615234565b908201526101606155d6848201614bda565b9082015261018083810135908201526101a06152ee818501614dfd565b60008235605e1983360301811261533257600080fd5b60006060823603121561561b57600080fd5b604051606081016001600160401b03828210818311171561563e5761563e614ca5565b81604052843591508082111561565357600080fd5b506156603682860161533c565b825250602083013561567181614a92565b6020820152604092830135928101929092525090565b60006020828403121561569957600080fd5b61496882614dfd565b6020808252600990820152684248503a452d34303360b81b604082015260600190565b60005b838110156156e05781810151838201526020016156c8565b50506000910152565b600082516153328184602087016156c5565b60006020828403121561570d57600080fd5b815161496881614bcc565b60006020828403121561572a57600080fd5b815161496881614a92565b6000815180845261574d8160208601602086016156c5565b601f01601f19169290920160200192915050565b80518252600060208201516002811061577c5761577c61549e565b80602085015250604082015160018060a01b03808216604086015280606085015116606086015250506080820151608084015260a082015160c060a085015261094160c0850182615735565b60e0815260006157db60e0830187615761565b905061581a602083018680516001600160a01b039081168352602080830151151590840152604080830151909116908301526060908101511515910152565b60a082019390935260c0015292915050565b600060a0820187835260208781850152604060a08186015282885180855260c087019150838a01945060005b8181101561589557855180516001600160a01b03908116855286820151168685015284015115158484015294840194606090920191600101615858565b50506001600160a01b038816606087015293506158b192505050565b8260808301529695505050505050565b600060208083850312156158d457600080fd5b82516001600160401b038111156158ea57600080fd5b8301601f810185136158fb57600080fd5b8051615909614e2d82614d9f565b81815260059190911b8201830190838101908783111561592857600080fd5b928401925b828410156149e95783518252928401929084019061592d565b600060a082018783526020878185015260a0604085015281875180845260c086019150828901935060005b818110156159965784516001600160a01b031683529383019391830191600101615971565b50506001600160a01b03969096166060850152505050608001529392505050565b81516001600160a01b039081168252602080840151821690830152604080840151821690830152606080840151908301526080808401519083015260a0838101519083015260c092830151169181019190915260e00190565b81810381811115612a9057612a906154b4565b8082028115828204841417612a9057612a906154b4565b60058110615a4a57615a4a61549e565b9052565b60006101608201905083825282516020830152602083015160408301526040830151615a7e606084018215159052565b5060608301516001600160a01b03811660808401525060808301516001600160a01b03811660a08401525060a0830151615abd60c084018260020b9052565b5060c0830151615ad260e084018260020b9052565b5060e083015161010083810191909152830151610120615afc818501836001600160a01b03169052565b8401519050615b0f610140840182615a3a565b509392505050565b60008060408385031215615b2a57600080fd5b8251615b3581614a92565b602084015190925060038110615b4a57600080fd5b809150509250929050565b60048110610e9657610e9661549e565b60408101615b7284615b55565b9281526020015290565b600081518084526020808501945080840160005b83811015615bac57815187529582019590820190600101615b90565b509495945050505050565b8051608080845281519084018190526000916020919082019060a0860190845b81811015615bfc5783516001600160a01b031683529284019291840191600101615bd7565b505082850151915085810383870152615c158183615b7c565b9250505060408301518482036040860152615c308282615735565b9150506060830151615b0f606086018215159052565b8481526001600160a01b03848116602083015283166040820152608060608201819052600090615c7890830184615bb7565b9695505050505050565b60008060408385031215615c9557600080fd5b505080516020909101519092909150565b615caf84615b55565b838152606060208201526000615cc86060830185615b7c565b9050826040830152949350505050565b600080600060608486031215615ced57600080fd5b8351925060208401519150604084015190509250925092565b6001600160a01b039889168152968816602088015260408701959095526060860193909352608085019190915260a084015290921660c082015260e08101919091526101000190565b81516001600160a01b0316815261014081016020830151615d7b60208401826001600160a01b03169052565b506040830151615d90604084018260020b9052565b506060830151615da5606084018260020b9052565b506080830151608083015260a083015160a083015260c083015160c083015260e083015160e083015261010080840151615de9828501826001600160a01b03169052565b505061012092830151919092015290565b60008060008060808587031215615e1057600080fd5b8451935060208501516001600160801b0381168114615e2e57600080fd5b6040860151606090960151949790965092505050565b602081526000614968602083018461573556fea26469706673582212205566aa21433338a4127f7a4aeef390467a1f391aabef012dcac325b461cb850b64736f6c63430008110033",
  "devdoc": {
    "kind": "dev",
    "methods": {
      "owner()": {
        "details": "Returns the address of the current owner."
      },
      "paused()": {
        "details": "Returns true if the contract is paused, and false otherwise."
      },
      "renounceOwnership()": {
        "details": "Leaves the contract without owner. It will not be possible to call `onlyOwner` functions anymore. Can only be called by the current owner. NOTE: Renouncing ownership will leave the contract without an owner, thereby removing any functionality that is only available to the owner."
      },
      "setWeb3Packs(address)": {
        "details": "Setup the Web3Packs Interface"
      },
      "setWeb3PacksManager(address)": {
        "details": "Setup the Web3Packs Interface"
      },
      "transferOwnership(address)": {
        "details": "Transfers ownership of the contract to a new account (`newOwner`). Can only be called by the current owner."
      }
    },
    "version": 1
  },
  "userdoc": {
    "kind": "user",
    "methods": {},
    "version": 1
  },
  "storageLayout": {
    "storage": [
      {
        "astId": 7,
        "contract": "contracts/Web3PacksExchangeManager.sol:Web3PacksExchangeManager",
        "label": "_owner",
        "offset": 0,
        "slot": "0",
        "type": "t_address"
      },
      {
        "astId": 130,
        "contract": "contracts/Web3PacksExchangeManager.sol:Web3PacksExchangeManager",
        "label": "_paused",
        "offset": 20,
        "slot": "0",
        "type": "t_bool"
      },
      {
        "astId": 231,
        "contract": "contracts/Web3PacksExchangeManager.sol:Web3PacksExchangeManager",
        "label": "_status",
        "offset": 0,
        "slot": "1",
        "type": "t_uint256"
      },
      {
        "astId": 6969,
        "contract": "contracts/Web3PacksExchangeManager.sol:Web3PacksExchangeManager",
        "label": "_weth",
        "offset": 0,
        "slot": "2",
        "type": "t_address"
      },
      {
        "astId": 8627,
        "contract": "contracts/Web3PacksExchangeManager.sol:Web3PacksExchangeManager",
        "label": "_weth",
        "offset": 0,
        "slot": "3",
        "type": "t_address"
      },
      {
        "astId": 9038,
        "contract": "contracts/Web3PacksExchangeManager.sol:Web3PacksExchangeManager",
        "label": "_weth",
        "offset": 0,
        "slot": "4",
        "type": "t_address"
      },
      {
        "astId": 9407,
        "contract": "contracts/Web3PacksExchangeManager.sol:Web3PacksExchangeManager",
        "label": "weth",
        "offset": 0,
        "slot": "5",
        "type": "t_address"
      },
      {
        "astId": 8218,
        "contract": "contracts/Web3PacksExchangeManager.sol:Web3PacksExchangeManager",
        "label": "weth",
        "offset": 0,
        "slot": "6",
        "type": "t_address"
      },
      {
        "astId": 1941,
        "contract": "contracts/Web3PacksExchangeManager.sol:Web3PacksExchangeManager",
        "label": "_weth",
        "offset": 0,
        "slot": "7",
        "type": "t_address"
      },
      {
        "astId": 1943,
        "contract": "contracts/Web3PacksExchangeManager.sol:Web3PacksExchangeManager",
        "label": "_web3Packs",
        "offset": 0,
        "slot": "8",
        "type": "t_address"
      },
      {
        "astId": 1945,
        "contract": "contracts/Web3PacksExchangeManager.sol:Web3PacksExchangeManager",
        "label": "_web3PacksManager",
        "offset": 0,
        "slot": "9",
        "type": "t_address"
      },
      {
        "astId": 1947,
        "contract": "contracts/Web3PacksExchangeManager.sol:Web3PacksExchangeManager",
        "label": "_receivedAmount",
        "offset": 0,
        "slot": "10",
        "type": "t_uint256"
      },
      {
        "astId": 1952,
        "contract": "contracts/Web3PacksExchangeManager.sol:Web3PacksExchangeManager",
        "label": "_swapForLiquidityAmount",
        "offset": 0,
        "slot": "11",
        "type": "t_mapping(t_bytes32,t_struct(TokenAmount)6703_storage)"
      }
    ],
    "types": {
      "t_address": {
        "encoding": "inplace",
        "label": "address",
        "numberOfBytes": "20"
      },
      "t_bool": {
        "encoding": "inplace",
        "label": "bool",
        "numberOfBytes": "1"
      },
      "t_bytes32": {
        "encoding": "inplace",
        "label": "bytes32",
        "numberOfBytes": "32"
      },
      "t_mapping(t_bytes32,t_struct(TokenAmount)6703_storage)": {
        "encoding": "mapping",
        "key": "t_bytes32",
        "label": "mapping(bytes32 => struct IWeb3PacksDefs.TokenAmount)",
        "numberOfBytes": "32",
        "value": "t_struct(TokenAmount)6703_storage"
      },
      "t_struct(TokenAmount)6703_storage": {
        "encoding": "inplace",
        "label": "struct IWeb3PacksDefs.TokenAmount",
        "members": [
          {
            "astId": 6700,
            "contract": "contracts/Web3PacksExchangeManager.sol:Web3PacksExchangeManager",
            "label": "token",
            "offset": 0,
            "slot": "0",
            "type": "t_address"
          },
          {
            "astId": 6702,
            "contract": "contracts/Web3PacksExchangeManager.sol:Web3PacksExchangeManager",
            "label": "amount",
            "offset": 0,
            "slot": "1",
            "type": "t_uint256"
          }
        ],
        "numberOfBytes": "64"
      },
      "t_uint256": {
        "encoding": "inplace",
        "label": "uint256",
        "numberOfBytes": "32"
      }
    }
  }
}