{
  "address": "0x3c38A05998443555793366BDB9F68cA31F098519",
  "abi": [
    {
      "inputs": [],
      "stateMutability": "nonpayable",
      "type": "constructor"
    },
    {
      "inputs": [],
      "name": "ContractNotAllowed",
      "type": "error"
    },
    {
      "inputs": [],
      "name": "FundingFailed",
      "type": "error"
    },
    {
      "inputs": [
        {
          "internalType": "uint256",
          "name": "value",
          "type": "uint256"
        },
        {
          "internalType": "uint256",
          "name": "ethPackPrice",
          "type": "uint256"
        },
        {
          "internalType": "uint256",
          "name": "protocolFee",
          "type": "uint256"
        }
      ],
      "name": "InsufficientForFee",
      "type": "error"
    },
    {
      "inputs": [],
      "name": "MismatchedTokens",
      "type": "error"
    },
    {
      "inputs": [
        {
          "internalType": "address",
          "name": "tokenAddress",
          "type": "address"
        }
      ],
      "name": "MissingLiquidityUUID",
      "type": "error"
    },
    {
      "inputs": [],
      "name": "NativeAssetTransferFailed",
      "type": "error"
    },
    {
      "inputs": [],
      "name": "NotOwnerOrApproved",
      "type": "error"
    },
    {
      "inputs": [],
      "name": "NullReceiver",
      "type": "error"
    },
    {
      "inputs": [
        {
          "internalType": "address",
          "name": "tokenOut",
          "type": "address"
        },
        {
          "internalType": "uint256",
          "name": "amountIn",
          "type": "uint256"
        },
        {
          "internalType": "address",
          "name": "router",
          "type": "address"
        }
      ],
      "name": "UnsucessfulSwap",
      "type": "error"
    },
    {
      "anonymous": false,
      "inputs": [
        {
          "indexed": true,
          "internalType": "address",
          "name": "chargedParticles",
          "type": "address"
        }
      ],
      "name": "ChargedParticlesSet",
      "type": "event"
    },
    {
      "anonymous": false,
      "inputs": [
        {
          "indexed": true,
          "internalType": "address",
          "name": "chargedState",
          "type": "address"
        }
      ],
      "name": "ChargedStateSet",
      "type": "event"
    },
    {
      "anonymous": false,
      "inputs": [
        {
          "indexed": true,
          "internalType": "address",
          "name": "previousOwner",
          "type": "address"
        },
        {
          "indexed": true,
          "internalType": "address",
          "name": "newOwner",
          "type": "address"
        }
      ],
      "name": "OwnershipTransferred",
      "type": "event"
    },
    {
      "anonymous": false,
      "inputs": [
        {
          "indexed": true,
          "internalType": "uint256",
          "name": "tokenId",
          "type": "uint256"
        },
        {
          "indexed": true,
          "internalType": "address",
          "name": "receiver",
          "type": "address"
        },
        {
          "indexed": false,
          "internalType": "bytes32",
          "name": "packType",
          "type": "bytes32"
        },
        {
          "indexed": false,
          "internalType": "bytes32",
          "name": "usdPackPrice",
          "type": "bytes32"
        }
      ],
      "name": "PackBundled",
      "type": "event"
    },
    {
      "anonymous": false,
      "inputs": [
        {
          "indexed": true,
          "internalType": "uint256",
          "name": "tokenId",
          "type": "uint256"
        },
        {
          "indexed": true,
          "internalType": "address",
          "name": "receiver",
          "type": "address"
        }
      ],
      "name": "PackUnbundled",
      "type": "event"
    },
    {
      "anonymous": false,
      "inputs": [
        {
          "indexed": false,
          "internalType": "uint256",
          "name": "fee",
          "type": "uint256"
        }
      ],
      "name": "ProtocolFeeSet",
      "type": "event"
    },
    {
      "anonymous": false,
      "inputs": [
        {
          "indexed": true,
          "internalType": "address",
          "name": "proton",
          "type": "address"
        }
      ],
      "name": "ProtonSet",
      "type": "event"
    },
    {
      "anonymous": false,
      "inputs": [
        {
          "indexed": true,
          "internalType": "address",
          "name": "router",
          "type": "address"
        }
      ],
      "name": "RouterSet",
      "type": "event"
    },
    {
      "anonymous": false,
      "inputs": [
        {
          "indexed": true,
          "internalType": "address",
          "name": "manager",
          "type": "address"
        }
      ],
      "name": "Web3PacksManagerSet",
      "type": "event"
    },
    {
      "anonymous": false,
      "inputs": [
        {
          "indexed": true,
          "internalType": "address",
          "name": "treasury",
          "type": "address"
        }
      ],
      "name": "Web3PacksTreasurySet",
      "type": "event"
    },
    {
      "anonymous": false,
      "inputs": [
        {
          "indexed": true,
          "internalType": "address",
          "name": "receiver",
          "type": "address"
        },
        {
          "indexed": true,
          "internalType": "address",
          "name": "tokenAddress",
          "type": "address"
        },
        {
          "indexed": true,
          "internalType": "uint256",
          "name": "tokenId",
          "type": "uint256"
        },
        {
          "indexed": false,
          "internalType": "uint256",
          "name": "amount",
          "type": "uint256"
        }
      ],
      "name": "WithdrawStuckERC1155",
      "type": "event"
    },
    {
      "anonymous": false,
      "inputs": [
        {
          "indexed": true,
          "internalType": "address",
          "name": "receiver",
          "type": "address"
        },
        {
          "indexed": true,
          "internalType": "address",
          "name": "tokenAddress",
          "type": "address"
        },
        {
          "indexed": false,
          "internalType": "uint256",
          "name": "amount",
          "type": "uint256"
        }
      ],
      "name": "WithdrawStuckERC20",
      "type": "event"
    },
    {
      "anonymous": false,
      "inputs": [
        {
          "indexed": true,
          "internalType": "address",
          "name": "receiver",
          "type": "address"
        },
        {
          "indexed": true,
          "internalType": "address",
          "name": "tokenAddress",
          "type": "address"
        },
        {
          "indexed": true,
          "internalType": "uint256",
          "name": "tokenId",
          "type": "uint256"
        }
      ],
      "name": "WithdrawStuckERC721",
      "type": "event"
    },
    {
      "anonymous": false,
      "inputs": [
        {
          "indexed": true,
          "internalType": "address",
          "name": "receiver",
          "type": "address"
        },
        {
          "indexed": false,
          "internalType": "uint256",
          "name": "amount",
          "type": "uint256"
        }
      ],
      "name": "WithdrawStuckEther",
      "type": "event"
    },
    {
      "inputs": [
        {
          "internalType": "uint256",
          "name": "tokenId",
          "type": "uint256"
        }
      ],
      "name": "clearLiquidityPositions",
      "outputs": [],
      "stateMutability": "nonpayable",
      "type": "function"
    },
    {
      "inputs": [
        {
          "internalType": "uint256",
          "name": "tokenId",
          "type": "uint256"
        }
      ],
      "name": "getLiquidityPositions",
      "outputs": [
        {
          "components": [
            {
              "internalType": "uint256",
              "name": "lpTokenId",
              "type": "uint256"
            },
            {
              "internalType": "uint256",
              "name": "liquidity",
              "type": "uint256"
            },
            {
              "internalType": "bool",
              "name": "stable",
              "type": "bool"
            },
            {
              "internalType": "address",
              "name": "token0",
              "type": "address"
            },
            {
              "internalType": "address",
              "name": "token1",
              "type": "address"
            },
            {
              "internalType": "int24",
              "name": "tickLower",
              "type": "int24"
            },
            {
              "internalType": "int24",
              "name": "tickUpper",
              "type": "int24"
            },
            {
              "internalType": "bytes32",
              "name": "poolId",
              "type": "bytes32"
            },
            {
              "internalType": "address",
              "name": "router",
              "type": "address"
            },
            {
              "internalType": "enum IWeb3PacksDefs.RouterType",
              "name": "routerType",
              "type": "uint8"
            }
          ],
          "internalType": "struct IWeb3PacksDefs.LiquidityPosition[]",
          "name": "positions",
          "type": "tuple[]"
        }
      ],
      "stateMutability": "view",
      "type": "function"
    },
    {
      "inputs": [
        {
          "internalType": "address",
          "name": "contractAddress",
          "type": "address"
        }
      ],
      "name": "isContractAllowed",
      "outputs": [
        {
          "internalType": "bool",
          "name": "isAllowed",
          "type": "bool"
        }
      ],
      "stateMutability": "view",
      "type": "function"
    },
    {
      "inputs": [
        {
          "internalType": "address",
          "name": "contractAddress",
          "type": "address"
        }
      ],
      "name": "isWeb3PacksAllowed",
      "outputs": [
        {
          "internalType": "bool",
          "name": "isAllowed",
          "type": "bool"
        }
      ],
      "stateMutability": "view",
      "type": "function"
    },
    {
      "inputs": [
        {
          "internalType": "address",
          "name": "oldManagerAddress",
          "type": "address"
        },
        {
          "internalType": "uint256",
          "name": "tokenId",
          "type": "uint256"
        },
        {
          "internalType": "address",
          "name": "uniswapV3Router",
          "type": "address"
        }
      ],
      "name": "migrateFromOldManager",
      "outputs": [],
      "stateMutability": "nonpayable",
      "type": "function"
    },
    {
      "inputs": [],
      "name": "owner",
      "outputs": [
        {
          "internalType": "address",
          "name": "",
          "type": "address"
        }
      ],
      "stateMutability": "view",
      "type": "function"
    },
    {
      "inputs": [],
      "name": "renounceOwnership",
      "outputs": [],
      "stateMutability": "nonpayable",
      "type": "function"
    },
    {
      "inputs": [
        {
          "internalType": "uint256",
          "name": "tokenId",
          "type": "uint256"
        },
        {
          "components": [
            {
              "internalType": "uint256",
              "name": "lpTokenId",
              "type": "uint256"
            },
            {
              "internalType": "uint256",
              "name": "liquidity",
              "type": "uint256"
            },
            {
              "internalType": "bool",
              "name": "stable",
              "type": "bool"
            },
            {
              "internalType": "address",
              "name": "token0",
              "type": "address"
            },
            {
              "internalType": "address",
              "name": "token1",
              "type": "address"
            },
            {
              "internalType": "int24",
              "name": "tickLower",
              "type": "int24"
            },
            {
              "internalType": "int24",
              "name": "tickUpper",
              "type": "int24"
            },
            {
              "internalType": "bytes32",
              "name": "poolId",
              "type": "bytes32"
            },
            {
              "internalType": "address",
              "name": "router",
              "type": "address"
            },
            {
              "internalType": "enum IWeb3PacksDefs.RouterType",
              "name": "routerType",
              "type": "uint8"
            }
          ],
          "internalType": "struct IWeb3PacksDefs.LiquidityPosition",
          "name": "position",
          "type": "tuple"
        }
      ],
      "name": "saveLiquidityPosition",
      "outputs": [],
      "stateMutability": "nonpayable",
      "type": "function"
    },
    {
      "inputs": [
        {
          "internalType": "address",
          "name": "contractAddress",
          "type": "address"
        },
        {
          "internalType": "bool",
          "name": "isAllowed",
          "type": "bool"
        }
      ],
      "name": "setContractAllowlist",
      "outputs": [],
      "stateMutability": "nonpayable",
      "type": "function"
    },
    {
      "inputs": [
        {
          "internalType": "address",
          "name": "contractAddress",
          "type": "address"
        },
        {
          "internalType": "bool",
          "name": "isAllowed",
          "type": "bool"
        }
      ],
      "name": "setWeb3PacksContract",
      "outputs": [],
      "stateMutability": "nonpayable",
      "type": "function"
    },
    {
      "inputs": [
        {
          "internalType": "address",
          "name": "newOwner",
          "type": "address"
        }
      ],
      "name": "transferOwnership",
      "outputs": [],
      "stateMutability": "nonpayable",
      "type": "function"
    },
    {
      "inputs": [
        {
          "internalType": "address payable",
          "name": "receiver",
          "type": "address"
        },
        {
          "internalType": "address",
          "name": "tokenAddress",
          "type": "address"
        },
        {
          "internalType": "uint256",
          "name": "tokenId",
          "type": "uint256"
        },
        {
          "internalType": "uint256",
          "name": "amount",
          "type": "uint256"
        }
      ],
      "name": "withdrawERC1155",
      "outputs": [],
      "stateMutability": "nonpayable",
      "type": "function"
    },
    {
      "inputs": [
        {
          "internalType": "address payable",
          "name": "receiver",
          "type": "address"
        },
        {
          "internalType": "address",
          "name": "tokenAddress",
          "type": "address"
        },
        {
          "internalType": "uint256",
          "name": "tokenId",
          "type": "uint256"
        }
      ],
      "name": "withdrawERC721",
      "outputs": [],
      "stateMutability": "nonpayable",
      "type": "function"
    },
    {
      "inputs": [
        {
          "internalType": "address payable",
          "name": "receiver",
          "type": "address"
        },
        {
          "internalType": "address",
          "name": "tokenAddress",
          "type": "address"
        },
        {
          "internalType": "uint256",
          "name": "amount",
          "type": "uint256"
        }
      ],
      "name": "withdrawErc20",
      "outputs": [],
      "stateMutability": "nonpayable",
      "type": "function"
    },
    {
      "inputs": [
        {
          "internalType": "address payable",
          "name": "receiver",
          "type": "address"
        },
        {
          "internalType": "uint256",
          "name": "amount",
          "type": "uint256"
        }
      ],
      "name": "withdrawEther",
      "outputs": [],
      "stateMutability": "nonpayable",
      "type": "function"
    }
  ],
  "transactionHash": "0xf220b18732c089e40c0b4923d7b4893094d1eb98b711d1aae9ce7f9948707ab5",
  "args": [],
  "numDeployments": 1,
  "solcInputHash": "641e7d44160a2efceb7d645845803180",
  "bytecode": "0x608060405234801561001057600080fd5b5061001a3361001f565b61006f565b600080546001600160a01b038381166001600160a01b0319831681178455604051919092169283917f8be0079c531659141344cd1fd0a4f28419497f9722a3daafe3b4186f6b6457e09190a35050565b611b7d8061007e6000396000f3fe608060405234801561001057600080fd5b50600436106100f55760003560e01c80638da5cb5b11610097578063c71c67f011610066578063c71c67f014610211578063eb348dae14610231578063ed00ebf514610244578063f2fde38b1461025757600080fd5b80638da5cb5b146101a4578063941f0420146101bf578063a0edb48b146101eb578063c1dc6b56146101fe57600080fd5b806342c49a29116100d357806342c49a2914610135578063522f6815146101485780636f2ddb5f1461015b578063715018a61461019c57600080fd5b80631593dee1146100fa5780633a365c021461010f5780634025feb214610122575b600080fd5b61010d610108366004611458565b61026a565b005b61010d61011d366004611499565b610282565b61010d610130366004611458565b610656565b61010d6101433660046114f4565b610669565b61010d61015636600461152d565b6106fb565b610187610169366004611559565b6001600160a01b031660009081526002602052604090205460ff1690565b60405190151581526020015b60405180910390f35b61010d610711565b6000546040516001600160a01b039091168152602001610193565b6101876101cd366004611559565b6001600160a01b031660009081526001602052604090205460ff1690565b61010d6101f936600461157d565b610725565b61010d61020c3660046114f4565b61073f565b61022461021f3660046115c3565b610772565b6040516101939190611614565b61010d61023f36600461178c565b61089a565b61010d6102523660046115c3565b610a1f565b61010d610265366004611559565b610a93565b610272610b0c565b61027d838383610b66565b505050565b61028a610b0c565b604051630c71c67f60e41b81526004810183905283906000906001600160a01b0383169063c71c67f0906024016000604051808303816000875af11580156102d6573d6000803e3d6000fd5b505050506040513d6000823e601f3d908101601f191682016040526102fe9190810190611892565b600085815260036020526040812091925061031991906113bc565b60005b815181101561064e576000604051806101400160405280848481518110610345576103456119e0565b6020026020010151600001518152602001848481518110610368576103686119e0565b602002602001015160200151815260200184848151811061038b5761038b6119e0565b602002602001015160400151151581526020018484815181106103b0576103b06119e0565b6020026020010151606001516001600160a01b031681526020018484815181106103dc576103dc6119e0565b6020026020010151608001516001600160a01b03168152602001848481518110610408576104086119e0565b602002602001015160a0015160020b815260200184848151811061042e5761042e6119e0565b602002602001015160c0015160020b8152602001848481518110610454576104546119e0565b602002602001015160e001518152602001848481518110610477576104776119e0565b602002602001015161010001516001600160a01b031681526020018484815181106104a4576104a46119e0565b6020026020010151610120015160038111156104c2576104c26115dc565b60048111156104d3576104d36115dc565b60048111156104e4576104e46115dc565b9052905060018161012001516004811115610501576105016115dc565b03610517576001600160a01b0385166101008201525b6000868152600360208181526040808420805460018181018355918652948390208651600690960201948555918501519184019190915583015160028301805460608601516001600160a01b03908116610100908102610100600160a81b0319951515959095166001600160a81b031993841617949094179092556080860151938501805460a088015160c089015162ffffff908116600160b81b0262ffffff60b81b1991909216600160a01b9081026001600160b81b031990941698871698909817929092179190911617905560e086015160048087019190915592860151600586018054919093166001600160a01b03198216811784556101208801518897969095929093161791908490811115610633576106336115dc565b02179055505050508080610646906119f6565b91505061031c565b505050505050565b61065e610b0c565b61027d838383610c61565b338061067d6000546001600160a01b031690565b6001600160a01b031614806106aa57506001600160a01b03811660009081526001602052604090205460ff165b6106cf5760405162461bcd60e51b81526004016106c690611a1d565b60405180910390fd5b506001600160a01b03919091166000908152600260205260409020805460ff1916911515919091179055565b610703610b0c565b61070d8282610dae565b5050565b610719610b0c565b6107236000610e34565b565b61072d610b0c565b61073984848484610e84565b50505050565b610747610b0c565b6001600160a01b03919091166000908152600160205260409020805460ff1916911515919091179055565b606060036000838152602001908152602001600020805480602002602001604051908101604052809291908181526020016000905b8282101561088f5760008481526020908190206040805161014081018252600686029092018054835260018101549383019390935260028084015460ff8082161515938501939093526001600160a01b03610100918290048116606086015260038601548082166080870152600160a01b808204850b60a0880152600160b81b90910490930b60c086015260048087015460e08701526005870154918216928601929092529394936101208601939290049091169081111561086b5761086b6115dc565b600481111561087c5761087c6115dc565b81525050815260200190600101906107a7565b505050509050919050565b33806108ae6000546001600160a01b031690565b6001600160a01b031614806108db57506001600160a01b03811660009081526001602052604090205460ff165b6108f75760405162461bcd60e51b81526004016106c690611a1d565b6000838152600360208181526040808420805460018181018355918652948390208751600690960201948555918601519184019190915584015160028301805460608701516001600160a01b03908116610100908102610100600160a81b0319951515959095166001600160a81b031993841617949094179092556080870151938501805460a089015160c08a015162ffffff908116600160b81b0262ffffff60b81b1991909216600160a01b9081026001600160b81b031990941698871698909817929092179190911617905560e087015160048087019190915592870151600586018054919093166001600160a01b03198216811784556101208901518997969095929093161791908490811115610a1357610a136115dc565b02179055505050505050565b3380610a336000546001600160a01b031690565b6001600160a01b03161480610a6057506001600160a01b03811660009081526001602052604090205460ff165b610a7c5760405162461bcd60e51b81526004016106c690611a1d565b600082815260036020526040812061070d916113bc565b610a9b610b0c565b6001600160a01b038116610b005760405162461bcd60e51b815260206004820152602660248201527f4f776e61626c653a206e6577206f776e657220697320746865207a65726f206160448201526564647265737360d01b60648201526084016106c6565b610b0981610e34565b50565b6000546001600160a01b031633146107235760405162461bcd60e51b815260206004820181905260248201527f4f776e61626c653a2063616c6c6572206973206e6f7420746865206f776e657260448201526064016106c6565b6001600160a01b038316610b8c5760405162461bcd60e51b81526004016106c690611a5e565b6040516370a0823160e01b815230600482015281906001600160a01b038416906370a0823190602401602060405180830381865afa158015610bd2573d6000803e3d6000fd5b505050506040513d601f19601f82011682018060405250810190610bf69190611a81565b1061027d57610c0f6001600160a01b0383168483610fef565b816001600160a01b0316836001600160a01b03167f6c9d637297625e945b296ff73a71fcfbd0a9e062652b6491a921c4c60194176b83604051610c5491815260200190565b60405180910390a3505050565b6001600160a01b038316610c875760405162461bcd60e51b81526004016106c690611a5e565b6040516331a9108f60e11b81526004810182905230906001600160a01b03841690636352211e90602401602060405180830381865afa158015610cce573d6000803e3d6000fd5b505050506040513d601f19601f82011682018060405250810190610cf29190611a9a565b6001600160a01b03160361027d576040516323b872dd60e01b81523060048201526001600160a01b038481166024830152604482018390528316906323b872dd90606401600060405180830381600087803b158015610d5057600080fd5b505af1158015610d64573d6000803e3d6000fd5b5050505080826001600160a01b0316846001600160a01b03167ffefe036cac4ee3a4aca074a81cbcc4376e1484693289078dbec149c890101d5b60405160405180910390a4505050565b6001600160a01b038216610dd45760405162461bcd60e51b81526004016106c690611a5e565b80471061070d57610dee6001600160a01b03831682611041565b816001600160a01b03167eddb683bb45cd5d0ad8a200c6fae7152b1c236ee90a4a37db692407f5cc38bd82604051610e2891815260200190565b60405180910390a25050565b600080546001600160a01b038381166001600160a01b0319831681178455604051919092169283917f8be0079c531659141344cd1fd0a4f28419497f9722a3daafe3b4186f6b6457e09190a35050565b6001600160a01b038416610eaa5760405162461bcd60e51b81526004016106c690611a5e565b604051627eeac760e11b81523060048201526024810183905281906001600160a01b0385169062fdd58e90604401602060405180830381865afa158015610ef5573d6000803e3d6000fd5b505050506040513d601f19601f82011682018060405250810190610f199190611a81565b1061073957604051637921219560e11b81523060048201526001600160a01b038581166024830152604482018490526064820183905260a06084830152600060a483015284169063f242432a9060c401600060405180830381600087803b158015610f8357600080fd5b505af1158015610f97573d6000803e3d6000fd5b5050505081836001600160a01b0316856001600160a01b03167f620337bf89eea2b9ae2657beead83b5fa620452817118348aff96e201d52598b84604051610fe191815260200190565b60405180910390a450505050565b604080516001600160a01b038416602482015260448082018490528251808303909101815260649091019091526020810180516001600160e01b031663a9059cbb60e01b17905261027d90849061115a565b804710156110915760405162461bcd60e51b815260206004820152601d60248201527f416464726573733a20696e73756666696369656e742062616c616e636500000060448201526064016106c6565b6000826001600160a01b03168260405160006040518083038185875af1925050503d80600081146110de576040519150601f19603f3d011682016040523d82523d6000602084013e6110e3565b606091505b505090508061027d5760405162461bcd60e51b815260206004820152603a60248201527f416464726573733a20756e61626c6520746f2073656e642076616c75652c207260448201527f6563697069656e74206d6179206861766520726576657274656400000000000060648201526084016106c6565b60006111af826040518060400160405280602081526020017f5361666545524332303a206c6f772d6c6576656c2063616c6c206661696c6564815250856001600160a01b031661122c9092919063ffffffff16565b80519091501561027d57808060200190518101906111cd9190611ab7565b61027d5760405162461bcd60e51b815260206004820152602a60248201527f5361666545524332303a204552433230206f7065726174696f6e20646964206e6044820152691bdd081cdd58d8d9595960b21b60648201526084016106c6565b606061123b8484600085611243565b949350505050565b6060824710156112a45760405162461bcd60e51b815260206004820152602660248201527f416464726573733a20696e73756666696369656e742062616c616e636520666f6044820152651c8818d85b1b60d21b60648201526084016106c6565b600080866001600160a01b031685876040516112c09190611af8565b60006040518083038185875af1925050503d80600081146112fd576040519150601f19603f3d011682016040523d82523d6000602084013e611302565b606091505b50915091506113138783838761131e565b979650505050505050565b6060831561138d578251600003611386576001600160a01b0385163b6113865760405162461bcd60e51b815260206004820152601d60248201527f416464726573733a2063616c6c20746f206e6f6e2d636f6e747261637400000060448201526064016106c6565b508161123b565b61123b83838151156113a25781518083602001fd5b8060405162461bcd60e51b81526004016106c69190611b14565b5080546000825560060290600052602060002090810190610b0991905b8082111561142f576000808255600182018190556002820180546001600160a81b03199081169091556003830180546001600160d01b0319169055600483019190915560058201805490911690556006016113d9565b5090565b6001600160a01b0381168114610b0957600080fd5b803561145381611433565b919050565b60008060006060848603121561146d57600080fd5b833561147881611433565b9250602084013561148881611433565b929592945050506040919091013590565b6000806000606084860312156114ae57600080fd5b83356114b981611433565b92506020840135915060408401356114d081611433565b809150509250925092565b8015158114610b0957600080fd5b8035611453816114db565b6000806040838503121561150757600080fd5b823561151281611433565b91506020830135611522816114db565b809150509250929050565b6000806040838503121561154057600080fd5b823561154b81611433565b946020939093013593505050565b60006020828403121561156b57600080fd5b813561157681611433565b9392505050565b6000806000806080858703121561159357600080fd5b843561159e81611433565b935060208501356115ae81611433565b93969395505050506040820135916060013590565b6000602082840312156115d557600080fd5b5035919050565b634e487b7160e01b600052602160045260246000fd5b6005811061161057634e487b7160e01b600052602160045260246000fd5b9052565b602080825282518282018190526000919060409081850190868401855b828110156116e5578151805185528681015187860152858101511515868601526060808201516001600160a01b03908116918701919091526080808301519091169086015260a080820151600281900b82880152505060c08082015161169b8288018260020b9052565b505060e08181015190860152610100808201516001600160a01b03169086015261012090810151906116cf818701836115f2565b5050610140939093019290850190600101611631565b5091979650505050505050565b634e487b7160e01b600052604160045260246000fd5b604051610140810167ffffffffffffffff8111828210171561172c5761172c6116f2565b60405290565b604051601f8201601f1916810167ffffffffffffffff8111828210171561175b5761175b6116f2565b604052919050565b8060020b8114610b0957600080fd5b803561145381611763565b80356005811061145357600080fd5b6000808284036101608112156117a157600080fd5b8335925061014080601f19830112156117b957600080fd5b6117c1611708565b915060208501358252604085013560208301526117e0606086016114e9565b60408301526117f160808601611448565b606083015261180260a08601611448565b608083015261181360c08601611772565b60a083015261182460e08601611772565b60c08301526101008086013560e0840152610120611843818801611448565b8285015261185283880161177d565b9084015250929590945092505050565b8051611453816114db565b805161145381611433565b805161145381611763565b80516004811061145357600080fd5b600060208083850312156118a557600080fd5b825167ffffffffffffffff808211156118bd57600080fd5b818501915085601f8301126118d157600080fd5b8151818111156118e3576118e36116f2565b6118f1848260051b01611732565b818152848101925061014091820284018501918883111561191157600080fd5b938501935b828510156119d45780858a03121561192e5760008081fd5b611936611708565b855181528686015187820152604061194f818801611862565b90820152606061196087820161186d565b90820152608061197187820161186d565b9082015260a0611982878201611878565b9082015260c0611993878201611878565b9082015260e086810151908201526101006119af81880161186d565b908201526101206119c1878201611883565b9082015284529384019392850192611916565b50979650505050505050565b634e487b7160e01b600052603260045260246000fd5b600060018201611a1657634e487b7160e01b600052601160045260246000fd5b5060010190565b60208082526021908201527f576562335061636b734d616e61676572202d20496e76616c69642063616c6c656040820152603960f91b606082015260800190565b6020808252600990820152684248503a452d34303360b81b604082015260600190565b600060208284031215611a9357600080fd5b5051919050565b600060208284031215611aac57600080fd5b815161157681611433565b600060208284031215611ac957600080fd5b8151611576816114db565b60005b83811015611aef578181015183820152602001611ad7565b50506000910152565b60008251611b0a818460208701611ad4565b9190910192915050565b6020815260008251806020840152611b33816040850160208701611ad4565b601f01601f1916919091016040019291505056fea26469706673582212202d420e82dae28ee4e9c485bc963fa1dc4eb7fc1254cd138ad04dc857ad8ce47964736f6c63430008110033",
  "devdoc": {
    "kind": "dev",
    "methods": {
      "owner()": {
        "details": "Returns the address of the current owner."
      },
      "renounceOwnership()": {
        "details": "Leaves the contract without owner. It will not be possible to call `onlyOwner` functions anymore. Can only be called by the current owner. NOTE: Renouncing ownership will leave the contract without an owner, thereby removing any functionality that is only available to the owner."
      },
      "transferOwnership(address)": {
        "details": "Transfers ownership of the contract to a new account (`newOwner`). Can only be called by the current owner."
      }
    },
    "version": 1
  },
  "userdoc": {
    "kind": "user",
    "methods": {},
    "version": 1
  },
  "storageLayout": {
    "storage": [
      {
        "astId": 7,
        "contract": "contracts/Web3PacksManager.sol:Web3PacksManager",
        "label": "_owner",
        "offset": 0,
        "slot": "0",
        "type": "t_address"
      },
      {
        "astId": 1183,
        "contract": "contracts/Web3PacksManager.sol:Web3PacksManager",
        "label": "_web3packsContracts",
        "offset": 0,
        "slot": "1",
        "type": "t_mapping(t_address,t_bool)"
      },
      {
        "astId": 1187,
        "contract": "contracts/Web3PacksManager.sol:Web3PacksManager",
        "label": "_allowlistedContracts",
        "offset": 0,
        "slot": "2",
        "type": "t_mapping(t_address,t_bool)"
      },
      {
        "astId": 1193,
        "contract": "contracts/Web3PacksManager.sol:Web3PacksManager",
        "label": "_liquidityPositions",
        "offset": 0,
        "slot": "3",
        "type": "t_mapping(t_uint256,t_array(t_struct(LiquidityPosition)1701_storage)dyn_storage)"
      }
    ],
    "types": {
      "t_address": {
        "encoding": "inplace",
        "label": "address",
        "numberOfBytes": "20"
      },
      "t_array(t_struct(LiquidityPosition)1701_storage)dyn_storage": {
        "base": "t_struct(LiquidityPosition)1701_storage",
        "encoding": "dynamic_array",
        "label": "struct IWeb3PacksDefs.LiquidityPosition[]",
        "numberOfBytes": "32"
      },
      "t_bool": {
        "encoding": "inplace",
        "label": "bool",
        "numberOfBytes": "1"
      },
      "t_bytes32": {
        "encoding": "inplace",
        "label": "bytes32",
        "numberOfBytes": "32"
      },
      "t_enum(RouterType)1606": {
        "encoding": "inplace",
        "label": "enum IWeb3PacksDefs.RouterType",
        "numberOfBytes": "1"
      },
      "t_int24": {
        "encoding": "inplace",
        "label": "int24",
        "numberOfBytes": "3"
      },
      "t_mapping(t_address,t_bool)": {
        "encoding": "mapping",
        "key": "t_address",
        "label": "mapping(address => bool)",
        "numberOfBytes": "32",
        "value": "t_bool"
      },
      "t_mapping(t_uint256,t_array(t_struct(LiquidityPosition)1701_storage)dyn_storage)": {
        "encoding": "mapping",
        "key": "t_uint256",
        "label": "mapping(uint256 => struct IWeb3PacksDefs.LiquidityPosition[])",
        "numberOfBytes": "32",
        "value": "t_array(t_struct(LiquidityPosition)1701_storage)dyn_storage"
      },
      "t_struct(LiquidityPosition)1701_storage": {
        "encoding": "inplace",
        "label": "struct IWeb3PacksDefs.LiquidityPosition",
        "members": [
          {
            "astId": 1681,
            "contract": "contracts/Web3PacksManager.sol:Web3PacksManager",
            "label": "lpTokenId",
            "offset": 0,
            "slot": "0",
            "type": "t_uint256"
          },
          {
            "astId": 1683,
            "contract": "contracts/Web3PacksManager.sol:Web3PacksManager",
            "label": "liquidity",
            "offset": 0,
            "slot": "1",
            "type": "t_uint256"
          },
          {
            "astId": 1685,
            "contract": "contracts/Web3PacksManager.sol:Web3PacksManager",
            "label": "stable",
            "offset": 0,
            "slot": "2",
            "type": "t_bool"
          },
          {
            "astId": 1687,
            "contract": "contracts/Web3PacksManager.sol:Web3PacksManager",
            "label": "token0",
            "offset": 1,
            "slot": "2",
            "type": "t_address"
          },
          {
            "astId": 1689,
            "contract": "contracts/Web3PacksManager.sol:Web3PacksManager",
            "label": "token1",
            "offset": 0,
            "slot": "3",
            "type": "t_address"
          },
          {
            "astId": 1691,
            "contract": "contracts/Web3PacksManager.sol:Web3PacksManager",
            "label": "tickLower",
            "offset": 20,
            "slot": "3",
            "type": "t_int24"
          },
          {
            "astId": 1693,
            "contract": "contracts/Web3PacksManager.sol:Web3PacksManager",
            "label": "tickUpper",
            "offset": 23,
            "slot": "3",
            "type": "t_int24"
          },
          {
            "astId": 1695,
            "contract": "contracts/Web3PacksManager.sol:Web3PacksManager",
            "label": "poolId",
            "offset": 0,
            "slot": "4",
            "type": "t_bytes32"
          },
          {
            "astId": 1697,
            "contract": "contracts/Web3PacksManager.sol:Web3PacksManager",
            "label": "router",
            "offset": 0,
            "slot": "5",
            "type": "t_address"
          },
          {
            "astId": 1700,
            "contract": "contracts/Web3PacksManager.sol:Web3PacksManager",
            "label": "routerType",
            "offset": 20,
            "slot": "5",
            "type": "t_enum(RouterType)1606"
          }
        ],
        "numberOfBytes": "192"
      },
      "t_uint256": {
        "encoding": "inplace",
        "label": "uint256",
        "numberOfBytes": "32"
      }
    }
  }
}