{
  "address": "0x33122B3a88eDCafF57bB9FFfE9573F88ad703931",
  "abi": [
    {
      "inputs": [
        {
          "internalType": "address",
          "name": "weth",
          "type": "address"
        },
        {
          "internalType": "address",
          "name": "proton",
          "type": "address"
        },
        {
          "internalType": "address",
          "name": "nonfungiblePositionManager",
          "type": "address"
        },
        {
          "internalType": "address",
          "name": "chargedParticles",
          "type": "address"
        },
        {
          "internalType": "address",
          "name": "chargedState",
          "type": "address"
        }
      ],
      "stateMutability": "nonpayable",
      "type": "constructor"
    },
    {
      "inputs": [],
      "name": "ContractNotAllowed",
      "type": "error"
    },
    {
      "inputs": [],
      "name": "FundingFailed",
      "type": "error"
    },
    {
      "inputs": [
        {
          "internalType": "uint256",
          "name": "value",
          "type": "uint256"
        },
        {
          "internalType": "uint256",
          "name": "ethPackPrice",
          "type": "uint256"
        },
        {
          "internalType": "uint256",
          "name": "protocolFee",
          "type": "uint256"
        }
      ],
      "name": "InsufficientForFee",
      "type": "error"
    },
    {
      "inputs": [],
      "name": "MismatchedTokens",
      "type": "error"
    },
    {
      "inputs": [
        {
          "internalType": "address",
          "name": "tokenAddress",
          "type": "address"
        }
      ],
      "name": "MissingLiquidityUUID",
      "type": "error"
    },
    {
      "inputs": [],
      "name": "NativeAssetTransferFailed",
      "type": "error"
    },
    {
      "inputs": [],
      "name": "NotOwnerOrApproved",
      "type": "error"
    },
    {
      "inputs": [],
      "name": "NullReceiver",
      "type": "error"
    },
    {
      "inputs": [
        {
          "internalType": "address",
          "name": "tokenOut",
          "type": "address"
        },
        {
          "internalType": "uint256",
          "name": "amountIn",
          "type": "uint256"
        },
        {
          "internalType": "address",
          "name": "router",
          "type": "address"
        }
      ],
      "name": "UnsucessfulSwap",
      "type": "error"
    },
    {
      "anonymous": false,
      "inputs": [
        {
          "indexed": true,
          "internalType": "address",
          "name": "chargedParticles",
          "type": "address"
        }
      ],
      "name": "ChargedParticlesSet",
      "type": "event"
    },
    {
      "anonymous": false,
      "inputs": [
        {
          "indexed": true,
          "internalType": "address",
          "name": "chargedState",
          "type": "address"
        }
      ],
      "name": "ChargedStateSet",
      "type": "event"
    },
    {
      "anonymous": false,
      "inputs": [
        {
          "indexed": true,
          "internalType": "address",
          "name": "previousOwner",
          "type": "address"
        },
        {
          "indexed": true,
          "internalType": "address",
          "name": "newOwner",
          "type": "address"
        }
      ],
      "name": "OwnershipTransferred",
      "type": "event"
    },
    {
      "anonymous": false,
      "inputs": [
        {
          "indexed": true,
          "internalType": "uint256",
          "name": "tokenId",
          "type": "uint256"
        },
        {
          "indexed": true,
          "internalType": "address",
          "name": "receiver",
          "type": "address"
        }
      ],
      "name": "PackBundled",
      "type": "event"
    },
    {
      "anonymous": false,
      "inputs": [
        {
          "indexed": true,
          "internalType": "uint256",
          "name": "tokenId",
          "type": "uint256"
        },
        {
          "indexed": true,
          "internalType": "address",
          "name": "receiver",
          "type": "address"
        }
      ],
      "name": "PackUnbundled",
      "type": "event"
    },
    {
      "anonymous": false,
      "inputs": [
        {
          "indexed": false,
          "internalType": "address",
          "name": "account",
          "type": "address"
        }
      ],
      "name": "Paused",
      "type": "event"
    },
    {
      "anonymous": false,
      "inputs": [
        {
          "indexed": false,
          "internalType": "uint256",
          "name": "fee",
          "type": "uint256"
        }
      ],
      "name": "ProtocolFeeSet",
      "type": "event"
    },
    {
      "anonymous": false,
      "inputs": [
        {
          "indexed": true,
          "internalType": "address",
          "name": "proton",
          "type": "address"
        }
      ],
      "name": "ProtonSet",
      "type": "event"
    },
    {
      "anonymous": false,
      "inputs": [
        {
          "indexed": true,
          "internalType": "address",
          "name": "router",
          "type": "address"
        }
      ],
      "name": "RouterSet",
      "type": "event"
    },
    {
      "anonymous": false,
      "inputs": [
        {
          "indexed": false,
          "internalType": "address",
          "name": "account",
          "type": "address"
        }
      ],
      "name": "Unpaused",
      "type": "event"
    },
    {
      "anonymous": false,
      "inputs": [
        {
          "indexed": true,
          "internalType": "address",
          "name": "manager",
          "type": "address"
        }
      ],
      "name": "Web3PacksManagerSet",
      "type": "event"
    },
    {
      "anonymous": false,
      "inputs": [
        {
          "indexed": true,
          "internalType": "address",
          "name": "treasury",
          "type": "address"
        }
      ],
      "name": "Web3PacksTreasurySet",
      "type": "event"
    },
    {
      "anonymous": false,
      "inputs": [
        {
          "indexed": true,
          "internalType": "address",
          "name": "receiver",
          "type": "address"
        },
        {
          "indexed": true,
          "internalType": "address",
          "name": "tokenAddress",
          "type": "address"
        },
        {
          "indexed": true,
          "internalType": "uint256",
          "name": "tokenId",
          "type": "uint256"
        },
        {
          "indexed": false,
          "internalType": "uint256",
          "name": "amount",
          "type": "uint256"
        }
      ],
      "name": "WithdrawStuckERC1155",
      "type": "event"
    },
    {
      "anonymous": false,
      "inputs": [
        {
          "indexed": true,
          "internalType": "address",
          "name": "receiver",
          "type": "address"
        },
        {
          "indexed": true,
          "internalType": "address",
          "name": "tokenAddress",
          "type": "address"
        },
        {
          "indexed": false,
          "internalType": "uint256",
          "name": "amount",
          "type": "uint256"
        }
      ],
      "name": "WithdrawStuckERC20",
      "type": "event"
    },
    {
      "anonymous": false,
      "inputs": [
        {
          "indexed": true,
          "internalType": "address",
          "name": "receiver",
          "type": "address"
        },
        {
          "indexed": true,
          "internalType": "address",
          "name": "tokenAddress",
          "type": "address"
        },
        {
          "indexed": true,
          "internalType": "uint256",
          "name": "tokenId",
          "type": "uint256"
        }
      ],
      "name": "WithdrawStuckERC721",
      "type": "event"
    },
    {
      "anonymous": false,
      "inputs": [
        {
          "indexed": true,
          "internalType": "address",
          "name": "receiver",
          "type": "address"
        },
        {
          "indexed": false,
          "internalType": "uint256",
          "name": "amount",
          "type": "uint256"
        }
      ],
      "name": "WithdrawStuckEther",
      "type": "event"
    },
    {
      "inputs": [
        {
          "internalType": "string",
          "name": "tokenMetaUri",
          "type": "string"
        },
        {
          "components": [
            {
              "internalType": "bytes",
              "name": "callData",
              "type": "bytes"
            },
            {
              "internalType": "address",
              "name": "contractAddress",
              "type": "address"
            },
            {
              "internalType": "uint256",
              "name": "amountIn",
              "type": "uint256"
            }
          ],
          "internalType": "struct IWeb3PacksDefs.ContractCallGeneric[]",
          "name": "contractCalls",
          "type": "tuple[]"
        },
        {
          "components": [
            {
              "internalType": "bytes",
              "name": "callData",
              "type": "bytes"
            },
            {
              "internalType": "address",
              "name": "router",
              "type": "address"
            },
            {
              "internalType": "address",
              "name": "tokenIn",
              "type": "address"
            },
            {
              "internalType": "address",
              "name": "tokenOut",
              "type": "address"
            },
            {
              "internalType": "uint256",
              "name": "tokenAmountIn",
              "type": "uint256"
            },
            {
              "internalType": "uint256",
              "name": "tokenAmountOutMin",
              "type": "uint256"
            },
            {
              "internalType": "uint256",
              "name": "payableAmountIn",
              "type": "uint256"
            },
            {
              "internalType": "bytes32",
              "name": "liquidityUuid",
              "type": "bytes32"
            },
            {
              "internalType": "bytes32",
              "name": "poolId",
              "type": "bytes32"
            },
            {
              "internalType": "enum IWeb3PacksDefs.RouterType",
              "name": "routerType",
              "type": "uint8"
            }
          ],
          "internalType": "struct IWeb3PacksDefs.ERC20SwapOrderGeneric[]",
          "name": "erc20SwapOrders",
          "type": "tuple[]"
        },
        {
          "components": [
            {
              "internalType": "address",
              "name": "router",
              "type": "address"
            },
            {
              "internalType": "address",
              "name": "token0",
              "type": "address"
            },
            {
              "internalType": "address",
              "name": "token1",
              "type": "address"
            },
            {
              "internalType": "bytes32",
              "name": "liquidityUuidToken0",
              "type": "bytes32"
            },
            {
              "internalType": "bytes32",
              "name": "liquidityUuidToken1",
              "type": "bytes32"
            },
            {
              "internalType": "uint256",
              "name": "percentToken0",
              "type": "uint256"
            },
            {
              "internalType": "uint256",
              "name": "percentToken1",
              "type": "uint256"
            },
            {
              "internalType": "uint256",
              "name": "minimumLpTokens",
              "type": "uint256"
            },
            {
              "internalType": "uint256",
              "name": "slippage",
              "type": "uint256"
            },
            {
              "internalType": "int24",
              "name": "tickLower",
              "type": "int24"
            },
            {
              "internalType": "int24",
              "name": "tickUpper",
              "type": "int24"
            },
            {
              "internalType": "bool",
              "name": "stable",
              "type": "bool"
            },
            {
              "internalType": "bytes32",
              "name": "poolId",
              "type": "bytes32"
            },
            {
              "internalType": "enum IWeb3PacksDefs.RouterType",
              "name": "routerType",
              "type": "uint8"
            }
          ],
          "internalType": "struct IWeb3PacksDefs.LiquidityOrderGeneric[]",
          "name": "liquidityOrders",
          "type": "tuple[]"
        },
        {
          "components": [
            {
              "internalType": "uint256",
              "name": "ERC20Timelock",
              "type": "uint256"
            },
            {
              "internalType": "uint256",
              "name": "ERC721Timelock",
              "type": "uint256"
            }
          ],
          "internalType": "struct IWeb3PacksDefs.LockState",
          "name": "lockState",
          "type": "tuple"
        },
        {
          "internalType": "uint256",
          "name": "ethPackPrice",
          "type": "uint256"
        }
      ],
      "name": "bundle",
      "outputs": [
        {
          "internalType": "uint256",
          "name": "tokenId",
          "type": "uint256"
        }
      ],
      "stateMutability": "payable",
      "type": "function"
    },
    {
      "inputs": [
        {
          "internalType": "address",
          "name": "",
          "type": "address"
        },
        {
          "internalType": "address",
          "name": "",
          "type": "address"
        },
        {
          "internalType": "uint256",
          "name": "",
          "type": "uint256"
        },
        {
          "internalType": "bytes",
          "name": "",
          "type": "bytes"
        }
      ],
      "name": "onERC721Received",
      "outputs": [
        {
          "internalType": "bytes4",
          "name": "",
          "type": "bytes4"
        }
      ],
      "stateMutability": "pure",
      "type": "function"
    },
    {
      "inputs": [],
      "name": "owner",
      "outputs": [
        {
          "internalType": "address",
          "name": "",
          "type": "address"
        }
      ],
      "stateMutability": "view",
      "type": "function"
    },
    {
      "inputs": [],
      "name": "pause",
      "outputs": [],
      "stateMutability": "nonpayable",
      "type": "function"
    },
    {
      "inputs": [],
      "name": "paused",
      "outputs": [
        {
          "internalType": "bool",
          "name": "",
          "type": "bool"
        }
      ],
      "stateMutability": "view",
      "type": "function"
    },
    {
      "inputs": [],
      "name": "renounceOwnership",
      "outputs": [],
      "stateMutability": "nonpayable",
      "type": "function"
    },
    {
      "inputs": [
        {
          "internalType": "address",
          "name": "chargedParticles",
          "type": "address"
        }
      ],
      "name": "setChargedParticles",
      "outputs": [],
      "stateMutability": "nonpayable",
      "type": "function"
    },
    {
      "inputs": [
        {
          "internalType": "address",
          "name": "chargedState",
          "type": "address"
        }
      ],
      "name": "setChargedState",
      "outputs": [],
      "stateMutability": "nonpayable",
      "type": "function"
    },
    {
      "inputs": [
        {
          "internalType": "uint256",
          "name": "fee",
          "type": "uint256"
        }
      ],
      "name": "setProtocolFee",
      "outputs": [],
      "stateMutability": "nonpayable",
      "type": "function"
    },
    {
      "inputs": [
        {
          "internalType": "address",
          "name": "proton",
          "type": "address"
        }
      ],
      "name": "setProton",
      "outputs": [],
      "stateMutability": "nonpayable",
      "type": "function"
    },
    {
      "inputs": [
        {
          "internalType": "address payable",
          "name": "treasury",
          "type": "address"
        }
      ],
      "name": "setTreasury",
      "outputs": [],
      "stateMutability": "nonpayable",
      "type": "function"
    },
    {
      "inputs": [
        {
          "internalType": "address",
          "name": "manager",
          "type": "address"
        }
      ],
      "name": "setWeb3PacksManager",
      "outputs": [],
      "stateMutability": "nonpayable",
      "type": "function"
    },
    {
      "inputs": [
        {
          "internalType": "address",
          "name": "newOwner",
          "type": "address"
        }
      ],
      "name": "transferOwnership",
      "outputs": [],
      "stateMutability": "nonpayable",
      "type": "function"
    },
    {
      "inputs": [
        {
          "internalType": "address",
          "name": "receiver",
          "type": "address"
        },
        {
          "internalType": "address",
          "name": "tokenAddress",
          "type": "address"
        },
        {
          "internalType": "uint256",
          "name": "tokenId",
          "type": "uint256"
        },
        {
          "internalType": "address[]",
          "name": "erc20s",
          "type": "address[]"
        },
        {
          "components": [
            {
              "internalType": "address",
              "name": "tokenAddress",
              "type": "address"
            },
            {
              "internalType": "uint256",
              "name": "id",
              "type": "uint256"
            }
          ],
          "internalType": "struct IWeb3PacksDefs.NFT[]",
          "name": "nfts",
          "type": "tuple[]"
        },
        {
          "components": [
            {
              "components": [
                {
                  "internalType": "address",
                  "name": "token",
                  "type": "address"
                },
                {
                  "internalType": "uint256",
                  "name": "amount",
                  "type": "uint256"
                }
              ],
              "internalType": "struct IWeb3PacksDefs.TokenAmount",
              "name": "token0",
              "type": "tuple"
            },
            {
              "components": [
                {
                  "internalType": "address",
                  "name": "token",
                  "type": "address"
                },
                {
                  "internalType": "uint256",
                  "name": "amount",
                  "type": "uint256"
                }
              ],
              "internalType": "struct IWeb3PacksDefs.TokenAmount",
              "name": "token1",
              "type": "tuple"
            }
          ],
          "internalType": "struct IWeb3PacksDefs.TokenPairs[]",
          "name": "lps",
          "type": "tuple[]"
        }
      ],
      "name": "unbundle",
      "outputs": [],
      "stateMutability": "payable",
      "type": "function"
    },
    {
      "inputs": [
        {
          "internalType": "address",
          "name": "receiver",
          "type": "address"
        },
        {
          "internalType": "address",
          "name": "tokenAddress",
          "type": "address"
        },
        {
          "internalType": "uint256",
          "name": "tokenId",
          "type": "uint256"
        },
        {
          "internalType": "string",
          "name": "walletManager",
          "type": "string"
        },
        {
          "internalType": "address[]",
          "name": "erc20s",
          "type": "address[]"
        },
        {
          "components": [
            {
              "internalType": "address",
              "name": "tokenAddress",
              "type": "address"
            },
            {
              "internalType": "uint256",
              "name": "id",
              "type": "uint256"
            }
          ],
          "internalType": "struct IWeb3PacksDefs.NFT[]",
          "name": "nfts",
          "type": "tuple[]"
        },
        {
          "components": [
            {
              "components": [
                {
                  "internalType": "address",
                  "name": "token",
                  "type": "address"
                },
                {
                  "internalType": "uint256",
                  "name": "amount",
                  "type": "uint256"
                }
              ],
              "internalType": "struct IWeb3PacksDefs.TokenAmount",
              "name": "token0",
              "type": "tuple"
            },
            {
              "components": [
                {
                  "internalType": "address",
                  "name": "token",
                  "type": "address"
                },
                {
                  "internalType": "uint256",
                  "name": "amount",
                  "type": "uint256"
                }
              ],
              "internalType": "struct IWeb3PacksDefs.TokenAmount",
              "name": "token1",
              "type": "tuple"
            }
          ],
          "internalType": "struct IWeb3PacksDefs.TokenPairs[]",
          "name": "lps",
          "type": "tuple[]"
        }
      ],
      "name": "unbundleFromManager",
      "outputs": [],
      "stateMutability": "payable",
      "type": "function"
    },
    {
      "inputs": [],
      "name": "unpause",
      "outputs": [],
      "stateMutability": "nonpayable",
      "type": "function"
    },
    {
      "inputs": [
        {
          "internalType": "address payable",
          "name": "receiver",
          "type": "address"
        },
        {
          "internalType": "address",
          "name": "tokenAddress",
          "type": "address"
        },
        {
          "internalType": "uint256",
          "name": "tokenId",
          "type": "uint256"
        },
        {
          "internalType": "uint256",
          "name": "amount",
          "type": "uint256"
        }
      ],
      "name": "withdrawERC1155",
      "outputs": [],
      "stateMutability": "nonpayable",
      "type": "function"
    },
    {
      "inputs": [
        {
          "internalType": "address payable",
          "name": "receiver",
          "type": "address"
        },
        {
          "internalType": "address",
          "name": "tokenAddress",
          "type": "address"
        },
        {
          "internalType": "uint256",
          "name": "tokenId",
          "type": "uint256"
        }
      ],
      "name": "withdrawERC721",
      "outputs": [],
      "stateMutability": "nonpayable",
      "type": "function"
    },
    {
      "inputs": [
        {
          "internalType": "address payable",
          "name": "receiver",
          "type": "address"
        },
        {
          "internalType": "address",
          "name": "tokenAddress",
          "type": "address"
        },
        {
          "internalType": "uint256",
          "name": "amount",
          "type": "uint256"
        }
      ],
      "name": "withdrawErc20",
      "outputs": [],
      "stateMutability": "nonpayable",
      "type": "function"
    },
    {
      "inputs": [
        {
          "internalType": "address payable",
          "name": "receiver",
          "type": "address"
        },
        {
          "internalType": "uint256",
          "name": "amount",
          "type": "uint256"
        }
      ],
      "name": "withdrawEther",
      "outputs": [],
      "stateMutability": "nonpayable",
      "type": "function"
    }
  ],
  "transactionHash": "0x1fef8a7abe8efca5ddb940698fdd7e0da19191f82e533902cb37a457e90d90a7",
  "args": [
    "0x4200000000000000000000000000000000000006",
    "0x76a5df1c6F53A4B80c8c8177edf52FBbC368E825",
    "0x2e8614625226D26180aDf6530C3b1677d3D7cf10",
    "0x0288280Df6221E7e9f23c1BB398c820ae0Aa6c10",
    "0x2691B4f4251408bA4b8bf9530B6961b9D0C1231F"
  ],
  "numDeployments": 2,
  "solcInputHash": "a2327d90cb787ca91da86ea6d3bc578a",
  "bytecode": "0x60c0604052600960809081526833b2b732b934b1972160b91b60a052600a906200002a9082620001ff565b5060408051808201909152600981526833b2b732b934b1972160b91b6020820152600b906200005a9082620001ff565b503480156200006857600080fd5b50604051620056d1380380620056d18339810160408190526200008b91620002e8565b62000096336200010a565b6000805460ff60a01b1916905560018055600280546001600160a01b03199081166001600160a01b0397881617909155600380548216958716959095179094556005805485169386169390931790925560068054841691851691909117905560078054909216921691909117905562000358565b600080546001600160a01b038381166001600160a01b0319831681178455604051919092169283917f8be0079c531659141344cd1fd0a4f28419497f9722a3daafe3b4186f6b6457e09190a35050565b634e487b7160e01b600052604160045260246000fd5b600181811c908216806200018557607f821691505b602082108103620001a657634e487b7160e01b600052602260045260246000fd5b50919050565b601f821115620001fa57600081815260208120601f850160051c81016020861015620001d55750805b601f850160051c820191505b81811015620001f657828155600101620001e1565b5050505b505050565b81516001600160401b038111156200021b576200021b6200015a565b62000233816200022c845462000170565b84620001ac565b602080601f8311600181146200026b5760008415620002525750858301515b600019600386901b1c1916600185901b178555620001f6565b600085815260208120601f198616915b828110156200029c578886015182559484019460019091019084016200027b565b5085821015620002bb5787850151600019600388901b60f8161c191681555b5050505050600190811b01905550565b80516001600160a01b0381168114620002e357600080fd5b919050565b600080600080600060a086880312156200030157600080fd5b6200030c86620002cb565b94506200031c60208701620002cb565b93506200032c60408701620002cb565b92506200033c60608701620002cb565b91506200034c60808701620002cb565b90509295509295909350565b61536980620003686000396000f3fe60806040526004361061011f5760003560e01c8063787dce3d116100a0578063b7683e9311610064578063b7683e9314610315578063bd32661614610335578063dd8542d614610355578063f0f4426014610368578063f2fde38b1461038857600080fd5b8063787dce3d146102775780638456cb59146102975780638da5cb5b146102ac5780639e60fb70146102d4578063a0edb48b146102f557600080fd5b80634025feb2116100e75780634025feb2146101d8578063522f6815146101f85780635c975abb146102185780636e5559fd14610242578063715018a61461026257600080fd5b80630846f99e14610124578063150b7a02146101465780631593dee114610190578063197b6c87146101b05780633f4ba83a146101c3575b600080fd5b34801561013057600080fd5b5061014461013f366004613f27565b6103a8565b005b34801561015257600080fd5b50610172610161366004613f85565b630a85bd0160e11b95945050505050565b6040516001600160e01b031990911681526020015b60405180910390f35b34801561019c57600080fd5b506101446101ab366004613ff7565b610455565b6101446101be366004614104565b61046d565b3480156101cf57600080fd5b5061014461064f565b3480156101e457600080fd5b506101446101f3366004613ff7565b610661565b34801561020457600080fd5b506101446102133660046141ce565b610674565b34801561022457600080fd5b50600054600160a01b900460ff166040519015158152602001610187565b34801561024e57600080fd5b5061014461025d366004613f27565b61068a565b34801561026e57600080fd5b5061014461073e565b34801561028357600080fd5b506101446102923660046141fa565b610750565b3480156102a357600080fd5b50610144610793565b3480156102b857600080fd5b506000546040516001600160a01b039091168152602001610187565b6102e76102e2366004614270565b6107a3565b604051908152602001610187565b34801561030157600080fd5b5061014461031036600461434e565b6108f7565b34801561032157600080fd5b50610144610330366004613f27565b610911565b34801561034157600080fd5b50610144610350366004613f27565b6109b9565b610144610363366004614394565b610a61565b34801561037457600080fd5b50610144610383366004613f27565b610be4565b34801561039457600080fd5b506101446103a3366004613f27565b610c8c565b6103b0610d05565b6001600160a01b03811661040b5760405162461bcd60e51b815260206004820152601b60248201527f496e76616c6964206164647265737320666f72206d616e61676572000000000060448201526064015b60405180910390fd5b600480546001600160a01b0319166001600160a01b0383169081179091556040517f29c3be2a07cd721ad5a371231bdf132e57fbe87625b604811898342f90c9582f90600090a250565b61045d610d05565b610468838383610d5f565b505050565b610475610e5a565b61047d610ea7565b6104876000610f00565b610605898989600a805461049a90614489565b80601f01602080910402602001604051908101604052809291908181526020018280546104c690614489565b80156105135780601f106104e857610100808354040283529160200191610513565b820191906000526020600020905b8154815290600101906020018083116104f657829003601f168201915b50505050508a8a80806020026020016040519081016040528093929190818152602001838360200280828437600081840152601f19601f820116905080830192505050505050508989808060200260200160405190810160405280939291908181526020016000905b828210156105a857610599604083028601368190038101906145cf565b8152602001906001019061057c565b50505050508888808060200260200160405190810160405280939291908181526020016000905b828210156105fb576105ec608083028601368190038101906145eb565b815260200190600101906105cf565b5050505050611004565b6040516001600160a01b038a169088907fa93981b9cfa5fc675dd31c2c87b0d4f1f590180abd86d15f509ccb544775b2b990600090a361064460018055565b505050505050505050565b610657610d05565b61065f6112cc565b565b610669610d05565b610468838383611321565b61067c610d05565b610686828261146e565b5050565b610692610d05565b6001600160a01b0381166106f45760405162461bcd60e51b8152602060048201526024808201527f496e76616c6964206164647265737320666f7220636861726765645061727469604482015263636c657360e01b6064820152608401610402565b600680546001600160a01b0319166001600160a01b0383169081179091556040517f5ce0e6b7fd36339ee97339831b6c72694ecee88c62aab49919d9cabe0a732e4190600090a250565b610746610d05565b61065f60006114f4565b610758610d05565b60098190556040518181527fdb5aafdb29539329e37d4e3ee869bc4031941fd55a5dfc92824fbe34b204e30d9060200160405180910390a150565b61079b610d05565b61065f611544565b60006107ad610e5a565b6107b5610ea7565b6107be82610f00565b6107fd8b8b8080601f01602080910402602001604051908101604052809392919081815260200183838082843760009201919091525061158792505050565b90506108098989611605565b610814878783611657565b61081f8585836116ab565b61082983826116fa565b6003546001600160a01b03166342842e0e30336040516001600160e01b031960e085901b1681526001600160a01b0392831660048201529116602482015260448101849052606401600060405180830381600087803b15801561088b57600080fd5b505af115801561089f573d6000803e3d6000fd5b505050506108aa3390565b6001600160a01b0316817ff8779000d9fe2bd438edb299891b05fae0b929d746d3c3e5560d065c690f357d60405160405180910390a36108e960018055565b9a9950505050505050505050565b6108ff610d05565b61090b848484846117f1565b50505050565b610919610d05565b6001600160a01b03811661096f5760405162461bcd60e51b815260206004820181905260248201527f496e76616c6964206164647265737320666f72206368617267656453746174656044820152606401610402565b600680546001600160a01b0319166001600160a01b0383169081179091556040517f62ff39aed768a426c7582b6e1062ab2631df1869b2d574e36f8274d2e2b0ab8190600090a250565b6109c1610d05565b6001600160a01b038116610a175760405162461bcd60e51b815260206004820152601a60248201527f496e76616c6964206164647265737320666f722070726f746f6e0000000000006044820152606401610402565b600380546001600160a01b0319166001600160a01b0383169081179091556040517fa3d7b0fff2d93a7ba440166a8f7eba4acfe6e000fe19b8218e64264d62ef272690600090a250565b610a69610e5a565b610a71610ea7565b610a7b6000610f00565b610b988b8b8b8b8b8080601f01602080910402602001604051908101604052809392919081815260200183838082843760009201919091525050604080516020808f0282810182019093528e82529093508e92508d918291850190849080828437600081840152601f19601f820116905080830192505050505050508989808060200260200160405190810160405280939291908181526020016000905b82821015610b4557610b36604083028601368190038101906145cf565b81526020019060010190610b19565b50505050508888808060200260200160405190810160405280939291908181526020016000905b828210156105fb57610b89608083028601368190038101906145eb565b81526020019060010190610b6c565b6040516001600160a01b038c16908a907fa93981b9cfa5fc675dd31c2c87b0d4f1f590180abd86d15f509ccb544775b2b990600090a3610bd760018055565b5050505050505050505050565b610bec610d05565b6001600160a01b038116610c425760405162461bcd60e51b815260206004820152601c60248201527f496e76616c6964206164647265737320666f72207472656173757279000000006044820152606401610402565b600880546001600160a01b0319166001600160a01b0383169081179091556040517febbf9e77f4905707c811ea2da45f04b959c1132fecd092aae1fe0dac5b176c3290600090a250565b610c94610d05565b6001600160a01b038116610cf95760405162461bcd60e51b815260206004820152602660248201527f4f776e61626c653a206e6577206f776e657220697320746865207a65726f206160448201526564647265737360d01b6064820152608401610402565b610d02816114f4565b50565b6000546001600160a01b0316331461065f5760405162461bcd60e51b815260206004820181905260248201527f4f776e61626c653a2063616c6c6572206973206e6f7420746865206f776e65726044820152606401610402565b6001600160a01b038316610d855760405162461bcd60e51b81526004016104029061462a565b6040516370a0823160e01b815230600482015281906001600160a01b038416906370a0823190602401602060405180830381865afa158015610dcb573d6000803e3d6000fd5b505050506040513d601f19601f82011682018060405250810190610def919061464d565b1061046857610e086001600160a01b038316848361195c565b816001600160a01b0316836001600160a01b03167f6c9d637297625e945b296ff73a71fcfbd0a9e062652b6491a921c4c60194176b83604051610e4d91815260200190565b60405180910390a3505050565b600054600160a01b900460ff161561065f5760405162461bcd60e51b815260206004820152601060248201526f14185d5cd8589b194e881c185d5cd95960821b6044820152606401610402565b600260015403610ef95760405162461bcd60e51b815260206004820152601f60248201527f5265656e7472616e637947756172643a207265656e7472616e742063616c6c006044820152606401610402565b6002600155565b6000600954118015610f1e575080600954610f1b919061467c565b34105b15610f505760095460405163562cac4d60e01b8152346004820152602481018390526044810191909152606401610402565b6000610f5c823461468f565b6008546040519192506000916001600160a01b039091169083908381818185875af1925050503d8060008114610fae576040519150601f19603f3d011682016040523d82523d6000602084013e610fb3565b606091505b50509050806104685760405162461bcd60e51b815260206004820152601f60248201527f4661696c656420746f2073656e64206665657320746f205472656173757279006044820152606401610402565b6040516331a9108f60e11b8152600481018690526000906001600160a01b03881690636352211e90602401602060405180830381865afa15801561104c573d6000803e3d6000fd5b505050506040513d601f19601f8201168201806040525081019061107091906146ad565b9050336001600160a01b0382161461109b57604051636d8a29e760e11b815260040160405180910390fd5b60005b84518110156111935760006001600160a01b03168582815181106110c4576110c46146ca565b60200260200101516001600160a01b03161461118157600660009054906101000a90046001600160a01b03166001600160a01b031663acab923c8a8a8a8a8a8781518110611114576111146146ca565b60200260200101516040518663ffffffff1660e01b815260040161113c959493929190614730565b60408051808303816000875af115801561115a573d6000803e3d6000fd5b505050506040513d601f19601f8201168201806040525081019061117e9190614775565b50505b8061118b81614799565b91505061109e565b5060005b83518110156112b65760006001600160a01b03168482815181106111bd576111bd6146ca565b6020026020010151600001516001600160a01b0316146112a457600660009054906101000a90046001600160a01b03166001600160a01b031663fe02fb008a8a8a8a898781518110611211576112116146ca565b6020026020010151600001518a888151811061122f5761122f6146ca565b60200260200101516020015160016040518863ffffffff1660e01b815260040161125f97969594939291906147b2565b6020604051808303816000875af115801561127e573d6000803e3d6000fd5b505050506040513d601f19601f820116820180604052508101906112a2919061480e565b505b806112ae81614799565b915050611197565b506112c28689846119ae565b5050505050505050565b6112d4611b4f565b6000805460ff60a01b191690557f5db9ee0a495bf2e6ff9c91a7834c1ba4fdd244a5e8aa4e537bd38aeae4b073aa335b6040516001600160a01b03909116815260200160405180910390a1565b6001600160a01b0383166113475760405162461bcd60e51b81526004016104029061462a565b6040516331a9108f60e11b81526004810182905230906001600160a01b03841690636352211e90602401602060405180830381865afa15801561138e573d6000803e3d6000fd5b505050506040513d601f19601f820116820180604052508101906113b291906146ad565b6001600160a01b031603610468576040516323b872dd60e01b81523060048201526001600160a01b038481166024830152604482018390528316906323b872dd90606401600060405180830381600087803b15801561141057600080fd5b505af1158015611424573d6000803e3d6000fd5b5050505080826001600160a01b0316846001600160a01b03167ffefe036cac4ee3a4aca074a81cbcc4376e1484693289078dbec149c890101d5b60405160405180910390a4505050565b6001600160a01b0382166114945760405162461bcd60e51b81526004016104029061462a565b804710610686576114ae6001600160a01b03831682611b9f565b816001600160a01b03167eddb683bb45cd5d0ad8a200c6fae7152b1c236ee90a4a37db692407f5cc38bd826040516114e891815260200190565b60405180910390a25050565b600080546001600160a01b038381166001600160a01b0319831681178455604051919092169283917f8be0079c531659141344cd1fd0a4f28419497f9722a3daafe3b4186f6b6457e09190a35050565b61154c610e5a565b6000805460ff60a01b1916600160a01b1790557f62e78cea01bee320cd4e420270b5ea74000d11b0c9f74754ebdbfc544b05a2586113043390565b600354604051632c0cd5a360e01b81526000916001600160a01b031690632c0cd5a3906115bc9030908190879060040161482b565b6020604051808303816000875af11580156115db573d6000803e3d6000fd5b505050506040513d601f19601f820116820180604052508101906115ff919061464d565b92915050565b60005b8181101561046857611645838383818110611625576116256146ca565b90506020028101906116379190614860565b611640906148ef565b611cb8565b8061164f81614799565b915050611608565b60005b8281101561090b57611698848483818110611677576116776146ca565b9050602002810190611689919061496d565b6116929061499c565b83611d43565b50806116a381614799565b91505061165a565b60005b8281101561090b576116e88484838181106116cb576116cb6146ca565b90506101c002018036038101906116e29190614a78565b83612027565b806116f281614799565b9150506116ae565b8135156117715760075460035460405163048001e960e11b81526001600160a01b039182166004820152602481018490528435604482015291169063090003d290606401600060405180830381600087803b15801561175857600080fd5b505af115801561176c573d6000803e3d6000fd5b505050505b60208201351561068657600754600354604051639079900160e01b81526001600160a01b0391821660048201526024810184905260208501356044820152911690639079900190606401600060405180830381600087803b1580156117d557600080fd5b505af11580156117e9573d6000803e3d6000fd5b505050505050565b6001600160a01b0384166118175760405162461bcd60e51b81526004016104029061462a565b604051627eeac760e11b81523060048201526024810183905281906001600160a01b0385169062fdd58e90604401602060405180830381865afa158015611862573d6000803e3d6000fd5b505050506040513d601f19601f82011682018060405250810190611886919061464d565b1061090b57604051637921219560e11b81523060048201526001600160a01b038581166024830152604482018490526064820183905260a06084830152600060a483015284169063f242432a9060c401600060405180830381600087803b1580156118f057600080fd5b505af1158015611904573d6000803e3d6000fd5b5050505081836001600160a01b0316856001600160a01b03167f620337bf89eea2b9ae2657beead83b5fa620452817118348aff96e201d52598b8460405161194e91815260200190565b60405180910390a450505050565b604080516001600160a01b038416602482015260448082018490528251808303909101815260649091019091526020810180516001600160e01b031663a9059cbb60e01b179052610468908490612540565b60048054604051630c71c67f60e41b8152918201859052600091829182916001600160a01b039091169063c71c67f0906024016000604051808303816000875af1158015611a00573d6000803e3d6000fd5b505050506040513d6000823e601f3d908101601f19168201604052611a289190810190614b86565b905060005b8151811015611aea576000828281518110611a4a57611a4a6146ca565b602002602001015190506000868381518110611a6857611a686146ca565b60200260200101519050611a7c828a612612565b611a8682826128b4565b909650945060018260e001516003811115611aa357611aa3614c99565b03611ab757611ab182612f17565b90965094505b611ac682606001518988612fdb565b611ad582608001518987612fdb565b50508080611ae290614799565b915050611a2d565b506004805460405163ed00ebf560e01b81529182018890526001600160a01b03169063ed00ebf590602401600060405180830381600087803b158015611b2f57600080fd5b505af1158015611b43573d6000803e3d6000fd5b50505050505050505050565b600054600160a01b900460ff1661065f5760405162461bcd60e51b815260206004820152601460248201527314185d5cd8589b194e881b9bdd081c185d5cd95960621b6044820152606401610402565b80471015611bef5760405162461bcd60e51b815260206004820152601d60248201527f416464726573733a20696e73756666696369656e742062616c616e63650000006044820152606401610402565b6000826001600160a01b03168260405160006040518083038185875af1925050503d8060008114611c3c576040519150601f19603f3d011682016040523d82523d6000602084013e611c41565b606091505b50509050806104685760405162461bcd60e51b815260206004820152603a60248201527f416464726573733a20756e61626c6520746f2073656e642076616c75652c207260448201527f6563697069656e74206d617920686176652072657665727465640000000000006064820152608401610402565b611cc581602001516130db565b60008082602001516001600160a01b031683604001518460000151604051611ced9190614caf565b60006040518083038185875af1925050503d8060008114611d2a576040519150601f19603f3d011682016040523d82523d6000602084013e611d2f565b606091505b509150915081610468578051602082018181fd5b6000611d5283602001516130db565b611d6983604001518460200151856080015161316a565b60038361012001516003811115611d8257611d82614c99565b03611e7b576040805160c081018252610100850151815260006020808301829052868401516001600160a01b03908116848601526060808901518216818601526080808a0151818701528651808501885285815260a08088019190915287519182018852308083528286018790528289015291810194909452918801519188015194516352bbbe2960e01b8152939492939116916352bbbe2991611e2f9186918691904290600401614cc1565b6020604051808303816000875af1158015611e4e573d6000803e3d6000fd5b505050506040513d601f19601f82011682018060405250810190611e72919061464d565b92505050611fb4565b60008084602001516001600160a01b03168560c001518660000151604051611ea39190614caf565b60006040518083038185875af1925050503d8060008114611ee0576040519150601f19603f3d011682016040523d82523d6000602084013e611ee5565b606091505b509150915081611ef9578051602082018181fd5b60008561012001516003811115611f1257611f12614c99565b1480611f34575060028561012001516003811115611f3257611f32614c99565b145b15611f7c57600081806020019051810190611f4f9190614d83565b90508060018251611f60919061468f565b81518110611f7057611f706146ca565b60200260200101519350505b60018561012001516003811115611f9557611f95614c99565b03611fb15780806020019051810190611fae919061464d565b92505b50505b60e0830151611fd157611fcc82846060015183613263565b6115ff565b60408051808201825260608501516001600160a01b039081168252602080830185815260e08801516000908152600c909252939020915182546001600160a01b0319169116178155905160019091015592915050565b8151612032906130db565b6002546040516370a0823160e01b81523060048201526000916001600160a01b0316906370a0823190602401602060405180830381865afa15801561207b573d6000803e3d6000fd5b505050506040513d601f19601f8201168201806040525081019061209f919061464d565b905060008060008060008060008019168960600151036120e357602089015160405163bf6ada5160e01b81526001600160a01b039091166004820152602401610402565b630ae8aa8960e31b8960600151146121745760608901516000908152600c6020908152604090912054908a01516001600160a01b0390811691161461213b5760405163d0e96f5b60e01b815260040160405180910390fd5b6060890180516000908152600c60205260408082206001908101549351835290822080546001600160a01b031916815501559550612178565b8695505b60808901516121ab576040808a0151905163bf6ada5160e01b81526001600160a01b039091166004820152602401610402565b630ae8aa8960e31b89608001511461223b5760808901516000908152600c60205260409081902054908a01516001600160a01b039081169116146122025760405163d0e96f5b60e01b815260040160405180910390fd5b6080890180516000908152600c60205260408082206001908101549351835290822080546001600160a01b03191681550155945061223f565b8694505b6127108960a00151876122529190614e08565b61225c9190614e1f565b95506127108960c00151866122719190614e08565b61227b9190614e1f565b945060006127108a6101000151612710612295919061468f565b61229f9089614e08565b6122a99190614e1f565b905060006127108b61010001516127106122c3919061468f565b6122cd9089614e08565b6122d79190614e1f565b905060018b6101a0015160038111156122f2576122f2614c99565b036123345760208b015160055461231391906001600160a01b03168a61316a565b60408b015160055461232f91906001600160a01b03168961316a565b61235a565b6123478b602001518c600001518a61316a565b61235a8b604001518c600001518961316a565b60038b6101a00151600381111561237357612373614c99565b0361238f576123848b8b8a8a613370565b929850909650945092505b60028b6101a0015160038111156123a8576123a8614c99565b036123c6576123bb8b8b8a8a868661371d565b929850909650945092505b60008b6101a0015160038111156123df576123df614c99565b036123fd576123f28b8b8a8a8686613834565b929850909650945092505b60018b6101a00151600381111561241657612416614c99565b03612434576124298b8b8a8a86866138a9565b929850909650945092505b60006040518061010001604052808881526020018781526020018d6101600151151581526020018d602001516001600160a01b031681526020018d604001516001600160a01b031681526020018d610180015181526020018d600001516001600160a01b031681526020018d6101a0015160038111156124b6576124b6614c99565b9052600480546040516375f30fe960e11b81529293506001600160a01b03169163ebe61fd2916124ea918f91869101614e5e565b600060405180830381600087803b15801561250457600080fd5b505af1158015612518573d6000803e3d6000fd5b505050506125328c60200151868b8f60400151888d613a7a565b505050505050505050505050565b6000612595826040518060400160405280602081526020017f5361666545524332303a206c6f772d6c6576656c2063616c6c206661696c6564815250856001600160a01b0316613af99092919063ffffffff16565b80519091501561046857808060200190518101906125b3919061480e565b6104685760405162461bcd60e51b815260206004820152602a60248201527f5361666545524332303a204552433230206f7065726174696f6e20646964206e6044820152691bdd081cdd58d8d9595960b21b6064820152608401610402565b60038260e00151600381111561262a5761262a614c99565b0361272b5760c082015160a083015160405163f6c0092760e01b815260048101919091526000916001600160a01b03169063f6c00927906024016040805180830381865afa158015612680573d6000803e3d6000fd5b505050506040513d601f19601f820116820180604052508101906126a49190614ee9565b50600654600354604051632b2ae48f60e21b81529293506001600160a01b039182169263acab923c926126e59230929116908790600b908890600401614fcb565b60408051808303816000875af1158015612703573d6000803e3d6000fd5b505050506040513d601f19601f820116820180604052508101906127279190614775565b5050505b60008260e00151600381111561274357612743614c99565b1480612764575060028260e00151600381111561276257612762614c99565b145b1561280d5760006127878360e001518460c0015185606001518660800151613b10565b600654600354604051632b2ae48f60e21b81529293506001600160a01b039182169263acab923c926127c79230929116908790600b908890600401614fcb565b60408051808303816000875af11580156127e5573d6000803e3d6000fd5b505050506040513d601f19601f820116820180604052508101906128099190614775565b5050505b60018260e00151600381111561282557612825614c99565b0361068657600654600354600554845160405162fe02fb60e81b81526001600160a01b039485169463fe02fb0094612871943094918316938993600b9392169190600190600401614ffb565b6020604051808303816000875af1158015612890573d6000803e3d6000fd5b505050506040513d601f19601f82011682018060405250810190610468919061480e565b60008060038460e0015160038111156128cf576128cf614c99565b03612bf55760c084015160a085015160405163f6c0092760e01b815260048101919091526000916001600160a01b03169063f6c00927906024016040805180830381865afa158015612925573d6000803e3d6000fd5b505050506040513d601f19601f820116820180604052508101906129499190614ee9565b506040805160028082526060820183529293506000929091602083019080368337019050509050856060015181600081518110612988576129886146ca565b60200260200101906001600160a01b031690816001600160a01b0316815250508560800151816001815181106129c0576129c06146ca565b6001600160a01b0392909216602092830291909101820152604080516002808252606082018352600093919290918301908036833701905050905085600001516020015181600081518110612a1757612a176146ca565b60200260200101818152505085602001516020015181600181518110612a3f57612a3f6146ca565b602002602001018181525050612a5e838860c00151896020015161316a565b600060018860200151604051602001612a7892919061502b565b60408051601f19818403018152608083018252858352602083018590528282018190526000606084015260c08b015160a08c01519251638bdb391360e01b81529194506001600160a01b031691638bdb391391612ade919030908190879060040161510c565b600060405180830381600087803b158015612af857600080fd5b505af1158015612b0c573d6000803e3d6000fd5b50505060608a01516040516370a0823160e01b81523060048201526001600160a01b0390911691506370a0823190602401602060405180830381865afa158015612b5a573d6000803e3d6000fd5b505050506040513d601f19601f82011682018060405250810190612b7e919061464d565b60808a01516040516370a0823160e01b81523060048201529198506001600160a01b0316906370a0823190602401602060405180830381865afa158015612bc9573d6000803e3d6000fd5b505050506040513d601f19601f82011682018060405250810190612bed919061464d565b955050505050505b60028460e001516003811115612c0d57612c0d614c99565b03612d0d576000612c308560e001518660c0015187606001518860800151613b10565b9050612c45818660c00151876020015161316a565b60c0850151606086015160808701516040808901516020808b01518a518201518b83015190920151935163037b79b160e21b81526001600160a01b039687166004820152948616602486015291151560448501526064840191909152608483015260a48201523060c48201524260e4820152911690630dede6c4906101040160408051808303816000875af1158015612ce2573d6000803e3d6000fd5b505050506040513d601f19601f82011682018060405250810190612d069190614775565b9093509150505b60008460e001516003811115612d2557612d25614c99565b03612e1a576000612d488560e001518660c0015187606001518860800151613b10565b9050612d5d818660c00151876020015161316a565b60c08501516060860151608087015160208089015188518201518983015190920151604051635d5155ef60e11b81526001600160a01b03958616600482015293851660248501526044840191909152606483019190915260848201523060a48201524260c482015291169063baa2abde9060e40160408051808303816000875af1158015612def573d6000803e3d6000fd5b505050506040513d601f19601f82011682018060405250810190612e139190614775565b9093509150505b60018460e001516003811115612e3257612e32614c99565b03612f10576040805160a081018252855181526020808701516001600160801b03908116828401908152875183015184860190815288840151909301516060850190815242608086019081526005549651630624e65f60e11b81528651600482015292519093166024830152925160448201529151606483015251608482015290916001600160a01b031690630c49ccbe9060a40160408051808303816000875af1158015612ee5573d6000803e3d6000fd5b505050506040513d601f19601f82011682018060405250810190612f099190614775565b9093509150505b9250929050565b604080516080810182528251815230602082019081526001600160801b0382840181815260608401828152600554955163fc6f786560e01b81528551600482015293516001600160a01b03908116602486015291518316604485015251909116606483015260009384939291169063fc6f78659060840160408051808303816000875af1158015612fac573d6000803e3d6000fd5b505050506040513d601f19601f82011682018060405250810190612fd09190614775565b909590945092505050565b604080516001600160a01b038481166024830152604480830185905283518084039091018152606490920183526020820180516001600160e01b031663a9059cbb60e01b17905291516000928392908716916130379190614caf565b6000604051808303816000865af19150503d8060008114613074576040519150601f19603f3d011682016040523d82523d6000602084013e613079565b606091505b50915091508180156130a35750805115806130a35750808060200190518101906130a3919061480e565b6130d45760405162461bcd60e51b815260206004820152600260248201526114d560f21b6044820152606401610402565b5050505050565b60048054604051636f2ddb5f60e01b81526001600160a01b0384811693820193909352911690636f2ddb5f906024016020604051808303816000875af1158015613129573d6000803e3d6000fd5b505050506040513d601f19601f8201168201806040525081019061314d919061480e565b610d02576040516311970e2d60e31b815260040160405180910390fd5b604080516001600160a01b038481166024830152604480830185905283518084039091018152606490920183526020820180516001600160e01b031663095ea7b360e01b17905291516000928392908716916131c69190614caf565b6000604051808303816000865af19150503d8060008114613203576040519150601f19603f3d011682016040523d82523d6000602084013e613208565b606091505b5091509150818015613232575080511580613232575080806020019051810190613232919061480e565b6130d45760405162461bcd60e51b8152602060048201526002602482015261534160f01b6044820152606401610402565b806000036132d6576040516370a0823160e01b81523060048201526001600160a01b038316906370a0823190602401602060405180830381865afa1580156132af573d6000803e3d6000fd5b505050506040513d601f19601f820116820180604052508101906132d3919061464d565b90505b6006546132ee9083906001600160a01b03168361316a565b6006546003546040516305eef16560e11b81526001600160a01b0392831692630bdde2ca9261332d929116908790600a9088908890309060040161513e565b6020604051808303816000875af115801561334c573d6000803e3d6000fd5b505050506040513d601f19601f8201168201806040525081019061090b919061464d565b600080600080600088600001516001600160a01b031663f6c009278a61018001516040518263ffffffff1660e01b81526004016133af91815260200190565b6040805180830381865afa1580156133cb573d6000803e3d6000fd5b505050506040513d601f19601f820116820180604052508101906133ef9190614ee9565b50604080516002808252606082018352929350600092909160208301908036833701905050905089602001518160008151811061342e5761342e6146ca565b60200260200101906001600160a01b031690816001600160a01b031681525050896040015181600181518110613466576134666146ca565b6001600160a01b0392909216602092830291909101820152604080516002808252606082018352600093919290918301908036833701905050905088816000815181106134b5576134b56146ca565b60200260200101818152505087816001815181106134d5576134d56146ca565b60200260200101818152505060006001828d60e001516040516020016134fd93929190615186565b6040516020818303038152906040529050600060405180608001604052808581526020018481526020018381526020016000151581525090508c600001516001600160a01b031663b95cac288e61018001513030856040518563ffffffff1660e01b8152600401613571949392919061510c565b600060405180830381600087803b15801561358b57600080fd5b505af115801561359f573d6000803e3d6000fd5b50506040516370a0823160e01b81523060048201526001600160a01b0388169b508b92506370a082319150602401602060405180830381865afa1580156135ea573d6000803e3d6000fd5b505050506040513d601f19601f8201168201806040525081019061360e919061464d565b60208e01516040516370a0823160e01b81523060048201529199506001600160a01b0316906370a0823190602401602060405180830381865afa158015613659573d6000803e3d6000fd5b505050506040513d601f19601f8201168201806040525081019061367d919061464d565b613687908c61468f565b6040808f015190516370a0823160e01b81523060048201529198506001600160a01b0316906370a0823190602401602060405180830381865afa1580156136d2573d6000803e3d6000fd5b505050506040513d601f19601f820116820180604052508101906136f6919061464d565b613700908b61468f565b955061370d8c868a613263565b5050505050945094509450949050565b855160208701516040808901516101608a01519151635a47ddc360e01b81526001600160a01b03938416600482015290831660248201529015156044820152606481018790526084810186905260a4810185905260c481018490523060e4820152426101048201526000928392839283929190911690635a47ddc390610124015b6060604051808303816000875af11580156137bd573d6000803e3d6000fd5b505050506040513d601f19601f820116820180604052508101906137e191906151b8565b809550819350829450505050600061380c8b6101a001518c600001518d602001518e60400151613b10565b9050806001600160a01b031694506138268a826000613263565b509650965096509692505050565b85516020870151604080890151905162e8e33760e81b81526001600160a01b039283166004820152908216602482015260448101879052606481018690526084810185905260a481018490523060c48201524260e4820152600092839283928392919091169063e8e33700906101040161379e565b60008060008060006040518061014001604052808c602001516001600160a01b031681526020018c604001516001600160a01b031681526020018c610120015160020b81526020018c610140015160020b81526020018a8152602001898152602001888152602001878152602001306001600160a01b03168152602001428152509050600560009054906101000a90046001600160a01b03166001600160a01b0316639cc1a283826040518263ffffffff1660e01b815260040161396d91906151e6565b6080604051808303816000875af115801561398c573d6000803e3d6000fd5b505050506040513d601f19601f820116820180604052508101906139b09190615291565b600354600b8054959a506001600160801b0390941698509196509450613826926001600160a01b03909116918d916139e790614489565b80601f0160208091040260200160405190810160405280929190818152602001828054613a1390614489565b8015613a605780601f10613a3557610100808354040283529160200191613a60565b820191906000526020600020905b815481529060010190602001808311613a4357829003601f168201915b50506005546001600160a01b031692508b9150613c369050565b83851015613ab757600554613a9b9087906001600160a01b0316600061316a565b6000613aa7868661468f565b9050613ab587335b83612fdb565b505b808210156117e957600554613ad89084906001600160a01b0316600061316a565b6000613ae4838361468f565b9050613af08433613aaf565b50505050505050565b6060613b088484600085613d1a565b949350505050565b60006002856003811115613b2657613b26614c99565b03613bab5760405163147585a560e11b81526001600160a01b0384811660048301528381166024830152600060448301528516906328eb0b4a90606401602060405180830381865afa158015613b80573d6000803e3d6000fd5b505050506040513d601f19601f82011682018060405250810190613ba491906146ad565b9050613b08565b6000613bb685613df5565b60405163e6a4390560e01b81526001600160a01b03868116600483015285811660248301529192509082169063e6a4390590604401602060405180830381865afa158015613c08573d6000803e3d6000fd5b505050506040513d601f19601f82011682018060405250810190613c2c91906146ad565b9695505050505050565b60065460405163a22cb46560e01b81526001600160a01b039182166004820152600160248201529083169063a22cb46590604401600060405180830381600087803b158015613c8457600080fd5b505af1158015613c98573d6000803e3d6000fd5b5050600654604051630ffe55b360e21b81526001600160a01b039091169250633ff956cc9150613cd790889088908890889088906001906004016152db565b6020604051808303816000875af1158015613cf6573d6000803e3d6000fd5b505050506040513d601f19601f820116820180604052508101906117e9919061480e565b606082471015613d7b5760405162461bcd60e51b815260206004820152602660248201527f416464726573733a20696e73756666696369656e742062616c616e636520666f6044820152651c8818d85b1b60d21b6064820152608401610402565b600080866001600160a01b03168587604051613d979190614caf565b60006040518083038185875af1925050503d8060008114613dd4576040519150601f19603f3d011682016040523d82523d6000602084013e613dd9565b606091505b5091509150613dea87838387613e64565b979650505050505050565b600080829050806001600160a01b031663c45a01556040518163ffffffff1660e01b8152600401602060405180830381865afa158015613e39573d6000803e3d6000fd5b505050506040513d601f19601f82011682018060405250810190613e5d91906146ad565b9392505050565b60608315613ed3578251600003613ecc576001600160a01b0385163b613ecc5760405162461bcd60e51b815260206004820152601d60248201527f416464726573733a2063616c6c20746f206e6f6e2d636f6e74726163740000006044820152606401610402565b5081613b08565b613b088383815115613ee85781518083602001fd5b8060405162461bcd60e51b81526004016104029190615320565b6001600160a01b0381168114610d0257600080fd5b8035613f2281613f02565b919050565b600060208284031215613f3957600080fd5b8135613e5d81613f02565b60008083601f840112613f5657600080fd5b5081356001600160401b03811115613f6d57600080fd5b602083019150836020828501011115612f1057600080fd5b600080600080600060808688031215613f9d57600080fd5b8535613fa881613f02565b94506020860135613fb881613f02565b93506040860135925060608601356001600160401b03811115613fda57600080fd5b613fe688828901613f44565b969995985093965092949392505050565b60008060006060848603121561400c57600080fd5b833561401781613f02565b9250602084013561402781613f02565b929592945050506040919091013590565b60008083601f84011261404a57600080fd5b5081356001600160401b0381111561406157600080fd5b6020830191508360208260051b8501011115612f1057600080fd5b60008083601f84011261408e57600080fd5b5081356001600160401b038111156140a557600080fd5b6020830191508360208260061b8501011115612f1057600080fd5b60008083601f8401126140d257600080fd5b5081356001600160401b038111156140e957600080fd5b6020830191508360208260071b8501011115612f1057600080fd5b600080600080600080600080600060c08a8c03121561412257600080fd5b893561412d81613f02565b985060208a013561413d81613f02565b975060408a0135965060608a01356001600160401b038082111561416057600080fd5b61416c8d838e01614038565b909850965060808c013591508082111561418557600080fd5b6141918d838e0161407c565b909650945060a08c01359150808211156141aa57600080fd5b506141b78c828d016140c0565b915080935050809150509295985092959850929598565b600080604083850312156141e157600080fd5b82356141ec81613f02565b946020939093013593505050565b60006020828403121561420c57600080fd5b5035919050565b60008083601f84011261422557600080fd5b5081356001600160401b0381111561423c57600080fd5b6020830191508360206101c083028501011115612f1057600080fd5b60006040828403121561426a57600080fd5b50919050565b60008060008060008060008060008060e08b8d03121561428f57600080fd5b8a356001600160401b03808211156142a657600080fd5b6142b28e838f01613f44565b909c509a5060208d01359150808211156142cb57600080fd5b6142d78e838f01614038565b909a50985060408d01359150808211156142f057600080fd5b6142fc8e838f01614038565b909850965060608d013591508082111561431557600080fd5b506143228d828e01614213565b909550935061433690508c60808d01614258565b915060c08b013590509295989b9194979a5092959850565b6000806000806080858703121561436457600080fd5b843561436f81613f02565b9350602085013561437f81613f02565b93969395505050506040820135916060013590565b600080600080600080600080600080600060e08c8e0312156143b557600080fd5b6143be8c613f17565b9a506143cc60208d01613f17565b995060408c013598506001600160401b038060608e013511156143ee57600080fd5b6143fe8e60608f01358f01613f44565b909950975060808d013581101561441457600080fd5b6144248e60808f01358f01614038565b909750955060a08d013581101561443a57600080fd5b61444a8e60a08f01358f0161407c565b909550935060c08d013581101561446057600080fd5b506144718d60c08e01358e016140c0565b81935080925050509295989b509295989b9093969950565b600181811c9082168061449d57607f821691505b60208210810361426a57634e487b7160e01b600052602260045260246000fd5b634e487b7160e01b600052604160045260246000fd5b604080519081016001600160401b03811182821017156144f5576144f56144bd565b60405290565b60405161014081016001600160401b03811182821017156144f5576144f56144bd565b6040516101c081016001600160401b03811182821017156144f5576144f56144bd565b60405161010081016001600160401b03811182821017156144f5576144f56144bd565b604051601f8201601f191681016001600160401b038111828210171561458c5761458c6144bd565b604052919050565b6000604082840312156145a657600080fd5b6145ae6144d3565b905081356145bb81613f02565b808252506020820135602082015292915050565b6000604082840312156145e157600080fd5b613e5d8383614594565b6000608082840312156145fd57600080fd5b6146056144d3565b61460f8484614594565b815261461e8460408501614594565b60208201529392505050565b6020808252600990820152684248503a452d34303360b81b604082015260600190565b60006020828403121561465f57600080fd5b5051919050565b634e487b7160e01b600052601160045260246000fd5b808201808211156115ff576115ff614666565b818103818111156115ff576115ff614666565b8051613f2281613f02565b6000602082840312156146bf57600080fd5b8151613e5d81613f02565b634e487b7160e01b600052603260045260246000fd5b60005b838110156146fb5781810151838201526020016146e3565b50506000910152565b6000815180845261471c8160208601602086016146e0565b601f01601f19169290920160200192915050565b600060018060a01b038088168352808716602084015285604084015260a0606084015261476060a0840186614704565b91508084166080840152509695505050505050565b6000806040838503121561478857600080fd5b505080516020909101519092909150565b6000600182016147ab576147ab614666565b5060010190565b600060018060a01b03808a168352808916602084015287604084015260e060608401526147e260e0840188614704565b951660808301525060a081019290925260c090910152949350505050565b8015158114610d0257600080fd5b60006020828403121561482057600080fd5b8151613e5d81614800565b6001600160a01b0384811682528316602082015260606040820181905260009061485790830184614704565b95945050505050565b60008235605e1983360301811261487657600080fd5b9190910192915050565b600082601f83011261489157600080fd5b81356001600160401b038111156148aa576148aa6144bd565b6148bd601f8201601f1916602001614564565b8181528460208386010111156148d257600080fd5b816020850160208301376000918101602001919091529392505050565b60006060823603121561490157600080fd5b604051606081016001600160401b038282108183111715614924576149246144bd565b81604052843591508082111561493957600080fd5b5061494636828601614880565b825250602083013561495781613f02565b6020820152604092830135928101929092525090565b6000823561013e1983360301811261487657600080fd5b60048110610d0257600080fd5b8035613f2281614984565b600061014082360312156149af57600080fd5b6149b76144fb565b82356001600160401b038111156149cd57600080fd5b6149d936828601614880565b8252506149e860208401613f17565b60208201526149f960408401613f17565b6040820152614a0a60608401613f17565b60608201526080830135608082015260a083013560a082015260c083013560c082015260e083013560e0820152610100808401358183015250610120614a51818501614991565b9082015292915050565b8035600281900b8114613f2257600080fd5b8035613f2281614800565b60006101c08284031215614a8b57600080fd5b614a9361451e565b614a9c83613f17565b8152614aaa60208401613f17565b6020820152614abb60408401613f17565b6040820152606083013560608201526080830135608082015260a083013560a082015260c083013560c082015260e083013560e0820152610100808401358183015250610120614b0c818501614a5b565b90820152610140614b1e848201614a5b565b90820152610160614b30848201614a6d565b9082015261018083810135908201526101a0614b4d818501614991565b908201529392505050565b60006001600160401b03821115614b7157614b716144bd565b5060051b60200190565b8051613f2281614984565b60006020808385031215614b9957600080fd5b82516001600160401b03811115614baf57600080fd5b8301601f81018513614bc057600080fd5b8051614bd3614bce82614b58565b614564565b81815260089190911b82018301908381019087831115614bf257600080fd5b928401925b82841015613dea576101008489031215614c115760008081fd5b614c19614541565b845181528585015186820152604080860151614c3481614800565b908201526060614c458682016146a2565b908201526080614c568682016146a2565b9082015260a0858101519082015260c0614c718187016146a2565b9082015260e0614c82868201614b7b565b908201528252610100939093019290840190614bf7565b634e487b7160e01b600052602160045260246000fd5b600082516148768184602087016146e0565b60e08152845160e08201526000602086015160028110614ce357614ce3614c99565b61010083015260408601516001600160a01b03908116610120840152606087015116610140830152608086015161016083015260a086015160c0610180840152614d316101a0840182614704565b915050614d71602083018680516001600160a01b039081168352602080830151151590840152604080830151909116908301526060908101511515910152565b60a082019390935260c0015292915050565b60006020808385031215614d9657600080fd5b82516001600160401b03811115614dac57600080fd5b8301601f81018513614dbd57600080fd5b8051614dcb614bce82614b58565b81815260059190911b82018301908381019087831115614dea57600080fd5b928401925b82841015613dea57835182529284019290840190614def565b80820281158282048414176115ff576115ff614666565b600082614e3c57634e487b7160e01b600052601260045260246000fd5b500490565b60048110610d0257610d02614c99565b614e5a81614e41565b9052565b6000610120820190508382528251602083015260208301516040830152604083015115156060830152606083015160018060a01b0380821660808501528060808601511660a0850152505060a083015160c083015260c0830151614ecd60e08401826001600160a01b03169052565b5060e0830151614ee1610100840182614e51565b509392505050565b60008060408385031215614efc57600080fd5b8251614f0781613f02565b602084015190925060038110614f1c57600080fd5b809150509250929050565b8054600090600181811c9080831680614f4157607f831692505b60208084108203614f6257634e487b7160e01b600052602260045260246000fd5b83885260208801828015614f7d5760018114614f9357614fbe565b60ff198716825285151560051b82019750614fbe565b60008981526020902060005b87811015614fb857815484820152908601908401614f9f565b83019850505b5050505050505092915050565b600060018060a01b038088168352808716602084015285604084015260a0606084015261476060a0840186614f27565b600060018060a01b03808a168352808916602084015287604084015260e060608401526147e260e0840188614f27565b6040810161503884614e41565b9281526020015290565b600081518084526020808501945080840160005b8381101561507257815187529582019590820190600101615056565b509495945050505050565b8051608080845281519084018190526000916020919082019060a0860190845b818110156150c25783516001600160a01b03168352928401929184019160010161509d565b5050828501519150858103838701526150db8183615042565b92505050604083015184820360408601526150f68282614704565b9150506060830151614ee1606086018215159052565b8481526001600160a01b03848116602083015283166040820152608060608201819052600090613c2c9083018461507d565b600060018060a01b03808916835287602084015260c0604084015261516660c0840188614f27565b9581166060840152608083019490945250911660a0909101529392505050565b61518f84614e41565b8381526060602082015260006151a86060830185615042565b9050826040830152949350505050565b6000806000606084860312156151cd57600080fd5b8351925060208401519150604084015190509250925092565b81516001600160a01b031681526101408101602083015161521260208401826001600160a01b03169052565b506040830151615227604084018260020b9052565b50606083015161523c606084018260020b9052565b506080830151608083015260a083015160a083015260c083015160c083015260e083015160e083015261010080840151615280828501826001600160a01b03169052565b505061012092830151919092015290565b600080600080608085870312156152a757600080fd5b8451935060208501516001600160801b03811681146152c557600080fd5b6040860151606090960151949790965092505050565b600060018060a01b03808916835287602084015260c0604084015261530360c0840188614704565b9516606083015250608081019290925260a0909101529392505050565b602081526000613e5d602083018461470456fea264697066735822122034894b33b1b0dce19a7aa93d1399ce1a588036999447af4e6476948205b49b2464736f6c63430008110033",
  "devdoc": {
    "kind": "dev",
    "methods": {
      "owner()": {
        "details": "Returns the address of the current owner."
      },
      "paused()": {
        "details": "Returns true if the contract is paused, and false otherwise."
      },
      "renounceOwnership()": {
        "details": "Leaves the contract without owner. It will not be possible to call `onlyOwner` functions anymore. Can only be called by the current owner. NOTE: Renouncing ownership will leave the contract without an owner, thereby removing any functionality that is only available to the owner."
      },
      "setChargedParticles(address)": {
        "details": "Setup the ChargedParticles Interface"
      },
      "transferOwnership(address)": {
        "details": "Transfers ownership of the contract to a new account (`newOwner`). Can only be called by the current owner."
      }
    },
    "version": 1
  },
  "userdoc": {
    "kind": "user",
    "methods": {},
    "version": 1
  },
  "storageLayout": {
    "storage": [
      {
        "astId": 7,
        "contract": "contracts/Web3PacksMode.sol:Web3PacksMode",
        "label": "_owner",
        "offset": 0,
        "slot": "0",
        "type": "t_address"
      },
      {
        "astId": 130,
        "contract": "contracts/Web3PacksMode.sol:Web3PacksMode",
        "label": "_paused",
        "offset": 20,
        "slot": "0",
        "type": "t_bool"
      },
      {
        "astId": 231,
        "contract": "contracts/Web3PacksMode.sol:Web3PacksMode",
        "label": "_status",
        "offset": 0,
        "slot": "1",
        "type": "t_uint256"
      },
      {
        "astId": 2399,
        "contract": "contracts/Web3PacksMode.sol:Web3PacksMode",
        "label": "_weth",
        "offset": 0,
        "slot": "2",
        "type": "t_address"
      },
      {
        "astId": 2401,
        "contract": "contracts/Web3PacksMode.sol:Web3PacksMode",
        "label": "_proton",
        "offset": 0,
        "slot": "3",
        "type": "t_address"
      },
      {
        "astId": 2403,
        "contract": "contracts/Web3PacksMode.sol:Web3PacksMode",
        "label": "_web3PacksManager",
        "offset": 0,
        "slot": "4",
        "type": "t_address"
      },
      {
        "astId": 2405,
        "contract": "contracts/Web3PacksMode.sol:Web3PacksMode",
        "label": "_nonfungiblePositionManager",
        "offset": 0,
        "slot": "5",
        "type": "t_address"
      },
      {
        "astId": 2407,
        "contract": "contracts/Web3PacksMode.sol:Web3PacksMode",
        "label": "_chargedParticles",
        "offset": 0,
        "slot": "6",
        "type": "t_address"
      },
      {
        "astId": 2409,
        "contract": "contracts/Web3PacksMode.sol:Web3PacksMode",
        "label": "_chargedState",
        "offset": 0,
        "slot": "7",
        "type": "t_address"
      },
      {
        "astId": 2411,
        "contract": "contracts/Web3PacksMode.sol:Web3PacksMode",
        "label": "_treasury",
        "offset": 0,
        "slot": "8",
        "type": "t_address_payable"
      },
      {
        "astId": 2413,
        "contract": "contracts/Web3PacksMode.sol:Web3PacksMode",
        "label": "_protocolFee",
        "offset": 0,
        "slot": "9",
        "type": "t_uint256"
      },
      {
        "astId": 2416,
        "contract": "contracts/Web3PacksMode.sol:Web3PacksMode",
        "label": "_cpWalletManager",
        "offset": 0,
        "slot": "10",
        "type": "t_string_storage"
      },
      {
        "astId": 2419,
        "contract": "contracts/Web3PacksMode.sol:Web3PacksMode",
        "label": "_cpBasketManager",
        "offset": 0,
        "slot": "11",
        "type": "t_string_storage"
      },
      {
        "astId": 2424,
        "contract": "contracts/Web3PacksMode.sol:Web3PacksMode",
        "label": "_swapForLiquidityAmount",
        "offset": 0,
        "slot": "12",
        "type": "t_mapping(t_bytes32,t_struct(TokenAmount)6206_storage)"
      }
    ],
    "types": {
      "t_address": {
        "encoding": "inplace",
        "label": "address",
        "numberOfBytes": "20"
      },
      "t_address_payable": {
        "encoding": "inplace",
        "label": "address payable",
        "numberOfBytes": "20"
      },
      "t_bool": {
        "encoding": "inplace",
        "label": "bool",
        "numberOfBytes": "1"
      },
      "t_bytes32": {
        "encoding": "inplace",
        "label": "bytes32",
        "numberOfBytes": "32"
      },
      "t_mapping(t_bytes32,t_struct(TokenAmount)6206_storage)": {
        "encoding": "mapping",
        "key": "t_bytes32",
        "label": "mapping(bytes32 => struct IWeb3PacksDefs.TokenAmount)",
        "numberOfBytes": "32",
        "value": "t_struct(TokenAmount)6206_storage"
      },
      "t_string_storage": {
        "encoding": "bytes",
        "label": "string",
        "numberOfBytes": "32"
      },
      "t_struct(TokenAmount)6206_storage": {
        "encoding": "inplace",
        "label": "struct IWeb3PacksDefs.TokenAmount",
        "members": [
          {
            "astId": 6203,
            "contract": "contracts/Web3PacksMode.sol:Web3PacksMode",
            "label": "token",
            "offset": 0,
            "slot": "0",
            "type": "t_address"
          },
          {
            "astId": 6205,
            "contract": "contracts/Web3PacksMode.sol:Web3PacksMode",
            "label": "amount",
            "offset": 0,
            "slot": "1",
            "type": "t_uint256"
          }
        ],
        "numberOfBytes": "64"
      },
      "t_uint256": {
        "encoding": "inplace",
        "label": "uint256",
        "numberOfBytes": "32"
      }
    }
  }
}