{
  "address": "0x10d473139dde2515b651EaF5c66A5504Defe5086",
  "abi": [
    {
      "inputs": [
        {
          "internalType": "address",
          "name": "proton",
          "type": "address"
        },
        {
          "internalType": "address",
          "name": "nonfungiblePositionManager",
          "type": "address"
        },
        {
          "internalType": "address",
          "name": "chargedParticles",
          "type": "address"
        },
        {
          "internalType": "address",
          "name": "chargedState",
          "type": "address"
        }
      ],
      "stateMutability": "nonpayable",
      "type": "constructor"
    },
    {
      "inputs": [],
      "name": "FundingFailed",
      "type": "error"
    },
    {
      "inputs": [],
      "name": "InvalidContract",
      "type": "error"
    },
    {
      "inputs": [],
      "name": "NullReceiver",
      "type": "error"
    },
    {
      "anonymous": false,
      "inputs": [
        {
          "indexed": true,
          "internalType": "address",
          "name": "chargedParticles",
          "type": "address"
        }
      ],
      "name": "ChargedParticlesSet",
      "type": "event"
    },
    {
      "anonymous": false,
      "inputs": [
        {
          "indexed": true,
          "internalType": "address",
          "name": "chargedState",
          "type": "address"
        }
      ],
      "name": "ChargedStateSet",
      "type": "event"
    },
    {
      "anonymous": false,
      "inputs": [
        {
          "indexed": true,
          "internalType": "address",
          "name": "previousOwner",
          "type": "address"
        },
        {
          "indexed": true,
          "internalType": "address",
          "name": "newOwner",
          "type": "address"
        }
      ],
      "name": "OwnershipTransferred",
      "type": "event"
    },
    {
      "anonymous": false,
      "inputs": [
        {
          "indexed": true,
          "internalType": "uint256",
          "name": "tokenId",
          "type": "uint256"
        },
        {
          "indexed": true,
          "internalType": "address",
          "name": "receiver",
          "type": "address"
        }
      ],
      "name": "PackBundled",
      "type": "event"
    },
    {
      "anonymous": false,
      "inputs": [
        {
          "indexed": true,
          "internalType": "uint256",
          "name": "tokenId",
          "type": "uint256"
        },
        {
          "indexed": true,
          "internalType": "address",
          "name": "receiver",
          "type": "address"
        }
      ],
      "name": "PackUnbundled",
      "type": "event"
    },
    {
      "anonymous": false,
      "inputs": [
        {
          "indexed": false,
          "internalType": "address",
          "name": "account",
          "type": "address"
        }
      ],
      "name": "Paused",
      "type": "event"
    },
    {
      "anonymous": false,
      "inputs": [
        {
          "indexed": true,
          "internalType": "address",
          "name": "proton",
          "type": "address"
        }
      ],
      "name": "ProtonSet",
      "type": "event"
    },
    {
      "anonymous": false,
      "inputs": [
        {
          "indexed": true,
          "internalType": "address",
          "name": "router",
          "type": "address"
        }
      ],
      "name": "RouterSet",
      "type": "event"
    },
    {
      "anonymous": false,
      "inputs": [
        {
          "indexed": false,
          "internalType": "address",
          "name": "account",
          "type": "address"
        }
      ],
      "name": "Unpaused",
      "type": "event"
    },
    {
      "anonymous": false,
      "inputs": [
        {
          "indexed": true,
          "internalType": "address",
          "name": "receiver",
          "type": "address"
        },
        {
          "indexed": true,
          "internalType": "address",
          "name": "tokenAddress",
          "type": "address"
        },
        {
          "indexed": true,
          "internalType": "uint256",
          "name": "tokenId",
          "type": "uint256"
        },
        {
          "indexed": false,
          "internalType": "uint256",
          "name": "amount",
          "type": "uint256"
        }
      ],
      "name": "WithdrawStuckERC1155",
      "type": "event"
    },
    {
      "anonymous": false,
      "inputs": [
        {
          "indexed": true,
          "internalType": "address",
          "name": "receiver",
          "type": "address"
        },
        {
          "indexed": true,
          "internalType": "address",
          "name": "tokenAddress",
          "type": "address"
        },
        {
          "indexed": false,
          "internalType": "uint256",
          "name": "amount",
          "type": "uint256"
        }
      ],
      "name": "WithdrawStuckERC20",
      "type": "event"
    },
    {
      "anonymous": false,
      "inputs": [
        {
          "indexed": true,
          "internalType": "address",
          "name": "receiver",
          "type": "address"
        },
        {
          "indexed": true,
          "internalType": "address",
          "name": "tokenAddress",
          "type": "address"
        },
        {
          "indexed": true,
          "internalType": "uint256",
          "name": "tokenId",
          "type": "uint256"
        }
      ],
      "name": "WithdrawStuckERC721",
      "type": "event"
    },
    {
      "anonymous": false,
      "inputs": [
        {
          "indexed": true,
          "internalType": "address",
          "name": "receiver",
          "type": "address"
        },
        {
          "indexed": false,
          "internalType": "uint256",
          "name": "amount",
          "type": "uint256"
        }
      ],
      "name": "WithdrawStuckEther",
      "type": "event"
    },
    {
      "inputs": [
        {
          "internalType": "int256",
          "name": "tickSpacing",
          "type": "int256"
        },
        {
          "internalType": "bool",
          "name": "nearestToMin",
          "type": "bool"
        }
      ],
      "name": "_findNearestValidTick",
      "outputs": [
        {
          "internalType": "int256",
          "name": "",
          "type": "int256"
        }
      ],
      "stateMutability": "pure",
      "type": "function"
    },
    {
      "inputs": [
        {
          "internalType": "address",
          "name": "contractAddress",
          "type": "address"
        },
        {
          "internalType": "uint256",
          "name": "tokenId",
          "type": "uint256"
        },
        {
          "internalType": "string",
          "name": "tokenMetadataUri",
          "type": "string"
        },
        {
          "internalType": "string",
          "name": "basketManagerId",
          "type": "string"
        },
        {
          "internalType": "address",
          "name": "nftTokenAddress",
          "type": "address"
        }
      ],
      "name": "bond",
      "outputs": [
        {
          "internalType": "uint256",
          "name": "mintedTokenId",
          "type": "uint256"
        }
      ],
      "stateMutability": "nonpayable",
      "type": "function"
    },
    {
      "inputs": [
        {
          "internalType": "address payable",
          "name": "receiver",
          "type": "address"
        },
        {
          "internalType": "string",
          "name": "tokenMetaUri",
          "type": "string"
        },
        {
          "components": [
            {
              "internalType": "bytes",
              "name": "callData",
              "type": "bytes"
            },
            {
              "internalType": "address",
              "name": "router",
              "type": "address"
            },
            {
              "internalType": "address",
              "name": "tokenIn",
              "type": "address"
            },
            {
              "internalType": "uint256",
              "name": "amountIn",
              "type": "uint256"
            },
            {
              "internalType": "address",
              "name": "tokenOut",
              "type": "address"
            },
            {
              "internalType": "bool",
              "name": "forLiquidity",
              "type": "bool"
            }
          ],
          "internalType": "struct IWeb3Packs.ERC20SwapOrderGeneric[]",
          "name": "erc20SwapOrders",
          "type": "tuple[]"
        },
        {
          "components": [
            {
              "internalType": "address",
              "name": "token0",
              "type": "address"
            },
            {
              "internalType": "address",
              "name": "token1",
              "type": "address"
            },
            {
              "internalType": "uint256",
              "name": "amount0ToMint",
              "type": "uint256"
            },
            {
              "internalType": "uint256",
              "name": "amount1ToMint",
              "type": "uint256"
            },
            {
              "internalType": "uint256",
              "name": "amount0Min",
              "type": "uint256"
            },
            {
              "internalType": "uint256",
              "name": "amount1Min",
              "type": "uint256"
            },
            {
              "internalType": "int256",
              "name": "tickSpace",
              "type": "int256"
            },
            {
              "internalType": "uint24",
              "name": "poolFee",
              "type": "uint24"
            }
          ],
          "internalType": "struct IWeb3Packs.LiquidityMintOrder[]",
          "name": "liquidityMintOrders",
          "type": "tuple[]"
        },
        {
          "components": [
            {
              "internalType": "uint256",
              "name": "ERC20Timelock",
              "type": "uint256"
            },
            {
              "internalType": "uint256",
              "name": "ERC721Timelock",
              "type": "uint256"
            }
          ],
          "internalType": "struct IWeb3Packs.LockState",
          "name": "lockState",
          "type": "tuple"
        }
      ],
      "name": "bundleMode",
      "outputs": [
        {
          "internalType": "uint256",
          "name": "tokenId",
          "type": "uint256"
        }
      ],
      "stateMutability": "payable",
      "type": "function"
    },
    {
      "inputs": [
        {
          "components": [
            {
              "internalType": "address",
              "name": "token0",
              "type": "address"
            },
            {
              "internalType": "address",
              "name": "token1",
              "type": "address"
            },
            {
              "internalType": "uint256",
              "name": "amount0ToMint",
              "type": "uint256"
            },
            {
              "internalType": "uint256",
              "name": "amount1ToMint",
              "type": "uint256"
            },
            {
              "internalType": "uint256",
              "name": "amount0Min",
              "type": "uint256"
            },
            {
              "internalType": "uint256",
              "name": "amount1Min",
              "type": "uint256"
            },
            {
              "internalType": "int256",
              "name": "tickSpace",
              "type": "int256"
            },
            {
              "internalType": "uint24",
              "name": "poolFee",
              "type": "uint24"
            }
          ],
          "internalType": "struct IWeb3Packs.LiquidityMintOrder[]",
          "name": "liquidityMintOrders",
          "type": "tuple[]"
        },
        {
          "components": [
            {
              "internalType": "bytes",
              "name": "callData",
              "type": "bytes"
            },
            {
              "internalType": "address",
              "name": "router",
              "type": "address"
            },
            {
              "internalType": "address",
              "name": "tokenIn",
              "type": "address"
            },
            {
              "internalType": "uint256",
              "name": "amountIn",
              "type": "uint256"
            },
            {
              "internalType": "address",
              "name": "tokenOut",
              "type": "address"
            },
            {
              "internalType": "bool",
              "name": "forLiquidity",
              "type": "bool"
            }
          ],
          "internalType": "struct IWeb3Packs.ERC20SwapOrderGeneric[]",
          "name": "erc20SwapOrders",
          "type": "tuple[]"
        }
      ],
      "name": "depositLiquidity",
      "outputs": [
        {
          "components": [
            {
              "internalType": "uint256",
              "name": "tokenId",
              "type": "uint256"
            },
            {
              "internalType": "uint128",
              "name": "liquidity",
              "type": "uint128"
            },
            {
              "internalType": "uint256",
              "name": "amount0",
              "type": "uint256"
            },
            {
              "internalType": "uint256",
              "name": "amount1",
              "type": "uint256"
            }
          ],
          "internalType": "struct MintResponse[]",
          "name": "",
          "type": "tuple[]"
        }
      ],
      "stateMutability": "payable",
      "type": "function"
    },
    {
      "inputs": [
        {
          "internalType": "address",
          "name": "",
          "type": "address"
        },
        {
          "internalType": "address",
          "name": "",
          "type": "address"
        },
        {
          "internalType": "uint256",
          "name": "",
          "type": "uint256"
        },
        {
          "internalType": "bytes",
          "name": "",
          "type": "bytes"
        }
      ],
      "name": "onERC721Received",
      "outputs": [
        {
          "internalType": "bytes4",
          "name": "",
          "type": "bytes4"
        }
      ],
      "stateMutability": "pure",
      "type": "function"
    },
    {
      "inputs": [],
      "name": "owner",
      "outputs": [
        {
          "internalType": "address",
          "name": "",
          "type": "address"
        }
      ],
      "stateMutability": "view",
      "type": "function"
    },
    {
      "inputs": [],
      "name": "pause",
      "outputs": [],
      "stateMutability": "nonpayable",
      "type": "function"
    },
    {
      "inputs": [],
      "name": "paused",
      "outputs": [
        {
          "internalType": "bool",
          "name": "",
          "type": "bool"
        }
      ],
      "stateMutability": "view",
      "type": "function"
    },
    {
      "inputs": [],
      "name": "renounceOwnership",
      "outputs": [],
      "stateMutability": "nonpayable",
      "type": "function"
    },
    {
      "inputs": [
        {
          "internalType": "address",
          "name": "chargedParticles",
          "type": "address"
        }
      ],
      "name": "setChargedParticles",
      "outputs": [],
      "stateMutability": "nonpayable",
      "type": "function"
    },
    {
      "inputs": [
        {
          "internalType": "address",
          "name": "chargedState",
          "type": "address"
        }
      ],
      "name": "setChargedState",
      "outputs": [],
      "stateMutability": "nonpayable",
      "type": "function"
    },
    {
      "inputs": [
        {
          "internalType": "address",
          "name": "proton",
          "type": "address"
        }
      ],
      "name": "setProton",
      "outputs": [],
      "stateMutability": "nonpayable",
      "type": "function"
    },
    {
      "inputs": [
        {
          "components": [
            {
              "internalType": "bytes",
              "name": "callData",
              "type": "bytes"
            },
            {
              "internalType": "address",
              "name": "router",
              "type": "address"
            },
            {
              "internalType": "address",
              "name": "tokenIn",
              "type": "address"
            },
            {
              "internalType": "uint256",
              "name": "amountIn",
              "type": "uint256"
            },
            {
              "internalType": "address",
              "name": "tokenOut",
              "type": "address"
            },
            {
              "internalType": "bool",
              "name": "forLiquidity",
              "type": "bool"
            }
          ],
          "internalType": "struct IWeb3Packs.ERC20SwapOrderGeneric[]",
          "name": "erc20SwapOrders",
          "type": "tuple[]"
        }
      ],
      "name": "swap",
      "outputs": [],
      "stateMutability": "payable",
      "type": "function"
    },
    {
      "inputs": [
        {
          "components": [
            {
              "internalType": "bytes",
              "name": "callData",
              "type": "bytes"
            },
            {
              "internalType": "address",
              "name": "router",
              "type": "address"
            },
            {
              "internalType": "address",
              "name": "tokenIn",
              "type": "address"
            },
            {
              "internalType": "uint256",
              "name": "amountIn",
              "type": "uint256"
            },
            {
              "internalType": "address",
              "name": "tokenOut",
              "type": "address"
            },
            {
              "internalType": "bool",
              "name": "forLiquidity",
              "type": "bool"
            }
          ],
          "internalType": "struct IWeb3Packs.ERC20SwapOrderGeneric",
          "name": "swapOrder",
          "type": "tuple"
        }
      ],
      "name": "swapGeneric",
      "outputs": [],
      "stateMutability": "payable",
      "type": "function"
    },
    {
      "inputs": [
        {
          "internalType": "address",
          "name": "newOwner",
          "type": "address"
        }
      ],
      "name": "transferOwnership",
      "outputs": [],
      "stateMutability": "nonpayable",
      "type": "function"
    },
    {
      "inputs": [
        {
          "internalType": "address",
          "name": "receiver",
          "type": "address"
        },
        {
          "internalType": "address",
          "name": "tokenAddress",
          "type": "address"
        },
        {
          "internalType": "uint256",
          "name": "tokenId",
          "type": "uint256"
        },
        {
          "components": [
            {
              "internalType": "address[]",
              "name": "erc20TokenAddresses",
              "type": "address[]"
            },
            {
              "components": [
                {
                  "internalType": "address",
                  "name": "tokenAddress",
                  "type": "address"
                },
                {
                  "internalType": "uint256",
                  "name": "id",
                  "type": "uint256"
                }
              ],
              "internalType": "struct IWeb3Packs.NFT[]",
              "name": "nfts",
              "type": "tuple[]"
            }
          ],
          "internalType": "struct IWeb3Packs.Web3PackOrder",
          "name": "web3PackOrder",
          "type": "tuple"
        }
      ],
      "name": "unbundle",
      "outputs": [],
      "stateMutability": "nonpayable",
      "type": "function"
    },
    {
      "inputs": [
        {
          "internalType": "address",
          "name": "receiver",
          "type": "address"
        },
        {
          "internalType": "address",
          "name": "tokenAddress",
          "type": "address"
        },
        {
          "internalType": "uint256",
          "name": "tokenId",
          "type": "uint256"
        },
        {
          "internalType": "string",
          "name": "walletManager",
          "type": "string"
        },
        {
          "components": [
            {
              "internalType": "address[]",
              "name": "erc20TokenAddresses",
              "type": "address[]"
            },
            {
              "components": [
                {
                  "internalType": "address",
                  "name": "tokenAddress",
                  "type": "address"
                },
                {
                  "internalType": "uint256",
                  "name": "id",
                  "type": "uint256"
                }
              ],
              "internalType": "struct IWeb3Packs.NFT[]",
              "name": "nfts",
              "type": "tuple[]"
            }
          ],
          "internalType": "struct IWeb3Packs.Web3PackOrder",
          "name": "web3PackOrder",
          "type": "tuple"
        }
      ],
      "name": "unbundleFromManager",
      "outputs": [],
      "stateMutability": "nonpayable",
      "type": "function"
    },
    {
      "inputs": [],
      "name": "unpause",
      "outputs": [],
      "stateMutability": "nonpayable",
      "type": "function"
    },
    {
      "inputs": [
        {
          "internalType": "address payable",
          "name": "receiver",
          "type": "address"
        },
        {
          "internalType": "address",
          "name": "tokenAddress",
          "type": "address"
        },
        {
          "internalType": "uint256",
          "name": "tokenId",
          "type": "uint256"
        },
        {
          "internalType": "uint256",
          "name": "amount",
          "type": "uint256"
        }
      ],
      "name": "withdrawERC1155",
      "outputs": [],
      "stateMutability": "nonpayable",
      "type": "function"
    },
    {
      "inputs": [
        {
          "internalType": "address payable",
          "name": "receiver",
          "type": "address"
        },
        {
          "internalType": "address",
          "name": "tokenAddress",
          "type": "address"
        },
        {
          "internalType": "uint256",
          "name": "tokenId",
          "type": "uint256"
        }
      ],
      "name": "withdrawERC721",
      "outputs": [],
      "stateMutability": "nonpayable",
      "type": "function"
    },
    {
      "inputs": [
        {
          "internalType": "address payable",
          "name": "receiver",
          "type": "address"
        },
        {
          "internalType": "address",
          "name": "tokenAddress",
          "type": "address"
        },
        {
          "internalType": "uint256",
          "name": "amount",
          "type": "uint256"
        }
      ],
      "name": "withdrawErc20",
      "outputs": [],
      "stateMutability": "nonpayable",
      "type": "function"
    },
    {
      "inputs": [
        {
          "internalType": "address payable",
          "name": "receiver",
          "type": "address"
        },
        {
          "internalType": "uint256",
          "name": "amount",
          "type": "uint256"
        }
      ],
      "name": "withdrawEther",
      "outputs": [],
      "stateMutability": "nonpayable",
      "type": "function"
    }
  ],
  "transactionHash": "0x4821db66ccb05a044f511df27d0a32a144f29d1ce661d9a2f61463733b6f1790",
  "args": [
    "0x76a5df1c6F53A4B80c8c8177edf52FBbC368E825",
    "0x2e8614625226D26180aDf6530C3b1677d3D7cf10",
    "0x0288280Df6221E7e9f23c1BB398c820ae0Aa6c10",
    "0x2691B4f4251408bA4b8bf9530B6961b9D0C1231F"
  ],
  "numDeployments": 8,
  "solcInputHash": "1c7ffbcb96f6838967724771ef0e78af",
  "bytecode": "0x60c0604052600960809081526833b2b732b934b1972160b91b60a0526006906200002a9082620001f0565b5060408051808201909152600981526833b2b732b934b1972160b91b60208201526007906200005a9082620001f0565b503480156200006857600080fd5b5060405162003297380380620032978339810160408190526200008b91620002d9565b6200009633620000fb565b6000805460ff60a01b1916905560018055600280546001600160a01b039586166001600160a01b031991821617909155600380549486169482169490941790935560048054928516928416929092179091556005805491909316911617905562000336565b600080546001600160a01b038381166001600160a01b0319831681178455604051919092169283917f8be0079c531659141344cd1fd0a4f28419497f9722a3daafe3b4186f6b6457e09190a35050565b634e487b7160e01b600052604160045260246000fd5b600181811c908216806200017657607f821691505b6020821081036200019757634e487b7160e01b600052602260045260246000fd5b50919050565b601f821115620001eb57600081815260208120601f850160051c81016020861015620001c65750805b601f850160051c820191505b81811015620001e757828155600101620001d2565b5050505b505050565b81516001600160401b038111156200020c576200020c6200014b565b62000224816200021d845462000161565b846200019d565b602080601f8311600181146200025c5760008415620002435750858301515b600019600386901b1c1916600185901b178555620001e7565b600085815260208120601f198616915b828110156200028d578886015182559484019460019091019084016200026c565b5085821015620002ac5787850151600019600388901b60f8161c191681555b5050505050600190811b01905550565b80516001600160a01b0381168114620002d457600080fd5b919050565b60008060008060808587031215620002f057600080fd5b620002fb85620002bc565b93506200030b60208601620002bc565b92506200031b60408601620002bc565b91506200032b60608601620002bc565b905092959194509250565b612f5180620003466000396000f3fe6080604052600436106101355760003560e01c8063715018a6116100ab578063b7683e931161006f578063b7683e9314610357578063bd32661614610377578063d3d9cd5f14610397578063d8214b49146103b7578063dc2c14b2146103d7578063f2fde38b146103f757600080fd5b8063715018a6146102d25780637421422b146102e75780638456cb59146102fa5780638da5cb5b1461030f578063a0edb48b1461033757600080fd5b80634025feb2116100fd5780634025feb21461021557806348f4bab7146102355780634d9c837314610255578063522f6815146102685780635c975abb146102885780636e5559fd146102b257600080fd5b8063150b7a021461013a5780631593dee11461019d5780632f6c028d146101bf5780633287b010146101ed5780633f4ba83a14610200575b600080fd5b34801561014657600080fd5b5061017f610155366004612285565b7f150b7a023d4804d13e8c85fb27262cb750cf6ba9f9dd3bb30d90f482ceeb4b1f95945050505050565b6040516001600160e01b031990911681526020015b60405180910390f35b3480156101a957600080fd5b506101bd6101b83660046122f7565b610417565b005b3480156101cb57600080fd5b506101df6101da366004612338565b61042f565b604051908152602001610194565b6101bd6101fb3660046123d7565b6104c3565b34801561020c57600080fd5b506101bd61056f565b34801561022157600080fd5b506101bd6102303660046122f7565b610581565b34801561024157600080fd5b506101df61025036600461241f565b610594565b6101bd610263366004612493565b610695565b34801561027457600080fd5b506101bd6102833660046124d4565b6106a3565b34801561029457600080fd5b50600054600160a01b900460ff166040519015158152602001610194565b3480156102be57600080fd5b506101bd6102cd366004612500565b6106b5565b3480156102de57600080fd5b506101bd610707565b6101df6102f5366004612579565b610719565b34801561030657600080fd5b506101bd61083c565b34801561031b57600080fd5b506000546040516001600160a01b039091168152602001610194565b34801561034357600080fd5b506101bd610352366004612636565b61084c565b34801561036357600080fd5b506101bd610372366004612500565b610866565b34801561038357600080fd5b506101bd610392366004612500565b6108b8565b3480156103a357600080fd5b506101bd6103b236600461267c565b61090a565b3480156103c357600080fd5b506101bd6103d23660046126e7565b6109f0565b6103ea6103e536600461277d565b610a83565b60405161019491906127e8565b34801561040357600080fd5b506101bd610412366004612500565b610aa4565b61041f610b1d565b61042a838383610b77565b505050565b60006104718887878080601f016020809104026020016040519081016040528093929190818152602001838380828437600092019190915250610c7292505050565b90506104b8888886868080601f016020809104026020016040519081016040528093929190818152602001838380828437600092019190915250889250879150610cef9050565b979650505050505050565b6104f06104d66060830160408401612500565b6104e66040840160208501612500565b8360600135610dd4565b6000806105036040840160208501612500565b6001600160a01b0316346105178580612855565b60405161052592919061289b565b60006040518083038185875af1925050503d8060008114610562576040519150601f19603f3d011682016040523d82523d6000602084013e610567565b606091505b505050505050565b610577610b1d565b61057f610ed4565b565b610589610b1d565b61042a838383610f29565b60008083136105ea5760405162461bcd60e51b815260206004820152601d60248201527f5469636b2073706163696e67206d75737420626520706f73697469766500000060448201526064015b60405180910390fd5b620d89e71960006105fa826128c1565b9050831561066e57600061060f6001876128dd565b6106199084612904565b905060008312801561062b5750600081135b156106335750815b6000866106408184612924565b61064a9190612960565b90508381136106595780610663565b61066387826128dd565b94505050505061068f565b846106798183612924565b6106839190612960565b9250505061068f565b50505b92915050565b61069f8282611076565b5050565b6106ab610b1d565b61069f82826110ba565b6106bd610b1d565b600480546001600160a01b0319166001600160a01b0383169081179091556040517f5ce0e6b7fd36339ee97339831b6c72694ecee88c62aab49919d9cabe0a732e4190600090a250565b61070f610b1d565b61057f6000611140565b6000610723611190565b61072b6111dd565b6001600160a01b0389166107525760405163150a167760e11b815260040160405180910390fd5b61075c8686611076565b60006107688585611236565b9050610778308a8a8a8a86611704565b9150610784838361190c565b600254604051632142170760e11b81523060048201526001600160a01b038c8116602483015260448201859052909116906342842e0e90606401600060405180830381600087803b1580156107d857600080fd5b505af11580156107ec573d6000803e3d6000fd5b50506040516001600160a01b038d1692508491507ff8779000d9fe2bd438edb299891b05fae0b929d746d3c3e5560d065c690f357d90600090a35061083060018055565b98975050505050505050565b610844610b1d565b61057f6119fb565b610854610b1d565b61086084848484611a3e565b50505050565b61086e610b1d565b600480546001600160a01b0319166001600160a01b0383169081179091556040517f62ff39aed768a426c7582b6e1062ab2631df1869b2d574e36f8274d2e2b0ab8190600090a250565b6108c0610b1d565b600280546001600160a01b0319166001600160a01b0383169081179091556040517fa3d7b0fff2d93a7ba440166a8f7eba4acfe6e000fe19b8218e64264d62ef272690600090a250565b610912611190565b61091a6111dd565b6109b18484846006805461092d90612990565b80601f016020809104026020016040519081016040528092919081815260200182805461095990612990565b80156109a65780601f1061097b576101008083540402835291602001916109a6565b820191906000526020600020905b81548152906001019060200180831161098957829003601f168201915b505050505085611ba9565b6040516001600160a01b0385169083907fa93981b9cfa5fc675dd31c2c87b0d4f1f590180abd86d15f509ccb544775b2b990600090a361086060018055565b6109f8611190565b610a006111dd565b610a4486868686868080601f016020809104026020016040519081016040528093929190818152602001838380828437600092019190915250889250611ba9915050565b6040516001600160a01b0387169085907fa93981b9cfa5fc675dd31c2c87b0d4f1f590180abd86d15f509ccb544775b2b990600090a361056760018055565b6060610a8f8383611076565b610a998585611236565b90505b949350505050565b610aac610b1d565b6001600160a01b038116610b115760405162461bcd60e51b815260206004820152602660248201527f4f776e61626c653a206e6577206f776e657220697320746865207a65726f206160448201526564647265737360d01b60648201526084016105e1565b610b1a81611140565b50565b6000546001600160a01b0316331461057f5760405162461bcd60e51b815260206004820181905260248201527f4f776e61626c653a2063616c6c6572206973206e6f7420746865206f776e657260448201526064016105e1565b6001600160a01b038316610b9d5760405162461bcd60e51b81526004016105e1906129c4565b6040516370a0823160e01b815230600482015281906001600160a01b038416906370a0823190602401602060405180830381865afa158015610be3573d6000803e3d6000fd5b505050506040513d601f19601f82011682018060405250810190610c0791906129e7565b1061042a57610c206001600160a01b0383168483611d7d565b816001600160a01b0316836001600160a01b03167f6c9d637297625e945b296ff73a71fcfbd0a9e062652b6491a921c4c60194176b83604051610c6591815260200190565b60405180910390a3505050565b604051632c0cd5a360e01b81526000906001600160a01b03841690632c0cd5a390610ca590309081908790600401612a50565b6020604051808303816000875af1158015610cc4573d6000803e3d6000fd5b505050506040513d601f19601f82011682018060405250810190610ce891906129e7565b9392505050565b6004805460405163a22cb46560e01b81526001600160a01b03918216928101929092526001602483015283169063a22cb46590604401600060405180830381600087803b158015610d3f57600080fd5b505af1158015610d53573d6000803e3d6000fd5b505060048054604051630ffe55b360e21b81526001600160a01b039091169350633ff956cc9250610d91918991899189918991899160019101612a7c565b6020604051808303816000875af1158015610db0573d6000803e3d6000fd5b505050506040513d601f19601f820116820180604052508101906105679190612ac1565b604080516001600160a01b038481166024830152604480830185905283518084039091018152606490920183526020820180516001600160e01b031663095ea7b360e01b1790529151600092839290871691610e309190612ade565b6000604051808303816000865af19150503d8060008114610e6d576040519150601f19603f3d011682016040523d82523d6000602084013e610e72565b606091505b5091509150818015610e9c575080511580610e9c575080806020019051810190610e9c9190612ac1565b610ecd5760405162461bcd60e51b8152602060048201526002602482015261534160f01b60448201526064016105e1565b5050505050565b610edc611dcf565b6000805460ff60a01b191690557f5db9ee0a495bf2e6ff9c91a7834c1ba4fdd244a5e8aa4e537bd38aeae4b073aa335b6040516001600160a01b03909116815260200160405180910390a1565b6001600160a01b038316610f4f5760405162461bcd60e51b81526004016105e1906129c4565b6040516331a9108f60e11b81526004810182905230906001600160a01b03841690636352211e90602401602060405180830381865afa158015610f96573d6000803e3d6000fd5b505050506040513d601f19601f82011682018060405250810190610fba9190612afa565b6001600160a01b03160361042a576040516323b872dd60e01b81523060048201526001600160a01b038481166024830152604482018390528316906323b872dd90606401600060405180830381600087803b15801561101857600080fd5b505af115801561102c573d6000803e3d6000fd5b5050505080826001600160a01b0316846001600160a01b03167ffefe036cac4ee3a4aca074a81cbcc4376e1484693289078dbec149c890101d5b60405160405180910390a4505050565b60005b8181101561042a576110a883838381811061109657611096612b17565b90506020028101906101fb9190612b2d565b806110b281612b43565b915050611079565b6001600160a01b0382166110e05760405162461bcd60e51b81526004016105e1906129c4565b80471061069f576110fa6001600160a01b03831682611e1f565b816001600160a01b03167eddb683bb45cd5d0ad8a200c6fae7152b1c236ee90a4a37db692407f5cc38bd8260405161113491815260200190565b60405180910390a25050565b600080546001600160a01b038381166001600160a01b0319831681178455604051919092169283917f8be0079c531659141344cd1fd0a4f28419497f9722a3daafe3b4186f6b6457e09190a35050565b600054600160a01b900460ff161561057f5760405162461bcd60e51b815260206004820152601060248201526f14185d5cd8589b194e881c185d5cd95960821b60448201526064016105e1565b60026001540361122f5760405162461bcd60e51b815260206004820152601f60248201527f5265656e7472616e637947756172643a207265656e7472616e742063616c6c0060448201526064016105e1565b6002600155565b60606000826001600160401b0381111561125257611252612b5c565b6040519080825280602002602001820160405280156112b757816020015b6112a460405180608001604052806000815260200160006001600160801b0316815260200160008152602001600081525090565b8152602001906001900390816112705790505b50905060005b838110156116fc5761131f8585838181106112da576112da612b17565b6112f1926020610100909202019081019150612500565b6003546001600160a01b031687878581811061130f5761130f612b17565b9050610100020160400135610dd4565b61137b85858381811061133457611334612b17565b90506101000201602001602081019061134d9190612500565b6003546001600160a01b031687878581811061136b5761136b612b17565b9050610100020160600135610dd4565b60006113a486868481811061139257611392612b17565b9050610100020160c001356001610594565b905060006113cf8787858181106113bd576113bd612b17565b9050610100020160c001356000610594565b905060006040518061014001604052808989878181106113f1576113f1612b17565b611408926020610100909202019081019150612500565b6001600160a01b0316815260200189898781811061142857611428612b17565b9050610100020160200160208101906114419190612500565b6001600160a01b031681526020018460020b81526020018360020b815260200189898781811061147357611473612b17565b61148a926020610100909202019081019150612500565b6040516370a0823160e01b81523060048201526001600160a01b0391909116906370a0823190602401602060405180830381865afa1580156114d0573d6000803e3d6000fd5b505050506040513d601f19601f820116820180604052508101906114f491906129e7565b815260200189898781811061150b5761150b612b17565b9050610100020160200160208101906115249190612500565b6040516370a0823160e01b81523060048201526001600160a01b0391909116906370a0823190602401602060405180830381865afa15801561156a573d6000803e3d6000fd5b505050506040513d601f19601f8201168201806040525081019061158e91906129e7565b81526020018989878181106115a5576115a5612b17565b905061010002016080013581526020018989878181106115c7576115c7612b17565b9050610100020160a001358152602001306001600160a01b03168152602001428152509050600080600080600360009054906101000a90046001600160a01b03166001600160a01b0316639cc1a2838d8d8b81811061162857611628612b17565b9050610100020160400135876040518363ffffffff1660e01b81526004016116509190612b72565b60806040518083038185885af115801561166e573d6000803e3d6000fd5b50505050506040513d601f19601f820116820180604052508101906116939190612c1d565b93509350935093506040518060800160405280858152602001846001600160801b03168152602001838152602001828152508989815181106116d7576116d7612b17565b60200260200101819052505050505050505080806116f490612b43565b9150506112bd565b509392505050565b600254604051632c0cd5a360e01b81526000916001600160a01b031690632c0cd5a39061173b9030908b908b908b90600401612c67565b6020604051808303816000875af115801561175a573d6000803e3d6000fd5b505050506040513d601f19601f8201168201806040525081019061177e91906129e7565b905060005b83811015611810576117fe828686848181106117a1576117a1612b17565b90506020028101906117b39190612b2d565b6117c49060a0810190608001612500565b8787858181106117d6576117d6612b17565b90506020028101906117e89190612b2d565b6117f99060c081019060a001612cb3565b611f38565b8061180881612b43565b915050611783565b5060005b825181101561190157600254600780546118ef926001600160a01b031691859161183d90612990565b80601f016020809104026020016040519081016040528092919081815260200182805461186990612990565b80156118b65780601f1061188b576101008083540402835291602001916118b6565b820191906000526020600020905b81548152906001019060200180831161189957829003601f168201915b50506003548a516001600160a01b0390911693508a925088915081106118de576118de612b17565b602002602001015160000151610cef565b806118f981612b43565b915050611814565b509695505050505050565b8135156119835760055460025460405163048001e960e11b81526001600160a01b039182166004820152602481018490528435604482015291169063090003d290606401600060405180830381600087803b15801561196a57600080fd5b505af115801561197e573d6000803e3d6000fd5b505050505b60208201351561069f57600554600254604051639079900160e01b81526001600160a01b0391821660048201526024810184905260208501356044820152911690639079900190606401600060405180830381600087803b1580156119e757600080fd5b505af1158015610567573d6000803e3d6000fd5b611a03611190565b6000805460ff60a01b1916600160a01b1790557f62e78cea01bee320cd4e420270b5ea74000d11b0c9f74754ebdbfc544b05a258610f0c3390565b6001600160a01b038416611a645760405162461bcd60e51b81526004016105e1906129c4565b604051627eeac760e11b81523060048201526024810183905281906001600160a01b0385169062fdd58e90604401602060405180830381865afa158015611aaf573d6000803e3d6000fd5b505050506040513d601f19601f82011682018060405250810190611ad391906129e7565b1061086057604051637921219560e11b81523060048201526001600160a01b038581166024830152604482018490526064820183905260a06084830152600060a483015284169063f242432a9060c401600060405180830381600087803b158015611b3d57600080fd5b505af1158015611b51573d6000803e3d6000fd5b5050505081836001600160a01b0316856001600160a01b03167f620337bf89eea2b9ae2657beead83b5fa620452817118348aff96e201d52598b84604051611b9b91815260200190565b60405180910390a450505050565b60005b611bb68280612cd0565b9050811015611c7a576004546001600160a01b031663acab923c87878787611bde8880612cd0565b88818110611bee57611bee612b17565b9050602002016020810190611c039190612500565b6040518663ffffffff1660e01b8152600401611c23959493929190612d19565b60408051808303816000875af1158015611c41573d6000803e3d6000fd5b505050506040513d601f19601f82011682018060405250810190611c659190612d5e565b50508080611c7290612b43565b915050611bac565b5060005b611c8b6020830183612d82565b9050811015610567576004546001600160a01b031663fe02fb0087878787611cb66020890189612d82565b88818110611cc657611cc6612b17565b611cdc9260206040909202019081019150612500565b611ce960208a018a612d82565b89818110611cf957611cf9612b17565b9050604002016020013560016040518863ffffffff1660e01b8152600401611d279796959493929190612dcb565b6020604051808303816000875af1158015611d46573d6000803e3d6000fd5b505050506040513d601f19601f82011682018060405250810190611d6a9190612ac1565b5080611d7581612b43565b915050611c7e565b604080516001600160a01b038416602482015260448082018490528251808303909101815260649091019091526020810180516001600160e01b031663a9059cbb60e01b17905261042a908490612043565b600054600160a01b900460ff1661057f5760405162461bcd60e51b815260206004820152601460248201527314185d5cd8589b194e881b9bdd081c185d5cd95960621b60448201526064016105e1565b80471015611e6f5760405162461bcd60e51b815260206004820152601d60248201527f416464726573733a20696e73756666696369656e742062616c616e636500000060448201526064016105e1565b6000826001600160a01b03168260405160006040518083038185875af1925050503d8060008114611ebc576040519150601f19603f3d011682016040523d82523d6000602084013e611ec1565b606091505b505090508061042a5760405162461bcd60e51b815260206004820152603a60248201527f416464726573733a20756e61626c6520746f2073656e642076616c75652c207260448201527f6563697069656e74206d6179206861766520726576657274656400000000000060648201526084016105e1565b8061042a576040516370a0823160e01b81523060048201526000906001600160a01b038416906370a0823190602401602060405180830381865afa158015611f84573d6000803e3d6000fd5b505050506040513d601f19601f82011682018060405250810190611fa891906129e7565b600454909150611fc39084906001600160a01b031683610dd4565b600480546002546040516305eef16560e11b81526001600160a01b0392831693630bdde2ca9361200093169189916006918a918991309101612e19565b6020604051808303816000875af115801561201f573d6000803e3d6000fd5b505050506040513d601f19601f82011682018060405250810190610ecd91906129e7565b6000612098826040518060400160405280602081526020017f5361666545524332303a206c6f772d6c6576656c2063616c6c206661696c6564815250856001600160a01b03166121159092919063ffffffff16565b80519091501561042a57808060200190518101906120b69190612ac1565b61042a5760405162461bcd60e51b815260206004820152602a60248201527f5361666545524332303a204552433230206f7065726174696f6e20646964206e6044820152691bdd081cdd58d8d9595960b21b60648201526084016105e1565b6060610a9c848460008585600080866001600160a01b0316858760405161213c9190612ade565b60006040518083038185875af1925050503d8060008114612179576040519150601f19603f3d011682016040523d82523d6000602084013e61217e565b606091505b50915091506104b887838387606083156121f95782516000036121f2576001600160a01b0385163b6121f25760405162461bcd60e51b815260206004820152601d60248201527f416464726573733a2063616c6c20746f206e6f6e2d636f6e747261637400000060448201526064016105e1565b5081610a9c565b610a9c838381511561220e5781518083602001fd5b8060405162461bcd60e51b81526004016105e19190612f08565b6001600160a01b0381168114610b1a57600080fd5b60008083601f84011261224f57600080fd5b5081356001600160401b0381111561226657600080fd5b60208301915083602082850101111561227e57600080fd5b9250929050565b60008060008060006080868803121561229d57600080fd5b85356122a881612228565b945060208601356122b881612228565b93506040860135925060608601356001600160401b038111156122da57600080fd5b6122e68882890161223d565b969995985093965092949392505050565b60008060006060848603121561230c57600080fd5b833561231781612228565b9250602084013561232781612228565b929592945050506040919091013590565b600080600080600080600060a0888a03121561235357600080fd5b873561235e81612228565b96506020880135955060408801356001600160401b038082111561238157600080fd5b61238d8b838c0161223d565b909750955060608a01359150808211156123a657600080fd5b506123b38a828b0161223d565b90945092505060808801356123c781612228565b8091505092959891949750929550565b6000602082840312156123e957600080fd5b81356001600160401b038111156123ff57600080fd5b820160c08185031215610ce857600080fd5b8015158114610b1a57600080fd5b6000806040838503121561243257600080fd5b82359150602083013561244481612411565b809150509250929050565b60008083601f84011261246157600080fd5b5081356001600160401b0381111561247857600080fd5b6020830191508360208260051b850101111561227e57600080fd5b600080602083850312156124a657600080fd5b82356001600160401b038111156124bc57600080fd5b6124c88582860161244f565b90969095509350505050565b600080604083850312156124e757600080fd5b82356124f281612228565b946020939093013593505050565b60006020828403121561251257600080fd5b8135610ce881612228565b60008083601f84011261252f57600080fd5b5081356001600160401b0381111561254657600080fd5b6020830191508360208260081b850101111561227e57600080fd5b60006040828403121561257357600080fd5b50919050565b60008060008060008060008060c0898b03121561259557600080fd5b88356125a081612228565b975060208901356001600160401b03808211156125bc57600080fd5b6125c88c838d0161223d565b909950975060408b01359150808211156125e157600080fd5b6125ed8c838d0161244f565b909750955060608b013591508082111561260657600080fd5b506126138b828c0161251d565b909450925061262790508a60808b01612561565b90509295985092959890939650565b6000806000806080858703121561264c57600080fd5b843561265781612228565b9350602085013561266781612228565b93969395505050506040820135916060013590565b6000806000806080858703121561269257600080fd5b843561269d81612228565b935060208501356126ad81612228565b92506040850135915060608501356001600160401b038111156126cf57600080fd5b6126db87828801612561565b91505092959194509250565b60008060008060008060a0878903121561270057600080fd5b863561270b81612228565b9550602087013561271b81612228565b94506040870135935060608701356001600160401b038082111561273e57600080fd5b61274a8a838b0161223d565b9095509350608089013591508082111561276357600080fd5b5061277089828a01612561565b9150509295509295509295565b6000806000806040858703121561279357600080fd5b84356001600160401b03808211156127aa57600080fd5b6127b68883890161251d565b909650945060208701359150808211156127cf57600080fd5b506127dc8782880161244f565b95989497509550505050565b602080825282518282018190526000919060409081850190868401855b8281101561284857815180518552868101516001600160801b03168786015285810151868601526060908101519085015260809093019290850190600101612805565b5091979650505050505050565b6000808335601e1984360301811261286c57600080fd5b8301803591506001600160401b0382111561288657600080fd5b60200191503681900382131561227e57600080fd5b8183823760009101908152919050565b634e487b7160e01b600052601160045260246000fd5b6000600160ff1b82016128d6576128d66128ab565b5060000390565b81810360008312801583831316838312821617156128fd576128fd6128ab565b5092915050565b808201828112600083128015821682158216171561068c5761068c6128ab565b60008261294157634e487b7160e01b600052601260045260246000fd5b600160ff1b82146000198414161561295b5761295b6128ab565b500590565b80820260008212600160ff1b8414161561297c5761297c6128ab565b818105831482151761068f5761068f6128ab565b600181811c908216806129a457607f821691505b60208210810361257357634e487b7160e01b600052602260045260246000fd5b6020808252600990820152684248503a452d34303360b81b604082015260600190565b6000602082840312156129f957600080fd5b5051919050565b60005b83811015612a1b578181015183820152602001612a03565b50506000910152565b60008151808452612a3c816020860160208601612a00565b601f01601f19169290920160200192915050565b6001600160a01b03848116825283166020820152606060408201819052600090610a9990830184612a24565b600060018060a01b03808916835287602084015260c06040840152612aa460c0840188612a24565b9516606083015250608081019290925260a0909101529392505050565b600060208284031215612ad357600080fd5b8151610ce881612411565b60008251612af0818460208701612a00565b9190910192915050565b600060208284031215612b0c57600080fd5b8151610ce881612228565b634e487b7160e01b600052603260045260246000fd5b6000823560be19833603018112612af057600080fd5b600060018201612b5557612b556128ab565b5060010190565b634e487b7160e01b600052604160045260246000fd5b81516001600160a01b0316815261014081016020830151612b9e60208401826001600160a01b03169052565b506040830151612bb3604084018260020b9052565b506060830151612bc8606084018260020b9052565b506080830151608083015260a083015160a083015260c083015160c083015260e083015160e083015261010080840151612c0c828501826001600160a01b03169052565b505061012092830151919092015290565b60008060008060808587031215612c3357600080fd5b8451935060208501516001600160801b0381168114612c5157600080fd5b6040860151606090960151949790965092505050565b6001600160a01b0385811682528416602082015260606040820181905281018290526000828460808401376000608084840101526080601f19601f850116830101905095945050505050565b600060208284031215612cc557600080fd5b8135610ce881612411565b6000808335601e19843603018112612ce757600080fd5b8301803591506001600160401b03821115612d0157600080fd5b6020019150600581901b360382131561227e57600080fd5b600060018060a01b038088168352808716602084015285604084015260a06060840152612d4960a0840186612a24565b91508084166080840152509695505050505050565b60008060408385031215612d7157600080fd5b505080516020909101519092909150565b6000808335601e19843603018112612d9957600080fd5b8301803591506001600160401b03821115612db357600080fd5b6020019150600681901b360382131561227e57600080fd5b600060018060a01b03808a168352808916602084015287604084015260e06060840152612dfb60e0840188612a24565b951660808301525060a081019290925260c090910152949350505050565b6001600160a01b0387168152602080820187905260c060408301528554600091908290600181811c9082811680612e5157607f831692505b8583108103612e6e57634e487b7160e01b85526022600452602485fd5b60c0880183905260e08801818015612e8d5760018114612ea357612ece565b60ff198616825284151560051b82019650612ece565b60008e81526020902060005b86811015612ec857815484820152908501908901612eaf565b83019750505b5050506001600160a01b038a16606088015250919350612eed92505050565b8360808301526104b860a08301846001600160a01b03169052565b602081526000610ce86020830184612a2456fea264697066735822122073325b77a70501b00b2b89523b8b38ac543eb6ab1130f8328e90e2befb1a1aff64736f6c63430008110033",
  "devdoc": {
    "kind": "dev",
    "methods": {
      "_findNearestValidTick(int256,bool)": {
        "details": "Finds the nearest valid tick to either MIN_TICK or MAX_TICK based on the tickSpacing. This function accounts for edge cases to ensure the returned tick is within valid range.",
        "params": {
          "nearestToMin": "If true, finds the nearest valid tick greater than or equal to MIN_TICK.                     If false, finds the nearest valid tick less than or equal to MAX_TICK.",
          "tickSpacing": "The spacing between valid ticks, must be a positive integer."
        },
        "returns": {
          "_0": "The nearest valid tick as an integer, ensuring it falls within the valid tick range."
        }
      },
      "owner()": {
        "details": "Returns the address of the current owner."
      },
      "paused()": {
        "details": "Returns true if the contract is paused, and false otherwise."
      },
      "renounceOwnership()": {
        "details": "Leaves the contract without owner. It will not be possible to call `onlyOwner` functions anymore. Can only be called by the current owner. NOTE: Renouncing ownership will leave the contract without an owner, thereby removing any functionality that is only available to the owner."
      },
      "setChargedParticles(address)": {
        "details": "Setup the ChargedParticles Interface"
      },
      "transferOwnership(address)": {
        "details": "Transfers ownership of the contract to a new account (`newOwner`). Can only be called by the current owner."
      }
    },
    "version": 1
  },
  "userdoc": {
    "kind": "user",
    "methods": {},
    "version": 1
  },
  "storageLayout": {
    "storage": [
      {
        "astId": 7,
        "contract": "contracts/Web3PacksMode.sol:Web3PacksMode",
        "label": "_owner",
        "offset": 0,
        "slot": "0",
        "type": "t_address"
      },
      {
        "astId": 130,
        "contract": "contracts/Web3PacksMode.sol:Web3PacksMode",
        "label": "_paused",
        "offset": 20,
        "slot": "0",
        "type": "t_bool"
      },
      {
        "astId": 231,
        "contract": "contracts/Web3PacksMode.sol:Web3PacksMode",
        "label": "_status",
        "offset": 0,
        "slot": "1",
        "type": "t_uint256"
      },
      {
        "astId": 3785,
        "contract": "contracts/Web3PacksMode.sol:Web3PacksMode",
        "label": "_proton",
        "offset": 0,
        "slot": "2",
        "type": "t_address"
      },
      {
        "astId": 3787,
        "contract": "contracts/Web3PacksMode.sol:Web3PacksMode",
        "label": "_nonfungiblePositionManager",
        "offset": 0,
        "slot": "3",
        "type": "t_address"
      },
      {
        "astId": 3789,
        "contract": "contracts/Web3PacksMode.sol:Web3PacksMode",
        "label": "_chargedParticles",
        "offset": 0,
        "slot": "4",
        "type": "t_address"
      },
      {
        "astId": 3791,
        "contract": "contracts/Web3PacksMode.sol:Web3PacksMode",
        "label": "_chargedState",
        "offset": 0,
        "slot": "5",
        "type": "t_address"
      },
      {
        "astId": 3794,
        "contract": "contracts/Web3PacksMode.sol:Web3PacksMode",
        "label": "_cpWalletManager",
        "offset": 0,
        "slot": "6",
        "type": "t_string_storage"
      },
      {
        "astId": 3797,
        "contract": "contracts/Web3PacksMode.sol:Web3PacksMode",
        "label": "_cpBasketManager",
        "offset": 0,
        "slot": "7",
        "type": "t_string_storage"
      }
    ],
    "types": {
      "t_address": {
        "encoding": "inplace",
        "label": "address",
        "numberOfBytes": "20"
      },
      "t_bool": {
        "encoding": "inplace",
        "label": "bool",
        "numberOfBytes": "1"
      },
      "t_string_storage": {
        "encoding": "bytes",
        "label": "string",
        "numberOfBytes": "32"
      },
      "t_uint256": {
        "encoding": "inplace",
        "label": "uint256",
        "numberOfBytes": "32"
      }
    }
  }
}