{
  "address": "0x41679CC4143aC2C8455039E2A0cCf6D0960db399",
  "abi": [
    {
      "inputs": [
        {
          "internalType": "address",
          "name": "proton",
          "type": "address"
        },
        {
          "internalType": "address",
          "name": "nonfungiblePositionManager",
          "type": "address"
        },
        {
          "internalType": "address",
          "name": "chargedParticles",
          "type": "address"
        },
        {
          "internalType": "address",
          "name": "chargedState",
          "type": "address"
        },
        {
          "internalType": "address",
          "name": "kimRouter",
          "type": "address"
        },
        {
          "internalType": "address",
          "name": "velodromeRouter",
          "type": "address"
        }
      ],
      "stateMutability": "nonpayable",
      "type": "constructor"
    },
    {
      "inputs": [],
      "name": "ContractNotAllowed",
      "type": "error"
    },
    {
      "inputs": [],
      "name": "FundingFailed",
      "type": "error"
    },
    {
      "inputs": [],
      "name": "InsufficientForFee",
      "type": "error"
    },
    {
      "inputs": [],
      "name": "MismatchedTokens",
      "type": "error"
    },
    {
      "inputs": [],
      "name": "NativeAssetTransferFailed",
      "type": "error"
    },
    {
      "inputs": [],
      "name": "NotOwnerOrApproved",
      "type": "error"
    },
    {
      "inputs": [],
      "name": "NullReceiver",
      "type": "error"
    },
    {
      "inputs": [
        {
          "internalType": "address",
          "name": "tokenOut",
          "type": "address"
        },
        {
          "internalType": "uint256",
          "name": "amountIn",
          "type": "uint256"
        },
        {
          "internalType": "address",
          "name": "router",
          "type": "address"
        }
      ],
      "name": "UnsucessfulSwap",
      "type": "error"
    },
    {
      "anonymous": false,
      "inputs": [
        {
          "indexed": true,
          "internalType": "address",
          "name": "chargedParticles",
          "type": "address"
        }
      ],
      "name": "ChargedParticlesSet",
      "type": "event"
    },
    {
      "anonymous": false,
      "inputs": [
        {
          "indexed": true,
          "internalType": "address",
          "name": "chargedState",
          "type": "address"
        }
      ],
      "name": "ChargedStateSet",
      "type": "event"
    },
    {
      "anonymous": false,
      "inputs": [
        {
          "indexed": true,
          "internalType": "address",
          "name": "previousOwner",
          "type": "address"
        },
        {
          "indexed": true,
          "internalType": "address",
          "name": "newOwner",
          "type": "address"
        }
      ],
      "name": "OwnershipTransferred",
      "type": "event"
    },
    {
      "anonymous": false,
      "inputs": [
        {
          "indexed": true,
          "internalType": "uint256",
          "name": "tokenId",
          "type": "uint256"
        },
        {
          "indexed": true,
          "internalType": "address",
          "name": "receiver",
          "type": "address"
        }
      ],
      "name": "PackBundled",
      "type": "event"
    },
    {
      "anonymous": false,
      "inputs": [
        {
          "indexed": true,
          "internalType": "uint256",
          "name": "tokenId",
          "type": "uint256"
        },
        {
          "indexed": true,
          "internalType": "address",
          "name": "receiver",
          "type": "address"
        }
      ],
      "name": "PackUnbundled",
      "type": "event"
    },
    {
      "anonymous": false,
      "inputs": [
        {
          "indexed": false,
          "internalType": "address",
          "name": "account",
          "type": "address"
        }
      ],
      "name": "Paused",
      "type": "event"
    },
    {
      "anonymous": false,
      "inputs": [
        {
          "indexed": false,
          "internalType": "uint256",
          "name": "fee",
          "type": "uint256"
        }
      ],
      "name": "ProtocolFeeSet",
      "type": "event"
    },
    {
      "anonymous": false,
      "inputs": [
        {
          "indexed": true,
          "internalType": "address",
          "name": "proton",
          "type": "address"
        }
      ],
      "name": "ProtonSet",
      "type": "event"
    },
    {
      "anonymous": false,
      "inputs": [
        {
          "indexed": true,
          "internalType": "address",
          "name": "router",
          "type": "address"
        }
      ],
      "name": "RouterSet",
      "type": "event"
    },
    {
      "anonymous": false,
      "inputs": [
        {
          "indexed": false,
          "internalType": "address",
          "name": "account",
          "type": "address"
        }
      ],
      "name": "Unpaused",
      "type": "event"
    },
    {
      "anonymous": false,
      "inputs": [
        {
          "indexed": true,
          "internalType": "address",
          "name": "receiver",
          "type": "address"
        },
        {
          "indexed": true,
          "internalType": "address",
          "name": "tokenAddress",
          "type": "address"
        },
        {
          "indexed": true,
          "internalType": "uint256",
          "name": "tokenId",
          "type": "uint256"
        },
        {
          "indexed": false,
          "internalType": "uint256",
          "name": "amount",
          "type": "uint256"
        }
      ],
      "name": "WithdrawStuckERC1155",
      "type": "event"
    },
    {
      "anonymous": false,
      "inputs": [
        {
          "indexed": true,
          "internalType": "address",
          "name": "receiver",
          "type": "address"
        },
        {
          "indexed": true,
          "internalType": "address",
          "name": "tokenAddress",
          "type": "address"
        },
        {
          "indexed": false,
          "internalType": "uint256",
          "name": "amount",
          "type": "uint256"
        }
      ],
      "name": "WithdrawStuckERC20",
      "type": "event"
    },
    {
      "anonymous": false,
      "inputs": [
        {
          "indexed": true,
          "internalType": "address",
          "name": "receiver",
          "type": "address"
        },
        {
          "indexed": true,
          "internalType": "address",
          "name": "tokenAddress",
          "type": "address"
        },
        {
          "indexed": true,
          "internalType": "uint256",
          "name": "tokenId",
          "type": "uint256"
        }
      ],
      "name": "WithdrawStuckERC721",
      "type": "event"
    },
    {
      "anonymous": false,
      "inputs": [
        {
          "indexed": true,
          "internalType": "address",
          "name": "receiver",
          "type": "address"
        },
        {
          "indexed": false,
          "internalType": "uint256",
          "name": "amount",
          "type": "uint256"
        }
      ],
      "name": "WithdrawStuckEther",
      "type": "event"
    },
    {
      "inputs": [
        {
          "internalType": "address payable",
          "name": "receiver",
          "type": "address"
        },
        {
          "internalType": "string",
          "name": "tokenMetaUri",
          "type": "string"
        },
        {
          "components": [
            {
              "internalType": "bytes",
              "name": "callData",
              "type": "bytes"
            },
            {
              "internalType": "address",
              "name": "contractAddress",
              "type": "address"
            },
            {
              "internalType": "uint256",
              "name": "amountIn",
              "type": "uint256"
            }
          ],
          "internalType": "struct IWeb3Packs.ContractCallGeneric[]",
          "name": "contractCalls",
          "type": "tuple[]"
        },
        {
          "components": [
            {
              "internalType": "bytes",
              "name": "callData",
              "type": "bytes"
            },
            {
              "internalType": "address",
              "name": "router",
              "type": "address"
            },
            {
              "internalType": "address",
              "name": "tokenIn",
              "type": "address"
            },
            {
              "internalType": "address",
              "name": "tokenOut",
              "type": "address"
            },
            {
              "internalType": "uint256",
              "name": "tokenAmountIn",
              "type": "uint256"
            },
            {
              "internalType": "uint256",
              "name": "payableAmountIn",
              "type": "uint256"
            },
            {
              "internalType": "bytes32",
              "name": "liquidityUuid",
              "type": "bytes32"
            },
            {
              "internalType": "enum IWeb3Packs.RouterType",
              "name": "routerType",
              "type": "uint8"
            }
          ],
          "internalType": "struct IWeb3Packs.ERC20SwapOrderGeneric[]",
          "name": "erc20SwapOrders",
          "type": "tuple[]"
        },
        {
          "components": [
            {
              "internalType": "bytes",
              "name": "callData",
              "type": "bytes"
            },
            {
              "internalType": "address",
              "name": "router",
              "type": "address"
            },
            {
              "internalType": "address",
              "name": "token0",
              "type": "address"
            },
            {
              "internalType": "address",
              "name": "token1",
              "type": "address"
            },
            {
              "internalType": "uint256",
              "name": "amount0ToMint",
              "type": "uint256"
            },
            {
              "internalType": "uint256",
              "name": "amount1ToMint",
              "type": "uint256"
            },
            {
              "internalType": "bytes32",
              "name": "liquidityUuidToken0",
              "type": "bytes32"
            },
            {
              "internalType": "bytes32",
              "name": "liquidityUuidToken1",
              "type": "bytes32"
            },
            {
              "internalType": "uint256",
              "name": "payableAmountIn",
              "type": "uint256"
            },
            {
              "internalType": "bool",
              "name": "stable",
              "type": "bool"
            },
            {
              "internalType": "enum IWeb3Packs.RouterType",
              "name": "routerType",
              "type": "uint8"
            }
          ],
          "internalType": "struct IWeb3Packs.LiquidityOrderGeneric[]",
          "name": "liquidityOrders",
          "type": "tuple[]"
        },
        {
          "components": [
            {
              "internalType": "uint256",
              "name": "ERC20Timelock",
              "type": "uint256"
            },
            {
              "internalType": "uint256",
              "name": "ERC721Timelock",
              "type": "uint256"
            }
          ],
          "internalType": "struct IWeb3Packs.LockState",
          "name": "lockState",
          "type": "tuple"
        },
        {
          "internalType": "uint256",
          "name": "ethPackPrice",
          "type": "uint256"
        }
      ],
      "name": "bundle",
      "outputs": [
        {
          "internalType": "uint256",
          "name": "tokenId",
          "type": "uint256"
        }
      ],
      "stateMutability": "payable",
      "type": "function"
    },
    {
      "inputs": [
        {
          "internalType": "address",
          "name": "",
          "type": "address"
        },
        {
          "internalType": "address",
          "name": "",
          "type": "address"
        },
        {
          "internalType": "uint256",
          "name": "",
          "type": "uint256"
        },
        {
          "internalType": "bytes",
          "name": "",
          "type": "bytes"
        }
      ],
      "name": "onERC721Received",
      "outputs": [
        {
          "internalType": "bytes4",
          "name": "",
          "type": "bytes4"
        }
      ],
      "stateMutability": "pure",
      "type": "function"
    },
    {
      "inputs": [],
      "name": "owner",
      "outputs": [
        {
          "internalType": "address",
          "name": "",
          "type": "address"
        }
      ],
      "stateMutability": "view",
      "type": "function"
    },
    {
      "inputs": [],
      "name": "pause",
      "outputs": [],
      "stateMutability": "nonpayable",
      "type": "function"
    },
    {
      "inputs": [],
      "name": "paused",
      "outputs": [
        {
          "internalType": "bool",
          "name": "",
          "type": "bool"
        }
      ],
      "stateMutability": "view",
      "type": "function"
    },
    {
      "inputs": [],
      "name": "renounceOwnership",
      "outputs": [],
      "stateMutability": "nonpayable",
      "type": "function"
    },
    {
      "inputs": [
        {
          "internalType": "address",
          "name": "chargedParticles",
          "type": "address"
        }
      ],
      "name": "setChargedParticles",
      "outputs": [],
      "stateMutability": "nonpayable",
      "type": "function"
    },
    {
      "inputs": [
        {
          "internalType": "address",
          "name": "chargedState",
          "type": "address"
        }
      ],
      "name": "setChargedState",
      "outputs": [],
      "stateMutability": "nonpayable",
      "type": "function"
    },
    {
      "inputs": [
        {
          "internalType": "address",
          "name": "contractAddress",
          "type": "address"
        },
        {
          "internalType": "bool",
          "name": "isAllowed",
          "type": "bool"
        }
      ],
      "name": "setContractAllowlist",
      "outputs": [],
      "stateMutability": "nonpayable",
      "type": "function"
    },
    {
      "inputs": [
        {
          "internalType": "uint256",
          "name": "fee",
          "type": "uint256"
        }
      ],
      "name": "setProtocolFee",
      "outputs": [],
      "stateMutability": "nonpayable",
      "type": "function"
    },
    {
      "inputs": [
        {
          "internalType": "address",
          "name": "proton",
          "type": "address"
        }
      ],
      "name": "setProton",
      "outputs": [],
      "stateMutability": "nonpayable",
      "type": "function"
    },
    {
      "inputs": [
        {
          "internalType": "address",
          "name": "newOwner",
          "type": "address"
        }
      ],
      "name": "transferOwnership",
      "outputs": [],
      "stateMutability": "nonpayable",
      "type": "function"
    },
    {
      "inputs": [
        {
          "internalType": "address",
          "name": "receiver",
          "type": "address"
        },
        {
          "internalType": "address",
          "name": "tokenAddress",
          "type": "address"
        },
        {
          "internalType": "uint256",
          "name": "tokenId",
          "type": "uint256"
        },
        {
          "components": [
            {
              "internalType": "address[]",
              "name": "erc20TokenAddresses",
              "type": "address[]"
            },
            {
              "components": [
                {
                  "internalType": "address",
                  "name": "tokenAddress",
                  "type": "address"
                },
                {
                  "internalType": "uint256",
                  "name": "id",
                  "type": "uint256"
                }
              ],
              "internalType": "struct IWeb3Packs.NFT[]",
              "name": "nfts",
              "type": "tuple[]"
            }
          ],
          "internalType": "struct IWeb3Packs.Web3PackOrder",
          "name": "web3PackOrder",
          "type": "tuple"
        }
      ],
      "name": "unbundle",
      "outputs": [],
      "stateMutability": "nonpayable",
      "type": "function"
    },
    {
      "inputs": [
        {
          "internalType": "address",
          "name": "receiver",
          "type": "address"
        },
        {
          "internalType": "address",
          "name": "tokenAddress",
          "type": "address"
        },
        {
          "internalType": "uint256",
          "name": "tokenId",
          "type": "uint256"
        },
        {
          "internalType": "string",
          "name": "walletManager",
          "type": "string"
        },
        {
          "components": [
            {
              "internalType": "address[]",
              "name": "erc20TokenAddresses",
              "type": "address[]"
            },
            {
              "components": [
                {
                  "internalType": "address",
                  "name": "tokenAddress",
                  "type": "address"
                },
                {
                  "internalType": "uint256",
                  "name": "id",
                  "type": "uint256"
                }
              ],
              "internalType": "struct IWeb3Packs.NFT[]",
              "name": "nfts",
              "type": "tuple[]"
            }
          ],
          "internalType": "struct IWeb3Packs.Web3PackOrder",
          "name": "web3PackOrder",
          "type": "tuple"
        }
      ],
      "name": "unbundleFromManager",
      "outputs": [],
      "stateMutability": "nonpayable",
      "type": "function"
    },
    {
      "inputs": [],
      "name": "unpause",
      "outputs": [],
      "stateMutability": "nonpayable",
      "type": "function"
    },
    {
      "inputs": [
        {
          "internalType": "address payable",
          "name": "receiver",
          "type": "address"
        },
        {
          "internalType": "address",
          "name": "tokenAddress",
          "type": "address"
        },
        {
          "internalType": "uint256",
          "name": "tokenId",
          "type": "uint256"
        },
        {
          "internalType": "uint256",
          "name": "amount",
          "type": "uint256"
        }
      ],
      "name": "withdrawERC1155",
      "outputs": [],
      "stateMutability": "nonpayable",
      "type": "function"
    },
    {
      "inputs": [
        {
          "internalType": "address payable",
          "name": "receiver",
          "type": "address"
        },
        {
          "internalType": "address",
          "name": "tokenAddress",
          "type": "address"
        },
        {
          "internalType": "uint256",
          "name": "tokenId",
          "type": "uint256"
        }
      ],
      "name": "withdrawERC721",
      "outputs": [],
      "stateMutability": "nonpayable",
      "type": "function"
    },
    {
      "inputs": [
        {
          "internalType": "address payable",
          "name": "receiver",
          "type": "address"
        },
        {
          "internalType": "address",
          "name": "tokenAddress",
          "type": "address"
        },
        {
          "internalType": "uint256",
          "name": "amount",
          "type": "uint256"
        }
      ],
      "name": "withdrawErc20",
      "outputs": [],
      "stateMutability": "nonpayable",
      "type": "function"
    },
    {
      "inputs": [
        {
          "internalType": "address payable",
          "name": "receiver",
          "type": "address"
        },
        {
          "internalType": "uint256",
          "name": "amount",
          "type": "uint256"
        }
      ],
      "name": "withdrawEther",
      "outputs": [],
      "stateMutability": "nonpayable",
      "type": "function"
    }
  ],
  "transactionHash": "0x3642775300ed9bb4c896f57419c5cc06f3053410b3e148bdb6ad5f3c53c8b1cd",
  "args": [
    "0x76a5df1c6F53A4B80c8c8177edf52FBbC368E825",
    "0x2e8614625226D26180aDf6530C3b1677d3D7cf10",
    "0x0288280Df6221E7e9f23c1BB398c820ae0Aa6c10",
    "0x2691B4f4251408bA4b8bf9530B6961b9D0C1231F",
    "0xAc48FcF1049668B285f3dC72483DF5Ae2162f7e8",
    "0x3a63171DD9BebF4D07BC782FECC7eb0b890C2A45"
  ],
  "numDeployments": 2,
  "solcInputHash": "5c77c0a1ecd392c4f697b228bef3aeba",
  "bytecode": "0x60c0604052600960809081526833b2b732b934b1972160b91b60a0526008906200002a90826200022d565b506040805180820190915260098082526833b2b732b934b1972160b91b6020830152906200005990826200022d565b503480156200006757600080fd5b5060405162003f5338038062003f538339810160408190526200008a9162000316565b620000953362000138565b6000805460ff60a01b191681556001808055600280546001600160a01b03199081166001600160a01b039a8b1617909155600380548216988a169889179055600480548216978a169790971790965560058054909616948816949094179094559085168352600a6020526040808420805460ff19908116851790915591909516835284832080548216831790559282529290208054909116909117905562000397565b600080546001600160a01b038381166001600160a01b0319831681178455604051919092169283917f8be0079c531659141344cd1fd0a4f28419497f9722a3daafe3b4186f6b6457e09190a35050565b634e487b7160e01b600052604160045260246000fd5b600181811c90821680620001b357607f821691505b602082108103620001d457634e487b7160e01b600052602260045260246000fd5b50919050565b601f8211156200022857600081815260208120601f850160051c81016020861015620002035750805b601f850160051c820191505b8181101562000224578281556001016200020f565b5050505b505050565b81516001600160401b0381111562000249576200024962000188565b62000261816200025a84546200019e565b84620001da565b602080601f831160018114620002995760008415620002805750858301515b600019600386901b1c1916600185901b17855562000224565b600085815260208120601f198616915b82811015620002ca57888601518255948401946001909101908401620002a9565b5085821015620002e95787850151600019600388901b60f8161c191681555b5050505050600190811b01905550565b80516001600160a01b03811681146200031157600080fd5b919050565b60008060008060008060c087890312156200033057600080fd5b6200033b87620002f9565b95506200034b60208801620002f9565b94506200035b60408801620002f9565b93506200036b60608801620002f9565b92506200037b60808801620002f9565b91506200038b60a08801620002f9565b90509295509295509295565b613bac80620003a76000396000f3fe6080604052600436106101145760003560e01c8063787dce3d116100a0578063b7683e9311610064578063b7683e93146102f7578063bd32661614610317578063d3d9cd5f14610337578063d8214b4914610357578063f2fde38b1461037757600080fd5b8063787dce3d146102595780638456cb59146102795780638da5cb5b1461028e578063a0edb48b146102b6578063b32476e8146102d657600080fd5b806342c49a29116100e757806342c49a29146101ba578063522f6815146101da5780635c975abb146101fa5780636e5559fd14610224578063715018a61461024457600080fd5b8063150b7a02146101195780631593dee1146101635780633f4ba83a146101855780634025feb21461019a575b600080fd5b34801561012557600080fd5b50610145610134366004612e48565b630a85bd0160e11b95945050505050565b6040516001600160e01b031990911681526020015b60405180910390f35b34801561016f57600080fd5b5061018361017e366004612eba565b610397565b005b34801561019157600080fd5b506101836103af565b3480156101a657600080fd5b506101836101b5366004612eba565b6103c1565b3480156101c657600080fd5b506101836101d5366004612f14565b6103d4565b3480156101e657600080fd5b506101836101f5366004612f4d565b610407565b34801561020657600080fd5b50600054600160a01b900460ff16604051901515815260200161015a565b34801561023057600080fd5b5061018361023f366004612f79565b61041d565b34801561025057600080fd5b5061018361046f565b34801561026557600080fd5b50610183610274366004612f96565b610481565b34801561028557600080fd5b506101836104c4565b34801561029a57600080fd5b506000546040516001600160a01b03909116815260200161015a565b3480156102c257600080fd5b506101836102d1366004612faf565b6104d4565b6102e96102e4366004613051565b6104ee565b60405190815260200161015a565b34801561030357600080fd5b50610183610312366004612f79565b6106a7565b34801561032357600080fd5b50610183610332366004612f79565b6106f9565b34801561034357600080fd5b50610183610352366004613145565b61074b565b34801561036357600080fd5b506101836103723660046131b0565b610831565b34801561038357600080fd5b50610183610392366004612f79565b6108cc565b61039f61094a565b6103aa8383836109a4565b505050565b6103b761094a565b6103bf610a9f565b565b6103c961094a565b6103aa838383610af4565b6103dc61094a565b6001600160a01b03919091166000908152600a60205260409020805460ff1916911515919091179055565b61040f61094a565b6104198282610c41565b5050565b61042561094a565b600480546001600160a01b0319166001600160a01b0383169081179091556040517f5ce0e6b7fd36339ee97339831b6c72694ecee88c62aab49919d9cabe0a732e4190600090a250565b61047761094a565b6103bf6000610cc7565b61048961094a565b60078190556040518181527fdb5aafdb29539329e37d4e3ee869bc4031941fd55a5dfc92824fbe34b204e30d9060200160405180910390a150565b6104cc61094a565b6103bf610d17565b6104dc61094a565b6104e884848484610d5a565b50505050565b60006104f8610ec5565b610500610f12565b6001600160a01b038c166105275760405163150a167760e11b815260040160405180910390fd5b60006007541180156105445750600754610541908361325c565b34105b156105625760405163c53f371760e01b815260040160405180910390fd5b60075460066000828254610576919061325c565b9091555050604080516020601f8d018190048102820181019092528b81526105b8918d908d9081908401838280828437600092019190915250610f6b92505050565b90506105c48989610fe9565b6105cf87878361103b565b6105da85858361108f565b6105e483826110e2565b600254604051632142170760e11b81523060048201526001600160a01b038e8116602483015260448201849052909116906342842e0e90606401600060405180830381600087803b15801561063857600080fd5b505af115801561064c573d6000803e3d6000fd5b505050506106598c6111d1565b6040516001600160a01b038d169082907ff8779000d9fe2bd438edb299891b05fae0b929d746d3c3e5560d065c690f357d90600090a361069860018055565b9b9a5050505050505050505050565b6106af61094a565b600480546001600160a01b0319166001600160a01b0383169081179091556040517f62ff39aed768a426c7582b6e1062ab2631df1869b2d574e36f8274d2e2b0ab8190600090a250565b61070161094a565b600280546001600160a01b0319166001600160a01b0383169081179091556040517fa3d7b0fff2d93a7ba440166a8f7eba4acfe6e000fe19b8218e64264d62ef272690600090a250565b610753610ec5565b61075b610f12565b6107f28484846008805461076e9061326f565b80601f016020809104026020016040519081016040528092919081815260200182805461079a9061326f565b80156107e75780601f106107bc576101008083540402835291602001916107e7565b820191906000526020600020905b8154815290600101906020018083116107ca57829003601f168201915b50505050508561125d565b6040516001600160a01b0385169083907fa93981b9cfa5fc675dd31c2c87b0d4f1f590180abd86d15f509ccb544775b2b990600090a36104e860018055565b610839610ec5565b610841610f12565b61088586868686868080601f01602080910402602001604051908101604052809392919081815260200183838082843760009201919091525088925061125d915050565b6040516001600160a01b0387169085907fa93981b9cfa5fc675dd31c2c87b0d4f1f590180abd86d15f509ccb544775b2b990600090a36108c460018055565b505050505050565b6108d461094a565b6001600160a01b03811661093e5760405162461bcd60e51b815260206004820152602660248201527f4f776e61626c653a206e6577206f776e657220697320746865207a65726f206160448201526564647265737360d01b60648201526084015b60405180910390fd5b61094781610cc7565b50565b6000546001600160a01b031633146103bf5760405162461bcd60e51b815260206004820181905260248201527f4f776e61626c653a2063616c6c6572206973206e6f7420746865206f776e65726044820152606401610935565b6001600160a01b0383166109ca5760405162461bcd60e51b8152600401610935906132a3565b6040516370a0823160e01b815230600482015281906001600160a01b038416906370a0823190602401602060405180830381865afa158015610a10573d6000803e3d6000fd5b505050506040513d601f19601f82011682018060405250810190610a3491906132c6565b106103aa57610a4d6001600160a01b03831684836114d3565b816001600160a01b0316836001600160a01b03167f6c9d637297625e945b296ff73a71fcfbd0a9e062652b6491a921c4c60194176b83604051610a9291815260200190565b60405180910390a3505050565b610aa7611525565b6000805460ff60a01b191690557f5db9ee0a495bf2e6ff9c91a7834c1ba4fdd244a5e8aa4e537bd38aeae4b073aa335b6040516001600160a01b03909116815260200160405180910390a1565b6001600160a01b038316610b1a5760405162461bcd60e51b8152600401610935906132a3565b6040516331a9108f60e11b81526004810182905230906001600160a01b03841690636352211e90602401602060405180830381865afa158015610b61573d6000803e3d6000fd5b505050506040513d601f19601f82011682018060405250810190610b8591906132df565b6001600160a01b0316036103aa576040516323b872dd60e01b81523060048201526001600160a01b038481166024830152604482018390528316906323b872dd90606401600060405180830381600087803b158015610be357600080fd5b505af1158015610bf7573d6000803e3d6000fd5b5050505080826001600160a01b0316846001600160a01b03167ffefe036cac4ee3a4aca074a81cbcc4376e1484693289078dbec149c890101d5b60405160405180910390a4505050565b6001600160a01b038216610c675760405162461bcd60e51b8152600401610935906132a3565b80471061041957610c816001600160a01b03831682611575565b816001600160a01b03167eddb683bb45cd5d0ad8a200c6fae7152b1c236ee90a4a37db692407f5cc38bd82604051610cbb91815260200190565b60405180910390a25050565b600080546001600160a01b038381166001600160a01b0319831681178455604051919092169283917f8be0079c531659141344cd1fd0a4f28419497f9722a3daafe3b4186f6b6457e09190a35050565b610d1f610ec5565b6000805460ff60a01b1916600160a01b1790557f62e78cea01bee320cd4e420270b5ea74000d11b0c9f74754ebdbfc544b05a258610ad73390565b6001600160a01b038416610d805760405162461bcd60e51b8152600401610935906132a3565b604051627eeac760e11b81523060048201526024810183905281906001600160a01b0385169062fdd58e90604401602060405180830381865afa158015610dcb573d6000803e3d6000fd5b505050506040513d601f19601f82011682018060405250810190610def91906132c6565b106104e857604051637921219560e11b81523060048201526001600160a01b038581166024830152604482018490526064820183905260a06084830152600060a483015284169063f242432a9060c401600060405180830381600087803b158015610e5957600080fd5b505af1158015610e6d573d6000803e3d6000fd5b5050505081836001600160a01b0316856001600160a01b03167f620337bf89eea2b9ae2657beead83b5fa620452817118348aff96e201d52598b84604051610eb791815260200190565b60405180910390a450505050565b600054600160a01b900460ff16156103bf5760405162461bcd60e51b815260206004820152601060248201526f14185d5cd8589b194e881c185d5cd95960821b6044820152606401610935565b600260015403610f645760405162461bcd60e51b815260206004820152601f60248201527f5265656e7472616e637947756172643a207265656e7472616e742063616c6c006044820152606401610935565b6002600155565b600254604051632c0cd5a360e01b81526000916001600160a01b031690632c0cd5a390610fa09030908190879060040161334c565b6020604051808303816000875af1158015610fbf573d6000803e3d6000fd5b505050506040513d601f19601f82011682018060405250810190610fe391906132c6565b92915050565b60005b818110156103aa5761102983838381811061100957611009613381565b905060200281019061101b9190613397565b611024906134b8565b61168e565b8061103381613536565b915050610fec565b60005b828110156104e85761107c84848381811061105b5761105b613381565b905060200281019061106d919061354f565b61107690613574565b8361174a565b508061108781613536565b91505061103e565b60005b828110156104e8576110d08484838181106110af576110af613381565b90506020028101906110c1919061361c565b6110ca90613633565b83611948565b806110da81613536565b915050611092565b8135156111595760055460025460405163048001e960e11b81526001600160a01b039182166004820152602481018490528435604482015291169063090003d290606401600060405180830381600087803b15801561114057600080fd5b505af1158015611154573d6000803e3d6000fd5b505050505b60208201351561041957600554600254604051639079900160e01b81526001600160a01b0391821660048201526024810184905260208501356044820152911690639079900190606401600060405180830381600087803b1580156111bd57600080fd5b505af11580156108c4573d6000803e3d6000fd5b6000600654476111e19190613704565b90508015610419576000826001600160a01b03168260405160006040518083038185875af1925050503d8060008114611236576040519150601f19603f3d011682016040523d82523d6000602084013e61123b565b606091505b50509050806103aa57604051635a04673760e01b815260040160405180910390fd5b6040516331a9108f60e11b8152600481018490526000906001600160a01b03861690636352211e90602401602060405180830381865afa1580156112a5573d6000803e3d6000fd5b505050506040513d601f19601f820116820180604052508101906112c991906132df565b9050336001600160a01b038216146112f457604051636d8a29e760e11b815260040160405180910390fd5b60005b6113018380613717565b90508110156113c5576004546001600160a01b031663acab923c888888886113298980613717565b8881811061133957611339613381565b905060200201602081019061134e9190612f79565b6040518663ffffffff1660e01b815260040161136e959493929190613760565b60408051808303816000875af115801561138c573d6000803e3d6000fd5b505050506040513d601f19601f820116820180604052508101906113b091906137a5565b505080806113bd90613536565b9150506112f7565b5060005b6113d660208401846137c9565b90508110156114c8576004546001600160a01b031663fe02fb008888888861140160208a018a6137c9565b8881811061141157611411613381565b6114279260206040909202019081019150612f79565b61143460208b018b6137c9565b8981811061144457611444613381565b9050604002016020013560016040518863ffffffff1660e01b81526004016114729796959493929190613812565b6020604051808303816000875af1158015611491573d6000803e3d6000fd5b505050506040513d601f19601f820116820180604052508101906114b59190613860565b50806114c081613536565b9150506113c9565b506108c48487611e37565b604080516001600160a01b038416602482015260448082018490528251808303909101815260649091019091526020810180516001600160e01b031663a9059cbb60e01b1790526103aa908490612033565b600054600160a01b900460ff166103bf5760405162461bcd60e51b815260206004820152601460248201527314185d5cd8589b194e881b9bdd081c185d5cd95960621b6044820152606401610935565b804710156115c55760405162461bcd60e51b815260206004820152601d60248201527f416464726573733a20696e73756666696369656e742062616c616e63650000006044820152606401610935565b6000826001600160a01b03168260405160006040518083038185875af1925050503d8060008114611612576040519150601f19603f3d011682016040523d82523d6000602084013e611617565b606091505b50509050806103aa5760405162461bcd60e51b815260206004820152603a60248201527f416464726573733a20756e61626c6520746f2073656e642076616c75652c207260448201527f6563697069656e74206d617920686176652072657665727465640000000000006064820152608401610935565b6020808201516001600160a01b03166000908152600a909152604090205460ff166116cc576040516311970e2d60e31b815260040160405180910390fd5b60008082602001516001600160a01b0316836040015184600001516040516116f4919061387d565b60006040518083038185875af1925050503d8060008114611731576040519150601f19603f3d011682016040523d82523d6000602084013e611736565b606091505b5091509150816103aa578051602082018181fd5b6020808301516001600160a01b03166000908152600a909152604081205460ff16611788576040516311970e2d60e31b815260040160405180910390fd5b61179f836040015184602001518560800151612105565b60008084602001516001600160a01b03168560a0015186600001516040516117c7919061387d565b60006040518083038185875af1925050503d8060008114611804576040519150601f19603f3d011682016040523d82523d6000602084013e611809565b606091505b50915091508161181d578051602082018181fd5b60008560e0015160028111156118355761183561388f565b1480611856575060028560e0015160028111156118545761185461388f565b145b1561189e5760008180602001905181019061187191906138a5565b905080600182516118829190613704565b8151811061189257611892613381565b60200260200101519350505b60018560e0015160028111156118b6576118b661388f565b036118d257808060200190518101906118cf91906132c6565b92505b60c08501516118ef576118ea84866060015185612205565b611940565b60408051808201825260608701516001600160a01b039081168252602080830187815260c08a01516000908152600c909252939020915182546001600160a01b031916911617815590516001909101555b505092915050565b6020808301516001600160a01b03166000908152600a909152604090205460ff16611986576040516311970e2d60e31b815260040160405180910390fd5b608082015160a083015160c0840151156119f95760c08401516000908152600c60205260409081902054908501516001600160a01b039081169116146119df5760405163d0e96f5b60e01b815260040160405180910390fd5b60c08401516000908152600c602052604090206001015491505b60e084015115611a605760e08401516000908152600c602052604090205460608501516001600160a01b03908116911614611a475760405163d0e96f5b60e01b815260040160405180910390fd5b5060e08301516000908152600c60205260409020600101545b611a738460400151856020015184612105565b611a868460600151856020015183612105565b60008085602001516001600160a01b03168661010001518760000151604051611aaf919061387d565b60006040518083038185875af1925050503d8060008114611aec576040519150601f19603f3d011682016040523d82523d6000602084013e611af1565b606091505b509150915081611b05578051602082018181fd5b6000808080808a61014001516002811115611b2257611b2261388f565b1480611b44575060028a61014001516002811115611b4257611b4261388f565b145b15611ba45784806020019051810190611b5d9190613961565b8095508193508294505050506000611b888b61014001518c602001518d604001518e60600151612310565b9050806001600160a01b03169450611ba28a826000612205565b505b60018a61014001516002811115611bbd57611bbd61388f565b03611c965784806020019051810190611bd69190613996565b600254600980549599509397509195509350611c96926001600160a01b03909116918c91611c039061326f565b80601f0160208091040260200160405190810160405280929190818152602001828054611c2f9061326f565b8015611c7c5780601f10611c5157610100808354040283529160200191611c7c565b820191906000526020600020905b815481529060010190602001808311611c5f57829003601f168201915b50506003546001600160a01b031692508a91506124389050565b600d60008a81526020019081526020016000206040518060e00160405280868152602001856001600160801b031681526020018c6101200151151581526020018c604001516001600160a01b031681526020018c606001516001600160a01b031681526020018c602001516001600160a01b031681526020018c61014001516002811115611d2657611d2661388f565b90528154600180820184556000938452602093849020835160059093020191825592820151928101805460408401516001600160801b0390951670ffffffffffffffffffffffffffffffffff1990911617600160801b94151594909402939093179092556060810151600280840180546001600160a01b03199081166001600160a01b03948516179091556080840151600386018054831691851691909117905560a084015160048601805492831691909416908117845560c085015194959493926001600160a81b03199092161790600160a01b908490811115611e0d57611e0d61388f565b02179055505050611e2b848b60400151848b8e60600151868d61251d565b50505050505050505050565b60008060008060005b6000878152600d602052604090205481101561202a576000878152600d60205260408120805483908110611e7657611e76613381565b60009182526020918290206040805160e08101825260059093029091018054835260018101546001600160801b0381169484019490945260ff600160801b90940484161515918301919091526002808201546001600160a01b039081166060850152600383015481166080850152600483015490811660a08501529293919260c0850192600160a01b9091041690811115611f1357611f1361388f565b6002811115611f2457611f2461388f565b9052509050611f3381896125c9565b611f3c81612752565b909650945060018160c001516002811115611f5957611f5961388f565b03611f6d57611f6781612a6f565b90965094505b80516000908152600b602081815260408084206060860180516001600160a01b0390811687529184528286205487518752858552838720608089018051851689529086528488205489518952878752858920845186168a528752858920899055895189529686528488209051909316875291909352908420939093555191955093506120039088611ffe878a61325c565b612aeb565b60808101516120179088611ffe868961325c565b508061202281613536565b915050611e40565b50505050505050565b6000612088826040518060400160405280602081526020017f5361666545524332303a206c6f772d6c6576656c2063616c6c206661696c6564815250856001600160a01b0316612be49092919063ffffffff16565b8051909150156103aa57808060200190518101906120a69190613860565b6103aa5760405162461bcd60e51b815260206004820152602a60248201527f5361666545524332303a204552433230206f7065726174696f6e20646964206e6044820152691bdd081cdd58d8d9595960b21b6064820152608401610935565b604080516001600160a01b038481166024830152604480830185905283518084039091018152606490920183526020820180516001600160e01b031663095ea7b360e01b1790529151600092839290871691612161919061387d565b6000604051808303816000865af19150503d806000811461219e576040519150601f19603f3d011682016040523d82523d6000602084013e6121a3565b606091505b50915091508180156121cd5750805115806121cd5750808060200190518101906121cd9190613860565b6121fe5760405162461bcd60e51b8152602060048201526002602482015261534160f01b6044820152606401610935565b5050505050565b80600003612278576040516370a0823160e01b81523060048201526001600160a01b038316906370a0823190602401602060405180830381865afa158015612251573d6000803e3d6000fd5b505050506040513d601f19601f8201168201806040525081019061227591906132c6565b90505b6004546122909083906001600160a01b031683612105565b600480546002546040516305eef16560e11b81526001600160a01b0392831693630bdde2ca936122cd931691889160089189918991309101613a76565b6020604051808303816000875af11580156122ec573d6000803e3d6000fd5b505050506040513d601f19601f820116820180604052508101906104e891906132c6565b600060028560028111156123265761232661388f565b036123ab5760405163147585a560e11b81526001600160a01b0384811660048301528381166024830152600060448301528516906328eb0b4a90606401602060405180830381865afa158015612380573d6000803e3d6000fd5b505050506040513d601f19601f820116820180604052508101906123a491906132df565b9050612430565b60006123b685612bf3565b60405163e6a4390560e01b81526001600160a01b03868116600483015285811660248301529192509082169063e6a4390590604401602060405180830381865afa158015612408573d6000803e3d6000fd5b505050506040513d601f19601f8201168201806040525081019061242c91906132df565b9150505b949350505050565b6004805460405163a22cb46560e01b81526001600160a01b03918216928101929092526001602483015283169063a22cb46590604401600060405180830381600087803b15801561248857600080fd5b505af115801561249c573d6000803e3d6000fd5b505060048054604051630ffe55b360e21b81526001600160a01b039091169350633ff956cc92506124da918991899189918991899160019101613abe565b6020604051808303816000875af11580156124f9573d6000803e3d6000fd5b505050506040513d601f19601f820116820180604052508101906108c49190613860565b8385101561256f5760035461253e9087906001600160a01b03166000612105565b600061254a8686613704565b6000898152600b602090815260408083206001600160a01b038c168452909152902055505b8082101561202a576003546125909084906001600160a01b03166000612105565b600061259c8383613704565b6000898152600b602090815260408083206001600160a01b03891684529091529020555050505050505050565b60008260c0015160028111156125e1576125e161388f565b1480612602575060028260c0015160028111156126005761260061388f565b145b156126a95760006126258360c001518460a0015185606001518660800151612310565b60048054600254604051632b2ae48f60e21b81529394506001600160a01b039182169363acab923c9361266393309316918891600991899101613b03565b60408051808303816000875af1158015612681573d6000803e3d6000fd5b505050506040513d601f19601f820116820180604052508101906126a591906137a5565b5050505b60018260c0015160028111156126c1576126c161388f565b036104195760048054600254600354855160405162fe02fb60e81b81526001600160a01b039485169563fe02fb009561270f953095908216948a946009949290931692909160019101613b33565b6020604051808303816000875af115801561272e573d6000803e3d6000fd5b505050506040513d601f19601f820116820180604052508101906103aa9190613860565b60008060028360c00151600281111561276d5761276d61388f565b036128715760006127908460c001518560a0015186606001518760800151612310565b90506127ae818560a0015186602001516001600160801b0316612105565b60a0840151606085015160808601516040808801516020890151915163037b79b160e21b81526001600160a01b0394851660048201529284166024840152151560448301526001600160801b0316606482015260006084820181905260a48201523060c48201524260e4820152911690630dede6c4906101040160408051808303816000875af1158015612846573d6000803e3d6000fd5b505050506040513d601f19601f8201168201806040525081019061286a91906137a5565b9093509150505b60008360c0015160028111156128895761288961388f565b036129805760006128ac8460c001518560a0015186606001518760800151612310565b90506128ca818560a0015186602001516001600160801b0316612105565b60a0840151606085015160808601516020870151604051635d5155ef60e11b81526001600160a01b03938416600482015291831660248301526001600160801b0316604482015260006064820181905260848201523060a48201524260c482015291169063baa2abde9060e40160408051808303816000875af1158015612955573d6000803e3d6000fd5b505050506040513d601f19601f8201168201806040525081019061297991906137a5565b9093509150505b60018360c0015160028111156129985761299861388f565b03612a6a576040805160a081018252845181526020808601516001600160801b0390811691830191825260008385018181526060850191825242608086019081526003549651630624e65f60e11b8152865160048201529451909316602485015251604484015251606483015251608482015290916001600160a01b031690630c49ccbe9060a4015b60408051808303816000875af1158015612a3f573d6000803e3d6000fd5b505050506040513d601f19601f82011682018060405250810190612a6391906137a5565b9093509150505b915091565b604080516080810182528251815230602082019081526001600160801b0382840181815260608401828152600354955163fc6f786560e01b81528551600482015293516001600160a01b03908116602486015291518316604485015251909116606483015260009384939291169063fc6f786590608401612a21565b604080516001600160a01b038481166024830152604480830185905283518084039091018152606490920183526020820180516001600160e01b031663a9059cbb60e01b1790529151600092839290871691612b47919061387d565b6000604051808303816000865af19150503d8060008114612b84576040519150601f19603f3d011682016040523d82523d6000602084013e612b89565b606091505b5091509150818015612bb3575080511580612bb3575080806020019051810190612bb39190613860565b6121fe5760405162461bcd60e51b815260206004820152600260248201526114d560f21b6044820152606401610935565b60606124308484600085612c62565b600080829050806001600160a01b031663c45a01556040518163ffffffff1660e01b8152600401602060405180830381865afa158015612c37573d6000803e3d6000fd5b505050506040513d601f19601f82011682018060405250810190612c5b91906132df565b9392505050565b606082471015612cc35760405162461bcd60e51b815260206004820152602660248201527f416464726573733a20696e73756666696369656e742062616c616e636520666f6044820152651c8818d85b1b60d21b6064820152608401610935565b600080866001600160a01b03168587604051612cdf919061387d565b60006040518083038185875af1925050503d8060008114612d1c576040519150601f19603f3d011682016040523d82523d6000602084013e612d21565b606091505b5091509150612d3287838387612d3d565b979650505050505050565b60608315612dac578251600003612da5576001600160a01b0385163b612da55760405162461bcd60e51b815260206004820152601d60248201527f416464726573733a2063616c6c20746f206e6f6e2d636f6e74726163740000006044820152606401610935565b5081612430565b6124308383815115612dc15781518083602001fd5b8060405162461bcd60e51b81526004016109359190613b63565b6001600160a01b038116811461094757600080fd5b8035612dfb81612ddb565b919050565b60008083601f840112612e1257600080fd5b5081356001600160401b03811115612e2957600080fd5b602083019150836020828501011115612e4157600080fd5b9250929050565b600080600080600060808688031215612e6057600080fd5b8535612e6b81612ddb565b94506020860135612e7b81612ddb565b93506040860135925060608601356001600160401b03811115612e9d57600080fd5b612ea988828901612e00565b969995985093965092949392505050565b600080600060608486031215612ecf57600080fd5b8335612eda81612ddb565b92506020840135612eea81612ddb565b929592945050506040919091013590565b801515811461094757600080fd5b8035612dfb81612efb565b60008060408385031215612f2757600080fd5b8235612f3281612ddb565b91506020830135612f4281612efb565b809150509250929050565b60008060408385031215612f6057600080fd5b8235612f6b81612ddb565b946020939093013593505050565b600060208284031215612f8b57600080fd5b8135612c5b81612ddb565b600060208284031215612fa857600080fd5b5035919050565b60008060008060808587031215612fc557600080fd5b8435612fd081612ddb565b93506020850135612fe081612ddb565b93969395505050506040820135916060013590565b60008083601f84011261300757600080fd5b5081356001600160401b0381111561301e57600080fd5b6020830191508360208260051b8501011115612e4157600080fd5b60006040828403121561304b57600080fd5b50919050565b60008060008060008060008060008060006101008c8e03121561307357600080fd5b61307c8c612df0565b9a506001600160401b038060208e0135111561309757600080fd5b6130a78e60208f01358f01612e00565b909b50995060408d01358110156130bd57600080fd5b6130cd8e60408f01358f01612ff5565b909950975060608d01358110156130e357600080fd5b6130f38e60608f01358f01612ff5565b909750955060808d013581101561310957600080fd5b5061311a8d60808e01358e01612ff5565b909450925061312c8d60a08e01613039565b915060e08c013590509295989b509295989b9093969950565b6000806000806080858703121561315b57600080fd5b843561316681612ddb565b9350602085013561317681612ddb565b92506040850135915060608501356001600160401b0381111561319857600080fd5b6131a487828801613039565b91505092959194509250565b60008060008060008060a087890312156131c957600080fd5b86356131d481612ddb565b955060208701356131e481612ddb565b94506040870135935060608701356001600160401b038082111561320757600080fd5b6132138a838b01612e00565b9095509350608089013591508082111561322c57600080fd5b5061323989828a01613039565b9150509295509295509295565b634e487b7160e01b600052601160045260246000fd5b80820180821115610fe357610fe3613246565b600181811c9082168061328357607f821691505b60208210810361304b57634e487b7160e01b600052602260045260246000fd5b6020808252600990820152684248503a452d34303360b81b604082015260600190565b6000602082840312156132d857600080fd5b5051919050565b6000602082840312156132f157600080fd5b8151612c5b81612ddb565b60005b838110156133175781810151838201526020016132ff565b50506000910152565b600081518084526133388160208601602086016132fc565b601f01601f19169290920160200192915050565b6001600160a01b0384811682528316602082015260606040820181905260009061337890830184613320565b95945050505050565b634e487b7160e01b600052603260045260246000fd5b60008235605e198336030181126133ad57600080fd5b9190910192915050565b634e487b7160e01b600052604160045260246000fd5b60405161010081016001600160401b03811182821017156133f0576133f06133b7565b60405290565b60405161016081016001600160401b03811182821017156133f0576133f06133b7565b604051601f8201601f191681016001600160401b0381118282101715613441576134416133b7565b604052919050565b600082601f83011261345a57600080fd5b81356001600160401b03811115613473576134736133b7565b613486601f8201601f1916602001613419565b81815284602083860101111561349b57600080fd5b816020850160208301376000918101602001919091529392505050565b6000606082360312156134ca57600080fd5b604051606081016001600160401b0382821081831117156134ed576134ed6133b7565b81604052843591508082111561350257600080fd5b5061350f36828601613449565b825250602083013561352081612ddb565b6020820152604092830135928101929092525090565b60006001820161354857613548613246565b5060010190565b6000823560fe198336030181126133ad57600080fd5b803560038110612dfb57600080fd5b6000610100823603121561358757600080fd5b61358f6133cd565b82356001600160401b038111156135a557600080fd5b6135b136828601613449565b8252506135c060208401612df0565b60208201526135d160408401612df0565b60408201526135e260608401612df0565b60608201526080830135608082015260a083013560a082015260c083013560c082015261361160e08401613565565b60e082015292915050565b6000823561015e198336030181126133ad57600080fd5b6000610160823603121561364657600080fd5b61364e6133f6565b82356001600160401b0381111561366457600080fd5b61367036828601613449565b82525061367f60208401612df0565b602082015261369060408401612df0565b60408201526136a160608401612df0565b60608201526080830135608082015260a083013560a082015260c083013560c082015260e083013560e08201526101008084013581830152506101206136e8818501612f09565b908201526101406136fa848201613565565b9082015292915050565b81810381811115610fe357610fe3613246565b6000808335601e1984360301811261372e57600080fd5b8301803591506001600160401b0382111561374857600080fd5b6020019150600581901b3603821315612e4157600080fd5b600060018060a01b038088168352808716602084015285604084015260a0606084015261379060a0840186613320565b91508084166080840152509695505050505050565b600080604083850312156137b857600080fd5b505080516020909101519092909150565b6000808335601e198436030181126137e057600080fd5b8301803591506001600160401b038211156137fa57600080fd5b6020019150600681901b3603821315612e4157600080fd5b600060018060a01b03808a168352808916602084015287604084015260e0606084015261384260e0840188613320565b951660808301525060a081019290925260c090910152949350505050565b60006020828403121561387257600080fd5b8151612c5b81612efb565b600082516133ad8184602087016132fc565b634e487b7160e01b600052602160045260246000fd5b600060208083850312156138b857600080fd5b82516001600160401b03808211156138cf57600080fd5b818501915085601f8301126138e357600080fd5b8151818111156138f5576138f56133b7565b8060051b9150613906848301613419565b818152918301840191848101908884111561392057600080fd5b938501935b8385101561393e57845182529385019390850190613925565b98975050505050505050565b80516001600160801b0381168114612dfb57600080fd5b60008060006060848603121561397657600080fd5b835192506020840151915061398d6040850161394a565b90509250925092565b600080600080608085870312156139ac57600080fd5b845193506139bc6020860161394a565b6040860151606090960151949790965092505050565b8054600090600181811c90808316806139ec57607f831692505b60208084108203613a0d57634e487b7160e01b600052602260045260246000fd5b83885260208801828015613a285760018114613a3e57613a69565b60ff198716825285151560051b82019750613a69565b60008981526020902060005b87811015613a6357815484820152908601908401613a4a565b83019850505b5050505050505092915050565b600060018060a01b03808916835287602084015260c06040840152613a9e60c08401886139d2565b9581166060840152608083019490945250911660a0909101529392505050565b600060018060a01b03808916835287602084015260c06040840152613ae660c0840188613320565b9516606083015250608081019290925260a0909101529392505050565b600060018060a01b038088168352808716602084015285604084015260a0606084015261379060a08401866139d2565b600060018060a01b03808a168352808916602084015287604084015260e0606084015261384260e08401886139d2565b602081526000612c5b602083018461332056fea2646970667358221220b333aa6d6c1039eb9757cb791081cc2d4c9a7bf67abc4f900aa0116a73846a6464736f6c63430008110033",
  "devdoc": {
    "kind": "dev",
    "methods": {
      "owner()": {
        "details": "Returns the address of the current owner."
      },
      "paused()": {
        "details": "Returns true if the contract is paused, and false otherwise."
      },
      "renounceOwnership()": {
        "details": "Leaves the contract without owner. It will not be possible to call `onlyOwner` functions anymore. Can only be called by the current owner. NOTE: Renouncing ownership will leave the contract without an owner, thereby removing any functionality that is only available to the owner."
      },
      "setChargedParticles(address)": {
        "details": "Setup the ChargedParticles Interface"
      },
      "transferOwnership(address)": {
        "details": "Transfers ownership of the contract to a new account (`newOwner`). Can only be called by the current owner."
      }
    },
    "version": 1
  },
  "userdoc": {
    "kind": "user",
    "methods": {},
    "version": 1
  },
  "storageLayout": {
    "storage": [
      {
        "astId": 7,
        "contract": "contracts/Web3PacksMode.sol:Web3PacksMode",
        "label": "_owner",
        "offset": 0,
        "slot": "0",
        "type": "t_address"
      },
      {
        "astId": 130,
        "contract": "contracts/Web3PacksMode.sol:Web3PacksMode",
        "label": "_paused",
        "offset": 20,
        "slot": "0",
        "type": "t_bool"
      },
      {
        "astId": 231,
        "contract": "contracts/Web3PacksMode.sol:Web3PacksMode",
        "label": "_status",
        "offset": 0,
        "slot": "1",
        "type": "t_uint256"
      },
      {
        "astId": 2217,
        "contract": "contracts/Web3PacksMode.sol:Web3PacksMode",
        "label": "_proton",
        "offset": 0,
        "slot": "2",
        "type": "t_address"
      },
      {
        "astId": 2219,
        "contract": "contracts/Web3PacksMode.sol:Web3PacksMode",
        "label": "_nonfungiblePositionManager",
        "offset": 0,
        "slot": "3",
        "type": "t_address"
      },
      {
        "astId": 2221,
        "contract": "contracts/Web3PacksMode.sol:Web3PacksMode",
        "label": "_chargedParticles",
        "offset": 0,
        "slot": "4",
        "type": "t_address"
      },
      {
        "astId": 2223,
        "contract": "contracts/Web3PacksMode.sol:Web3PacksMode",
        "label": "_chargedState",
        "offset": 0,
        "slot": "5",
        "type": "t_address"
      },
      {
        "astId": 2225,
        "contract": "contracts/Web3PacksMode.sol:Web3PacksMode",
        "label": "_feesCollected",
        "offset": 0,
        "slot": "6",
        "type": "t_uint256"
      },
      {
        "astId": 2227,
        "contract": "contracts/Web3PacksMode.sol:Web3PacksMode",
        "label": "_protocolFee",
        "offset": 0,
        "slot": "7",
        "type": "t_uint256"
      },
      {
        "astId": 2230,
        "contract": "contracts/Web3PacksMode.sol:Web3PacksMode",
        "label": "_cpWalletManager",
        "offset": 0,
        "slot": "8",
        "type": "t_string_storage"
      },
      {
        "astId": 2233,
        "contract": "contracts/Web3PacksMode.sol:Web3PacksMode",
        "label": "_cpBasketManager",
        "offset": 0,
        "slot": "9",
        "type": "t_string_storage"
      },
      {
        "astId": 2237,
        "contract": "contracts/Web3PacksMode.sol:Web3PacksMode",
        "label": "_allowlisted",
        "offset": 0,
        "slot": "10",
        "type": "t_mapping(t_address,t_bool)"
      },
      {
        "astId": 2243,
        "contract": "contracts/Web3PacksMode.sol:Web3PacksMode",
        "label": "_refundableAssets",
        "offset": 0,
        "slot": "11",
        "type": "t_mapping(t_uint256,t_mapping(t_address,t_uint256))"
      },
      {
        "astId": 2248,
        "contract": "contracts/Web3PacksMode.sol:Web3PacksMode",
        "label": "_swapForLiquidityAmount",
        "offset": 0,
        "slot": "12",
        "type": "t_mapping(t_bytes32,t_struct(TokenAmount)4916_storage)"
      },
      {
        "astId": 2254,
        "contract": "contracts/Web3PacksMode.sol:Web3PacksMode",
        "label": "_liquidityPositions",
        "offset": 0,
        "slot": "13",
        "type": "t_mapping(t_uint256,t_array(t_struct(LiquidityPosition)4989_storage)dyn_storage)"
      }
    ],
    "types": {
      "t_address": {
        "encoding": "inplace",
        "label": "address",
        "numberOfBytes": "20"
      },
      "t_array(t_struct(LiquidityPosition)4989_storage)dyn_storage": {
        "base": "t_struct(LiquidityPosition)4989_storage",
        "encoding": "dynamic_array",
        "label": "struct IWeb3Packs.LiquidityPosition[]",
        "numberOfBytes": "32"
      },
      "t_bool": {
        "encoding": "inplace",
        "label": "bool",
        "numberOfBytes": "1"
      },
      "t_bytes32": {
        "encoding": "inplace",
        "label": "bytes32",
        "numberOfBytes": "32"
      },
      "t_enum(RouterType)4911": {
        "encoding": "inplace",
        "label": "enum IWeb3Packs.RouterType",
        "numberOfBytes": "1"
      },
      "t_mapping(t_address,t_bool)": {
        "encoding": "mapping",
        "key": "t_address",
        "label": "mapping(address => bool)",
        "numberOfBytes": "32",
        "value": "t_bool"
      },
      "t_mapping(t_address,t_uint256)": {
        "encoding": "mapping",
        "key": "t_address",
        "label": "mapping(address => uint256)",
        "numberOfBytes": "32",
        "value": "t_uint256"
      },
      "t_mapping(t_bytes32,t_struct(TokenAmount)4916_storage)": {
        "encoding": "mapping",
        "key": "t_bytes32",
        "label": "mapping(bytes32 => struct IWeb3Packs.TokenAmount)",
        "numberOfBytes": "32",
        "value": "t_struct(TokenAmount)4916_storage"
      },
      "t_mapping(t_uint256,t_array(t_struct(LiquidityPosition)4989_storage)dyn_storage)": {
        "encoding": "mapping",
        "key": "t_uint256",
        "label": "mapping(uint256 => struct IWeb3Packs.LiquidityPosition[])",
        "numberOfBytes": "32",
        "value": "t_array(t_struct(LiquidityPosition)4989_storage)dyn_storage"
      },
      "t_mapping(t_uint256,t_mapping(t_address,t_uint256))": {
        "encoding": "mapping",
        "key": "t_uint256",
        "label": "mapping(uint256 => mapping(address => uint256))",
        "numberOfBytes": "32",
        "value": "t_mapping(t_address,t_uint256)"
      },
      "t_string_storage": {
        "encoding": "bytes",
        "label": "string",
        "numberOfBytes": "32"
      },
      "t_struct(LiquidityPosition)4989_storage": {
        "encoding": "inplace",
        "label": "struct IWeb3Packs.LiquidityPosition",
        "members": [
          {
            "astId": 4975,
            "contract": "contracts/Web3PacksMode.sol:Web3PacksMode",
            "label": "lpTokenId",
            "offset": 0,
            "slot": "0",
            "type": "t_uint256"
          },
          {
            "astId": 4977,
            "contract": "contracts/Web3PacksMode.sol:Web3PacksMode",
            "label": "liquidity",
            "offset": 0,
            "slot": "1",
            "type": "t_uint128"
          },
          {
            "astId": 4979,
            "contract": "contracts/Web3PacksMode.sol:Web3PacksMode",
            "label": "stable",
            "offset": 16,
            "slot": "1",
            "type": "t_bool"
          },
          {
            "astId": 4981,
            "contract": "contracts/Web3PacksMode.sol:Web3PacksMode",
            "label": "token0",
            "offset": 0,
            "slot": "2",
            "type": "t_address"
          },
          {
            "astId": 4983,
            "contract": "contracts/Web3PacksMode.sol:Web3PacksMode",
            "label": "token1",
            "offset": 0,
            "slot": "3",
            "type": "t_address"
          },
          {
            "astId": 4985,
            "contract": "contracts/Web3PacksMode.sol:Web3PacksMode",
            "label": "router",
            "offset": 0,
            "slot": "4",
            "type": "t_address"
          },
          {
            "astId": 4988,
            "contract": "contracts/Web3PacksMode.sol:Web3PacksMode",
            "label": "routerType",
            "offset": 20,
            "slot": "4",
            "type": "t_enum(RouterType)4911"
          }
        ],
        "numberOfBytes": "160"
      },
      "t_struct(TokenAmount)4916_storage": {
        "encoding": "inplace",
        "label": "struct IWeb3Packs.TokenAmount",
        "members": [
          {
            "astId": 4913,
            "contract": "contracts/Web3PacksMode.sol:Web3PacksMode",
            "label": "token",
            "offset": 0,
            "slot": "0",
            "type": "t_address"
          },
          {
            "astId": 4915,
            "contract": "contracts/Web3PacksMode.sol:Web3PacksMode",
            "label": "amount",
            "offset": 0,
            "slot": "1",
            "type": "t_uint256"
          }
        ],
        "numberOfBytes": "64"
      },
      "t_uint128": {
        "encoding": "inplace",
        "label": "uint128",
        "numberOfBytes": "16"
      },
      "t_uint256": {
        "encoding": "inplace",
        "label": "uint256",
        "numberOfBytes": "32"
      }
    }
  }
}