{
  "address": "0x504775f2F49943E141464CB610b42a0BFdaB4080",
  "abi": [
    {
      "inputs": [
        {
          "internalType": "address",
          "name": "weth",
          "type": "address"
        }
      ],
      "stateMutability": "nonpayable",
      "type": "constructor"
    },
    {
      "inputs": [],
      "name": "ContractNotAllowed",
      "type": "error"
    },
    {
      "inputs": [],
      "name": "FundingFailed",
      "type": "error"
    },
    {
      "inputs": [
        {
          "internalType": "uint256",
          "name": "value",
          "type": "uint256"
        },
        {
          "internalType": "uint256",
          "name": "ethPackPrice",
          "type": "uint256"
        },
        {
          "internalType": "uint256",
          "name": "protocolFee",
          "type": "uint256"
        }
      ],
      "name": "InsufficientForFee",
      "type": "error"
    },
    {
      "inputs": [],
      "name": "MismatchedTokens",
      "type": "error"
    },
    {
      "inputs": [
        {
          "internalType": "address",
          "name": "tokenAddress",
          "type": "address"
        }
      ],
      "name": "MissingLiquidityUUID",
      "type": "error"
    },
    {
      "inputs": [],
      "name": "NativeAssetTransferFailed",
      "type": "error"
    },
    {
      "inputs": [],
      "name": "NotOwnerOrApproved",
      "type": "error"
    },
    {
      "inputs": [],
      "name": "NullReceiver",
      "type": "error"
    },
    {
      "inputs": [
        {
          "internalType": "address",
          "name": "tokenOut",
          "type": "address"
        },
        {
          "internalType": "uint256",
          "name": "amountIn",
          "type": "uint256"
        },
        {
          "internalType": "address",
          "name": "router",
          "type": "address"
        }
      ],
      "name": "UnsucessfulSwap",
      "type": "error"
    },
    {
      "anonymous": false,
      "inputs": [
        {
          "indexed": true,
          "internalType": "address",
          "name": "chargedParticles",
          "type": "address"
        }
      ],
      "name": "ChargedParticlesSet",
      "type": "event"
    },
    {
      "anonymous": false,
      "inputs": [
        {
          "indexed": true,
          "internalType": "address",
          "name": "chargedState",
          "type": "address"
        }
      ],
      "name": "ChargedStateSet",
      "type": "event"
    },
    {
      "anonymous": false,
      "inputs": [
        {
          "indexed": true,
          "internalType": "address",
          "name": "previousOwner",
          "type": "address"
        },
        {
          "indexed": true,
          "internalType": "address",
          "name": "newOwner",
          "type": "address"
        }
      ],
      "name": "OwnershipTransferred",
      "type": "event"
    },
    {
      "anonymous": false,
      "inputs": [
        {
          "indexed": true,
          "internalType": "uint256",
          "name": "tokenId",
          "type": "uint256"
        },
        {
          "indexed": true,
          "internalType": "address",
          "name": "receiver",
          "type": "address"
        },
        {
          "indexed": false,
          "internalType": "bytes32",
          "name": "packType",
          "type": "bytes32"
        },
        {
          "indexed": false,
          "internalType": "bytes32",
          "name": "usdPackPrice",
          "type": "bytes32"
        }
      ],
      "name": "PackBundled",
      "type": "event"
    },
    {
      "anonymous": false,
      "inputs": [
        {
          "indexed": true,
          "internalType": "uint256",
          "name": "tokenId",
          "type": "uint256"
        },
        {
          "indexed": true,
          "internalType": "address",
          "name": "receiver",
          "type": "address"
        },
        {
          "indexed": false,
          "internalType": "uint256",
          "name": "ethAmount",
          "type": "uint256"
        }
      ],
      "name": "PackUnbundled",
      "type": "event"
    },
    {
      "anonymous": false,
      "inputs": [
        {
          "indexed": false,
          "internalType": "address",
          "name": "account",
          "type": "address"
        }
      ],
      "name": "Paused",
      "type": "event"
    },
    {
      "anonymous": false,
      "inputs": [
        {
          "indexed": false,
          "internalType": "uint256",
          "name": "fee",
          "type": "uint256"
        }
      ],
      "name": "ProtocolFeeSet",
      "type": "event"
    },
    {
      "anonymous": false,
      "inputs": [
        {
          "indexed": true,
          "internalType": "address",
          "name": "proton",
          "type": "address"
        }
      ],
      "name": "ProtonSet",
      "type": "event"
    },
    {
      "anonymous": false,
      "inputs": [
        {
          "indexed": true,
          "internalType": "address",
          "name": "router",
          "type": "address"
        }
      ],
      "name": "RouterSet",
      "type": "event"
    },
    {
      "anonymous": false,
      "inputs": [
        {
          "indexed": false,
          "internalType": "address",
          "name": "account",
          "type": "address"
        }
      ],
      "name": "Unpaused",
      "type": "event"
    },
    {
      "anonymous": false,
      "inputs": [
        {
          "indexed": true,
          "internalType": "address",
          "name": "manager",
          "type": "address"
        }
      ],
      "name": "Web3PacksExchangeManagerSet",
      "type": "event"
    },
    {
      "anonymous": false,
      "inputs": [
        {
          "indexed": true,
          "internalType": "address",
          "name": "manager",
          "type": "address"
        }
      ],
      "name": "Web3PacksManagerSet",
      "type": "event"
    },
    {
      "anonymous": false,
      "inputs": [
        {
          "indexed": true,
          "internalType": "address",
          "name": "web3packs",
          "type": "address"
        }
      ],
      "name": "Web3PacksSet",
      "type": "event"
    },
    {
      "anonymous": false,
      "inputs": [
        {
          "indexed": true,
          "internalType": "address",
          "name": "treasury",
          "type": "address"
        }
      ],
      "name": "Web3PacksTreasurySet",
      "type": "event"
    },
    {
      "anonymous": false,
      "inputs": [
        {
          "indexed": true,
          "internalType": "address",
          "name": "receiver",
          "type": "address"
        },
        {
          "indexed": true,
          "internalType": "address",
          "name": "tokenAddress",
          "type": "address"
        },
        {
          "indexed": true,
          "internalType": "uint256",
          "name": "tokenId",
          "type": "uint256"
        },
        {
          "indexed": false,
          "internalType": "uint256",
          "name": "amount",
          "type": "uint256"
        }
      ],
      "name": "WithdrawStuckERC1155",
      "type": "event"
    },
    {
      "anonymous": false,
      "inputs": [
        {
          "indexed": true,
          "internalType": "address",
          "name": "receiver",
          "type": "address"
        },
        {
          "indexed": true,
          "internalType": "address",
          "name": "tokenAddress",
          "type": "address"
        },
        {
          "indexed": false,
          "internalType": "uint256",
          "name": "amount",
          "type": "uint256"
        }
      ],
      "name": "WithdrawStuckERC20",
      "type": "event"
    },
    {
      "anonymous": false,
      "inputs": [
        {
          "indexed": true,
          "internalType": "address",
          "name": "receiver",
          "type": "address"
        },
        {
          "indexed": true,
          "internalType": "address",
          "name": "tokenAddress",
          "type": "address"
        },
        {
          "indexed": true,
          "internalType": "uint256",
          "name": "tokenId",
          "type": "uint256"
        }
      ],
      "name": "WithdrawStuckERC721",
      "type": "event"
    },
    {
      "anonymous": false,
      "inputs": [
        {
          "indexed": true,
          "internalType": "address",
          "name": "receiver",
          "type": "address"
        },
        {
          "indexed": false,
          "internalType": "uint256",
          "name": "amount",
          "type": "uint256"
        }
      ],
      "name": "WithdrawStuckEther",
      "type": "event"
    },
    {
      "stateMutability": "payable",
      "type": "fallback"
    },
    {
      "inputs": [],
      "name": "_web3Packs",
      "outputs": [
        {
          "internalType": "address",
          "name": "",
          "type": "address"
        }
      ],
      "stateMutability": "view",
      "type": "function"
    },
    {
      "inputs": [],
      "name": "_web3PacksManager",
      "outputs": [
        {
          "internalType": "address",
          "name": "",
          "type": "address"
        }
      ],
      "stateMutability": "view",
      "type": "function"
    },
    {
      "inputs": [],
      "name": "_weth",
      "outputs": [
        {
          "internalType": "address",
          "name": "",
          "type": "address"
        }
      ],
      "stateMutability": "view",
      "type": "function"
    },
    {
      "inputs": [
        {
          "components": [
            {
              "internalType": "address",
              "name": "router",
              "type": "address"
            },
            {
              "internalType": "address",
              "name": "token0",
              "type": "address"
            },
            {
              "internalType": "address",
              "name": "token1",
              "type": "address"
            },
            {
              "internalType": "bytes32",
              "name": "liquidityUuidToken0",
              "type": "bytes32"
            },
            {
              "internalType": "bytes32",
              "name": "liquidityUuidToken1",
              "type": "bytes32"
            },
            {
              "internalType": "uint256",
              "name": "percentToken0",
              "type": "uint256"
            },
            {
              "internalType": "uint256",
              "name": "percentToken1",
              "type": "uint256"
            },
            {
              "internalType": "uint256",
              "name": "minimumLpTokens",
              "type": "uint256"
            },
            {
              "internalType": "uint256",
              "name": "slippage",
              "type": "uint256"
            },
            {
              "internalType": "int24",
              "name": "tickLower",
              "type": "int24"
            },
            {
              "internalType": "int24",
              "name": "tickUpper",
              "type": "int24"
            },
            {
              "internalType": "bool",
              "name": "stable",
              "type": "bool"
            },
            {
              "internalType": "bytes32",
              "name": "poolId",
              "type": "bytes32"
            },
            {
              "internalType": "enum IWeb3PacksDefs.RouterType",
              "name": "routerType",
              "type": "uint8"
            }
          ],
          "internalType": "struct IWeb3PacksDefs.LiquidityOrderGeneric[]",
          "name": "orders",
          "type": "tuple[]"
        },
        {
          "internalType": "uint256",
          "name": "web3PacksTokenId",
          "type": "uint256"
        }
      ],
      "name": "depositLiquidity",
      "outputs": [],
      "stateMutability": "nonpayable",
      "type": "function"
    },
    {
      "inputs": [
        {
          "components": [
            {
              "internalType": "uint256",
              "name": "lpTokenId",
              "type": "uint256"
            },
            {
              "internalType": "uint256",
              "name": "liquidity",
              "type": "uint256"
            },
            {
              "internalType": "bool",
              "name": "stable",
              "type": "bool"
            },
            {
              "internalType": "address",
              "name": "token0",
              "type": "address"
            },
            {
              "internalType": "address",
              "name": "token1",
              "type": "address"
            },
            {
              "internalType": "int24",
              "name": "tickLower",
              "type": "int24"
            },
            {
              "internalType": "int24",
              "name": "tickUpper",
              "type": "int24"
            },
            {
              "internalType": "bytes32",
              "name": "poolId",
              "type": "bytes32"
            },
            {
              "internalType": "address",
              "name": "router",
              "type": "address"
            },
            {
              "internalType": "enum IWeb3PacksDefs.RouterType",
              "name": "routerType",
              "type": "uint8"
            }
          ],
          "internalType": "struct IWeb3PacksDefs.LiquidityPosition",
          "name": "liquidityPosition",
          "type": "tuple"
        }
      ],
      "name": "getLiquidityTokenData",
      "outputs": [
        {
          "internalType": "address",
          "name": "lpTokenAddress",
          "type": "address"
        },
        {
          "internalType": "uint256",
          "name": "lpTokenId",
          "type": "uint256"
        }
      ],
      "stateMutability": "view",
      "type": "function"
    },
    {
      "inputs": [
        {
          "internalType": "address",
          "name": "",
          "type": "address"
        },
        {
          "internalType": "address",
          "name": "",
          "type": "address"
        },
        {
          "internalType": "uint256",
          "name": "",
          "type": "uint256"
        },
        {
          "internalType": "bytes",
          "name": "",
          "type": "bytes"
        }
      ],
      "name": "onERC721Received",
      "outputs": [
        {
          "internalType": "bytes4",
          "name": "",
          "type": "bytes4"
        }
      ],
      "stateMutability": "pure",
      "type": "function"
    },
    {
      "inputs": [],
      "name": "owner",
      "outputs": [
        {
          "internalType": "address",
          "name": "",
          "type": "address"
        }
      ],
      "stateMutability": "view",
      "type": "function"
    },
    {
      "inputs": [],
      "name": "paused",
      "outputs": [
        {
          "internalType": "bool",
          "name": "",
          "type": "bool"
        }
      ],
      "stateMutability": "view",
      "type": "function"
    },
    {
      "inputs": [
        {
          "components": [
            {
              "internalType": "bytes",
              "name": "callData",
              "type": "bytes"
            },
            {
              "internalType": "address",
              "name": "contractAddress",
              "type": "address"
            },
            {
              "internalType": "uint256",
              "name": "amountIn",
              "type": "uint256"
            }
          ],
          "internalType": "struct IWeb3PacksDefs.ContractCallGeneric[]",
          "name": "contractCalls",
          "type": "tuple[]"
        }
      ],
      "name": "performContractCalls",
      "outputs": [],
      "stateMutability": "nonpayable",
      "type": "function"
    },
    {
      "inputs": [
        {
          "components": [
            {
              "internalType": "bytes",
              "name": "callData",
              "type": "bytes"
            },
            {
              "internalType": "address",
              "name": "router",
              "type": "address"
            },
            {
              "internalType": "address",
              "name": "tokenIn",
              "type": "address"
            },
            {
              "internalType": "address",
              "name": "tokenOut",
              "type": "address"
            },
            {
              "internalType": "uint256",
              "name": "tokenAmountIn",
              "type": "uint256"
            },
            {
              "internalType": "uint256",
              "name": "tokenAmountOutMin",
              "type": "uint256"
            },
            {
              "internalType": "uint256",
              "name": "payableAmountIn",
              "type": "uint256"
            },
            {
              "internalType": "bytes32",
              "name": "liquidityUuid",
              "type": "bytes32"
            },
            {
              "internalType": "bytes32",
              "name": "poolId",
              "type": "bytes32"
            },
            {
              "internalType": "enum IWeb3PacksDefs.RouterType",
              "name": "routerType",
              "type": "uint8"
            }
          ],
          "internalType": "struct IWeb3PacksDefs.ERC20SwapOrderGeneric[]",
          "name": "orders",
          "type": "tuple[]"
        },
        {
          "internalType": "uint256",
          "name": "web3packsTokenId",
          "type": "uint256"
        }
      ],
      "name": "performSwaps",
      "outputs": [],
      "stateMutability": "nonpayable",
      "type": "function"
    },
    {
      "inputs": [
        {
          "components": [
            {
              "internalType": "uint256",
              "name": "lpTokenId",
              "type": "uint256"
            },
            {
              "internalType": "uint256",
              "name": "liquidity",
              "type": "uint256"
            },
            {
              "internalType": "bool",
              "name": "stable",
              "type": "bool"
            },
            {
              "internalType": "address",
              "name": "token0",
              "type": "address"
            },
            {
              "internalType": "address",
              "name": "token1",
              "type": "address"
            },
            {
              "internalType": "int24",
              "name": "tickLower",
              "type": "int24"
            },
            {
              "internalType": "int24",
              "name": "tickUpper",
              "type": "int24"
            },
            {
              "internalType": "bytes32",
              "name": "poolId",
              "type": "bytes32"
            },
            {
              "internalType": "address",
              "name": "router",
              "type": "address"
            },
            {
              "internalType": "enum IWeb3PacksDefs.RouterType",
              "name": "routerType",
              "type": "uint8"
            }
          ],
          "internalType": "struct IWeb3PacksDefs.LiquidityPosition",
          "name": "liquidityPosition",
          "type": "tuple"
        },
        {
          "components": [
            {
              "components": [
                {
                  "internalType": "address",
                  "name": "token",
                  "type": "address"
                },
                {
                  "internalType": "uint256",
                  "name": "amount",
                  "type": "uint256"
                }
              ],
              "internalType": "struct IWeb3PacksDefs.TokenAmount",
              "name": "token0",
              "type": "tuple"
            },
            {
              "components": [
                {
                  "internalType": "address",
                  "name": "token",
                  "type": "address"
                },
                {
                  "internalType": "uint256",
                  "name": "amount",
                  "type": "uint256"
                }
              ],
              "internalType": "struct IWeb3PacksDefs.TokenAmount",
              "name": "token1",
              "type": "tuple"
            },
            {
              "internalType": "uint256",
              "name": "slippage",
              "type": "uint256"
            },
            {
              "internalType": "bytes32",
              "name": "poolId",
              "type": "bytes32"
            },
            {
              "internalType": "address",
              "name": "router",
              "type": "address"
            },
            {
              "internalType": "enum IWeb3PacksDefs.RouterType",
              "name": "routerType",
              "type": "uint8"
            },
            {
              "internalType": "bool",
              "name": "exitLpOnUnbundle",
              "type": "bool"
            },
            {
              "internalType": "bool",
              "name": "stable",
              "type": "bool"
            }
          ],
          "internalType": "struct IWeb3PacksDefs.LiquidityPairs",
          "name": "liquidityPair",
          "type": "tuple"
        },
        {
          "internalType": "address",
          "name": "receiver",
          "type": "address"
        },
        {
          "internalType": "bool",
          "name": "sellAll",
          "type": "bool"
        }
      ],
      "name": "removeLiquidity",
      "outputs": [],
      "stateMutability": "nonpayable",
      "type": "function"
    },
    {
      "inputs": [],
      "name": "renounceOwnership",
      "outputs": [],
      "stateMutability": "nonpayable",
      "type": "function"
    },
    {
      "inputs": [
        {
          "internalType": "address",
          "name": "web3packs",
          "type": "address"
        }
      ],
      "name": "setWeb3Packs",
      "outputs": [],
      "stateMutability": "nonpayable",
      "type": "function"
    },
    {
      "inputs": [
        {
          "internalType": "address",
          "name": "manager",
          "type": "address"
        }
      ],
      "name": "setWeb3PacksManager",
      "outputs": [],
      "stateMutability": "nonpayable",
      "type": "function"
    },
    {
      "inputs": [
        {
          "components": [
            {
              "internalType": "bytes",
              "name": "callData",
              "type": "bytes"
            },
            {
              "internalType": "address",
              "name": "router",
              "type": "address"
            },
            {
              "internalType": "address",
              "name": "tokenIn",
              "type": "address"
            },
            {
              "internalType": "address",
              "name": "tokenOut",
              "type": "address"
            },
            {
              "internalType": "uint256",
              "name": "tokenAmountIn",
              "type": "uint256"
            },
            {
              "internalType": "uint256",
              "name": "tokenAmountOutMin",
              "type": "uint256"
            },
            {
              "internalType": "uint256",
              "name": "payableAmountIn",
              "type": "uint256"
            },
            {
              "internalType": "bytes32",
              "name": "liquidityUuid",
              "type": "bytes32"
            },
            {
              "internalType": "bytes32",
              "name": "poolId",
              "type": "bytes32"
            },
            {
              "internalType": "enum IWeb3PacksDefs.RouterType",
              "name": "routerType",
              "type": "uint8"
            }
          ],
          "internalType": "struct IWeb3PacksDefs.ERC20SwapOrderGeneric[]",
          "name": "erc20SwapOrders",
          "type": "tuple[]"
        },
        {
          "components": [
            {
              "components": [
                {
                  "internalType": "address",
                  "name": "token",
                  "type": "address"
                },
                {
                  "internalType": "uint256",
                  "name": "amount",
                  "type": "uint256"
                }
              ],
              "internalType": "struct IWeb3PacksDefs.TokenAmount",
              "name": "token0",
              "type": "tuple"
            },
            {
              "components": [
                {
                  "internalType": "address",
                  "name": "token",
                  "type": "address"
                },
                {
                  "internalType": "uint256",
                  "name": "amount",
                  "type": "uint256"
                }
              ],
              "internalType": "struct IWeb3PacksDefs.TokenAmount",
              "name": "token1",
              "type": "tuple"
            },
            {
              "internalType": "uint256",
              "name": "slippage",
              "type": "uint256"
            },
            {
              "internalType": "bytes32",
              "name": "poolId",
              "type": "bytes32"
            },
            {
              "internalType": "address",
              "name": "router",
              "type": "address"
            },
            {
              "internalType": "enum IWeb3PacksDefs.RouterType",
              "name": "routerType",
              "type": "uint8"
            },
            {
              "internalType": "bool",
              "name": "exitLpOnUnbundle",
              "type": "bool"
            },
            {
              "internalType": "bool",
              "name": "stable",
              "type": "bool"
            }
          ],
          "internalType": "struct IWeb3PacksDefs.LiquidityPairs[]",
          "name": "liquidityPairs",
          "type": "tuple[]"
        },
        {
          "internalType": "address",
          "name": "receiver",
          "type": "address"
        }
      ],
      "name": "swapAllForEth",
      "outputs": [
        {
          "internalType": "uint256",
          "name": "ethAmount",
          "type": "uint256"
        }
      ],
      "stateMutability": "nonpayable",
      "type": "function"
    },
    {
      "inputs": [
        {
          "internalType": "address",
          "name": "newOwner",
          "type": "address"
        }
      ],
      "name": "transferOwnership",
      "outputs": [],
      "stateMutability": "nonpayable",
      "type": "function"
    },
    {
      "inputs": [],
      "name": "weth",
      "outputs": [
        {
          "internalType": "address",
          "name": "",
          "type": "address"
        }
      ],
      "stateMutability": "view",
      "type": "function"
    },
    {
      "inputs": [
        {
          "internalType": "address payable",
          "name": "receiver",
          "type": "address"
        },
        {
          "internalType": "address",
          "name": "tokenAddress",
          "type": "address"
        },
        {
          "internalType": "uint256",
          "name": "tokenId",
          "type": "uint256"
        },
        {
          "internalType": "uint256",
          "name": "amount",
          "type": "uint256"
        }
      ],
      "name": "withdrawERC1155",
      "outputs": [],
      "stateMutability": "nonpayable",
      "type": "function"
    },
    {
      "inputs": [
        {
          "internalType": "address payable",
          "name": "receiver",
          "type": "address"
        },
        {
          "internalType": "address",
          "name": "tokenAddress",
          "type": "address"
        },
        {
          "internalType": "uint256",
          "name": "tokenId",
          "type": "uint256"
        }
      ],
      "name": "withdrawERC721",
      "outputs": [],
      "stateMutability": "nonpayable",
      "type": "function"
    },
    {
      "inputs": [
        {
          "internalType": "address payable",
          "name": "receiver",
          "type": "address"
        },
        {
          "internalType": "address",
          "name": "tokenAddress",
          "type": "address"
        },
        {
          "internalType": "uint256",
          "name": "amount",
          "type": "uint256"
        }
      ],
      "name": "withdrawErc20",
      "outputs": [],
      "stateMutability": "nonpayable",
      "type": "function"
    },
    {
      "inputs": [
        {
          "internalType": "address payable",
          "name": "receiver",
          "type": "address"
        },
        {
          "internalType": "uint256",
          "name": "amount",
          "type": "uint256"
        }
      ],
      "name": "withdrawEther",
      "outputs": [],
      "stateMutability": "nonpayable",
      "type": "function"
    },
    {
      "stateMutability": "payable",
      "type": "receive"
    }
  ],
  "transactionHash": "0xf285e46254ea87373dce402db22f1a694741ff7ae6f8981fc2bf682f877e85ed",
  "args": [
    "0x4200000000000000000000000000000000000006"
  ],
  "numDeployments": 1,
  "solcInputHash": "31b7a0a7e5e768ffd45dbb9894eb98e6",
  "bytecode": "0x60806040523480156200001157600080fd5b506040516200593338038062005933833981016040819052620000349162000108565b808080806200004333620000b8565b6000805460ff60a01b1916905560018055600280546001600160a01b03199081166001600160a01b03938416179091556003805482169383169390931790925560048054831693821693909317909255600580548216938316939093179092556006805490921692169190911790556200013a565b600080546001600160a01b038381166001600160a01b0319831681178455604051919092169283917f8be0079c531659141344cd1fd0a4f28419497f9722a3daafe3b4186f6b6457e09190a35050565b6000602082840312156200011b57600080fd5b81516001600160a01b03811681146200013357600080fd5b9392505050565b6157e9806200014a6000396000f3fe60806040526004361061012e5760003560e01c8063684433fb116100ab578063a0edb48b1161006f578063a0edb48b14610364578063a176459514610384578063a93bd512146103a4578063b1f570a6146103e3578063e7eed69d14610411578063f2fde38b146104315761013b565b8063684433fb146102d157806369d09c4c146102f1578063715018a6146103115780638da5cb5b146103265780639bd5c43a146103445761013b565b80634025feb2116100f25780634025feb214610227578063522f6815146102475780635c975abb146102675780636452906514610291578063669d0921146102b15761013b565b80630846f99e146101435780631365487c14610165578063150b7a02146101855780631593dee1146101cf5780633fc8cef3146101ef5761013b565b3661013b57346009819055005b346009819055005b34801561014f57600080fd5b5061016361015e36600461459d565b610451565b005b34801561017157600080fd5b506101636101803660046145fe565b61050c565b34801561019157600080fd5b506101b16101a0366004614649565b630a85bd0160e11b95945050505050565b6040516001600160e01b031990911681526020015b60405180910390f35b3480156101db57600080fd5b506101636101ea3660046146e7565b610590565b3480156101fb57600080fd5b5060055461020f906001600160a01b031681565b6040516001600160a01b0390911681526020016101c6565b34801561023357600080fd5b506101636102423660046146e7565b6105a8565b34801561025357600080fd5b50610163610262366004614728565b6105bb565b34801561027357600080fd5b50600054600160a01b900460ff1660405190151581526020016101c6565b34801561029d57600080fd5b506101636102ac36600461459d565b6105d1565b3480156102bd57600080fd5b5060075461020f906001600160a01b031681565b3480156102dd57600080fd5b506101636102ec366004614754565b610679565b3480156102fd57600080fd5b5060085461020f906001600160a01b031681565b34801561031d57600080fd5b5061016361080d565b34801561033257600080fd5b506000546001600160a01b031661020f565b34801561035057600080fd5b5061016361035f3660046147cf565b610821565b34801561037057600080fd5b5061016361037f366004614804565b61089d565b34801561039057600080fd5b5060065461020f906001600160a01b031681565b3480156103b057600080fd5b506103c46103bf366004614863565b6108b1565b604080516001600160a01b0390931683526020830191909152016101c6565b3480156103ef57600080fd5b506104036103fe366004614a73565b6109cd565b6040519081526020016101c6565b34801561041d57600080fd5b5061016361042c366004614b52565b610d2b565b34801561043d57600080fd5b5061016361044c36600461459d565b610dc3565b610459610e3c565b6001600160a01b0381166104c25760405162461bcd60e51b815260206004820152602560248201527f496e76616c6964206164647265737320666f7220776562337061636b73206d616044820152643730b3b2b960d91b60648201526084015b60405180910390fd5b600880546001600160a01b0319166001600160a01b0383169081179091556040517f29c3be2a07cd721ad5a371231bdf132e57fbe87625b604811898342f90c9582f90600090a250565b6007546001600160a01b031633146105365760405162461bcd60e51b81526004016104b990614bb0565b60005b8281101561058a5761057784848381811061055657610556614bfc565b90506020028101906105689190614c12565b61057190614ca2565b83610e96565b508061058281614d77565b915050610539565b50505050565b610598610e3c565b6105a3838383610ffa565b505050565b6105b0610e3c565b6105a38383836110f5565b6105c3610e3c565b6105cd8282611242565b5050565b6105d9610e3c565b6001600160a01b03811661062f5760405162461bcd60e51b815260206004820152601d60248201527f496e76616c6964206164647265737320666f7220776562337061636b7300000060448201526064016104b9565b600780546001600160a01b0319166001600160a01b0383169081179091556040517f68ca72fc2a01b105d181de42d44a6c7a3c1061d13fa12f95feb7bc55ffd6d07590600090a250565b6007546001600160a01b031633146106a35760405162461bcd60e51b81526004016104b990614bb0565b6000805b8381101561072757630ae8aa8960e31b8585838181106106c9576106c9614bfc565b90506101c002016060013514806107025750630ae8aa8960e31b8585838181106106f5576106f5614bfc565b90506101c0020160800135145b15610715578161071181614d77565b9250505b8061071f81614d77565b9150506106a7565b506006546040516370a0823160e01b81523060048201526000916001600160a01b0316906370a0823190602401602060405180830381865afa158015610771573d6000803e3d6000fd5b505050506040513d601f19601f820116820180604052508101906107959190614d90565b90506000600183116107a85760006107b2565b6107b28383614da9565b905060005b85811015610804576107f28787838181106107d4576107d4614bfc565b90506101c002018036038101906107eb9190614ddd565b86846112c8565b806107fc81614d77565b9150506107b7565b50505050505050565b610815610e3c565b61081f6000611598565b565b6007546001600160a01b0316331461084b5760405162461bcd60e51b81526004016104b990614bb0565b60005b818110156105a35761088b83838381811061086b5761086b614bfc565b905060200281019061087d9190614ebd565b61088690614ed3565b6115e8565b8061089581614d77565b91505061084e565b6108a5610e3c565b61058a848484846116c9565b60008060036108c861014085016101208601614f67565b60048111156108d9576108d9614f51565b036108fe576108f56108f036859003850185614f82565b611834565b91509150915091565b600261091261014085016101208601614f67565b600481111561092357610923614f51565b0361093f576108f561093a36859003850185614f82565b6118bc565b600061095361014085016101208601614f67565b600481111561096457610964614f51565b03610980576108f561097b36859003850185614f82565b6118e1565b600161099461014085016101208601614f67565b60048111156109a5576109a5614f51565b036109c8576108f56109bc36859003850185614f82565b61010081015190519091565b915091565b6007546000906001600160a01b031633146109fa5760405162461bcd60e51b81526004016104b990614bb0565b60005b84811015610b52576000868683818110610a1957610a19614bfc565b9050602002810190610a2b9190614c12565b610a3490614ca2565b9050610a4381602001516118fc565b60038161012001516004811115610a5c57610a5c614f51565b03610a7e57610a7e816040015182606001518360200151846101000151611989565b60028161012001516004811115610a9757610a97614f51565b1480610ab9575060048161012001516004811115610ab757610ab7614f51565b145b15610ad557610ad5816040015182606001518360200151611c6b565b60008161012001516004811115610aee57610aee614f51565b03610b0a57610b0a816040015182606001518360200151611f5b565b60018161012001516004811115610b2357610b23614f51565b03610b3f57610b3f816040015182606001518360200151612211565b5080610b4a81614d77565b9150506109fd565b5060005b8351811015610c9c576000848281518110610b7357610b73614bfc565b60200260200101519050610b8a81608001516118fc565b60038160a001516004811115610ba257610ba2614f51565b03610bc65780515160208201515160808301516060840151610bc693929190611989565b60028160a001516004811115610bde57610bde614f51565b1480610bff575060048160a001516004811115610bfd57610bfd614f51565b145b15610c1d578051516020820151516080830151610c1d929190611c6b565b60008160a001516004811115610c3557610c35614f51565b03610c53578051516020820151516080830151610c53929190611f5b565b60018160a001516004811115610c6b57610c6b614f51565b03610c89578051516020820151516080830151610c89929190612211565b5080610c9481614d77565b915050610b56565b506006546040516370a0823160e01b81523060048201526001600160a01b03909116906370a0823190602401602060405180830381865afa158015610ce5573d6000803e3d6000fd5b505050506040513d601f19601f82011682018060405250810190610d099190614d90565b600654909150610d23906001600160a01b031683836124bf565b949350505050565b6007546001600160a01b03163314610d555760405162461bcd60e51b81526004016104b990614bb0565b600080610d7e610d6a36889003880188614f82565b610d793688900388018861502a565b6125b8565b9150915082610dbb57610da1610d9a608088016060890161459d565b85846124bf565b610dbb610db460a088016080890161459d565b85836124bf565b505050505050565b610dcb610e3c565b6001600160a01b038116610e305760405162461bcd60e51b815260206004820152602660248201527f4f776e61626c653a206e6577206f776e657220697320746865207a65726f206160448201526564647265737360d01b60648201526084016104b9565b610e3981611598565b50565b6000546001600160a01b0316331461081f5760405162461bcd60e51b815260206004820181905260248201527f4f776e61626c653a2063616c6c6572206973206e6f7420746865206f776e657260448201526064016104b9565b6000610ea583602001516118fc565b610ebc836040015184602001518560800151612696565b60038361012001516004811115610ed557610ed5614f51565b03610ee657610ee38361278f565b90505b60028361012001516004811115610eff57610eff614f51565b1480610f21575060048361012001516004811115610f1f57610f1f614f51565b145b15610f3257610f2f83612890565b90505b60008361012001516004811115610f4b57610f4b614f51565b03610f5c57610f5983612890565b90505b60018361012001516004811115610f7557610f75614f51565b03610f8657610f8383612959565b90505b60e0830151610fa357610f9e828460600151836129ed565b610ff4565b60408051808201825260608501516001600160a01b039081168252602080830185815260e08801516000908152600a909252939020915182546001600160a01b031916911617815590516001909101555b92915050565b6001600160a01b0383166110205760405162461bcd60e51b81526004016104b990615047565b6040516370a0823160e01b815230600482015281906001600160a01b038416906370a0823190602401602060405180830381865afa158015611066573d6000803e3d6000fd5b505050506040513d601f19601f8201168201806040525081019061108a9190614d90565b106105a3576110a36001600160a01b0383168483612ae2565b816001600160a01b0316836001600160a01b03167f6c9d637297625e945b296ff73a71fcfbd0a9e062652b6491a921c4c60194176b836040516110e891815260200190565b60405180910390a3505050565b6001600160a01b03831661111b5760405162461bcd60e51b81526004016104b990615047565b6040516331a9108f60e11b81526004810182905230906001600160a01b03841690636352211e90602401602060405180830381865afa158015611162573d6000803e3d6000fd5b505050506040513d601f19601f82011682018060405250810190611186919061506a565b6001600160a01b0316036105a3576040516323b872dd60e01b81523060048201526001600160a01b038481166024830152604482018390528316906323b872dd90606401600060405180830381600087803b1580156111e457600080fd5b505af11580156111f8573d6000803e3d6000fd5b5050505080826001600160a01b0316846001600160a01b03167ffefe036cac4ee3a4aca074a81cbcc4376e1484693289078dbec149c890101d5b60405160405180910390a4505050565b6001600160a01b0382166112685760405162461bcd60e51b81526004016104b990615047565b8047106105cd576112826001600160a01b03831682612b34565b816001600160a01b03167eddb683bb45cd5d0ad8a200c6fae7152b1c236ee90a4a37db692407f5cc38bd826040516112bc91815260200190565b60405180910390a25050565b82516112d3906118fc565b6000806000806000806112e68988612c4d565b9150915060006127108a61010001516127106113029190615087565b61130c908561509a565b6113169190614da9565b905060006127108b61010001516127106113309190615087565b61133a908561509a565b6113449190614da9565b90506113598b602001518c6000015186612696565b61136c8b604001518c6000015185612696565b60038b6101a00151600481111561138557611385614f51565b036113aa576113958b8585612ef0565b929a50909850965094506113aa8a89896129ed565b60028b6101a0015160048111156113c3576113c3614f51565b036113eb576113d58b858585856131b3565b929a50909850965094506113eb8a8960006129ed565b60008b6101a00151600481111561140457611404614f51565b0361142c576114168b858585856132b2565b929a509098509650945061142c8a8960006129ed565b60018b6101a00151600481111561144557611445614f51565b0361146f576114578b85858585613387565b8e51939b509199509750955061146f908b908a61349b565b60006040518061014001604052808a81526020018981526020018d6101600151151581526020018d602001516001600160a01b031681526020018d604001516001600160a01b031681526020018d610120015160020b81526020018d610140015160020b81526020018d610180015181526020018d600001516001600160a01b031681526020018d6101a00151600481111561150d5761150d614f51565b905260085460405163759a46d760e11b81529192506001600160a01b03169063eb348dae90611542908e9085906004016150c5565b600060405180830381600087803b15801561155c57600080fd5b505af1158015611570573d6000803e3d6000fd5b5050505061158a8c6020015188878f604001518a89613547565b505050505050505050505050565b600080546001600160a01b038381166001600160a01b0319831681178455604051919092169283917f8be0079c531659141344cd1fd0a4f28419497f9722a3daafe3b4186f6b6457e09190a35050565b6115f581602001516118fc565b8060400151600954101561164b5760405162461bcd60e51b815260206004820152601f60248201527f496e76616c696420616d6f756e7420666f7220436f6e747261637443616c6c0060448201526064016104b9565b60008082602001516001600160a01b03168360400151846000015160405161167391906151b2565b60006040518083038185875af1925050503d80600081146116b0576040519150601f19603f3d011682016040523d82523d6000602084013e6116b5565b606091505b5091509150816105a3578051602082018181fd5b6001600160a01b0384166116ef5760405162461bcd60e51b81526004016104b990615047565b604051627eeac760e11b81523060048201526024810183905281906001600160a01b0385169062fdd58e90604401602060405180830381865afa15801561173a573d6000803e3d6000fd5b505050506040513d601f19601f8201168201806040525081019061175e9190614d90565b1061058a57604051637921219560e11b81523060048201526001600160a01b038581166024830152604482018490526064820183905260a06084830152600060a483015284169063f242432a9060c401600060405180830381600087803b1580156117c857600080fd5b505af11580156117dc573d6000803e3d6000fd5b5050505081836001600160a01b0316856001600160a01b03167f620337bf89eea2b9ae2657beead83b5fa620452817118348aff96e201d52598b8460405161182691815260200190565b60405180910390a450505050565b60008060008361010001516001600160a01b031663f6c009278560e001516040518263ffffffff1660e01b815260040161187091815260200190565b6040805180830381865afa15801561188c573d6000803e3d6000fd5b505050506040513d601f19601f820116820180604052508101906118b091906151c4565b50946000945092505050565b6000806118d78361010001518460600151856080015161358b565b9360009350915050565b6000806118d783610100015184606001518560800151613608565b600854604051636f2ddb5f60e01b81526001600160a01b03838116600483015290911690636f2ddb5f906024016020604051808303816000875af1158015611948573d6000803e3d6000fd5b505050506040513d601f19601f8201168201806040525081019061196c9190615202565b610e39576040516311970e2d60e31b815260040160405180910390fd5b6002546000906001600160a01b03868116911614611af8576040516370a0823160e01b81523060048201526001600160a01b038616906370a0823190602401602060405180830381865afa1580156119e5573d6000803e3d6000fd5b505050506040513d601f19601f82011682018060405250810190611a099190614d90565b9050611a16858483612696565b8015611af8576040805160c081018252838152600060208083018290526001600160a01b0389811684860152600254811660608086019190915260808086018890528651808501885285815260a0870152865190810187523080825293810185905280870193909352820183905293516352bbbe2960e01b815292939092908716916352bbbe2991611ab191869186919042906004016152b2565b6020604051808303816000875af1158015611ad0573d6000803e3d6000fd5b505050506040513d601f19601f82011682018060405250810190611af49190614d90565b5050505b6002546001600160a01b03858116911614611c64576040516370a0823160e01b81523060048201526001600160a01b038516906370a0823190602401602060405180830381865afa158015611b51573d6000803e3d6000fd5b505050506040513d601f19601f82011682018060405250810190611b759190614d90565b9050611b82848483612696565b8015611c64576040805160c081018252838152600060208083018290526001600160a01b0388811684860152600254811660608086019190915260808086018890528651808501885285815260a0870152865190810187523080825293810185905280870193909352820183905293516352bbbe2960e01b815292939092908716916352bbbe2991611c1d91869186919042906004016152b2565b6020604051808303816000875af1158015611c3c573d6000803e3d6000fd5b505050506040513d601f19601f82011682018060405250810190611c609190614d90565b5050505b5050505050565b604080516001808252818301909252600091829190816020015b6040805160608101825260008082526020808301829052928201528252600019909201910181611c85579050506005549091506001600160a01b03868116911614611e09576040516370a0823160e01b81523060048201526001600160a01b038616906370a0823190602401602060405180830381865afa158015611d0e573d6000803e3d6000fd5b505050506040513d601f19601f82011682018060405250810190611d329190614d90565b604080516060810182526001600160a01b0380891682526005541660208201526000918101829052835192945091839190611d6f57611d6f614bfc565b60209081029190910101528115611e0957611d8b858484612696565b604051631e82ecdb60e31b81526001600160a01b0384169063f41766d890611dc0908590600090869030904290600401615316565b6000604051808303816000875af1158015611ddf573d6000803e3d6000fd5b505050506040513d6000823e601f3d908101601f19168201604052611e0791908101906153ab565b505b6005546001600160a01b03858116911614611c64576040516370a0823160e01b81523060048201526001600160a01b038516906370a0823190602401602060405180830381865afa158015611e62573d6000803e3d6000fd5b505050506040513d601f19601f82011682018060405250810190611e869190614d90565b604080516060810182526001600160a01b0380881682526005541660208201526000918101829052835192945091839190611ec357611ec3614bfc565b60209081029190910101528115611c6457611edf848484612696565b604051631e82ecdb60e31b81526001600160a01b0384169063f41766d890611f14908590600090869030904290600401615316565b6000604051808303816000875af1158015611f33573d6000803e3d6000fd5b505050506040513d6000823e601f3d908101601f19168201604052610dbb91908101906153ab565b6003546000906060906001600160a01b038681169116146120b6576040516370a0823160e01b81523060048201526001600160a01b038616906370a0823190602401602060405180830381865afa158015611fba573d6000803e3d6000fd5b505050506040513d601f19601f82011682018060405250810190611fde9190614d90565b91508481600081518110611ff457611ff4614bfc565b6001600160a01b03928316602091820292909201015260035482519116908290600190811061202557612025614bfc565b6001600160a01b039092166020928302919091019091015281156120b65761204e858484612696565b60405163791ac94760e01b81526001600160a01b0384169063791ac94790612083908590600090869030904290600401615430565b600060405180830381600087803b15801561209d57600080fd5b505af11580156120b1573d6000803e3d6000fd5b505050505b6003546001600160a01b03858116911614611c64576040516370a0823160e01b81523060048201526001600160a01b038516906370a0823190602401602060405180830381865afa15801561210f573d6000803e3d6000fd5b505050506040513d601f19601f820116820180604052508101906121339190614d90565b9150838160008151811061214957612149614bfc565b6001600160a01b03928316602091820292909201015260035482519116908290600190811061217a5761217a614bfc565b6001600160a01b03909216602092830291909101909101528115611c64576121a3848484612696565b60405163791ac94760e01b81526001600160a01b0384169063791ac947906121d8908590600090869030904290600401615430565b600060405180830381600087803b1580156121f257600080fd5b505af1158015612206573d6000803e3d6000fd5b505050505050505050565b6040805160e081018252600080825260208201819052918101829052606081018290526080810182905260a0810182905260c081018290526004546001600160a01b03868116911614612385576040516370a0823160e01b81523060048201526001600160a01b038616906370a0823190602401602060405180830381865afa1580156122a2573d6000803e3d6000fd5b505050506040513d601f19601f820116820180604052508101906122c69190614d90565b91508115612385576122d9858484612696565b506040805160e0810182526001600160a01b0380871682526004805482166020840152308385015242606084015260808301859052600060a0840181905260c0840152925163178ca23160e31b815291929085169163bc65118891612340918591016154a1565b6020604051808303816000875af115801561235f573d6000803e3d6000fd5b505050506040513d601f19601f820116820180604052508101906123839190614d90565b505b6004546001600160a01b03858116911614611c64576040516370a0823160e01b81523060048201526001600160a01b038516906370a0823190602401602060405180830381865afa1580156123de573d6000803e3d6000fd5b505050506040513d601f19601f820116820180604052508101906124029190614d90565b91508115611c6457612415848484612696565b506040805160e0810182526001600160a01b0380861682526004805482166020840152308385015242606084015260808301859052600060a0840181905260c0840152925163178ca23160e31b815291929085169163bc6511889161247c918591016154a1565b6020604051808303816000875af115801561249b573d6000803e3d6000fd5b505050506040513d601f19601f82011682018060405250810190610dbb9190614d90565b604080516001600160a01b038481166024830152604480830185905283518084039091018152606490920183526020820180516001600160e01b031663a9059cbb60e01b179052915160009283929087169161251b91906151b2565b6000604051808303816000865af19150503d8060008114612558576040519150601f19603f3d011682016040523d82523d6000602084013e61255d565b606091505b50915091508180156125875750805115806125875750808060200190518101906125879190615202565b611c645760405162461bcd60e51b815260206004820152600260248201526114d560f21b60448201526064016104b9565b6000806125c98461010001516118fc565b600384610120015160048111156125e2576125e2614f51565b036125f7576125f18484613693565b90925090505b6002846101200151600481111561261057612610614f51565b036126255761261f84846138f5565b90925090505b6000846101200151600481111561263e5761263e614f51565b036126535761264d84846139f7565b90925090505b6001846101200151600481111561266c5761266c614f51565b0361268f5761267b8484613aa4565b909250905061268984613b42565b90925090505b9250929050565b604080516001600160a01b038481166024830152604480830185905283518084039091018152606490920183526020820180516001600160e01b031663095ea7b360e01b17905291516000928392908716916126f291906151b2565b6000604051808303816000865af19150503d806000811461272f576040519150601f19603f3d011682016040523d82523d6000602084013e612734565b606091505b509150915081801561275e57508051158061275e57508080602001905181019061275e9190615202565b611c645760405162461bcd60e51b8152602060048201526002602482015261534160f01b60448201526064016104b9565b6000806040518060c001604052808461010001518152602001600060018111156127bb576127bb614f51565b81526040808601516001600160a01b039081166020808501919091526060808901518316848601526080808a015182870152845180840186526000808252968201528451908101855230808252818401879052818601529081019490945287015160a088015192516352bbbe2960e01b815294955092939216916352bbbe299161284d918691869142906004016152b2565b6020604051808303816000875af115801561286c573d6000803e3d6000fd5b505050506040513d601f19601f82011682018060405250810190610d239190614d90565b600080600083602001516001600160a01b03168460c0015185600001516040516128ba91906151b2565b60006040518083038185875af1925050503d80600081146128f7576040519150601f19603f3d011682016040523d82523d6000602084013e6128fc565b606091505b509150915081612910578051602082018181fd5b60008180602001905181019061292691906153ab565b905080600182516129379190615087565b8151811061294757612947614bfc565b60200260200101519350505050919050565b600080600083602001516001600160a01b03168460c00151856000015160405161298391906151b2565b60006040518083038185875af1925050503d80600081146129c0576040519150601f19603f3d011682016040523d82523d6000602084013e6129c5565b606091505b5091509150816129d9578051602082018181fd5b80806020019051810190610d239190614d90565b80600003612a60576040516370a0823160e01b81523060048201526001600160a01b038316906370a0823190602401602060405180830381865afa158015612a39573d6000803e3d6000fd5b505050506040513d601f19601f82011682018060405250810190612a5d9190614d90565b90505b600754612a789083906001600160a01b0316836124bf565b600754604051639261968560e01b8152600481018590526001600160a01b03848116602483015260448201849052909116906392619685906064015b600060405180830381600087803b158015612ace57600080fd5b505af1158015610804573d6000803e3d6000fd5b604080516001600160a01b038416602482015260448082018490528251808303909101815260649091019091526020810180516001600160e01b031663a9059cbb60e01b1790526105a3908490613c09565b80471015612b845760405162461bcd60e51b815260206004820152601d60248201527f416464726573733a20696e73756666696369656e742062616c616e636500000060448201526064016104b9565b6000826001600160a01b03168260405160006040518083038185875af1925050503d8060008114612bd1576040519150601f19603f3d011682016040523d82523d6000602084013e612bd6565b606091505b50509050806105a35760405162461bcd60e51b815260206004820152603a60248201527f416464726573733a20756e61626c6520746f2073656e642076616c75652c207260448201527f6563697069656e74206d6179206861766520726576657274656400000000000060648201526084016104b9565b6006546040516370a0823160e01b8152306004820152600091829182916001600160a01b0316906370a0823190602401602060405180830381865afa158015612c9a573d6000803e3d6000fd5b505050506040513d601f19601f82011682018060405250810190612cbe9190614d90565b6060860151909150612cf457602085015160405163bf6ada5160e01b81526001600160a01b0390911660048201526024016104b9565b630ae8aa8960e31b856060015114612d855760608501516000908152600a6020908152604090912054908601516001600160a01b03908116911614612d4c5760405163d0e96f5b60e01b815260040160405180910390fd5b6060850180516000908152600a60205260408082206001908101549351835290822080546001600160a01b031916815501559250612d98565b60008411612d935780612d95565b835b92505b6080850151612dcb57604080860151905163bf6ada5160e01b81526001600160a01b0390911660048201526024016104b9565b630ae8aa8960e31b856080015114612e5b5760808501516000908152600a60205260409081902054908601516001600160a01b03908116911614612e225760405163d0e96f5b60e01b815260040160405180910390fd5b6080850180516000908152600a60205260408082206001908101549351835290822080546001600160a01b031916815501559150612e6e565b60008411612e695780612e6b565b835b91505b630ae8aa8960e31b8560600151141580612e86575083155b15612eab576127108560a0015184612e9e919061509a565b612ea89190614da9565b92505b630ae8aa8960e31b8560800151141580612ec3575083155b15612ee8576127108560c0015183612edb919061509a565b612ee59190614da9565b91505b509250929050565b600080600080600087600001516001600160a01b031663f6c009278961018001516040518263ffffffff1660e01b8152600401612f2f91815260200190565b6040805180830381865afa158015612f4b573d6000803e3d6000fd5b505050506040513d601f19601f82011682018060405250810190612f6f91906151c4565b509050600080612f908a602001518b60400151858c8c8f6101600151613cdb565b9150915060006001828c60e00151604051602001612fb093929190615545565b60408051601f1981840301815260808301825285835260208301859052828201819052600060608401528d516101808f0151925163172b958560e31b81529194506001600160a01b03169163b95cac28916130149190309081908790600401615606565b600060405180830381600087803b15801561302e57600080fd5b505af1158015613042573d6000803e3d6000fd5b50506040516370a0823160e01b81523060048201526001600160a01b0388169b508b92506370a082319150602401602060405180830381865afa15801561308d573d6000803e3d6000fd5b505050506040513d601f19601f820116820180604052508101906130b19190614d90565b60208d01516040516370a0823160e01b81523060048201529199506001600160a01b0316906370a0823190602401602060405180830381865afa1580156130fc573d6000803e3d6000fd5b505050506040513d601f19601f820116820180604052508101906131209190614d90565b61312a908c615087565b6040808e015190516370a0823160e01b81523060048201529198506001600160a01b0316906370a0823190602401602060405180830381865afa158015613175573d6000803e3d6000fd5b505050506040513d601f19601f820116820180604052508101906131999190614d90565b6131a3908b615087565b9550505050505093509350935093565b845160208601516040808801516101608901519151635a47ddc360e01b81526001600160a01b03938416600482015290831660248201529015156044820152606481018790526084810186905260a4810185905260c481018490523060e4820152426101048201526000928392839283929190911690635a47ddc390610124016060604051808303816000875af1158015613252573d6000803e3d6000fd5b505050506040513d601f19601f820116820180604052508101906132769190615642565b8b5160208d015160408e0151929750939550919350600092613298929161358b565b6001600160a01b03169a9399509197509550909350505050565b84516020860151604080880151905162e8e33760e81b81526001600160a01b039283166004820152908216602482015260448101879052606481018690526084810185905260a481018490523060c48201524260e4820152600092839283928392919091169063e8e3370090610104016060604051808303816000875af1158015613341573d6000803e3d6000fd5b505050506040513d601f19601f820116820180604052508101906133659190615642565b8b5160208d015160408e01519297509395509193506000926132989291613608565b60008060008060006040518061014001604052808b602001516001600160a01b031681526020018b604001516001600160a01b031681526020018b610120015160020b81526020018b610140015160020b81526020018a8152602001898152602001888152602001878152602001306001600160a01b0316815260200142815250905089600001516001600160a01b0316639cc1a283826040518263ffffffff1660e01b815260040161343a9190615670565b6080604051808303816000875af1158015613459573d6000803e3d6000fd5b505050506040513d601f19601f8201168201806040525081019061347d919061571b565b929d6001600160801b039092169c509a509098509650505050505050565b600754604051632142170760e11b81523060048201526001600160a01b03918216602482015260448101839052908316906342842e0e90606401600060405180830381600087803b1580156134ef57600080fd5b505af1158015613503573d6000803e3d6000fd5b5050600754604051636069c4af60e11b8152600481018790526001600160a01b03868116602483015260448201869052909116925063c0d3895e9150606401612ab4565b8385101561356b57600061355b8686615087565b905061356987335b836124bf565b505b80821015610dbb57600061357f8383615087565b90506108048433613563565b60405163147585a560e11b81526001600160a01b038381166004830152828116602483015260006044830181905291908516906328eb0b4a90606401602060405180830381865afa1580156135e4573d6000803e3d6000fd5b505050506040513d601f19601f82011682018060405250810190610d23919061506a565b600080613614856143e6565b60405163e6a4390560e01b81526001600160a01b03868116600483015285811660248301529192509082169063e6a4390590604401602060405180830381865afa158015613666573d6000803e3d6000fd5b505050506040513d601f19601f8201168201806040525081019061368a919061506a565b95945050505050565b60008060008461010001516001600160a01b031663f6c009278660e001516040518263ffffffff1660e01b81526004016136cf91815260200190565b6040805180830381865afa1580156136eb573d6000803e3d6000fd5b505050506040513d601f19601f8201168201806040525081019061370f91906151c4565b50905060008061373f87606001518860800151858960000151602001518a60200151602001518c60400151613cdb565b91509150613757838861010001518960200151612696565b600060018860200151604051602001613771929190615765565b60408051601f1981840301815260808301825285835260208301859052828201819052600060608401526101008b015160e08c01519251638bdb391360e01b81529194506001600160a01b031691638bdb3913916137d89190309081908790600401615606565b600060405180830381600087803b1580156137f257600080fd5b505af1158015613806573d6000803e3d6000fd5b50505060608a01516040516370a0823160e01b81523060048201526001600160a01b0390911691506370a0823190602401602060405180830381865afa158015613854573d6000803e3d6000fd5b505050506040513d601f19601f820116820180604052508101906138789190614d90565b60808a01516040516370a0823160e01b81523060048201529198506001600160a01b0316906370a0823190602401602060405180830381865afa1580156138c3573d6000803e3d6000fd5b505050506040513d601f19601f820116820180604052508101906138e79190614d90565b955050505050509250929050565b60008060006139128561010001518660600151876080015161358b565b9050613928818661010001518760200151612696565b610100850151606086015160808701516040808901516020808b01518a518201518b83015190920151935163037b79b160e21b81526001600160a01b039687166004820152948616602486015291151560448501526064840191909152608483015260a48201523060c48201524260e4820152911690630dede6c490610104015b60408051808303816000875af11580156139c7573d6000803e3d6000fd5b505050506040513d601f19601f820116820180604052508101906139eb919061577c565b90969095509350505050565b6000806000613a1485610100015186606001518760800151613608565b9050613a2a818661010001518760200151612696565b6101008501516060860151608087015160208089015188518201518983015190920151604051635d5155ef60e11b81526001600160a01b03958616600482015293851660248501526044840191909152606483019190915260848201523060a48201524260c482015291169063baa2abde9060e4016139a9565b6040805160a081018252835181526020808501516001600160801b03908116828401908152855183015184860190815286840151909301516060850190815242608086019081526101008901519651630624e65f60e11b8152865160048201529251909316602483015292516044820152915160648301525160848201526000928392916001600160a01b0390911690630c49ccbe9060a4016139a9565b604080516080810182528251815230602082019081526001600160801b0382840181815260608401828152610100870151955163fc6f786560e01b81528551600482015293516001600160a01b03908116602486015291518316604485015251909116606483015260009384939291169063fc6f78659060840160408051808303816000875af1158015613bda573d6000803e3d6000fd5b505050506040513d601f19601f82011682018060405250810190613bfe919061577c565b909590945092505050565b6000613c5e826040518060400160405280602081526020017f5361666545524332303a206c6f772d6c6576656c2063616c6c206661696c6564815250856001600160a01b03166144559092919063ffffffff16565b8051909150156105a35780806020019051810190613c7c9190615202565b6105a35760405162461bcd60e51b815260206004820152602a60248201527f5361666545524332303a204552433230206f7065726174696f6e20646964206e6044820152691bdd081cdd58d8d9595960b21b60648201526084016104b9565b606080821561423c57604080516003808252608082019092529060208201606080368337505060408051600380825260808201909252929450905060208201606080368337019050509050866001600160a01b0316886001600160a01b031611158015613d5a5750856001600160a01b0316886001600160a01b031611155b15613f17578782600081518110613d7357613d73614bfc565b60200260200101906001600160a01b031690816001600160a01b0316815250508481600081518110613da757613da7614bfc565b602002602001018181525050856001600160a01b0316876001600160a01b031611613e7a578682600181518110613de057613de0614bfc565b60200260200101906001600160a01b031690816001600160a01b0316815250508582600281518110613e1457613e14614bfc565b60200260200101906001600160a01b031690816001600160a01b0316815250508381600181518110613e4857613e48614bfc565b602002602001018181525050600081600281518110613e6957613e69614bfc565b6020026020010181815250506143db565b8582600181518110613e8e57613e8e614bfc565b60200260200101906001600160a01b031690816001600160a01b0316815250508682600281518110613ec257613ec2614bfc565b60200260200101906001600160a01b031690816001600160a01b031681525050600081600181518110613ef757613ef7614bfc565b6020026020010181815250508381600281518110613e6957613e69614bfc565b876001600160a01b0316876001600160a01b031611158015613f4b5750856001600160a01b0316876001600160a01b031611155b156140d6578682600081518110613f6457613f64614bfc565b60200260200101906001600160a01b031690816001600160a01b0316815250508381600081518110613f9857613f98614bfc565b602002602001018181525050856001600160a01b0316886001600160a01b031611614039578782600181518110613fd157613fd1614bfc565b60200260200101906001600160a01b031690816001600160a01b031681525050858260028151811061400557614005614bfc565b60200260200101906001600160a01b031690816001600160a01b0316815250508481600181518110613e4857613e48614bfc565b858260018151811061404d5761404d614bfc565b60200260200101906001600160a01b031690816001600160a01b031681525050878260028151811061408157614081614bfc565b60200260200101906001600160a01b031690816001600160a01b0316815250506000816001815181106140b6576140b6614bfc565b6020026020010181815250508481600281518110613e6957613e69614bfc565b85826000815181106140ea576140ea614bfc565b60200260200101906001600160a01b031690816001600160a01b03168152505060008160008151811061411f5761411f614bfc565b602002602001018181525050866001600160a01b0316886001600160a01b0316116141c057878260018151811061415857614158614bfc565b60200260200101906001600160a01b031690816001600160a01b031681525050868260028151811061418c5761418c614bfc565b60200260200101906001600160a01b031690816001600160a01b0316815250508481600181518110613ef757613ef7614bfc565b86826001815181106141d4576141d4614bfc565b60200260200101906001600160a01b031690816001600160a01b031681525050878260028151811061420857614208614bfc565b60200260200101906001600160a01b031690816001600160a01b03168152505083816001815181106140b6576140b6614bfc565b60408051600280825260608201835290916020830190803683375050604080516002808252606082018352939550929150602083019080368337019050509050866001600160a01b0316886001600160a01b031610156143325787826000815181106142aa576142aa614bfc565b60200260200101906001600160a01b031690816001600160a01b03168152505086826001815181106142de576142de614bfc565b60200260200101906001600160a01b031690816001600160a01b031681525050848160008151811061431257614312614bfc565b6020026020010181815250508381600181518110613e6957613e69614bfc565b868260008151811061434657614346614bfc565b60200260200101906001600160a01b031690816001600160a01b031681525050878260018151811061437a5761437a614bfc565b60200260200101906001600160a01b031690816001600160a01b03168152505083816000815181106143ae576143ae614bfc565b60200260200101818152505084816001815181106143ce576143ce614bfc565b6020026020010181815250505b965096945050505050565b600080829050806001600160a01b031663c45a01556040518163ffffffff1660e01b8152600401602060405180830381865afa15801561442a573d6000803e3d6000fd5b505050506040513d601f19601f8201168201806040525081019061444e919061506a565b9392505050565b6060610d23848460008585600080866001600160a01b0316858760405161447c91906151b2565b60006040518083038185875af1925050503d80600081146144b9576040519150601f19603f3d011682016040523d82523d6000602084013e6144be565b606091505b50915091506144cf878383876144da565b979650505050505050565b60608315614549578251600003614542576001600160a01b0385163b6145425760405162461bcd60e51b815260206004820152601d60248201527f416464726573733a2063616c6c20746f206e6f6e2d636f6e747261637400000060448201526064016104b9565b5081610d23565b610d23838381511561455e5781518083602001fd5b8060405162461bcd60e51b81526004016104b991906157a0565b6001600160a01b0381168114610e3957600080fd5b803561459881614578565b919050565b6000602082840312156145af57600080fd5b813561444e81614578565b60008083601f8401126145cc57600080fd5b5081356001600160401b038111156145e357600080fd5b6020830191508360208260051b850101111561268f57600080fd5b60008060006040848603121561461357600080fd5b83356001600160401b0381111561462957600080fd5b614635868287016145ba565b909790965060209590950135949350505050565b60008060008060006080868803121561466157600080fd5b853561466c81614578565b9450602086013561467c81614578565b93506040860135925060608601356001600160401b038082111561469f57600080fd5b818801915088601f8301126146b357600080fd5b8135818111156146c257600080fd5b8960208285010111156146d457600080fd5b9699959850939650602001949392505050565b6000806000606084860312156146fc57600080fd5b833561470781614578565b9250602084013561471781614578565b929592945050506040919091013590565b6000806040838503121561473b57600080fd5b823561474681614578565b946020939093013593505050565b60008060006040848603121561476957600080fd5b83356001600160401b038082111561478057600080fd5b818601915086601f83011261479457600080fd5b8135818111156147a357600080fd5b8760206101c0830285010111156147b957600080fd5b6020928301989097509590910135949350505050565b600080602083850312156147e257600080fd5b82356001600160401b038111156147f857600080fd5b6139eb858286016145ba565b6000806000806080858703121561481a57600080fd5b843561482581614578565b9350602085013561483581614578565b93969395505050506040820135916060013590565b6000610140828403121561485d57600080fd5b50919050565b6000610140828403121561487657600080fd5b61444e838361484a565b634e487b7160e01b600052604160045260246000fd5b60405161010081016001600160401b03811182821017156148b9576148b9614880565b60405290565b60405161014081016001600160401b03811182821017156148b9576148b9614880565b6040516101c081016001600160401b03811182821017156148b9576148b9614880565b604051601f8201601f191681016001600160401b038111828210171561492d5761492d614880565b604052919050565b60006001600160401b0382111561494e5761494e614880565b5060051b60200190565b60006040828403121561496a57600080fd5b604051604081018181106001600160401b038211171561498c5761498c614880565b604052905080823561499d81614578565b8152602092830135920191909152919050565b80356005811061459857600080fd5b8015158114610e3957600080fd5b8035614598816149bf565b600061014082840312156149eb57600080fd5b6149f3614896565b90506149ff8383614958565b8152614a0e8360408401614958565b60208201526080820135604082015260a08201356060820152614a3360c0830161458d565b6080820152614a4460e083016149b0565b60a0820152614a5661010083016149cd565b60c0820152614a6861012083016149cd565b60e082015292915050565b60008060008060608587031215614a8957600080fd5b84356001600160401b0380821115614aa057600080fd5b614aac888389016145ba565b9096509450602091508682013581811115614ac657600080fd5b87019050601f81018813614ad957600080fd5b8035614aec614ae782614935565b614905565b818152610140918202830184019184820191908b841115614b0c57600080fd5b938501935b83851015614b3257614b238c866149d8565b83529384019391850191614b11565b508096505050505050614b476040860161458d565b905092959194509250565b6000806000806102c08587031215614b6957600080fd5b614b73868661484a565b9350614b8386610140870161484a565b9250610280850135614b9481614578565b91506102a0850135614ba5816149bf565b939692955090935050565b6020808252602c908201527f576562335061636b7345786368616e67654d616e61676572202d20496e76616c60408201526b696420576562335061636b7360a01b606082015260800190565b634e487b7160e01b600052603260045260246000fd5b6000823561013e19833603018112614c2957600080fd5b9190910192915050565b600082601f830112614c4457600080fd5b81356001600160401b03811115614c5d57614c5d614880565b614c70601f8201601f1916602001614905565b818152846020838601011115614c8557600080fd5b816020850160208301376000918101602001919091529392505050565b60006101408236031215614cb557600080fd5b614cbd6148bf565b82356001600160401b03811115614cd357600080fd5b614cdf36828601614c33565b825250614cee6020840161458d565b6020820152614cff6040840161458d565b6040820152614d106060840161458d565b60608201526080830135608082015260a083013560a082015260c083013560c082015260e083013560e0820152610100808401358183015250610120614d578185016149b0565b9082015292915050565b634e487b7160e01b600052601160045260246000fd5b600060018201614d8957614d89614d61565b5060010190565b600060208284031215614da257600080fd5b5051919050565b600082614dc657634e487b7160e01b600052601260045260246000fd5b500490565b8035600281900b811461459857600080fd5b60006101c08284031215614df057600080fd5b614df86148e2565b614e018361458d565b8152614e0f6020840161458d565b6020820152614e206040840161458d565b6040820152606083013560608201526080830135608082015260a083013560a082015260c083013560c082015260e083013560e0820152610100808401358183015250610120614e71818501614dcb565b90820152610140614e83848201614dcb565b90820152610160614e958482016149cd565b9082015261018083810135908201526101a0614eb28185016149b0565b908201529392505050565b60008235605e19833603018112614c2957600080fd5b600060608236031215614ee557600080fd5b604051606081016001600160401b038282108183111715614f0857614f08614880565b816040528435915080821115614f1d57600080fd5b50614f2a36828601614c33565b8252506020830135614f3b81614578565b6020820152604092830135928101929092525090565b634e487b7160e01b600052602160045260246000fd5b600060208284031215614f7957600080fd5b61444e826149b0565b60006101408284031215614f9557600080fd5b614f9d6148bf565b8235815260208301356020820152614fb7604084016149cd565b6040820152614fc86060840161458d565b6060820152614fd96080840161458d565b6080820152614fea60a08401614dcb565b60a0820152614ffb60c08401614dcb565b60c082015260e083013560e082015261010061501881850161458d565b90820152610120614eb28482016149b0565b6000610140828403121561503d57600080fd5b61444e83836149d8565b6020808252600990820152684248503a452d34303360b81b604082015260600190565b60006020828403121561507c57600080fd5b815161444e81614578565b81810381811115610ff457610ff4614d61565b8082028115828204841417610ff457610ff4614d61565b600581106150c1576150c1614f51565b9052565b600061016082019050838252825160208301526020830151604083015260408301516150f5606084018215159052565b5060608301516001600160a01b03811660808401525060808301516001600160a01b03811660a08401525060a083015161513460c084018260020b9052565b5060c083015161514960e084018260020b9052565b5060e083015161010083810191909152830151610120615173818501836001600160a01b03169052565b84015190506151866101408401826150b1565b509392505050565b60005b838110156151a9578181015183820152602001615191565b50506000910152565b60008251614c2981846020870161518e565b600080604083850312156151d757600080fd5b82516151e281614578565b6020840151909250600381106151f757600080fd5b809150509250929050565b60006020828403121561521457600080fd5b815161444e816149bf565b6000815180845261523781602086016020860161518e565b601f01601f19169290920160200192915050565b80518252600060208201516002811061526657615266614f51565b80602085015250604082015160018060a01b03808216604086015280606085015116606086015250506080820151608084015260a082015160c060a0850152610d2360c085018261521f565b60e0815260006152c560e083018761524b565b9050615304602083018680516001600160a01b039081168352602080830151151590840152604080830151909116908301526060908101511515910152565b60a082019390935260c0015292915050565b600060a0820187835260208781850152604060a08186015282885180855260c087019150838a01945060005b8181101561537f57855180516001600160a01b03908116855286820151168685015284015115158484015294840194606090920191600101615342565b50506001600160a01b0388166060870152935061539b92505050565b8260808301529695505050505050565b600060208083850312156153be57600080fd5b82516001600160401b038111156153d457600080fd5b8301601f810185136153e557600080fd5b80516153f3614ae782614935565b81815260059190911b8201830190838101908783111561541257600080fd5b928401925b828410156144cf57835182529284019290840190615417565b600060a082018783526020878185015260a0604085015281875180845260c086019150828901935060005b818110156154805784516001600160a01b03168352938301939183019160010161545b565b50506001600160a01b03969096166060850152505050608001529392505050565b81516001600160a01b039081168252602080840151821690830152604080840151821690830152606080840151908301526080808401519083015260a0838101519083015260c092830151169181019190915260e00190565b60048110610e3957610e39614f51565b600081518084526020808501945080840160005b8381101561553a5781518752958201959082019060010161551e565b509495945050505050565b61554e846154fa565b838152606060208201526000615567606083018561550a565b9050826040830152949350505050565b8051608080845281519084018190526000916020919082019060a0860190845b818110156155bc5783516001600160a01b031683529284019291840191600101615597565b5050828501519150858103838701526155d5818361550a565b92505050604083015184820360408601526155f0828261521f565b9150506060830151615186606086018215159052565b8481526001600160a01b0384811660208301528316604082015260806060820181905260009061563890830184615577565b9695505050505050565b60008060006060848603121561565757600080fd5b8351925060208401519150604084015190509250925092565b81516001600160a01b031681526101408101602083015161569c60208401826001600160a01b03169052565b5060408301516156b1604084018260020b9052565b5060608301516156c6606084018260020b9052565b506080830151608083015260a083015160a083015260c083015160c083015260e083015160e08301526101008084015161570a828501826001600160a01b03169052565b505061012092830151919092015290565b6000806000806080858703121561573157600080fd5b8451935060208501516001600160801b038116811461574f57600080fd5b6040860151606090960151949790965092505050565b60408101615772846154fa565b9281526020015290565b6000806040838503121561578f57600080fd5b505080516020909101519092909150565b60208152600061444e602083018461521f56fea2646970667358221220fa4a577c921fabee9b46378e8707dec193abef052c401b61c2d57664f38fc82b64736f6c63430008110033",
  "devdoc": {
    "kind": "dev",
    "methods": {
      "owner()": {
        "details": "Returns the address of the current owner."
      },
      "paused()": {
        "details": "Returns true if the contract is paused, and false otherwise."
      },
      "renounceOwnership()": {
        "details": "Leaves the contract without owner. It will not be possible to call `onlyOwner` functions anymore. Can only be called by the current owner. NOTE: Renouncing ownership will leave the contract without an owner, thereby removing any functionality that is only available to the owner."
      },
      "setWeb3Packs(address)": {
        "details": "Setup the Web3Packs Interface"
      },
      "setWeb3PacksManager(address)": {
        "details": "Setup the Web3Packs Interface"
      },
      "transferOwnership(address)": {
        "details": "Transfers ownership of the contract to a new account (`newOwner`). Can only be called by the current owner."
      }
    },
    "version": 1
  },
  "userdoc": {
    "kind": "user",
    "methods": {},
    "version": 1
  },
  "storageLayout": {
    "storage": [
      {
        "astId": 7,
        "contract": "contracts/Web3PacksExchangeManager.sol:Web3PacksExchangeManager",
        "label": "_owner",
        "offset": 0,
        "slot": "0",
        "type": "t_address"
      },
      {
        "astId": 130,
        "contract": "contracts/Web3PacksExchangeManager.sol:Web3PacksExchangeManager",
        "label": "_paused",
        "offset": 20,
        "slot": "0",
        "type": "t_bool"
      },
      {
        "astId": 231,
        "contract": "contracts/Web3PacksExchangeManager.sol:Web3PacksExchangeManager",
        "label": "_status",
        "offset": 0,
        "slot": "1",
        "type": "t_uint256"
      },
      {
        "astId": 4616,
        "contract": "contracts/Web3PacksExchangeManager.sol:Web3PacksExchangeManager",
        "label": "_weth",
        "offset": 0,
        "slot": "2",
        "type": "t_address"
      },
      {
        "astId": 5864,
        "contract": "contracts/Web3PacksExchangeManager.sol:Web3PacksExchangeManager",
        "label": "_weth",
        "offset": 0,
        "slot": "3",
        "type": "t_address"
      },
      {
        "astId": 6275,
        "contract": "contracts/Web3PacksExchangeManager.sol:Web3PacksExchangeManager",
        "label": "_weth",
        "offset": 0,
        "slot": "4",
        "type": "t_address"
      },
      {
        "astId": 6643,
        "contract": "contracts/Web3PacksExchangeManager.sol:Web3PacksExchangeManager",
        "label": "weth",
        "offset": 0,
        "slot": "5",
        "type": "t_address"
      },
      {
        "astId": 1938,
        "contract": "contracts/Web3PacksExchangeManager.sol:Web3PacksExchangeManager",
        "label": "_weth",
        "offset": 0,
        "slot": "6",
        "type": "t_address"
      },
      {
        "astId": 1940,
        "contract": "contracts/Web3PacksExchangeManager.sol:Web3PacksExchangeManager",
        "label": "_web3Packs",
        "offset": 0,
        "slot": "7",
        "type": "t_address"
      },
      {
        "astId": 1942,
        "contract": "contracts/Web3PacksExchangeManager.sol:Web3PacksExchangeManager",
        "label": "_web3PacksManager",
        "offset": 0,
        "slot": "8",
        "type": "t_address"
      },
      {
        "astId": 1944,
        "contract": "contracts/Web3PacksExchangeManager.sol:Web3PacksExchangeManager",
        "label": "_receivedAmount",
        "offset": 0,
        "slot": "9",
        "type": "t_uint256"
      },
      {
        "astId": 1949,
        "contract": "contracts/Web3PacksExchangeManager.sol:Web3PacksExchangeManager",
        "label": "_swapForLiquidityAmount",
        "offset": 0,
        "slot": "10",
        "type": "t_mapping(t_bytes32,t_struct(TokenAmount)4365_storage)"
      }
    ],
    "types": {
      "t_address": {
        "encoding": "inplace",
        "label": "address",
        "numberOfBytes": "20"
      },
      "t_bool": {
        "encoding": "inplace",
        "label": "bool",
        "numberOfBytes": "1"
      },
      "t_bytes32": {
        "encoding": "inplace",
        "label": "bytes32",
        "numberOfBytes": "32"
      },
      "t_mapping(t_bytes32,t_struct(TokenAmount)4365_storage)": {
        "encoding": "mapping",
        "key": "t_bytes32",
        "label": "mapping(bytes32 => struct IWeb3PacksDefs.TokenAmount)",
        "numberOfBytes": "32",
        "value": "t_struct(TokenAmount)4365_storage"
      },
      "t_struct(TokenAmount)4365_storage": {
        "encoding": "inplace",
        "label": "struct IWeb3PacksDefs.TokenAmount",
        "members": [
          {
            "astId": 4362,
            "contract": "contracts/Web3PacksExchangeManager.sol:Web3PacksExchangeManager",
            "label": "token",
            "offset": 0,
            "slot": "0",
            "type": "t_address"
          },
          {
            "astId": 4364,
            "contract": "contracts/Web3PacksExchangeManager.sol:Web3PacksExchangeManager",
            "label": "amount",
            "offset": 0,
            "slot": "1",
            "type": "t_uint256"
          }
        ],
        "numberOfBytes": "64"
      },
      "t_uint256": {
        "encoding": "inplace",
        "label": "uint256",
        "numberOfBytes": "32"
      }
    }
  }
}