{
  "address": "0xEb358aA7Dc78e58651A63964f7ad31D568b9e667",
  "abi": [
    {
      "inputs": [
        {
          "internalType": "address",
          "name": "proton",
          "type": "address"
        },
        {
          "internalType": "address",
          "name": "nonfungiblePositionManager",
          "type": "address"
        },
        {
          "internalType": "address",
          "name": "chargedParticles",
          "type": "address"
        },
        {
          "internalType": "address",
          "name": "chargedState",
          "type": "address"
        },
        {
          "internalType": "address",
          "name": "kimRouter",
          "type": "address"
        },
        {
          "internalType": "address",
          "name": "velodromeRouter",
          "type": "address"
        },
        {
          "internalType": "address",
          "name": "balancerRouter",
          "type": "address"
        }
      ],
      "stateMutability": "nonpayable",
      "type": "constructor"
    },
    {
      "inputs": [],
      "name": "ContractNotAllowed",
      "type": "error"
    },
    {
      "inputs": [],
      "name": "FundingFailed",
      "type": "error"
    },
    {
      "inputs": [
        {
          "internalType": "uint256",
          "name": "value",
          "type": "uint256"
        },
        {
          "internalType": "uint256",
          "name": "ethPackPrice",
          "type": "uint256"
        },
        {
          "internalType": "uint256",
          "name": "protocolFee",
          "type": "uint256"
        }
      ],
      "name": "InsufficientForFee",
      "type": "error"
    },
    {
      "inputs": [],
      "name": "MismatchedTokens",
      "type": "error"
    },
    {
      "inputs": [],
      "name": "NativeAssetTransferFailed",
      "type": "error"
    },
    {
      "inputs": [],
      "name": "NotOwnerOrApproved",
      "type": "error"
    },
    {
      "inputs": [],
      "name": "NullReceiver",
      "type": "error"
    },
    {
      "inputs": [
        {
          "internalType": "address",
          "name": "tokenOut",
          "type": "address"
        },
        {
          "internalType": "uint256",
          "name": "amountIn",
          "type": "uint256"
        },
        {
          "internalType": "address",
          "name": "router",
          "type": "address"
        }
      ],
      "name": "UnsucessfulSwap",
      "type": "error"
    },
    {
      "anonymous": false,
      "inputs": [
        {
          "indexed": true,
          "internalType": "address",
          "name": "chargedParticles",
          "type": "address"
        }
      ],
      "name": "ChargedParticlesSet",
      "type": "event"
    },
    {
      "anonymous": false,
      "inputs": [
        {
          "indexed": true,
          "internalType": "address",
          "name": "chargedState",
          "type": "address"
        }
      ],
      "name": "ChargedStateSet",
      "type": "event"
    },
    {
      "anonymous": false,
      "inputs": [
        {
          "indexed": true,
          "internalType": "address",
          "name": "previousOwner",
          "type": "address"
        },
        {
          "indexed": true,
          "internalType": "address",
          "name": "newOwner",
          "type": "address"
        }
      ],
      "name": "OwnershipTransferred",
      "type": "event"
    },
    {
      "anonymous": false,
      "inputs": [
        {
          "indexed": true,
          "internalType": "uint256",
          "name": "tokenId",
          "type": "uint256"
        },
        {
          "indexed": true,
          "internalType": "address",
          "name": "receiver",
          "type": "address"
        }
      ],
      "name": "PackBundled",
      "type": "event"
    },
    {
      "anonymous": false,
      "inputs": [
        {
          "indexed": true,
          "internalType": "uint256",
          "name": "tokenId",
          "type": "uint256"
        },
        {
          "indexed": true,
          "internalType": "address",
          "name": "receiver",
          "type": "address"
        }
      ],
      "name": "PackUnbundled",
      "type": "event"
    },
    {
      "anonymous": false,
      "inputs": [
        {
          "indexed": false,
          "internalType": "address",
          "name": "account",
          "type": "address"
        }
      ],
      "name": "Paused",
      "type": "event"
    },
    {
      "anonymous": false,
      "inputs": [
        {
          "indexed": false,
          "internalType": "uint256",
          "name": "fee",
          "type": "uint256"
        }
      ],
      "name": "ProtocolFeeSet",
      "type": "event"
    },
    {
      "anonymous": false,
      "inputs": [
        {
          "indexed": true,
          "internalType": "address",
          "name": "proton",
          "type": "address"
        }
      ],
      "name": "ProtonSet",
      "type": "event"
    },
    {
      "anonymous": false,
      "inputs": [
        {
          "indexed": true,
          "internalType": "address",
          "name": "router",
          "type": "address"
        }
      ],
      "name": "RouterSet",
      "type": "event"
    },
    {
      "anonymous": false,
      "inputs": [
        {
          "indexed": false,
          "internalType": "address",
          "name": "account",
          "type": "address"
        }
      ],
      "name": "Unpaused",
      "type": "event"
    },
    {
      "anonymous": false,
      "inputs": [
        {
          "indexed": true,
          "internalType": "address",
          "name": "receiver",
          "type": "address"
        },
        {
          "indexed": true,
          "internalType": "address",
          "name": "tokenAddress",
          "type": "address"
        },
        {
          "indexed": true,
          "internalType": "uint256",
          "name": "tokenId",
          "type": "uint256"
        },
        {
          "indexed": false,
          "internalType": "uint256",
          "name": "amount",
          "type": "uint256"
        }
      ],
      "name": "WithdrawStuckERC1155",
      "type": "event"
    },
    {
      "anonymous": false,
      "inputs": [
        {
          "indexed": true,
          "internalType": "address",
          "name": "receiver",
          "type": "address"
        },
        {
          "indexed": true,
          "internalType": "address",
          "name": "tokenAddress",
          "type": "address"
        },
        {
          "indexed": false,
          "internalType": "uint256",
          "name": "amount",
          "type": "uint256"
        }
      ],
      "name": "WithdrawStuckERC20",
      "type": "event"
    },
    {
      "anonymous": false,
      "inputs": [
        {
          "indexed": true,
          "internalType": "address",
          "name": "receiver",
          "type": "address"
        },
        {
          "indexed": true,
          "internalType": "address",
          "name": "tokenAddress",
          "type": "address"
        },
        {
          "indexed": true,
          "internalType": "uint256",
          "name": "tokenId",
          "type": "uint256"
        }
      ],
      "name": "WithdrawStuckERC721",
      "type": "event"
    },
    {
      "anonymous": false,
      "inputs": [
        {
          "indexed": true,
          "internalType": "address",
          "name": "receiver",
          "type": "address"
        },
        {
          "indexed": false,
          "internalType": "uint256",
          "name": "amount",
          "type": "uint256"
        }
      ],
      "name": "WithdrawStuckEther",
      "type": "event"
    },
    {
      "inputs": [
        {
          "internalType": "address payable",
          "name": "receiver",
          "type": "address"
        },
        {
          "internalType": "string",
          "name": "tokenMetaUri",
          "type": "string"
        },
        {
          "components": [
            {
              "internalType": "bytes",
              "name": "callData",
              "type": "bytes"
            },
            {
              "internalType": "address",
              "name": "contractAddress",
              "type": "address"
            },
            {
              "internalType": "uint256",
              "name": "amountIn",
              "type": "uint256"
            }
          ],
          "internalType": "struct IWeb3Packs.ContractCallGeneric[]",
          "name": "contractCalls",
          "type": "tuple[]"
        },
        {
          "components": [
            {
              "internalType": "bytes",
              "name": "callData",
              "type": "bytes"
            },
            {
              "internalType": "address",
              "name": "router",
              "type": "address"
            },
            {
              "internalType": "address",
              "name": "tokenIn",
              "type": "address"
            },
            {
              "internalType": "address",
              "name": "tokenOut",
              "type": "address"
            },
            {
              "internalType": "uint256",
              "name": "tokenAmountIn",
              "type": "uint256"
            },
            {
              "internalType": "uint256",
              "name": "payableAmountIn",
              "type": "uint256"
            },
            {
              "internalType": "bytes32",
              "name": "liquidityUuid",
              "type": "bytes32"
            },
            {
              "internalType": "enum IWeb3Packs.RouterType",
              "name": "routerType",
              "type": "uint8"
            }
          ],
          "internalType": "struct IWeb3Packs.ERC20SwapOrderGeneric[]",
          "name": "erc20SwapOrders",
          "type": "tuple[]"
        },
        {
          "components": [
            {
              "internalType": "bytes",
              "name": "callData",
              "type": "bytes"
            },
            {
              "internalType": "address",
              "name": "router",
              "type": "address"
            },
            {
              "internalType": "address",
              "name": "token0",
              "type": "address"
            },
            {
              "internalType": "address",
              "name": "token1",
              "type": "address"
            },
            {
              "internalType": "uint256",
              "name": "amount0ToMint",
              "type": "uint256"
            },
            {
              "internalType": "uint256",
              "name": "amount1ToMint",
              "type": "uint256"
            },
            {
              "internalType": "bytes32",
              "name": "liquidityUuidToken0",
              "type": "bytes32"
            },
            {
              "internalType": "bytes32",
              "name": "liquidityUuidToken1",
              "type": "bytes32"
            },
            {
              "internalType": "uint256",
              "name": "payableAmountIn",
              "type": "uint256"
            },
            {
              "internalType": "enum IWeb3Packs.RouterType",
              "name": "routerType",
              "type": "uint8"
            }
          ],
          "internalType": "struct IWeb3Packs.LiquidityOrderGeneric[]",
          "name": "liquidityOrders",
          "type": "tuple[]"
        },
        {
          "components": [
            {
              "internalType": "uint256",
              "name": "ERC20Timelock",
              "type": "uint256"
            },
            {
              "internalType": "uint256",
              "name": "ERC721Timelock",
              "type": "uint256"
            }
          ],
          "internalType": "struct IWeb3Packs.LockState",
          "name": "lockState",
          "type": "tuple"
        },
        {
          "internalType": "uint256",
          "name": "ethPackPrice",
          "type": "uint256"
        }
      ],
      "name": "bundle",
      "outputs": [
        {
          "internalType": "uint256",
          "name": "tokenId",
          "type": "uint256"
        }
      ],
      "stateMutability": "payable",
      "type": "function"
    },
    {
      "inputs": [
        {
          "internalType": "address",
          "name": "",
          "type": "address"
        },
        {
          "internalType": "address",
          "name": "",
          "type": "address"
        },
        {
          "internalType": "uint256",
          "name": "",
          "type": "uint256"
        },
        {
          "internalType": "bytes",
          "name": "",
          "type": "bytes"
        }
      ],
      "name": "onERC721Received",
      "outputs": [
        {
          "internalType": "bytes4",
          "name": "",
          "type": "bytes4"
        }
      ],
      "stateMutability": "pure",
      "type": "function"
    },
    {
      "inputs": [],
      "name": "owner",
      "outputs": [
        {
          "internalType": "address",
          "name": "",
          "type": "address"
        }
      ],
      "stateMutability": "view",
      "type": "function"
    },
    {
      "inputs": [],
      "name": "pause",
      "outputs": [],
      "stateMutability": "nonpayable",
      "type": "function"
    },
    {
      "inputs": [],
      "name": "paused",
      "outputs": [
        {
          "internalType": "bool",
          "name": "",
          "type": "bool"
        }
      ],
      "stateMutability": "view",
      "type": "function"
    },
    {
      "inputs": [],
      "name": "renounceOwnership",
      "outputs": [],
      "stateMutability": "nonpayable",
      "type": "function"
    },
    {
      "inputs": [
        {
          "internalType": "address",
          "name": "chargedParticles",
          "type": "address"
        }
      ],
      "name": "setChargedParticles",
      "outputs": [],
      "stateMutability": "nonpayable",
      "type": "function"
    },
    {
      "inputs": [
        {
          "internalType": "address",
          "name": "chargedState",
          "type": "address"
        }
      ],
      "name": "setChargedState",
      "outputs": [],
      "stateMutability": "nonpayable",
      "type": "function"
    },
    {
      "inputs": [
        {
          "internalType": "address",
          "name": "contractAddress",
          "type": "address"
        },
        {
          "internalType": "bool",
          "name": "isAllowed",
          "type": "bool"
        }
      ],
      "name": "setContractAllowlist",
      "outputs": [],
      "stateMutability": "nonpayable",
      "type": "function"
    },
    {
      "inputs": [
        {
          "internalType": "uint256",
          "name": "fee",
          "type": "uint256"
        }
      ],
      "name": "setProtocolFee",
      "outputs": [],
      "stateMutability": "nonpayable",
      "type": "function"
    },
    {
      "inputs": [
        {
          "internalType": "address",
          "name": "proton",
          "type": "address"
        }
      ],
      "name": "setProton",
      "outputs": [],
      "stateMutability": "nonpayable",
      "type": "function"
    },
    {
      "inputs": [
        {
          "internalType": "address",
          "name": "newOwner",
          "type": "address"
        }
      ],
      "name": "transferOwnership",
      "outputs": [],
      "stateMutability": "nonpayable",
      "type": "function"
    },
    {
      "inputs": [
        {
          "internalType": "address",
          "name": "receiver",
          "type": "address"
        },
        {
          "internalType": "address",
          "name": "tokenAddress",
          "type": "address"
        },
        {
          "internalType": "uint256",
          "name": "tokenId",
          "type": "uint256"
        },
        {
          "components": [
            {
              "internalType": "address[]",
              "name": "erc20TokenAddresses",
              "type": "address[]"
            },
            {
              "components": [
                {
                  "internalType": "address",
                  "name": "tokenAddress",
                  "type": "address"
                },
                {
                  "internalType": "uint256",
                  "name": "id",
                  "type": "uint256"
                }
              ],
              "internalType": "struct IWeb3Packs.NFT[]",
              "name": "nfts",
              "type": "tuple[]"
            }
          ],
          "internalType": "struct IWeb3Packs.Web3PackOrder",
          "name": "web3PackOrder",
          "type": "tuple"
        }
      ],
      "name": "unbundle",
      "outputs": [],
      "stateMutability": "nonpayable",
      "type": "function"
    },
    {
      "inputs": [
        {
          "internalType": "address",
          "name": "receiver",
          "type": "address"
        },
        {
          "internalType": "address",
          "name": "tokenAddress",
          "type": "address"
        },
        {
          "internalType": "uint256",
          "name": "tokenId",
          "type": "uint256"
        },
        {
          "internalType": "string",
          "name": "walletManager",
          "type": "string"
        },
        {
          "components": [
            {
              "internalType": "address[]",
              "name": "erc20TokenAddresses",
              "type": "address[]"
            },
            {
              "components": [
                {
                  "internalType": "address",
                  "name": "tokenAddress",
                  "type": "address"
                },
                {
                  "internalType": "uint256",
                  "name": "id",
                  "type": "uint256"
                }
              ],
              "internalType": "struct IWeb3Packs.NFT[]",
              "name": "nfts",
              "type": "tuple[]"
            }
          ],
          "internalType": "struct IWeb3Packs.Web3PackOrder",
          "name": "web3PackOrder",
          "type": "tuple"
        }
      ],
      "name": "unbundleFromManager",
      "outputs": [],
      "stateMutability": "nonpayable",
      "type": "function"
    },
    {
      "inputs": [],
      "name": "unpause",
      "outputs": [],
      "stateMutability": "nonpayable",
      "type": "function"
    },
    {
      "inputs": [
        {
          "internalType": "address payable",
          "name": "receiver",
          "type": "address"
        },
        {
          "internalType": "address",
          "name": "tokenAddress",
          "type": "address"
        },
        {
          "internalType": "uint256",
          "name": "tokenId",
          "type": "uint256"
        },
        {
          "internalType": "uint256",
          "name": "amount",
          "type": "uint256"
        }
      ],
      "name": "withdrawERC1155",
      "outputs": [],
      "stateMutability": "nonpayable",
      "type": "function"
    },
    {
      "inputs": [
        {
          "internalType": "address payable",
          "name": "receiver",
          "type": "address"
        },
        {
          "internalType": "address",
          "name": "tokenAddress",
          "type": "address"
        },
        {
          "internalType": "uint256",
          "name": "tokenId",
          "type": "uint256"
        }
      ],
      "name": "withdrawERC721",
      "outputs": [],
      "stateMutability": "nonpayable",
      "type": "function"
    },
    {
      "inputs": [
        {
          "internalType": "address payable",
          "name": "receiver",
          "type": "address"
        },
        {
          "internalType": "address",
          "name": "tokenAddress",
          "type": "address"
        },
        {
          "internalType": "uint256",
          "name": "amount",
          "type": "uint256"
        }
      ],
      "name": "withdrawErc20",
      "outputs": [],
      "stateMutability": "nonpayable",
      "type": "function"
    },
    {
      "inputs": [
        {
          "internalType": "address payable",
          "name": "receiver",
          "type": "address"
        },
        {
          "internalType": "uint256",
          "name": "amount",
          "type": "uint256"
        }
      ],
      "name": "withdrawEther",
      "outputs": [],
      "stateMutability": "nonpayable",
      "type": "function"
    }
  ],
  "transactionHash": "0x7cd6a63e7ea1a727ba0cc93ea1cf0df5fc2480829ce19e420987faddc37d87b1",
  "args": [
    "0x76a5df1c6F53A4B80c8c8177edf52FBbC368E825",
    "0x2e8614625226D26180aDf6530C3b1677d3D7cf10",
    "0x0288280Df6221E7e9f23c1BB398c820ae0Aa6c10",
    "0x2691B4f4251408bA4b8bf9530B6961b9D0C1231F",
    "0xAc48FcF1049668B285f3dC72483DF5Ae2162f7e8",
    "0x3a63171DD9BebF4D07BC782FECC7eb0b890C2A45",
    "0xBA12222222228d8Ba445958a75a0704d566BF2C8"
  ],
  "numDeployments": 3,
  "solcInputHash": "1bdf432a29c1b24d55e966defa72b587",
  "bytecode": "0x60c0604052600960809081526833b2b732b934b1972160b91b60a0526008906200002a908262000239565b506040805180820190915260098082526833b2b732b934b1972160b91b60208301529062000059908262000239565b503480156200006757600080fd5b5060405162003fa638038062003fa68339810160408190526200008a9162000322565b620000953362000144565b6000805460ff60a01b191681556001808055600280546001600160a01b03199081166001600160a01b039b8c1617909155600380548216998b16998a179055600480548216988b169890981790975560058054909716958916959095179095559186168452600a6020526040808520805460ff199081168617909155918716855280852080548316851790559484528484208054821684179055941682529190208054909216179055620003b7565b600080546001600160a01b038381166001600160a01b0319831681178455604051919092169283917f8be0079c531659141344cd1fd0a4f28419497f9722a3daafe3b4186f6b6457e09190a35050565b634e487b7160e01b600052604160045260246000fd5b600181811c90821680620001bf57607f821691505b602082108103620001e057634e487b7160e01b600052602260045260246000fd5b50919050565b601f8211156200023457600081815260208120601f850160051c810160208610156200020f5750805b601f850160051c820191505b8181101562000230578281556001016200021b565b5050505b505050565b81516001600160401b0381111562000255576200025562000194565b6200026d81620002668454620001aa565b84620001e6565b602080601f831160018114620002a557600084156200028c5750858301515b600019600386901b1c1916600185901b17855562000230565b600085815260208120601f198616915b82811015620002d657888601518255948401946001909101908401620002b5565b5085821015620002f55787850151600019600388901b60f8161c191681555b5050505050600190811b01905550565b80516001600160a01b03811681146200031d57600080fd5b919050565b600080600080600080600060e0888a0312156200033e57600080fd5b620003498862000305565b9650620003596020890162000305565b9550620003696040890162000305565b9450620003796060890162000305565b9350620003896080890162000305565b92506200039960a0890162000305565b9150620003a960c0890162000305565b905092959891949750929550565b613bdf80620003c76000396000f3fe6080604052600436106101145760003560e01c8063715018a6116100a0578063b7683e9311610064578063b7683e93146102f7578063bd32661614610317578063d3d9cd5f14610337578063d8214b4914610357578063f2fde38b1461037757600080fd5b8063715018a614610265578063787dce3d1461027a5780638456cb591461029a5780638da5cb5b146102af578063a0edb48b146102d757600080fd5b80634025feb2116100e75780634025feb2146101bb57806342c49a29146101db578063522f6815146101fb5780635c975abb1461021b5780636e5559fd1461024557600080fd5b8063150b7a02146101195780631593dee1146101635780633c9b1fb9146101855780633f4ba83a146101a6575b600080fd5b34801561012557600080fd5b50610145610134366004612e57565b630a85bd0160e11b95945050505050565b6040516001600160e01b031990911681526020015b60405180910390f35b34801561016f57600080fd5b5061018361017e366004612ec9565b610397565b005b610198610193366004612f66565b6103af565b60405190815260200161015a565b3480156101b257600080fd5b506101836105d0565b3480156101c757600080fd5b506101836101d6366004612ec9565b6105e2565b3480156101e757600080fd5b506101836101f6366004613068565b6105f5565b34801561020757600080fd5b506101836102163660046130a1565b610628565b34801561022757600080fd5b50600054600160a01b900460ff16604051901515815260200161015a565b34801561025157600080fd5b506101836102603660046130cd565b61063e565b34801561027157600080fd5b50610183610690565b34801561028657600080fd5b506101836102953660046130ea565b6106a2565b3480156102a657600080fd5b506101836106e5565b3480156102bb57600080fd5b506000546040516001600160a01b03909116815260200161015a565b3480156102e357600080fd5b506101836102f2366004613103565b6106f5565b34801561030357600080fd5b506101836103123660046130cd565b61070f565b34801561032357600080fd5b506101836103323660046130cd565b610761565b34801561034357600080fd5b50610183610352366004613149565b6107b3565b34801561036357600080fd5b506101836103723660046131b4565b610899565b34801561038357600080fd5b506101836103923660046130cd565b610934565b61039f6109ad565b6103aa838383610a07565b505050565b60006103b9610b02565b6103c1610b4f565b6001600160a01b038c166103e85760405163150a167760e11b815260040160405180910390fd5b600060075411801561040557506007546104029083613260565b34105b1561043c5760075460405163562cac4d60e01b81523460048201526024810184905260448101919091526064015b60405180910390fd5b600754600660008282546104509190613260565b92505081905550600260009054906101000a90046001600160a01b03166001600160a01b0316632c0cd5a330308e8e6040518563ffffffff1660e01b815260040161049e9493929190613279565b6020604051808303816000875af11580156104bd573d6000803e3d6000fd5b505050506040513d601f19601f820116820180604052508101906104e191906132c5565b90506104ed8989610ba8565b6104f8878783610bfa565b610503858583610c4e565b61050d8382610ca1565b600254604051632142170760e11b81523060048201526001600160a01b038e8116602483015260448201849052909116906342842e0e90606401600060405180830381600087803b15801561056157600080fd5b505af1158015610575573d6000803e3d6000fd5b505050506105828c610d90565b6040516001600160a01b038d169082907ff8779000d9fe2bd438edb299891b05fae0b929d746d3c3e5560d065c690f357d90600090a36105c160018055565b9b9a5050505050505050505050565b6105d86109ad565b6105e0610e1c565b565b6105ea6109ad565b6103aa838383610e71565b6105fd6109ad565b6001600160a01b03919091166000908152600a60205260409020805460ff1916911515919091179055565b6106306109ad565b61063a8282610fbe565b5050565b6106466109ad565b600480546001600160a01b0319166001600160a01b0383169081179091556040517f5ce0e6b7fd36339ee97339831b6c72694ecee88c62aab49919d9cabe0a732e4190600090a250565b6106986109ad565b6105e06000611044565b6106aa6109ad565b60078190556040518181527fdb5aafdb29539329e37d4e3ee869bc4031941fd55a5dfc92824fbe34b204e30d9060200160405180910390a150565b6106ed6109ad565b6105e0611094565b6106fd6109ad565b610709848484846110d7565b50505050565b6107176109ad565b600480546001600160a01b0319166001600160a01b0383169081179091556040517f62ff39aed768a426c7582b6e1062ab2631df1869b2d574e36f8274d2e2b0ab8190600090a250565b6107696109ad565b600280546001600160a01b0319166001600160a01b0383169081179091556040517fa3d7b0fff2d93a7ba440166a8f7eba4acfe6e000fe19b8218e64264d62ef272690600090a250565b6107bb610b02565b6107c3610b4f565b61085a848484600880546107d6906132de565b80601f0160208091040260200160405190810160405280929190818152602001828054610802906132de565b801561084f5780601f106108245761010080835404028352916020019161084f565b820191906000526020600020905b81548152906001019060200180831161083257829003601f168201915b505050505085611242565b6040516001600160a01b0385169083907fa93981b9cfa5fc675dd31c2c87b0d4f1f590180abd86d15f509ccb544775b2b990600090a361070960018055565b6108a1610b02565b6108a9610b4f565b6108ed86868686868080601f016020809104026020016040519081016040528093929190818152602001838380828437600092019190915250889250611242915050565b6040516001600160a01b0387169085907fa93981b9cfa5fc675dd31c2c87b0d4f1f590180abd86d15f509ccb544775b2b990600090a361092c60018055565b505050505050565b61093c6109ad565b6001600160a01b0381166109a15760405162461bcd60e51b815260206004820152602660248201527f4f776e61626c653a206e6577206f776e657220697320746865207a65726f206160448201526564647265737360d01b6064820152608401610433565b6109aa81611044565b50565b6000546001600160a01b031633146105e05760405162461bcd60e51b815260206004820181905260248201527f4f776e61626c653a2063616c6c6572206973206e6f7420746865206f776e65726044820152606401610433565b6001600160a01b038316610a2d5760405162461bcd60e51b815260040161043390613312565b6040516370a0823160e01b815230600482015281906001600160a01b038416906370a0823190602401602060405180830381865afa158015610a73573d6000803e3d6000fd5b505050506040513d601f19601f82011682018060405250810190610a9791906132c5565b106103aa57610ab06001600160a01b03831684836114b8565b816001600160a01b0316836001600160a01b03167f6c9d637297625e945b296ff73a71fcfbd0a9e062652b6491a921c4c60194176b83604051610af591815260200190565b60405180910390a3505050565b600054600160a01b900460ff16156105e05760405162461bcd60e51b815260206004820152601060248201526f14185d5cd8589b194e881c185d5cd95960821b6044820152606401610433565b600260015403610ba15760405162461bcd60e51b815260206004820152601f60248201527f5265656e7472616e637947756172643a207265656e7472616e742063616c6c006044820152606401610433565b6002600155565b60005b818110156103aa57610be8838383818110610bc857610bc8613335565b9050602002810190610bda919061334b565b610be39061346c565b61150a565b80610bf2816134ea565b915050610bab565b60005b8281101561070957610c3b848483818110610c1a57610c1a613335565b9050602002810190610c2c9190613503565b610c3590613528565b836115c6565b5080610c46816134ea565b915050610bfd565b60005b8281101561070957610c8f848483818110610c6e57610c6e613335565b9050602002810190610c8091906135d0565b610c89906135e7565b83611821565b80610c99816134ea565b915050610c51565b813515610d185760055460025460405163048001e960e11b81526001600160a01b039182166004820152602481018490528435604482015291169063090003d290606401600060405180830381600087803b158015610cff57600080fd5b505af1158015610d13573d6000803e3d6000fd5b505050505b60208201351561063a57600554600254604051639079900160e01b81526001600160a01b0391821660048201526024810184905260208501356044820152911690639079900190606401600060405180830381600087803b158015610d7c57600080fd5b505af115801561092c573d6000803e3d6000fd5b600060065447610da091906136a6565b9050801561063a576000826001600160a01b03168260405160006040518083038185875af1925050503d8060008114610df5576040519150601f19603f3d011682016040523d82523d6000602084013e610dfa565b606091505b50509050806103aa57604051635a04673760e01b815260040160405180910390fd5b610e24611ced565b6000805460ff60a01b191690557f5db9ee0a495bf2e6ff9c91a7834c1ba4fdd244a5e8aa4e537bd38aeae4b073aa335b6040516001600160a01b03909116815260200160405180910390a1565b6001600160a01b038316610e975760405162461bcd60e51b815260040161043390613312565b6040516331a9108f60e11b81526004810182905230906001600160a01b03841690636352211e90602401602060405180830381865afa158015610ede573d6000803e3d6000fd5b505050506040513d601f19601f82011682018060405250810190610f0291906136b9565b6001600160a01b0316036103aa576040516323b872dd60e01b81523060048201526001600160a01b038481166024830152604482018390528316906323b872dd90606401600060405180830381600087803b158015610f6057600080fd5b505af1158015610f74573d6000803e3d6000fd5b5050505080826001600160a01b0316846001600160a01b03167ffefe036cac4ee3a4aca074a81cbcc4376e1484693289078dbec149c890101d5b60405160405180910390a4505050565b6001600160a01b038216610fe45760405162461bcd60e51b815260040161043390613312565b80471061063a57610ffe6001600160a01b03831682611d3d565b816001600160a01b03167eddb683bb45cd5d0ad8a200c6fae7152b1c236ee90a4a37db692407f5cc38bd8260405161103891815260200190565b60405180910390a25050565b600080546001600160a01b038381166001600160a01b0319831681178455604051919092169283917f8be0079c531659141344cd1fd0a4f28419497f9722a3daafe3b4186f6b6457e09190a35050565b61109c610b02565b6000805460ff60a01b1916600160a01b1790557f62e78cea01bee320cd4e420270b5ea74000d11b0c9f74754ebdbfc544b05a258610e543390565b6001600160a01b0384166110fd5760405162461bcd60e51b815260040161043390613312565b604051627eeac760e11b81523060048201526024810183905281906001600160a01b0385169062fdd58e90604401602060405180830381865afa158015611148573d6000803e3d6000fd5b505050506040513d601f19601f8201168201806040525081019061116c91906132c5565b1061070957604051637921219560e11b81523060048201526001600160a01b038581166024830152604482018490526064820183905260a06084830152600060a483015284169063f242432a9060c401600060405180830381600087803b1580156111d657600080fd5b505af11580156111ea573d6000803e3d6000fd5b5050505081836001600160a01b0316856001600160a01b03167f620337bf89eea2b9ae2657beead83b5fa620452817118348aff96e201d52598b8460405161123491815260200190565b60405180910390a450505050565b6040516331a9108f60e11b8152600481018490526000906001600160a01b03861690636352211e90602401602060405180830381865afa15801561128a573d6000803e3d6000fd5b505050506040513d601f19601f820116820180604052508101906112ae91906136b9565b9050336001600160a01b038216146112d957604051636d8a29e760e11b815260040160405180910390fd5b60005b6112e683806136d6565b90508110156113aa576004546001600160a01b031663acab923c8888888861130e89806136d6565b8881811061131e5761131e613335565b905060200201602081019061133391906130cd565b6040518663ffffffff1660e01b815260040161135395949392919061376f565b60408051808303816000875af1158015611371573d6000803e3d6000fd5b505050506040513d601f19601f8201168201806040525081019061139591906137b4565b505080806113a2906134ea565b9150506112dc565b5060005b6113bb60208401846137d8565b90508110156114ad576004546001600160a01b031663fe02fb00888888886113e660208a018a6137d8565b888181106113f6576113f6613335565b61140c92602060409092020190810191506130cd565b61141960208b018b6137d8565b8981811061142957611429613335565b9050604002016020013560016040518863ffffffff1660e01b81526004016114579796959493929190613821565b6020604051808303816000875af1158015611476573d6000803e3d6000fd5b505050506040513d601f19601f8201168201806040525081019061149a919061386f565b50806114a5816134ea565b9150506113ae565b5061092c8487611e56565b604080516001600160a01b038416602482015260448082018490528251808303909101815260649091019091526020810180516001600160e01b031663a9059cbb60e01b1790526103aa90849061203e565b6020808201516001600160a01b03166000908152600a909152604090205460ff16611548576040516311970e2d60e31b815260040160405180910390fd5b60008082602001516001600160a01b031683604001518460000151604051611570919061388c565b60006040518083038185875af1925050503d80600081146115ad576040519150601f19603f3d011682016040523d82523d6000602084013e6115b2565b606091505b5091509150816103aa578051602082018181fd5b6020808301516001600160a01b03166000908152600a909152604081205460ff16611604576040516311970e2d60e31b815260040160405180910390fd5b61161b836040015184602001518560800151612110565b60008084602001516001600160a01b03168560a001518660000151604051611643919061388c565b60006040518083038185875af1925050503d8060008114611680576040519150601f19603f3d011682016040523d82523d6000602084013e611685565b606091505b509150915081611699578051602082018181fd5b60008560e0015160038111156116b1576116b161389e565b14806116d2575060028560e0015160038111156116d0576116d061389e565b145b1561171a576000818060200190518101906116ed91906138d7565b905080600182516116fe91906136a6565b8151811061170e5761170e613335565b60200260200101519350505b60018560e0015160038111156117325761173261389e565b0361174e578080602001905181019061174b91906132c5565b92505b60038560e0015160038111156117665761176661389e565b036117ab5760008180602001905181019061178191906138d7565b90508060018151811061179657611796613335565b60200260200101516117a790613961565b9350505b60c08501516117c8576117c384866060015185612210565b611819565b60408051808201825260608701516001600160a01b039081168252602080830187815260c08a01516000908152600c909252939020915182546001600160a01b031916911617815590516001909101555b505092915050565b6020808301516001600160a01b03166000908152600a909152604090205460ff1661185f576040516311970e2d60e31b815260040160405180910390fd5b608082015160a083015160c0840151156118d25760c08401516000908152600c60205260409081902054908501516001600160a01b039081169116146118b85760405163d0e96f5b60e01b815260040160405180910390fd5b60c08401516000908152600c602052604090206001015491505b60e0840151156119395760e08401516000908152600c602052604090205460608501516001600160a01b039081169116146119205760405163d0e96f5b60e01b815260040160405180910390fd5b5060e08301516000908152600c60205260409020600101545b61194c8460400151856020015184612110565b61195f8460600151856020015183612110565b60008085602001516001600160a01b03168661010001518760000151604051611988919061388c565b60006040518083038185875af1925050503d80600081146119c5576040519150601f19603f3d011682016040523d82523d6000602084013e6119ca565b606091505b5091509150816119de578051602082018181fd5b6000808080808a610120015160038111156119fb576119fb61389e565b1480611a1d575060028a61012001516003811115611a1b57611a1b61389e565b145b15611a7d5784806020019051810190611a369190613994565b8095508193508294505050506000611a618b61012001518c602001518d604001518e6060015161231b565b9050806001600160a01b03169450611a7b8a826000612210565b505b60018a61012001516003811115611a9657611a9661389e565b03611b6f5784806020019051810190611aaf91906139c9565b600254600980549599509397509195509350611b6f926001600160a01b03909116918c91611adc906132de565b80601f0160208091040260200160405190810160405280929190818152602001828054611b08906132de565b8015611b555780601f10611b2a57610100808354040283529160200191611b55565b820191906000526020600020905b815481529060010190602001808311611b3857829003601f168201915b50506003546001600160a01b031692508a91506124439050565b600d60008a81526020019081526020016000206040518060c00160405280868152602001856001600160801b031681526020018c604001516001600160a01b031681526020018c606001516001600160a01b031681526020018c602001516001600160a01b031681526020018c61012001516003811115611bf257611bf261389e565b9052815460018082018455600093845260209384902083516005909302019182559282015192810180546fffffffffffffffffffffffffffffffff19166001600160801b039094169390931790925560408101516002830180546001600160a01b03199081166001600160a01b0393841617909155606083015160038086018054841692851692909217909155608084015160048601805493841691909416908117845560a085015194959493926001600160a81b0319161790600160a01b908490811115611cc357611cc361389e565b02179055505050611ce1848b60400151848b8e60600151868d612528565b50505050505050505050565b600054600160a01b900460ff166105e05760405162461bcd60e51b815260206004820152601460248201527314185d5cd8589b194e881b9bdd081c185d5cd95960621b6044820152606401610433565b80471015611d8d5760405162461bcd60e51b815260206004820152601d60248201527f416464726573733a20696e73756666696369656e742062616c616e63650000006044820152606401610433565b6000826001600160a01b03168260405160006040518083038185875af1925050503d8060008114611dda576040519150601f19603f3d011682016040523d82523d6000602084013e611ddf565b606091505b50509050806103aa5760405162461bcd60e51b815260206004820152603a60248201527f416464726573733a20756e61626c6520746f2073656e642076616c75652c207260448201527f6563697069656e74206d617920686176652072657665727465640000000000006064820152608401610433565b60008060008060005b6000878152600d6020526040902054811015612035576000878152600d60205260408120805483908110611e9557611e95613335565b60009182526020918290206040805160c08101825260059093029091018054835260018101546001600160801b03169383019390935260028301546001600160a01b0390811691830191909152600380840154821660608401526004840154918216608084015291929160a084019160ff600160a01b9091041690811115611f1f57611f1f61389e565b6003811115611f3057611f3061389e565b9052509050611f3f81896125d4565b611f488161275d565b909650945060018160a001516003811115611f6557611f6561389e565b03611f7957611f7381612a7e565b90965094505b80516000908152600b6020818152604080842081860180516001600160a01b0390811687529184528286205487518752858552838720606089018051851689529086528488205489518952878752858920845186168a5287528589208990558951895296865284882090519093168752919093529084209390935551919550935061200e9088612009878a613260565b612afa565b606081015161202290886120098689613260565b508061202d816134ea565b915050611e5f565b50505050505050565b6000612093826040518060400160405280602081526020017f5361666545524332303a206c6f772d6c6576656c2063616c6c206661696c6564815250856001600160a01b0316612bf39092919063ffffffff16565b8051909150156103aa57808060200190518101906120b1919061386f565b6103aa5760405162461bcd60e51b815260206004820152602a60248201527f5361666545524332303a204552433230206f7065726174696f6e20646964206e6044820152691bdd081cdd58d8d9595960b21b6064820152608401610433565b604080516001600160a01b038481166024830152604480830185905283518084039091018152606490920183526020820180516001600160e01b031663095ea7b360e01b179052915160009283929087169161216c919061388c565b6000604051808303816000865af19150503d80600081146121a9576040519150601f19603f3d011682016040523d82523d6000602084013e6121ae565b606091505b50915091508180156121d85750805115806121d85750808060200190518101906121d8919061386f565b6122095760405162461bcd60e51b8152602060048201526002602482015261534160f01b6044820152606401610433565b5050505050565b80600003612283576040516370a0823160e01b81523060048201526001600160a01b038316906370a0823190602401602060405180830381865afa15801561225c573d6000803e3d6000fd5b505050506040513d601f19601f8201168201806040525081019061228091906132c5565b90505b60045461229b9083906001600160a01b031683612110565b600480546002546040516305eef16560e11b81526001600160a01b0392831693630bdde2ca936122d8931691889160089189918991309101613aa9565b6020604051808303816000875af11580156122f7573d6000803e3d6000fd5b505050506040513d601f19601f8201168201806040525081019061070991906132c5565b600060028560038111156123315761233161389e565b036123b65760405163147585a560e11b81526001600160a01b0384811660048301528381166024830152600060448301528516906328eb0b4a90606401602060405180830381865afa15801561238b573d6000803e3d6000fd5b505050506040513d601f19601f820116820180604052508101906123af91906136b9565b905061243b565b60006123c185612c02565b60405163e6a4390560e01b81526001600160a01b03868116600483015285811660248301529192509082169063e6a4390590604401602060405180830381865afa158015612413573d6000803e3d6000fd5b505050506040513d601f19601f8201168201806040525081019061243791906136b9565b9150505b949350505050565b6004805460405163a22cb46560e01b81526001600160a01b03918216928101929092526001602483015283169063a22cb46590604401600060405180830381600087803b15801561249357600080fd5b505af11580156124a7573d6000803e3d6000fd5b505060048054604051630ffe55b360e21b81526001600160a01b039091169350633ff956cc92506124e5918991899189918991899160019101613af1565b6020604051808303816000875af1158015612504573d6000803e3d6000fd5b505050506040513d601f19601f8201168201806040525081019061092c919061386f565b8385101561257a576003546125499087906001600160a01b03166000612110565b600061255586866136a6565b6000898152600b602090815260408083206001600160a01b038c168452909152902055505b808210156120355760035461259b9084906001600160a01b03166000612110565b60006125a783836136a6565b6000898152600b602090815260408083206001600160a01b03891684529091529020555050505050505050565b60008260a0015160038111156125ec576125ec61389e565b148061260d575060028260a00151600381111561260b5761260b61389e565b145b156126b45760006126308360a0015184608001518560400151866060015161231b565b60048054600254604051632b2ae48f60e21b81529394506001600160a01b039182169363acab923c9361266e93309316918891600991899101613b36565b60408051808303816000875af115801561268c573d6000803e3d6000fd5b505050506040513d601f19601f820116820180604052508101906126b091906137b4565b5050505b60018260a0015160038111156126cc576126cc61389e565b0361063a5760048054600254600354855160405162fe02fb60e81b81526001600160a01b039485169563fe02fb009561271a953095908216948a946009949290931692909160019101613b66565b6020604051808303816000875af1158015612739573d6000803e3d6000fd5b505050506040513d601f19601f820116820180604052508101906103aa919061386f565b60008060028360a0015160038111156127785761277861389e565b0361287d57600061279b8460a0015185608001518660400151876060015161231b565b90506127b981856080015186602001516001600160801b0316612110565b608084015160408086015160608701516020880151925163037b79b160e21b81526001600160a01b03928316600482015290821660248201526000604482018190526001600160801b0390931660648201526084810183905260a48101929092523060c48301524260e483015290911690630dede6c4906101040160408051808303816000875af1158015612852573d6000803e3d6000fd5b505050506040513d601f19601f8201168201806040525081019061287691906137b4565b9093509150505b60008360a0015160038111156128955761289561389e565b0361298f5760006128b88460a0015185608001518660400151876060015161231b565b90506128d681856080015186602001516001600160801b0316612110565b6080840151604080860151606087015160208801519251635d5155ef60e11b81526001600160a01b03928316600482015290821660248201526001600160801b03909216604483015260006064830181905260848301523060a48301524260c48301529091169063baa2abde9060e40160408051808303816000875af1158015612964573d6000803e3d6000fd5b505050506040513d601f19601f8201168201806040525081019061298891906137b4565b9093509150505b60018360a0015160038111156129a7576129a761389e565b03612a79576040805160a081018252845181526020808601516001600160801b0390811691830191825260008385018181526060850191825242608086019081526003549651630624e65f60e11b8152865160048201529451909316602485015251604484015251606483015251608482015290916001600160a01b031690630c49ccbe9060a4015b60408051808303816000875af1158015612a4e573d6000803e3d6000fd5b505050506040513d601f19601f82011682018060405250810190612a7291906137b4565b9093509150505b915091565b604080516080810182528251815230602082019081526001600160801b0382840181815260608401828152600354955163fc6f786560e01b81528551600482015293516001600160a01b03908116602486015291518316604485015251909116606483015260009384939291169063fc6f786590608401612a30565b604080516001600160a01b038481166024830152604480830185905283518084039091018152606490920183526020820180516001600160e01b031663a9059cbb60e01b1790529151600092839290871691612b56919061388c565b6000604051808303816000865af19150503d8060008114612b93576040519150601f19603f3d011682016040523d82523d6000602084013e612b98565b606091505b5091509150818015612bc2575080511580612bc2575080806020019051810190612bc2919061386f565b6122095760405162461bcd60e51b815260206004820152600260248201526114d560f21b6044820152606401610433565b606061243b8484600085612c71565b600080829050806001600160a01b031663c45a01556040518163ffffffff1660e01b8152600401602060405180830381865afa158015612c46573d6000803e3d6000fd5b505050506040513d601f19601f82011682018060405250810190612c6a91906136b9565b9392505050565b606082471015612cd25760405162461bcd60e51b815260206004820152602660248201527f416464726573733a20696e73756666696369656e742062616c616e636520666f6044820152651c8818d85b1b60d21b6064820152608401610433565b600080866001600160a01b03168587604051612cee919061388c565b60006040518083038185875af1925050503d8060008114612d2b576040519150601f19603f3d011682016040523d82523d6000602084013e612d30565b606091505b5091509150612d4187838387612d4c565b979650505050505050565b60608315612dbb578251600003612db4576001600160a01b0385163b612db45760405162461bcd60e51b815260206004820152601d60248201527f416464726573733a2063616c6c20746f206e6f6e2d636f6e74726163740000006044820152606401610433565b508161243b565b61243b8383815115612dd05781518083602001fd5b8060405162461bcd60e51b81526004016104339190613b96565b6001600160a01b03811681146109aa57600080fd5b8035612e0a81612dea565b919050565b60008083601f840112612e2157600080fd5b5081356001600160401b03811115612e3857600080fd5b602083019150836020828501011115612e5057600080fd5b9250929050565b600080600080600060808688031215612e6f57600080fd5b8535612e7a81612dea565b94506020860135612e8a81612dea565b93506040860135925060608601356001600160401b03811115612eac57600080fd5b612eb888828901612e0f565b969995985093965092949392505050565b600080600060608486031215612ede57600080fd5b8335612ee981612dea565b92506020840135612ef981612dea565b929592945050506040919091013590565b60008083601f840112612f1c57600080fd5b5081356001600160401b03811115612f3357600080fd5b6020830191508360208260051b8501011115612e5057600080fd5b600060408284031215612f6057600080fd5b50919050565b60008060008060008060008060008060006101008c8e031215612f8857600080fd5b612f918c612dff565b9a506001600160401b038060208e01351115612fac57600080fd5b612fbc8e60208f01358f01612e0f565b909b50995060408d0135811015612fd257600080fd5b612fe28e60408f01358f01612f0a565b909950975060608d0135811015612ff857600080fd5b6130088e60608f01358f01612f0a565b909750955060808d013581101561301e57600080fd5b5061302f8d60808e01358e01612f0a565b90945092506130418d60a08e01612f4e565b915060e08c013590509295989b509295989b9093969950565b80151581146109aa57600080fd5b6000806040838503121561307b57600080fd5b823561308681612dea565b915060208301356130968161305a565b809150509250929050565b600080604083850312156130b457600080fd5b82356130bf81612dea565b946020939093013593505050565b6000602082840312156130df57600080fd5b8135612c6a81612dea565b6000602082840312156130fc57600080fd5b5035919050565b6000806000806080858703121561311957600080fd5b843561312481612dea565b9350602085013561313481612dea565b93969395505050506040820135916060013590565b6000806000806080858703121561315f57600080fd5b843561316a81612dea565b9350602085013561317a81612dea565b92506040850135915060608501356001600160401b0381111561319c57600080fd5b6131a887828801612f4e565b91505092959194509250565b60008060008060008060a087890312156131cd57600080fd5b86356131d881612dea565b955060208701356131e881612dea565b94506040870135935060608701356001600160401b038082111561320b57600080fd5b6132178a838b01612e0f565b9095509350608089013591508082111561323057600080fd5b5061323d89828a01612f4e565b9150509295509295509295565b634e487b7160e01b600052601160045260246000fd5b808201808211156132735761327361324a565b92915050565b6001600160a01b0385811682528416602082015260606040820181905281018290526000828460808401376000608084840101526080601f19601f850116830101905095945050505050565b6000602082840312156132d757600080fd5b5051919050565b600181811c908216806132f257607f821691505b602082108103612f6057634e487b7160e01b600052602260045260246000fd5b6020808252600990820152684248503a452d34303360b81b604082015260600190565b634e487b7160e01b600052603260045260246000fd5b60008235605e1983360301811261336157600080fd5b9190910192915050565b634e487b7160e01b600052604160045260246000fd5b60405161010081016001600160401b03811182821017156133a4576133a461336b565b60405290565b60405161014081016001600160401b03811182821017156133a4576133a461336b565b604051601f8201601f191681016001600160401b03811182821017156133f5576133f561336b565b604052919050565b600082601f83011261340e57600080fd5b81356001600160401b038111156134275761342761336b565b61343a601f8201601f19166020016133cd565b81815284602083860101111561344f57600080fd5b816020850160208301376000918101602001919091529392505050565b60006060823603121561347e57600080fd5b604051606081016001600160401b0382821081831117156134a1576134a161336b565b8160405284359150808211156134b657600080fd5b506134c3368286016133fd565b82525060208301356134d481612dea565b6020820152604092830135928101929092525090565b6000600182016134fc576134fc61324a565b5060010190565b6000823560fe1983360301811261336157600080fd5b803560048110612e0a57600080fd5b6000610100823603121561353b57600080fd5b613543613381565b82356001600160401b0381111561355957600080fd5b613565368286016133fd565b82525061357460208401612dff565b602082015261358560408401612dff565b604082015261359660608401612dff565b60608201526080830135608082015260a083013560a082015260c083013560c08201526135c560e08401613519565b60e082015292915050565b6000823561013e1983360301811261336157600080fd5b600061014082360312156135fa57600080fd5b6136026133aa565b82356001600160401b0381111561361857600080fd5b613624368286016133fd565b82525061363360208401612dff565b602082015261364460408401612dff565b604082015261365560608401612dff565b60608201526080830135608082015260a083013560a082015260c083013560c082015260e083013560e082015261010080840135818301525061012061369c818501613519565b9082015292915050565b818103818111156132735761327361324a565b6000602082840312156136cb57600080fd5b8151612c6a81612dea565b6000808335601e198436030181126136ed57600080fd5b8301803591506001600160401b0382111561370757600080fd5b6020019150600581901b3603821315612e5057600080fd5b60005b8381101561373a578181015183820152602001613722565b50506000910152565b6000815180845261375b81602086016020860161371f565b601f01601f19169290920160200192915050565b600060018060a01b038088168352808716602084015285604084015260a0606084015261379f60a0840186613743565b91508084166080840152509695505050505050565b600080604083850312156137c757600080fd5b505080516020909101519092909150565b6000808335601e198436030181126137ef57600080fd5b8301803591506001600160401b0382111561380957600080fd5b6020019150600681901b3603821315612e5057600080fd5b600060018060a01b03808a168352808916602084015287604084015260e0606084015261385160e0840188613743565b951660808301525060a081019290925260c090910152949350505050565b60006020828403121561388157600080fd5b8151612c6a8161305a565b6000825161336181846020870161371f565b634e487b7160e01b600052602160045260246000fd5b60006001600160401b038211156138cd576138cd61336b565b5060051b60200190565b600060208083850312156138ea57600080fd5b82516001600160401b0381111561390057600080fd5b8301601f8101851361391157600080fd5b805161392461391f826138b4565b6133cd565b81815260059190911b8201830190838101908783111561394357600080fd5b928401925b82841015612d4157835182529284019290840190613948565b6000600160ff1b82016139765761397661324a565b5060000390565b80516001600160801b0381168114612e0a57600080fd5b6000806000606084860312156139a957600080fd5b83519250602084015191506139c06040850161397d565b90509250925092565b600080600080608085870312156139df57600080fd5b845193506139ef6020860161397d565b6040860151606090960151949790965092505050565b8054600090600181811c9080831680613a1f57607f831692505b60208084108203613a4057634e487b7160e01b600052602260045260246000fd5b83885260208801828015613a5b5760018114613a7157613a9c565b60ff198716825285151560051b82019750613a9c565b60008981526020902060005b87811015613a9657815484820152908601908401613a7d565b83019850505b5050505050505092915050565b600060018060a01b03808916835287602084015260c06040840152613ad160c0840188613a05565b9581166060840152608083019490945250911660a0909101529392505050565b600060018060a01b03808916835287602084015260c06040840152613b1960c0840188613743565b9516606083015250608081019290925260a0909101529392505050565b600060018060a01b038088168352808716602084015285604084015260a0606084015261379f60a0840186613a05565b600060018060a01b03808a168352808916602084015287604084015260e0606084015261385160e0840188613a05565b602081526000612c6a602083018461374356fea2646970667358221220eb96cd8f364f7f29336b81380d4fd4d8d041a507cffe0284d76101336997876e64736f6c63430008110033",
  "devdoc": {
    "kind": "dev",
    "methods": {
      "owner()": {
        "details": "Returns the address of the current owner."
      },
      "paused()": {
        "details": "Returns true if the contract is paused, and false otherwise."
      },
      "renounceOwnership()": {
        "details": "Leaves the contract without owner. It will not be possible to call `onlyOwner` functions anymore. Can only be called by the current owner. NOTE: Renouncing ownership will leave the contract without an owner, thereby removing any functionality that is only available to the owner."
      },
      "setChargedParticles(address)": {
        "details": "Setup the ChargedParticles Interface"
      },
      "transferOwnership(address)": {
        "details": "Transfers ownership of the contract to a new account (`newOwner`). Can only be called by the current owner."
      }
    },
    "version": 1
  },
  "userdoc": {
    "kind": "user",
    "methods": {},
    "version": 1
  },
  "storageLayout": {
    "storage": [
      {
        "astId": 7,
        "contract": "contracts/Web3PacksMode.sol:Web3PacksMode",
        "label": "_owner",
        "offset": 0,
        "slot": "0",
        "type": "t_address"
      },
      {
        "astId": 130,
        "contract": "contracts/Web3PacksMode.sol:Web3PacksMode",
        "label": "_paused",
        "offset": 20,
        "slot": "0",
        "type": "t_bool"
      },
      {
        "astId": 231,
        "contract": "contracts/Web3PacksMode.sol:Web3PacksMode",
        "label": "_status",
        "offset": 0,
        "slot": "1",
        "type": "t_uint256"
      },
      {
        "astId": 2217,
        "contract": "contracts/Web3PacksMode.sol:Web3PacksMode",
        "label": "_proton",
        "offset": 0,
        "slot": "2",
        "type": "t_address"
      },
      {
        "astId": 2219,
        "contract": "contracts/Web3PacksMode.sol:Web3PacksMode",
        "label": "_nonfungiblePositionManager",
        "offset": 0,
        "slot": "3",
        "type": "t_address"
      },
      {
        "astId": 2221,
        "contract": "contracts/Web3PacksMode.sol:Web3PacksMode",
        "label": "_chargedParticles",
        "offset": 0,
        "slot": "4",
        "type": "t_address"
      },
      {
        "astId": 2223,
        "contract": "contracts/Web3PacksMode.sol:Web3PacksMode",
        "label": "_chargedState",
        "offset": 0,
        "slot": "5",
        "type": "t_address"
      },
      {
        "astId": 2225,
        "contract": "contracts/Web3PacksMode.sol:Web3PacksMode",
        "label": "_feesCollected",
        "offset": 0,
        "slot": "6",
        "type": "t_uint256"
      },
      {
        "astId": 2227,
        "contract": "contracts/Web3PacksMode.sol:Web3PacksMode",
        "label": "_protocolFee",
        "offset": 0,
        "slot": "7",
        "type": "t_uint256"
      },
      {
        "astId": 2230,
        "contract": "contracts/Web3PacksMode.sol:Web3PacksMode",
        "label": "_cpWalletManager",
        "offset": 0,
        "slot": "8",
        "type": "t_string_storage"
      },
      {
        "astId": 2233,
        "contract": "contracts/Web3PacksMode.sol:Web3PacksMode",
        "label": "_cpBasketManager",
        "offset": 0,
        "slot": "9",
        "type": "t_string_storage"
      },
      {
        "astId": 2237,
        "contract": "contracts/Web3PacksMode.sol:Web3PacksMode",
        "label": "_allowlisted",
        "offset": 0,
        "slot": "10",
        "type": "t_mapping(t_address,t_bool)"
      },
      {
        "astId": 2243,
        "contract": "contracts/Web3PacksMode.sol:Web3PacksMode",
        "label": "_refundableAssets",
        "offset": 0,
        "slot": "11",
        "type": "t_mapping(t_uint256,t_mapping(t_address,t_uint256))"
      },
      {
        "astId": 2248,
        "contract": "contracts/Web3PacksMode.sol:Web3PacksMode",
        "label": "_swapForLiquidityAmount",
        "offset": 0,
        "slot": "12",
        "type": "t_mapping(t_bytes32,t_struct(TokenAmount)4976_storage)"
      },
      {
        "astId": 2254,
        "contract": "contracts/Web3PacksMode.sol:Web3PacksMode",
        "label": "_liquidityPositions",
        "offset": 0,
        "slot": "13",
        "type": "t_mapping(t_uint256,t_array(t_struct(LiquidityPosition)5045_storage)dyn_storage)"
      }
    ],
    "types": {
      "t_address": {
        "encoding": "inplace",
        "label": "address",
        "numberOfBytes": "20"
      },
      "t_array(t_struct(LiquidityPosition)5045_storage)dyn_storage": {
        "base": "t_struct(LiquidityPosition)5045_storage",
        "encoding": "dynamic_array",
        "label": "struct IWeb3Packs.LiquidityPosition[]",
        "numberOfBytes": "32"
      },
      "t_bool": {
        "encoding": "inplace",
        "label": "bool",
        "numberOfBytes": "1"
      },
      "t_bytes32": {
        "encoding": "inplace",
        "label": "bytes32",
        "numberOfBytes": "32"
      },
      "t_enum(RouterType)4971": {
        "encoding": "inplace",
        "label": "enum IWeb3Packs.RouterType",
        "numberOfBytes": "1"
      },
      "t_mapping(t_address,t_bool)": {
        "encoding": "mapping",
        "key": "t_address",
        "label": "mapping(address => bool)",
        "numberOfBytes": "32",
        "value": "t_bool"
      },
      "t_mapping(t_address,t_uint256)": {
        "encoding": "mapping",
        "key": "t_address",
        "label": "mapping(address => uint256)",
        "numberOfBytes": "32",
        "value": "t_uint256"
      },
      "t_mapping(t_bytes32,t_struct(TokenAmount)4976_storage)": {
        "encoding": "mapping",
        "key": "t_bytes32",
        "label": "mapping(bytes32 => struct IWeb3Packs.TokenAmount)",
        "numberOfBytes": "32",
        "value": "t_struct(TokenAmount)4976_storage"
      },
      "t_mapping(t_uint256,t_array(t_struct(LiquidityPosition)5045_storage)dyn_storage)": {
        "encoding": "mapping",
        "key": "t_uint256",
        "label": "mapping(uint256 => struct IWeb3Packs.LiquidityPosition[])",
        "numberOfBytes": "32",
        "value": "t_array(t_struct(LiquidityPosition)5045_storage)dyn_storage"
      },
      "t_mapping(t_uint256,t_mapping(t_address,t_uint256))": {
        "encoding": "mapping",
        "key": "t_uint256",
        "label": "mapping(uint256 => mapping(address => uint256))",
        "numberOfBytes": "32",
        "value": "t_mapping(t_address,t_uint256)"
      },
      "t_string_storage": {
        "encoding": "bytes",
        "label": "string",
        "numberOfBytes": "32"
      },
      "t_struct(LiquidityPosition)5045_storage": {
        "encoding": "inplace",
        "label": "struct IWeb3Packs.LiquidityPosition",
        "members": [
          {
            "astId": 5033,
            "contract": "contracts/Web3PacksMode.sol:Web3PacksMode",
            "label": "lpTokenId",
            "offset": 0,
            "slot": "0",
            "type": "t_uint256"
          },
          {
            "astId": 5035,
            "contract": "contracts/Web3PacksMode.sol:Web3PacksMode",
            "label": "liquidity",
            "offset": 0,
            "slot": "1",
            "type": "t_uint128"
          },
          {
            "astId": 5037,
            "contract": "contracts/Web3PacksMode.sol:Web3PacksMode",
            "label": "token0",
            "offset": 0,
            "slot": "2",
            "type": "t_address"
          },
          {
            "astId": 5039,
            "contract": "contracts/Web3PacksMode.sol:Web3PacksMode",
            "label": "token1",
            "offset": 0,
            "slot": "3",
            "type": "t_address"
          },
          {
            "astId": 5041,
            "contract": "contracts/Web3PacksMode.sol:Web3PacksMode",
            "label": "router",
            "offset": 0,
            "slot": "4",
            "type": "t_address"
          },
          {
            "astId": 5044,
            "contract": "contracts/Web3PacksMode.sol:Web3PacksMode",
            "label": "routerType",
            "offset": 20,
            "slot": "4",
            "type": "t_enum(RouterType)4971"
          }
        ],
        "numberOfBytes": "160"
      },
      "t_struct(TokenAmount)4976_storage": {
        "encoding": "inplace",
        "label": "struct IWeb3Packs.TokenAmount",
        "members": [
          {
            "astId": 4973,
            "contract": "contracts/Web3PacksMode.sol:Web3PacksMode",
            "label": "token",
            "offset": 0,
            "slot": "0",
            "type": "t_address"
          },
          {
            "astId": 4975,
            "contract": "contracts/Web3PacksMode.sol:Web3PacksMode",
            "label": "amount",
            "offset": 0,
            "slot": "1",
            "type": "t_uint256"
          }
        ],
        "numberOfBytes": "64"
      },
      "t_uint128": {
        "encoding": "inplace",
        "label": "uint128",
        "numberOfBytes": "16"
      },
      "t_uint256": {
        "encoding": "inplace",
        "label": "uint256",
        "numberOfBytes": "32"
      }
    }
  }
}