{
  "address": "0x44f2Ee1659A17618328b79E67a1A0Ab6eB53aD85",
  "abi": [
    {
      "inputs": [],
      "stateMutability": "nonpayable",
      "type": "constructor"
    },
    {
      "inputs": [],
      "name": "FundingFailed",
      "type": "error"
    },
    {
      "inputs": [],
      "name": "NullReceiver",
      "type": "error"
    },
    {
      "anonymous": false,
      "inputs": [
        {
          "indexed": true,
          "internalType": "address",
          "name": "chargedParticles",
          "type": "address"
        }
      ],
      "name": "ChargedParticlesSet",
      "type": "event"
    },
    {
      "anonymous": false,
      "inputs": [
        {
          "indexed": true,
          "internalType": "address",
          "name": "chargedState",
          "type": "address"
        }
      ],
      "name": "ChargedStateSet",
      "type": "event"
    },
    {
      "anonymous": false,
      "inputs": [
        {
          "indexed": true,
          "internalType": "address",
          "name": "previousOwner",
          "type": "address"
        },
        {
          "indexed": true,
          "internalType": "address",
          "name": "newOwner",
          "type": "address"
        }
      ],
      "name": "OwnershipTransferred",
      "type": "event"
    },
    {
      "anonymous": false,
      "inputs": [
        {
          "indexed": true,
          "internalType": "uint256",
          "name": "tokenId",
          "type": "uint256"
        },
        {
          "indexed": true,
          "internalType": "address",
          "name": "receiver",
          "type": "address"
        }
      ],
      "name": "PackBundled",
      "type": "event"
    },
    {
      "anonymous": false,
      "inputs": [
        {
          "indexed": true,
          "internalType": "uint256",
          "name": "tokenId",
          "type": "uint256"
        },
        {
          "indexed": true,
          "internalType": "address",
          "name": "receiver",
          "type": "address"
        }
      ],
      "name": "PackUnbundled",
      "type": "event"
    },
    {
      "anonymous": false,
      "inputs": [
        {
          "indexed": false,
          "internalType": "address",
          "name": "account",
          "type": "address"
        }
      ],
      "name": "Paused",
      "type": "event"
    },
    {
      "anonymous": false,
      "inputs": [
        {
          "indexed": true,
          "internalType": "address",
          "name": "proton",
          "type": "address"
        }
      ],
      "name": "ProtonSet",
      "type": "event"
    },
    {
      "anonymous": false,
      "inputs": [
        {
          "indexed": true,
          "internalType": "address",
          "name": "router",
          "type": "address"
        }
      ],
      "name": "UniswapRouterSet",
      "type": "event"
    },
    {
      "anonymous": false,
      "inputs": [
        {
          "indexed": false,
          "internalType": "address",
          "name": "account",
          "type": "address"
        }
      ],
      "name": "Unpaused",
      "type": "event"
    },
    {
      "anonymous": false,
      "inputs": [
        {
          "indexed": true,
          "internalType": "address",
          "name": "receiver",
          "type": "address"
        },
        {
          "indexed": true,
          "internalType": "address",
          "name": "tokenAddress",
          "type": "address"
        },
        {
          "indexed": true,
          "internalType": "uint256",
          "name": "tokenId",
          "type": "uint256"
        },
        {
          "indexed": false,
          "internalType": "uint256",
          "name": "amount",
          "type": "uint256"
        }
      ],
      "name": "WithdrawStuckERC1155",
      "type": "event"
    },
    {
      "anonymous": false,
      "inputs": [
        {
          "indexed": true,
          "internalType": "address",
          "name": "receiver",
          "type": "address"
        },
        {
          "indexed": true,
          "internalType": "address",
          "name": "tokenAddress",
          "type": "address"
        },
        {
          "indexed": false,
          "internalType": "uint256",
          "name": "amount",
          "type": "uint256"
        }
      ],
      "name": "WithdrawStuckERC20",
      "type": "event"
    },
    {
      "anonymous": false,
      "inputs": [
        {
          "indexed": true,
          "internalType": "address",
          "name": "receiver",
          "type": "address"
        },
        {
          "indexed": true,
          "internalType": "address",
          "name": "tokenAddress",
          "type": "address"
        },
        {
          "indexed": true,
          "internalType": "uint256",
          "name": "tokenId",
          "type": "uint256"
        }
      ],
      "name": "WithdrawStuckERC721",
      "type": "event"
    },
    {
      "anonymous": false,
      "inputs": [
        {
          "indexed": true,
          "internalType": "address",
          "name": "receiver",
          "type": "address"
        },
        {
          "indexed": false,
          "internalType": "uint256",
          "name": "amount",
          "type": "uint256"
        }
      ],
      "name": "WithdrawStuckEther",
      "type": "event"
    },
    {
      "inputs": [
        {
          "internalType": "address",
          "name": "contractAddress",
          "type": "address"
        },
        {
          "internalType": "uint256",
          "name": "tokenId",
          "type": "uint256"
        },
        {
          "internalType": "string",
          "name": "tokenMetadataUri",
          "type": "string"
        },
        {
          "internalType": "string",
          "name": "basketManagerId",
          "type": "string"
        },
        {
          "internalType": "address",
          "name": "nftTokenAddress",
          "type": "address"
        }
      ],
      "name": "bond",
      "outputs": [
        {
          "internalType": "uint256",
          "name": "mintedTokenId",
          "type": "uint256"
        }
      ],
      "stateMutability": "nonpayable",
      "type": "function"
    },
    {
      "inputs": [
        {
          "internalType": "address payable",
          "name": "receiver",
          "type": "address"
        },
        {
          "internalType": "string",
          "name": "tokenMetaUri",
          "type": "string"
        },
        {
          "components": [
            {
              "internalType": "address",
              "name": "inputTokenAddress",
              "type": "address"
            },
            {
              "internalType": "address",
              "name": "outputTokenAddress",
              "type": "address"
            },
            {
              "internalType": "uint256",
              "name": "inputTokenAmount",
              "type": "uint256"
            },
            {
              "internalType": "uint24",
              "name": "uniSwapPoolFee",
              "type": "uint24"
            },
            {
              "internalType": "uint256",
              "name": "deadline",
              "type": "uint256"
            },
            {
              "internalType": "uint256",
              "name": "amountOutMinimum",
              "type": "uint256"
            },
            {
              "internalType": "uint160",
              "name": "sqrtPriceLimitX96",
              "type": "uint160"
            }
          ],
          "internalType": "struct IWeb3Packs.ERC20SwapOrder[]",
          "name": "erc20SwapOrders",
          "type": "tuple[]"
        },
        {
          "components": [
            {
              "internalType": "address",
              "name": "erc721TokenAddress",
              "type": "address"
            },
            {
              "internalType": "string",
              "name": "basketManagerId",
              "type": "string"
            },
            {
              "internalType": "string",
              "name": "tokenMetadataUri",
              "type": "string"
            }
          ],
          "internalType": "struct IWeb3Packs.ERC721MintOrders[]",
          "name": "erc721MintOrders",
          "type": "tuple[]"
        },
        {
          "internalType": "uint256",
          "name": "fundingAmount",
          "type": "uint256"
        }
      ],
      "name": "bundle",
      "outputs": [
        {
          "internalType": "uint256",
          "name": "tokenId",
          "type": "uint256"
        }
      ],
      "stateMutability": "payable",
      "type": "function"
    },
    {
      "inputs": [
        {
          "internalType": "address",
          "name": "",
          "type": "address"
        },
        {
          "internalType": "address",
          "name": "",
          "type": "address"
        },
        {
          "internalType": "uint256",
          "name": "",
          "type": "uint256"
        },
        {
          "internalType": "bytes",
          "name": "",
          "type": "bytes"
        }
      ],
      "name": "onERC721Received",
      "outputs": [
        {
          "internalType": "bytes4",
          "name": "",
          "type": "bytes4"
        }
      ],
      "stateMutability": "nonpayable",
      "type": "function"
    },
    {
      "inputs": [],
      "name": "owner",
      "outputs": [
        {
          "internalType": "address",
          "name": "",
          "type": "address"
        }
      ],
      "stateMutability": "view",
      "type": "function"
    },
    {
      "inputs": [],
      "name": "pause",
      "outputs": [],
      "stateMutability": "nonpayable",
      "type": "function"
    },
    {
      "inputs": [],
      "name": "paused",
      "outputs": [
        {
          "internalType": "bool",
          "name": "",
          "type": "bool"
        }
      ],
      "stateMutability": "view",
      "type": "function"
    },
    {
      "inputs": [],
      "name": "renounceOwnership",
      "outputs": [],
      "stateMutability": "nonpayable",
      "type": "function"
    },
    {
      "inputs": [
        {
          "internalType": "address",
          "name": "chargedParticles",
          "type": "address"
        }
      ],
      "name": "setChargedParticles",
      "outputs": [],
      "stateMutability": "nonpayable",
      "type": "function"
    },
    {
      "inputs": [
        {
          "internalType": "address",
          "name": "stateController",
          "type": "address"
        }
      ],
      "name": "setChargedState",
      "outputs": [],
      "stateMutability": "nonpayable",
      "type": "function"
    },
    {
      "inputs": [
        {
          "internalType": "address",
          "name": "proton",
          "type": "address"
        }
      ],
      "name": "setProton",
      "outputs": [],
      "stateMutability": "nonpayable",
      "type": "function"
    },
    {
      "inputs": [
        {
          "internalType": "address",
          "name": "router",
          "type": "address"
        }
      ],
      "name": "setUniswapRouter",
      "outputs": [],
      "stateMutability": "nonpayable",
      "type": "function"
    },
    {
      "inputs": [
        {
          "components": [
            {
              "internalType": "address",
              "name": "inputTokenAddress",
              "type": "address"
            },
            {
              "internalType": "address",
              "name": "outputTokenAddress",
              "type": "address"
            },
            {
              "internalType": "uint256",
              "name": "inputTokenAmount",
              "type": "uint256"
            },
            {
              "internalType": "uint24",
              "name": "uniSwapPoolFee",
              "type": "uint24"
            },
            {
              "internalType": "uint256",
              "name": "deadline",
              "type": "uint256"
            },
            {
              "internalType": "uint256",
              "name": "amountOutMinimum",
              "type": "uint256"
            },
            {
              "internalType": "uint160",
              "name": "sqrtPriceLimitX96",
              "type": "uint160"
            }
          ],
          "internalType": "struct IWeb3Packs.ERC20SwapOrder[]",
          "name": "erc20SwapOrders",
          "type": "tuple[]"
        }
      ],
      "name": "swap",
      "outputs": [
        {
          "internalType": "uint256[]",
          "name": "",
          "type": "uint256[]"
        }
      ],
      "stateMutability": "payable",
      "type": "function"
    },
    {
      "inputs": [
        {
          "internalType": "address",
          "name": "newOwner",
          "type": "address"
        }
      ],
      "name": "transferOwnership",
      "outputs": [],
      "stateMutability": "nonpayable",
      "type": "function"
    },
    {
      "inputs": [
        {
          "internalType": "address",
          "name": "receiver",
          "type": "address"
        },
        {
          "internalType": "address",
          "name": "tokenAddress",
          "type": "address"
        },
        {
          "internalType": "uint256",
          "name": "tokenId",
          "type": "uint256"
        },
        {
          "components": [
            {
              "internalType": "address[]",
              "name": "erc20TokenAddresses",
              "type": "address[]"
            },
            {
              "components": [
                {
                  "internalType": "address",
                  "name": "tokenAddress",
                  "type": "address"
                },
                {
                  "internalType": "uint256",
                  "name": "id",
                  "type": "uint256"
                }
              ],
              "internalType": "struct IWeb3Packs.NFT[]",
              "name": "nfts",
              "type": "tuple[]"
            }
          ],
          "internalType": "struct IWeb3Packs.Web3PackOrder",
          "name": "web3PackOrder",
          "type": "tuple"
        }
      ],
      "name": "unbundle",
      "outputs": [],
      "stateMutability": "nonpayable",
      "type": "function"
    },
    {
      "inputs": [
        {
          "internalType": "address",
          "name": "receiver",
          "type": "address"
        },
        {
          "internalType": "address",
          "name": "tokenAddress",
          "type": "address"
        },
        {
          "internalType": "uint256",
          "name": "tokenId",
          "type": "uint256"
        },
        {
          "internalType": "string",
          "name": "walletManager",
          "type": "string"
        },
        {
          "components": [
            {
              "internalType": "address[]",
              "name": "erc20TokenAddresses",
              "type": "address[]"
            },
            {
              "components": [
                {
                  "internalType": "address",
                  "name": "tokenAddress",
                  "type": "address"
                },
                {
                  "internalType": "uint256",
                  "name": "id",
                  "type": "uint256"
                }
              ],
              "internalType": "struct IWeb3Packs.NFT[]",
              "name": "nfts",
              "type": "tuple[]"
            }
          ],
          "internalType": "struct IWeb3Packs.Web3PackOrder",
          "name": "web3PackOrder",
          "type": "tuple"
        }
      ],
      "name": "unbundleFromManager",
      "outputs": [],
      "stateMutability": "nonpayable",
      "type": "function"
    },
    {
      "inputs": [],
      "name": "unpause",
      "outputs": [],
      "stateMutability": "nonpayable",
      "type": "function"
    },
    {
      "inputs": [
        {
          "internalType": "address payable",
          "name": "receiver",
          "type": "address"
        },
        {
          "internalType": "address",
          "name": "tokenAddress",
          "type": "address"
        },
        {
          "internalType": "uint256",
          "name": "tokenId",
          "type": "uint256"
        },
        {
          "internalType": "uint256",
          "name": "amount",
          "type": "uint256"
        }
      ],
      "name": "withdrawERC1155",
      "outputs": [],
      "stateMutability": "nonpayable",
      "type": "function"
    },
    {
      "inputs": [
        {
          "internalType": "address payable",
          "name": "receiver",
          "type": "address"
        },
        {
          "internalType": "address",
          "name": "tokenAddress",
          "type": "address"
        },
        {
          "internalType": "uint256",
          "name": "tokenId",
          "type": "uint256"
        }
      ],
      "name": "withdrawERC721",
      "outputs": [],
      "stateMutability": "nonpayable",
      "type": "function"
    },
    {
      "inputs": [
        {
          "internalType": "address payable",
          "name": "receiver",
          "type": "address"
        },
        {
          "internalType": "address",
          "name": "tokenAddress",
          "type": "address"
        },
        {
          "internalType": "uint256",
          "name": "amount",
          "type": "uint256"
        }
      ],
      "name": "withdrawErc20",
      "outputs": [],
      "stateMutability": "nonpayable",
      "type": "function"
    },
    {
      "inputs": [
        {
          "internalType": "address payable",
          "name": "receiver",
          "type": "address"
        },
        {
          "internalType": "uint256",
          "name": "amount",
          "type": "uint256"
        }
      ],
      "name": "withdrawEther",
      "outputs": [],
      "stateMutability": "nonpayable",
      "type": "function"
    }
  ],
  "transactionHash": "0x39a8b91e350b7f53fc7b19b4fdb2db7594bfea0bcae9101cb1273568cca2495c",
  "args": [],
  "numDeployments": 1,
  "solcInputHash": "041750ce2ad3e692815e1bbc65ba6407",
  "bytecode": "0x600280546001600160a01b0319908116731cefb0e1ec36c7971bed1d64291fc16a145f35dc1790915560038054821673e592427a0aece92de3edee1f18e0157c0586156417905560048054821673ab1a1410ea40930755c1330cc0fb3367897c8c4117905560058054909116730288280df6221e7e9f23c1bb398c820ae0aa6c1017905560c0604052600960809081526833b2b732b934b1972160b91b60a052600690620000ae908262000204565b5060408051808201909152600981526833b2b732b934b1972160b91b6020820152600790620000de908262000204565b50348015620000ec57600080fd5b50620000f8336200010f565b6000805460ff60a01b1916905560018055620002d0565b600080546001600160a01b038381166001600160a01b0319831681178455604051919092169283917f8be0079c531659141344cd1fd0a4f28419497f9722a3daafe3b4186f6b6457e09190a35050565b634e487b7160e01b600052604160045260246000fd5b600181811c908216806200018a57607f821691505b602082108103620001ab57634e487b7160e01b600052602260045260246000fd5b50919050565b601f821115620001ff57600081815260208120601f850160051c81016020861015620001da5750805b601f850160051c820191505b81811015620001fb57828155600101620001e6565b5050505b505050565b81516001600160401b038111156200022057620002206200015f565b620002388162000231845462000175565b84620001b1565b602080601f831160018114620002705760008415620002575750858301515b600019600386901b1c1916600185901b178555620001fb565b600085815260208120601f198616915b82811015620002a15788860151825594840194600190910190840162000280565b5085821015620002c05787850151600019600388901b60f8161c191681555b5050505050600190811b01905550565b61273a80620002e06000396000f3fe60806040526004361061011f5760003560e01c80638456cb59116100a0578063bd32661611610064578063bd3266161461033b578063bea9849e1461035b578063d3d9cd5f1461037b578063d8214b491461039b578063f2fde38b146103bb57600080fd5b80638456cb591461029e5780638da5cb5b146102b3578063a0edb48b146102db578063a756d921146102fb578063b7683e931461031b57600080fd5b80634025feb2116100e75780634025feb2146101ff578063522f68151461021f5780635c975abb1461023f5780636e5559fd14610269578063715018a61461028957600080fd5b8063150b7a02146101245780631593dee11461018757806320e27145146101a95780632f6c028d146101ca5780633f4ba83a146101ea575b600080fd5b34801561013057600080fd5b5061016961013f366004611d52565b7f150b7a023d4804d13e8c85fb27262cb750cf6ba9f9dd3bb30d90f482ceeb4b1f95945050505050565b6040516001600160e01b031990911681526020015b60405180910390f35b34801561019357600080fd5b506101a76101a2366004611dc5565b6103db565b005b6101bc6101b7366004611e4b565b6103f3565b60405190815260200161017e565b3480156101d657600080fd5b506101bc6101e5366004611f31565b6104a2565b3480156101f657600080fd5b506101a761051b565b34801561020b57600080fd5b506101a761021a366004611dc5565b61052d565b34801561022b57600080fd5b506101a761023a366004611fd1565b610540565b34801561024b57600080fd5b50600054600160a01b900460ff16604051901515815260200161017e565b34801561027557600080fd5b506101a7610284366004611ffd565b610556565b34801561029557600080fd5b506101a76105b4565b3480156102aa57600080fd5b506101a76105c6565b3480156102bf57600080fd5b506000546040516001600160a01b03909116815260200161017e565b3480156102e757600080fd5b506101a76102f636600461201a565b6105d6565b61030e610309366004612060565b6105f0565b60405161017e91906120a2565b34801561032757600080fd5b506101a7610336366004611ffd565b610603565b34801561034757600080fd5b506101a7610356366004611ffd565b610655565b34801561036757600080fd5b506101a7610376366004611ffd565b6106a7565b34801561038757600080fd5b506101a76103963660046120fe565b6106f9565b3480156103a757600080fd5b506101a76103b636600461216a565b6107df565b3480156103c757600080fd5b506101a76103d6366004611ffd565b61087a565b6103e36108f8565b6103ee838383610952565b505050565b60006103fd610a4d565b610405610a9a565b6001600160a01b03891661042c5760405163150a167760e11b815260040160405180910390fd5b60006104388787610af3565b905061044a8a8a8a8a8a8a8a88610b9e565b91506104568a84610ea9565b6040516001600160a01b038b169083907ff8779000d9fe2bd438edb299891b05fae0b929d746d3c3e5560d065c690f357d90600090a35061049660018055565b98975050505050505050565b6000610496888888888080601f01602080910402602001604051908101604052809392919081815260200183838082843760009201919091525050604080516020601f8c018190048102820181019092528a815292508a9150899081908401838280828437600092019190915250899250610f26915050565b6105236108f8565b61052b61108c565b565b6105356108f8565b6103ee8383836110e1565b6105486108f8565b610552828261122e565b5050565b61055e6108f8565b6040516001600160a01b038216907f5ce0e6b7fd36339ee97339831b6c72694ecee88c62aab49919d9cabe0a732e4190600090a2600580546001600160a01b0319166001600160a01b0392909216919091179055565b6105bc6108f8565b61052b60006112b4565b6105ce6108f8565b61052b611304565b6105de6108f8565b6105ea84848484611347565b50505050565b60606105fc8383610af3565b9392505050565b61060b6108f8565b600480546001600160a01b0319166001600160a01b0383169081179091556040517f62ff39aed768a426c7582b6e1062ab2631df1869b2d574e36f8274d2e2b0ab8190600090a250565b61065d6108f8565b600280546001600160a01b0319166001600160a01b0383169081179091556040517fa3d7b0fff2d93a7ba440166a8f7eba4acfe6e000fe19b8218e64264d62ef272690600090a250565b6106af6108f8565b600380546001600160a01b0319166001600160a01b0383169081179091556040517f63b1bb87e9c57b0ea62fd8e86a8ec0b64aa51e645892045d7c42a9828337a42b90600090a250565b610701610a4d565b610709610a9a565b6107a08484846006805461071c90612201565b80601f016020809104026020016040519081016040528092919081815260200182805461074890612201565b80156107955780601f1061076a57610100808354040283529160200191610795565b820191906000526020600020905b81548152906001019060200180831161077857829003601f168201915b5050505050856114b2565b6040516001600160a01b0385169083907fa93981b9cfa5fc675dd31c2c87b0d4f1f590180abd86d15f509ccb544775b2b990600090a36105ea60018055565b6107e7610a4d565b6107ef610a9a565b61083386868686868080601f0160208091040260200160405190810160405280939291908181526020018383808284376000920191909152508892506114b2915050565b6040516001600160a01b0387169085907fa93981b9cfa5fc675dd31c2c87b0d4f1f590180abd86d15f509ccb544775b2b990600090a361087260018055565b505050505050565b6108826108f8565b6001600160a01b0381166108ec5760405162461bcd60e51b815260206004820152602660248201527f4f776e61626c653a206e6577206f776e657220697320746865207a65726f206160448201526564647265737360d01b60648201526084015b60405180910390fd5b6108f5816112b4565b50565b6000546001600160a01b0316331461052b5760405162461bcd60e51b815260206004820181905260248201527f4f776e61626c653a2063616c6c6572206973206e6f7420746865206f776e657260448201526064016108e3565b6001600160a01b0383166109785760405162461bcd60e51b81526004016108e390612235565b6040516370a0823160e01b815230600482015281906001600160a01b038416906370a0823190602401602060405180830381865afa1580156109be573d6000803e3d6000fd5b505050506040513d601f19601f820116820180604052508101906109e29190612258565b106103ee576109fb6001600160a01b0383168483611686565b816001600160a01b0316836001600160a01b03167f6c9d637297625e945b296ff73a71fcfbd0a9e062652b6491a921c4c60194176b83604051610a4091815260200190565b60405180910390a3505050565b600054600160a01b900460ff161561052b5760405162461bcd60e51b815260206004820152601060248201526f14185d5cd8589b194e881c185d5cd95960821b60448201526064016108e3565b600260015403610aec5760405162461bcd60e51b815260206004820152601f60248201527f5265656e7472616e637947756172643a207265656e7472616e742063616c6c0060448201526064016108e3565b6002600155565b606060008267ffffffffffffffff811115610b1057610b10612271565b604051908082528060200260200182016040528015610b39578160200160208202803683370190505b50905060005b83811015610b9657610b67858583818110610b5c57610b5c612287565b905060e002016116d8565b828281518110610b7957610b79612287565b602090810291909101015280610b8e8161229d565b915050610b3f565b509392505050565b600554600254604051632c0cd5a360e01b815260009230926001600160a01b0391821692911690632c0cd5a390610bdf9085908f908f908f906004016122c4565b6020604051808303816000875af1158015610bfe573d6000803e3d6000fd5b505050506040513d601f19601f82011682018060405250810190610c229190612258565b925060005b87811015610d6157610c8c898983818110610c4457610c44612287565b905060e002016020016020810190610c5c9190611ffd565b60055487516001600160a01b0390911690889085908110610c7f57610c7f612287565b6020026020010151611896565b6002546001600160a01b0380841691630bdde2ca91168660068d8d87818110610cb757610cb7612287565b905060e002016020016020810190610ccf9190611ffd565b8a8781518110610ce157610ce1612287565b6020026020010151896040518763ffffffff1660e01b8152600401610d0b96959493929190612310565b6020604051808303816000875af1158015610d2a573d6000803e3d6000fd5b505050506040513d601f19601f82011682018060405250810190610d4e9190612258565b5080610d598161229d565b915050610c27565b5060005b85811015610e9a57600254610e87906001600160a01b031685898985818110610d9057610d90612287565b9050602002810190610da291906123ff565b610db090604081019061241f565b8080601f0160208091040260200160405190810160405280939291908181526020018383808284376000920191909152508d92508c9150879050818110610df957610df9612287565b9050602002810190610e0b91906123ff565b610e1990602081019061241f565b8080601f0160208091040260200160405190810160405280939291908181526020018383808284376000920191909152508e92508d9150889050818110610e6257610e62612287565b9050602002810190610e7491906123ff565b610e82906020810190611ffd565b610f26565b5080610e928161229d565b915050610d65565b50505098975050505050505050565b80471061055257600080836001600160a01b03168360405160006040518083038185875af1925050503d8060008114610efe576040519150601f19603f3d011682016040523d82523d6000602084013e610f03565b606091505b5091509150816105ea5760405163362f189f60e01b815260040160405180910390fd5b604051632c0cd5a360e01b81526000906001600160a01b03871690632c0cd5a390610f59903090819089906004016124b6565b6020604051808303816000875af1158015610f78573d6000803e3d6000fd5b505050506040513d601f19601f82011682018060405250810190610f9c9190612258565b60055460405163a22cb46560e01b81526001600160a01b0391821660048201526001602482015291925083169063a22cb46590604401600060405180830381600087803b158015610fec57600080fd5b505af1158015611000573d6000803e3d6000fd5b5050600554604051630ffe55b360e21b81526001600160a01b039091169250633ff956cc915061103f90899089908890889088906001906004016124eb565b6020604051808303816000875af115801561105e573d6000803e3d6000fd5b505050506040513d601f19601f820116820180604052508101906110829190612530565b5095945050505050565b611094611996565b6000805460ff60a01b191690557f5db9ee0a495bf2e6ff9c91a7834c1ba4fdd244a5e8aa4e537bd38aeae4b073aa335b6040516001600160a01b03909116815260200160405180910390a1565b6001600160a01b0383166111075760405162461bcd60e51b81526004016108e390612235565b6040516331a9108f60e11b81526004810182905230906001600160a01b03841690636352211e90602401602060405180830381865afa15801561114e573d6000803e3d6000fd5b505050506040513d601f19601f820116820180604052508101906111729190612552565b6001600160a01b0316036103ee576040516323b872dd60e01b81523060048201526001600160a01b038481166024830152604482018390528316906323b872dd90606401600060405180830381600087803b1580156111d057600080fd5b505af11580156111e4573d6000803e3d6000fd5b5050505080826001600160a01b0316846001600160a01b03167ffefe036cac4ee3a4aca074a81cbcc4376e1484693289078dbec149c890101d5b60405160405180910390a4505050565b6001600160a01b0382166112545760405162461bcd60e51b81526004016108e390612235565b8047106105525761126e6001600160a01b038316826119e6565b816001600160a01b03167eddb683bb45cd5d0ad8a200c6fae7152b1c236ee90a4a37db692407f5cc38bd826040516112a891815260200190565b60405180910390a25050565b600080546001600160a01b038381166001600160a01b0319831681178455604051919092169283917f8be0079c531659141344cd1fd0a4f28419497f9722a3daafe3b4186f6b6457e09190a35050565b61130c610a4d565b6000805460ff60a01b1916600160a01b1790557f62e78cea01bee320cd4e420270b5ea74000d11b0c9f74754ebdbfc544b05a2586110c43390565b6001600160a01b03841661136d5760405162461bcd60e51b81526004016108e390612235565b604051627eeac760e11b81523060048201526024810183905281906001600160a01b0385169062fdd58e90604401602060405180830381865afa1580156113b8573d6000803e3d6000fd5b505050506040513d601f19601f820116820180604052508101906113dc9190612258565b106105ea57604051637921219560e11b81523060048201526001600160a01b038581166024830152604482018490526064820183905260a06084830152600060a483015284169063f242432a9060c401600060405180830381600087803b15801561144657600080fd5b505af115801561145a573d6000803e3d6000fd5b5050505081836001600160a01b0316856001600160a01b03167f620337bf89eea2b9ae2657beead83b5fa620452817118348aff96e201d52598b846040516114a491815260200190565b60405180910390a450505050565b60005b6114bf828061256f565b9050811015611583576005546001600160a01b031663acab923c878787876114e7888061256f565b888181106114f7576114f7612287565b905060200201602081019061150c9190611ffd565b6040518663ffffffff1660e01b815260040161152c9594939291906125b9565b60408051808303816000875af115801561154a573d6000803e3d6000fd5b505050506040513d601f19601f8201168201806040525081019061156e91906125fe565b5050808061157b9061229d565b9150506114b5565b5060005b6115946020830183612622565b9050811015610872576005546001600160a01b031663fe02fb00878787876115bf6020890189612622565b888181106115cf576115cf612287565b6115e59260206040909202019081019150611ffd565b6115f260208a018a612622565b8981811061160257611602612287565b9050604002016020013560016040518863ffffffff1660e01b8152600401611630979695949392919061266c565b6020604051808303816000875af115801561164f573d6000803e3d6000fd5b505050506040513d601f19601f820116820180604052508101906116739190612530565b508061167e8161229d565b915050611587565b604080516001600160a01b038416602482015260448082018490528251808303909101815260649091019091526020810180516001600160e01b031663a9059cbb60e01b1790526103ee908490611aff565b60006117006116ea6020840184611ffd565b6003546001600160a01b03166040850135611896565b6040805161010081019091526000908061171d6020860186611ffd565b6001600160a01b0316815260200184602001602081019061173e9190611ffd565b6001600160a01b0316815260200161175c60808601606087016126ba565b62ffffff168152602001306001600160a01b0316815260200184608001358152602001846040013581526020018460a0013581526020018460c00160208101906117a69190611ffd565b6001600160a01b0316905290506000346117c15760006117c7565b83604001355b6003546040805163414bf38960e01b815285516001600160a01b0390811660048301526020870151811660248301529186015162ffffff1660448201526060860151821660648201526080860151608482015260a086015160a482015260c086015160c482015260e0860151821660e4820152929350169063414bf3899083906101040160206040518083038185885af1158015611869573d6000803e3d6000fd5b50505050506040513d601f19601f8201168201806040525081019061188e9190612258565b949350505050565b604080516001600160a01b038481166024830152604480830185905283518084039091018152606490920183526020820180516001600160e01b031663095ea7b360e01b17905291516000928392908716916118f291906126df565b6000604051808303816000865af19150503d806000811461192f576040519150601f19603f3d011682016040523d82523d6000602084013e611934565b606091505b509150915081801561195e57508051158061195e57508080602001905181019061195e9190612530565b61198f5760405162461bcd60e51b8152602060048201526002602482015261534160f01b60448201526064016108e3565b5050505050565b600054600160a01b900460ff1661052b5760405162461bcd60e51b815260206004820152601460248201527314185d5cd8589b194e881b9bdd081c185d5cd95960621b60448201526064016108e3565b80471015611a365760405162461bcd60e51b815260206004820152601d60248201527f416464726573733a20696e73756666696369656e742062616c616e636500000060448201526064016108e3565b6000826001600160a01b03168260405160006040518083038185875af1925050503d8060008114611a83576040519150601f19603f3d011682016040523d82523d6000602084013e611a88565b606091505b50509050806103ee5760405162461bcd60e51b815260206004820152603a60248201527f416464726573733a20756e61626c6520746f2073656e642076616c75652c207260448201527f6563697069656e74206d6179206861766520726576657274656400000000000060648201526084016108e3565b6000611b54826040518060400160405280602081526020017f5361666545524332303a206c6f772d6c6576656c2063616c6c206661696c6564815250856001600160a01b0316611bd19092919063ffffffff16565b8051909150156103ee5780806020019051810190611b729190612530565b6103ee5760405162461bcd60e51b815260206004820152602a60248201527f5361666545524332303a204552433230206f7065726174696f6e20646964206e6044820152691bdd081cdd58d8d9595960b21b60648201526084016108e3565b606061188e848460008585600080866001600160a01b03168587604051611bf891906126df565b60006040518083038185875af1925050503d8060008114611c35576040519150601f19603f3d011682016040523d82523d6000602084013e611c3a565b606091505b5091509150611c4b87838387611c56565b979650505050505050565b60608315611cc5578251600003611cbe576001600160a01b0385163b611cbe5760405162461bcd60e51b815260206004820152601d60248201527f416464726573733a2063616c6c20746f206e6f6e2d636f6e747261637400000060448201526064016108e3565b508161188e565b61188e8383815115611cda5781518083602001fd5b8060405162461bcd60e51b81526004016108e391906126f1565b6001600160a01b03811681146108f557600080fd5b60008083601f840112611d1b57600080fd5b50813567ffffffffffffffff811115611d3357600080fd5b602083019150836020828501011115611d4b57600080fd5b9250929050565b600080600080600060808688031215611d6a57600080fd5b8535611d7581611cf4565b94506020860135611d8581611cf4565b935060408601359250606086013567ffffffffffffffff811115611da857600080fd5b611db488828901611d09565b969995985093965092949392505050565b600080600060608486031215611dda57600080fd5b8335611de581611cf4565b92506020840135611df581611cf4565b929592945050506040919091013590565b60008083601f840112611e1857600080fd5b50813567ffffffffffffffff811115611e3057600080fd5b60208301915083602060e083028501011115611d4b57600080fd5b60008060008060008060008060a0898b031215611e6757600080fd5b8835611e7281611cf4565b9750602089013567ffffffffffffffff80821115611e8f57600080fd5b611e9b8c838d01611d09565b909950975060408b0135915080821115611eb457600080fd5b611ec08c838d01611e06565b909750955060608b0135915080821115611ed957600080fd5b818b0191508b601f830112611eed57600080fd5b813581811115611efc57600080fd5b8c60208260051b8501011115611f1157600080fd5b602083019550809450505050608089013590509295985092959890939650565b600080600080600080600060a0888a031215611f4c57600080fd5b8735611f5781611cf4565b965060208801359550604088013567ffffffffffffffff80821115611f7b57600080fd5b611f878b838c01611d09565b909750955060608a0135915080821115611fa057600080fd5b50611fad8a828b01611d09565b9094509250506080880135611fc181611cf4565b8091505092959891949750929550565b60008060408385031215611fe457600080fd5b8235611fef81611cf4565b946020939093013593505050565b60006020828403121561200f57600080fd5b81356105fc81611cf4565b6000806000806080858703121561203057600080fd5b843561203b81611cf4565b9350602085013561204b81611cf4565b93969395505050506040820135916060013590565b6000806020838503121561207357600080fd5b823567ffffffffffffffff81111561208a57600080fd5b61209685828601611e06565b90969095509350505050565b6020808252825182820181905260009190848201906040850190845b818110156120da578351835292840192918401916001016120be565b50909695505050505050565b6000604082840312156120f857600080fd5b50919050565b6000806000806080858703121561211457600080fd5b843561211f81611cf4565b9350602085013561212f81611cf4565b925060408501359150606085013567ffffffffffffffff81111561215257600080fd5b61215e878288016120e6565b91505092959194509250565b60008060008060008060a0878903121561218357600080fd5b863561218e81611cf4565b9550602087013561219e81611cf4565b945060408701359350606087013567ffffffffffffffff808211156121c257600080fd5b6121ce8a838b01611d09565b909550935060808901359150808211156121e757600080fd5b506121f489828a016120e6565b9150509295509295509295565b600181811c9082168061221557607f821691505b6020821081036120f857634e487b7160e01b600052602260045260246000fd5b6020808252600990820152684248503a452d34303360b81b604082015260600190565b60006020828403121561226a57600080fd5b5051919050565b634e487b7160e01b600052604160045260246000fd5b634e487b7160e01b600052603260045260246000fd5b6000600182016122bd57634e487b7160e01b600052601160045260246000fd5b5060010190565b6001600160a01b0385811682528416602082015260606040820181905281018290526000828460808401376000608084840101526080601f19601f850116830101905095945050505050565b6001600160a01b0387168152602080820187905260c060408301528554600091908290600181811c908281168061234857607f831692505b858310810361236557634e487b7160e01b85526022600452602485fd5b60c0880183905260e08801818015612384576001811461239a576123c5565b60ff198616825284151560051b820196506123c5565b60008e81526020902060005b868110156123bf578154848201529085019089016123a6565b83019750505b5050506001600160a01b038a166060880152509193506123e492505050565b836080830152611c4b60a08301846001600160a01b03169052565b60008235605e1983360301811261241557600080fd5b9190910192915050565b6000808335601e1984360301811261243657600080fd5b83018035915067ffffffffffffffff82111561245157600080fd5b602001915036819003821315611d4b57600080fd5b60005b83811015612481578181015183820152602001612469565b50506000910152565b600081518084526124a2816020860160208601612466565b601f01601f19169290920160200192915050565b6001600160a01b038481168252831660208201526060604082018190526000906124e29083018461248a565b95945050505050565b600060018060a01b03808916835287602084015260c0604084015261251360c084018861248a565b9516606083015250608081019290925260a0909101529392505050565b60006020828403121561254257600080fd5b815180151581146105fc57600080fd5b60006020828403121561256457600080fd5b81516105fc81611cf4565b6000808335601e1984360301811261258657600080fd5b83018035915067ffffffffffffffff8211156125a157600080fd5b6020019150600581901b3603821315611d4b57600080fd5b600060018060a01b038088168352808716602084015285604084015260a060608401526125e960a084018661248a565b91508084166080840152509695505050505050565b6000806040838503121561261157600080fd5b505080516020909101519092909150565b6000808335601e1984360301811261263957600080fd5b83018035915067ffffffffffffffff82111561265457600080fd5b6020019150600681901b3603821315611d4b57600080fd5b600060018060a01b03808a168352808916602084015287604084015260e0606084015261269c60e084018861248a565b951660808301525060a081019290925260c090910152949350505050565b6000602082840312156126cc57600080fd5b813562ffffff811681146105fc57600080fd5b60008251612415818460208701612466565b6020815260006105fc602083018461248a56fea26469706673582212201eb4156f40020a16957cc252ed35e622b37a4d810a1777a124d06bb34a6cb51f64736f6c63430008110033",
  "devdoc": {
    "kind": "dev",
    "methods": {
      "owner()": {
        "details": "Returns the address of the current owner."
      },
      "paused()": {
        "details": "Returns true if the contract is paused, and false otherwise."
      },
      "renounceOwnership()": {
        "details": "Leaves the contract without owner. It will not be possible to call `onlyOwner` functions anymore. Can only be called by the current owner. NOTE: Renouncing ownership will leave the contract without an owner, thereby removing any functionality that is only available to the owner."
      },
      "setChargedParticles(address)": {
        "details": "Setup the ChargedParticles Interface"
      },
      "setChargedState(address)": {
        "details": "Setup the Charged-State Controller"
      },
      "setUniswapRouter(address)": {
        "details": "Setup the Uniswap Router"
      },
      "transferOwnership(address)": {
        "details": "Transfers ownership of the contract to a new account (`newOwner`). Can only be called by the current owner."
      }
    },
    "version": 1
  },
  "userdoc": {
    "kind": "user",
    "methods": {},
    "version": 1
  },
  "storageLayout": {
    "storage": [
      {
        "astId": 7,
        "contract": "contracts/Web3Packs.sol:Web3Packs",
        "label": "_owner",
        "offset": 0,
        "slot": "0",
        "type": "t_address"
      },
      {
        "astId": 130,
        "contract": "contracts/Web3Packs.sol:Web3Packs",
        "label": "_paused",
        "offset": 20,
        "slot": "0",
        "type": "t_bool"
      },
      {
        "astId": 231,
        "contract": "contracts/Web3Packs.sol:Web3Packs",
        "label": "_status",
        "offset": 0,
        "slot": "1",
        "type": "t_uint256"
      },
      {
        "astId": 3837,
        "contract": "contracts/Web3Packs.sol:Web3Packs",
        "label": "_proton",
        "offset": 0,
        "slot": "2",
        "type": "t_address"
      },
      {
        "astId": 3840,
        "contract": "contracts/Web3Packs.sol:Web3Packs",
        "label": "_router",
        "offset": 0,
        "slot": "3",
        "type": "t_address"
      },
      {
        "astId": 3843,
        "contract": "contracts/Web3Packs.sol:Web3Packs",
        "label": "_chargedState",
        "offset": 0,
        "slot": "4",
        "type": "t_address"
      },
      {
        "astId": 3846,
        "contract": "contracts/Web3Packs.sol:Web3Packs",
        "label": "_chargedParticles",
        "offset": 0,
        "slot": "5",
        "type": "t_address"
      },
      {
        "astId": 3849,
        "contract": "contracts/Web3Packs.sol:Web3Packs",
        "label": "_cpWalletManager",
        "offset": 0,
        "slot": "6",
        "type": "t_string_storage"
      },
      {
        "astId": 3852,
        "contract": "contracts/Web3Packs.sol:Web3Packs",
        "label": "_cpBasketManager",
        "offset": 0,
        "slot": "7",
        "type": "t_string_storage"
      }
    ],
    "types": {
      "t_address": {
        "encoding": "inplace",
        "label": "address",
        "numberOfBytes": "20"
      },
      "t_bool": {
        "encoding": "inplace",
        "label": "bool",
        "numberOfBytes": "1"
      },
      "t_string_storage": {
        "encoding": "bytes",
        "label": "string",
        "numberOfBytes": "32"
      },
      "t_uint256": {
        "encoding": "inplace",
        "label": "uint256",
        "numberOfBytes": "32"
      }
    }
  }
}