{
  "address": "0x90755E20Cf3233Deb35AaA4cc5E9F2aaA39b724a",
  "abi": [
    {
      "inputs": [],
      "stateMutability": "nonpayable",
      "type": "constructor"
    },
    {
      "anonymous": false,
      "inputs": [
        {
          "indexed": true,
          "internalType": "address",
          "name": "chargedParticles",
          "type": "address"
        }
      ],
      "name": "ChargedParticlesSet",
      "type": "event"
    },
    {
      "anonymous": false,
      "inputs": [
        {
          "indexed": true,
          "internalType": "address",
          "name": "chargedState",
          "type": "address"
        }
      ],
      "name": "ChargedStateSet",
      "type": "event"
    },
    {
      "anonymous": false,
      "inputs": [
        {
          "indexed": true,
          "internalType": "address",
          "name": "previousOwner",
          "type": "address"
        },
        {
          "indexed": true,
          "internalType": "address",
          "name": "newOwner",
          "type": "address"
        }
      ],
      "name": "OwnershipTransferred",
      "type": "event"
    },
    {
      "anonymous": false,
      "inputs": [
        {
          "indexed": true,
          "internalType": "uint256",
          "name": "tokenId",
          "type": "uint256"
        },
        {
          "indexed": true,
          "internalType": "address",
          "name": "receiver",
          "type": "address"
        }
      ],
      "name": "PackBundled",
      "type": "event"
    },
    {
      "anonymous": false,
      "inputs": [
        {
          "indexed": true,
          "internalType": "uint256",
          "name": "tokenId",
          "type": "uint256"
        },
        {
          "indexed": true,
          "internalType": "address",
          "name": "receiver",
          "type": "address"
        }
      ],
      "name": "PackUnbundled",
      "type": "event"
    },
    {
      "anonymous": false,
      "inputs": [
        {
          "indexed": false,
          "internalType": "address",
          "name": "account",
          "type": "address"
        }
      ],
      "name": "Paused",
      "type": "event"
    },
    {
      "anonymous": false,
      "inputs": [
        {
          "indexed": true,
          "internalType": "address",
          "name": "proton",
          "type": "address"
        }
      ],
      "name": "ProtonSet",
      "type": "event"
    },
    {
      "anonymous": false,
      "inputs": [
        {
          "indexed": true,
          "internalType": "address",
          "name": "router",
          "type": "address"
        }
      ],
      "name": "UniswapRouterSet",
      "type": "event"
    },
    {
      "anonymous": false,
      "inputs": [
        {
          "indexed": false,
          "internalType": "address",
          "name": "account",
          "type": "address"
        }
      ],
      "name": "Unpaused",
      "type": "event"
    },
    {
      "anonymous": false,
      "inputs": [
        {
          "indexed": true,
          "internalType": "address",
          "name": "receiver",
          "type": "address"
        },
        {
          "indexed": true,
          "internalType": "address",
          "name": "tokenAddress",
          "type": "address"
        },
        {
          "indexed": true,
          "internalType": "uint256",
          "name": "tokenId",
          "type": "uint256"
        },
        {
          "indexed": false,
          "internalType": "uint256",
          "name": "amount",
          "type": "uint256"
        }
      ],
      "name": "WithdrawStuckERC1155",
      "type": "event"
    },
    {
      "anonymous": false,
      "inputs": [
        {
          "indexed": true,
          "internalType": "address",
          "name": "receiver",
          "type": "address"
        },
        {
          "indexed": true,
          "internalType": "address",
          "name": "tokenAddress",
          "type": "address"
        },
        {
          "indexed": false,
          "internalType": "uint256",
          "name": "amount",
          "type": "uint256"
        }
      ],
      "name": "WithdrawStuckERC20",
      "type": "event"
    },
    {
      "anonymous": false,
      "inputs": [
        {
          "indexed": true,
          "internalType": "address",
          "name": "receiver",
          "type": "address"
        },
        {
          "indexed": true,
          "internalType": "address",
          "name": "tokenAddress",
          "type": "address"
        },
        {
          "indexed": true,
          "internalType": "uint256",
          "name": "tokenId",
          "type": "uint256"
        }
      ],
      "name": "WithdrawStuckERC721",
      "type": "event"
    },
    {
      "anonymous": false,
      "inputs": [
        {
          "indexed": true,
          "internalType": "address",
          "name": "receiver",
          "type": "address"
        },
        {
          "indexed": false,
          "internalType": "uint256",
          "name": "amount",
          "type": "uint256"
        }
      ],
      "name": "WithdrawStuckEther",
      "type": "event"
    },
    {
      "inputs": [
        {
          "internalType": "address",
          "name": "contractAddress",
          "type": "address"
        },
        {
          "internalType": "uint256",
          "name": "tokenId",
          "type": "uint256"
        },
        {
          "internalType": "string",
          "name": "basketManagerId",
          "type": "string"
        },
        {
          "internalType": "address",
          "name": "nftTokenAddress",
          "type": "address"
        }
      ],
      "name": "bond",
      "outputs": [
        {
          "internalType": "uint256",
          "name": "mintedTokenId",
          "type": "uint256"
        }
      ],
      "stateMutability": "nonpayable",
      "type": "function"
    },
    {
      "inputs": [
        {
          "internalType": "address payable",
          "name": "receiver",
          "type": "address"
        },
        {
          "internalType": "string",
          "name": "tokenMetaUri",
          "type": "string"
        },
        {
          "components": [
            {
              "internalType": "address",
              "name": "inputTokenAddress",
              "type": "address"
            },
            {
              "internalType": "address",
              "name": "outputTokenAddress",
              "type": "address"
            },
            {
              "internalType": "uint256",
              "name": "inputTokenAmount",
              "type": "uint256"
            },
            {
              "internalType": "uint24",
              "name": "uniSwapPoolFee",
              "type": "uint24"
            },
            {
              "internalType": "uint256",
              "name": "deadline",
              "type": "uint256"
            },
            {
              "internalType": "uint256",
              "name": "amountOutMinimum",
              "type": "uint256"
            },
            {
              "internalType": "uint160",
              "name": "sqrtPriceLimitX96",
              "type": "uint160"
            }
          ],
          "internalType": "struct IWeb3Packs.ERC20SwapOrder[]",
          "name": "erc20SwapOrders",
          "type": "tuple[]"
        },
        {
          "components": [
            {
              "internalType": "address",
              "name": "erc721TokenAddress",
              "type": "address"
            },
            {
              "internalType": "string",
              "name": "basketManagerId",
              "type": "string"
            }
          ],
          "internalType": "struct IWeb3Packs.ERC721MintOrders[]",
          "name": "erc721MintOrders",
          "type": "tuple[]"
        },
        {
          "internalType": "uint256",
          "name": "fundingAmount",
          "type": "uint256"
        }
      ],
      "name": "bundle",
      "outputs": [
        {
          "internalType": "uint256",
          "name": "tokenId",
          "type": "uint256"
        }
      ],
      "stateMutability": "payable",
      "type": "function"
    },
    {
      "inputs": [],
      "name": "owner",
      "outputs": [
        {
          "internalType": "address",
          "name": "",
          "type": "address"
        }
      ],
      "stateMutability": "view",
      "type": "function"
    },
    {
      "inputs": [],
      "name": "pause",
      "outputs": [],
      "stateMutability": "nonpayable",
      "type": "function"
    },
    {
      "inputs": [],
      "name": "paused",
      "outputs": [
        {
          "internalType": "bool",
          "name": "",
          "type": "bool"
        }
      ],
      "stateMutability": "view",
      "type": "function"
    },
    {
      "inputs": [],
      "name": "renounceOwnership",
      "outputs": [],
      "stateMutability": "nonpayable",
      "type": "function"
    },
    {
      "inputs": [
        {
          "internalType": "address",
          "name": "chargedParticles",
          "type": "address"
        }
      ],
      "name": "setChargedParticles",
      "outputs": [],
      "stateMutability": "nonpayable",
      "type": "function"
    },
    {
      "inputs": [
        {
          "internalType": "address",
          "name": "stateController",
          "type": "address"
        }
      ],
      "name": "setChargedState",
      "outputs": [],
      "stateMutability": "nonpayable",
      "type": "function"
    },
    {
      "inputs": [
        {
          "internalType": "address",
          "name": "proton",
          "type": "address"
        }
      ],
      "name": "setProton",
      "outputs": [],
      "stateMutability": "nonpayable",
      "type": "function"
    },
    {
      "inputs": [
        {
          "internalType": "address",
          "name": "router",
          "type": "address"
        }
      ],
      "name": "setUniswapRouter",
      "outputs": [],
      "stateMutability": "nonpayable",
      "type": "function"
    },
    {
      "inputs": [
        {
          "components": [
            {
              "internalType": "address",
              "name": "inputTokenAddress",
              "type": "address"
            },
            {
              "internalType": "address",
              "name": "outputTokenAddress",
              "type": "address"
            },
            {
              "internalType": "uint256",
              "name": "inputTokenAmount",
              "type": "uint256"
            },
            {
              "internalType": "uint24",
              "name": "uniSwapPoolFee",
              "type": "uint24"
            },
            {
              "internalType": "uint256",
              "name": "deadline",
              "type": "uint256"
            },
            {
              "internalType": "uint256",
              "name": "amountOutMinimum",
              "type": "uint256"
            },
            {
              "internalType": "uint160",
              "name": "sqrtPriceLimitX96",
              "type": "uint160"
            }
          ],
          "internalType": "struct IWeb3Packs.ERC20SwapOrder[]",
          "name": "erc20SwapOrders",
          "type": "tuple[]"
        }
      ],
      "name": "swap",
      "outputs": [
        {
          "internalType": "uint256[]",
          "name": "",
          "type": "uint256[]"
        }
      ],
      "stateMutability": "payable",
      "type": "function"
    },
    {
      "inputs": [
        {
          "internalType": "address",
          "name": "newOwner",
          "type": "address"
        }
      ],
      "name": "transferOwnership",
      "outputs": [],
      "stateMutability": "nonpayable",
      "type": "function"
    },
    {
      "inputs": [
        {
          "internalType": "address",
          "name": "receiver",
          "type": "address"
        },
        {
          "internalType": "address",
          "name": "tokenAddress",
          "type": "address"
        },
        {
          "internalType": "uint256",
          "name": "tokenId",
          "type": "uint256"
        },
        {
          "components": [
            {
              "internalType": "address[]",
              "name": "erc20TokenAddresses",
              "type": "address[]"
            },
            {
              "components": [
                {
                  "internalType": "address",
                  "name": "tokenAddress",
                  "type": "address"
                },
                {
                  "internalType": "uint256",
                  "name": "id",
                  "type": "uint256"
                }
              ],
              "internalType": "struct IWeb3Packs.NFT[]",
              "name": "nfts",
              "type": "tuple[]"
            }
          ],
          "internalType": "struct IWeb3Packs.Web3PackOrder",
          "name": "web3PackOrder",
          "type": "tuple"
        }
      ],
      "name": "unbundle",
      "outputs": [],
      "stateMutability": "nonpayable",
      "type": "function"
    },
    {
      "inputs": [
        {
          "internalType": "address",
          "name": "receiver",
          "type": "address"
        },
        {
          "internalType": "address",
          "name": "tokenAddress",
          "type": "address"
        },
        {
          "internalType": "uint256",
          "name": "tokenId",
          "type": "uint256"
        },
        {
          "internalType": "string",
          "name": "walletManager",
          "type": "string"
        },
        {
          "components": [
            {
              "internalType": "address[]",
              "name": "erc20TokenAddresses",
              "type": "address[]"
            },
            {
              "components": [
                {
                  "internalType": "address",
                  "name": "tokenAddress",
                  "type": "address"
                },
                {
                  "internalType": "uint256",
                  "name": "id",
                  "type": "uint256"
                }
              ],
              "internalType": "struct IWeb3Packs.NFT[]",
              "name": "nfts",
              "type": "tuple[]"
            }
          ],
          "internalType": "struct IWeb3Packs.Web3PackOrder",
          "name": "web3PackOrder",
          "type": "tuple"
        }
      ],
      "name": "unbundleFromManager",
      "outputs": [],
      "stateMutability": "nonpayable",
      "type": "function"
    },
    {
      "inputs": [],
      "name": "unpause",
      "outputs": [],
      "stateMutability": "nonpayable",
      "type": "function"
    },
    {
      "inputs": [
        {
          "internalType": "address payable",
          "name": "receiver",
          "type": "address"
        },
        {
          "internalType": "address",
          "name": "tokenAddress",
          "type": "address"
        },
        {
          "internalType": "uint256",
          "name": "tokenId",
          "type": "uint256"
        },
        {
          "internalType": "uint256",
          "name": "amount",
          "type": "uint256"
        }
      ],
      "name": "withdrawERC1155",
      "outputs": [],
      "stateMutability": "nonpayable",
      "type": "function"
    },
    {
      "inputs": [
        {
          "internalType": "address payable",
          "name": "receiver",
          "type": "address"
        },
        {
          "internalType": "address",
          "name": "tokenAddress",
          "type": "address"
        },
        {
          "internalType": "uint256",
          "name": "tokenId",
          "type": "uint256"
        }
      ],
      "name": "withdrawERC721",
      "outputs": [],
      "stateMutability": "nonpayable",
      "type": "function"
    },
    {
      "inputs": [
        {
          "internalType": "address payable",
          "name": "receiver",
          "type": "address"
        },
        {
          "internalType": "address",
          "name": "tokenAddress",
          "type": "address"
        },
        {
          "internalType": "uint256",
          "name": "amount",
          "type": "uint256"
        }
      ],
      "name": "withdrawErc20",
      "outputs": [],
      "stateMutability": "nonpayable",
      "type": "function"
    },
    {
      "inputs": [
        {
          "internalType": "address payable",
          "name": "receiver",
          "type": "address"
        },
        {
          "internalType": "uint256",
          "name": "amount",
          "type": "uint256"
        }
      ],
      "name": "withdrawEther",
      "outputs": [],
      "stateMutability": "nonpayable",
      "type": "function"
    }
  ],
  "transactionHash": "0xdf46bb66692095c779604f3d33f81aad349cc6667944060d58a742472fb4e3ef",
  "args": [],
  "numDeployments": 1,
  "solcInputHash": "420a93c98e7b47753ea60c925ffaed09",
  "bytecode": "0x600280546001600160a01b0319908116731cefb0e1ec36c7971bed1d64291fc16a145f35dc1790915560038054821673e592427a0aece92de3edee1f18e0157c0586156417905560048054821673ab1a1410ea40930755c1330cc0fb3367897c8c4117905560058054909116730288280df6221e7e9f23c1bb398c820ae0aa6c1017905560c0604052600960809081526833b2b732b934b1972160b91b60a052600690620000ae908262000204565b5060408051808201909152600981526833b2b732b934b1972160b91b6020820152600790620000de908262000204565b50348015620000ec57600080fd5b50620000f8336200010f565b6000805460ff60a01b1916905560018055620002d0565b600080546001600160a01b038381166001600160a01b0319831681178455604051919092169283917f8be0079c531659141344cd1fd0a4f28419497f9722a3daafe3b4186f6b6457e09190a35050565b634e487b7160e01b600052604160045260246000fd5b600181811c908216806200018a57607f821691505b602082108103620001ab57634e487b7160e01b600052602260045260246000fd5b50919050565b601f821115620001ff57600081815260208120601f850160051c81016020861015620001da5750805b601f850160051c820191505b81811015620001fb57828155600101620001e6565b5050505b505050565b81516001600160401b038111156200022057620002206200015f565b620002388162000231845462000175565b84620001b1565b602080601f831160018114620002705760008415620002575750858301515b600019600386901b1c1916600185901b178555620001fb565b600085815260208120601f198616915b82811015620002a15788860151825594840194600190910190840162000280565b5085821015620002c05787850151600019600388901b60f8161c191681555b5050505050600190811b01905550565b6125b980620002e06000396000f3fe6080604052600436106101145760003560e01c80638456cb59116100a0578063bd32661611610064578063bd326616146102d2578063bea9849e146102f2578063d3d9cd5f14610312578063d8214b4914610332578063f2fde38b1461035257600080fd5b80638456cb59146102355780638da5cb5b1461024a578063a0edb48b14610272578063a756d92114610292578063b7683e93146102b257600080fd5b8063522f6815116100e7578063522f6815146101965780635c975abb146101b65780635fa815aa146101e05780636e5559fd14610200578063715018a61461022057600080fd5b80631593dee114610119578063179e3bab1461013b5780633f4ba83a146101615780634025feb214610176575b600080fd5b34801561012557600080fd5b50610139610134366004611bdc565b610372565b005b61014e610149366004611cae565b61038a565b6040519081526020015b60405180910390f35b34801561016d57600080fd5b50610139610460565b34801561018257600080fd5b50610139610191366004611bdc565b610472565b3480156101a257600080fd5b506101396101b1366004611d90565b610485565b3480156101c257600080fd5b50600054600160a01b900460ff166040519015158152602001610158565b3480156101ec57600080fd5b5061014e6101fb366004611e5f565b61049b565b34801561020c57600080fd5b5061013961021b366004611ecb565b6104b2565b34801561022c57600080fd5b50610139610510565b34801561024157600080fd5b50610139610522565b34801561025657600080fd5b506000546040516001600160a01b039091168152602001610158565b34801561027e57600080fd5b5061013961028d366004611ee8565b610532565b6102a56102a0366004611f2e565b61054c565b6040516101589190611f70565b3480156102be57600080fd5b506101396102cd366004611ecb565b61055f565b3480156102de57600080fd5b506101396102ed366004611ecb565b6105b1565b3480156102fe57600080fd5b5061013961030d366004611ecb565b610603565b34801561031e57600080fd5b5061013961032d366004611fcc565b610655565b34801561033e57600080fd5b5061013961034d366004612038565b61073b565b34801561035e57600080fd5b5061013961036d366004611ecb565b61079e565b61037a610817565b610385838383610871565b505050565b600061039461096c565b61039c6109b9565b6001600160a01b0389166103ea5760405162461bcd60e51b815260206004820152601060248201526f149958d95a5d995c881a5cc81b9d5b1b60821b60448201526064015b60405180910390fd5b60006103f68787610a12565b90506104088a8a8a8a8a8a8a88610abd565b91506104148a84610d5f565b6040516001600160a01b038b169083907ff8779000d9fe2bd438edb299891b05fae0b929d746d3c3e5560d065c690f357d90600090a35061045460018055565b98975050505050505050565b610468610817565b610470610e02565b565b61047a610817565b610385838383610e57565b61048d610817565b6104978282610fa4565b5050565b60006104a98585858561102a565b95945050505050565b6104ba610817565b6040516001600160a01b038216907f5ce0e6b7fd36339ee97339831b6c72694ecee88c62aab49919d9cabe0a732e4190600090a2600580546001600160a01b0319166001600160a01b0392909216919091179055565b610518610817565b6104706000611186565b61052a610817565b6104706111d6565b61053a610817565b61054684848484611219565b50505050565b60606105588383610a12565b9392505050565b610567610817565b600480546001600160a01b0319166001600160a01b0383169081179091556040517f62ff39aed768a426c7582b6e1062ab2631df1869b2d574e36f8274d2e2b0ab8190600090a250565b6105b9610817565b600280546001600160a01b0319166001600160a01b0383169081179091556040517fa3d7b0fff2d93a7ba440166a8f7eba4acfe6e000fe19b8218e64264d62ef272690600090a250565b61060b610817565b600380546001600160a01b0319166001600160a01b0383169081179091556040517f63b1bb87e9c57b0ea62fd8e86a8ec0b64aa51e645892045d7c42a9828337a42b90600090a250565b61065d61096c565b6106656109b9565b6106fc84848460068054610678906120cb565b80601f01602080910402602001604051908101604052809291908181526020018280546106a4906120cb565b80156106f15780601f106106c6576101008083540402835291602001916106f1565b820191906000526020600020905b8154815290600101906020018083116106d457829003601f168201915b505050505085611384565b6040516001600160a01b0385169083907fa93981b9cfa5fc675dd31c2c87b0d4f1f590180abd86d15f509ccb544775b2b990600090a361054660018055565b61074361096c565b61074b6109b9565b6107588585858585611384565b6040516001600160a01b0386169084907fa93981b9cfa5fc675dd31c2c87b0d4f1f590180abd86d15f509ccb544775b2b990600090a361079760018055565b5050505050565b6107a6610817565b6001600160a01b03811661080b5760405162461bcd60e51b815260206004820152602660248201527f4f776e61626c653a206e6577206f776e657220697320746865207a65726f206160448201526564647265737360d01b60648201526084016103e1565b61081481611186565b50565b6000546001600160a01b031633146104705760405162461bcd60e51b815260206004820181905260248201527f4f776e61626c653a2063616c6c6572206973206e6f7420746865206f776e657260448201526064016103e1565b6001600160a01b0383166108975760405162461bcd60e51b81526004016103e1906120ff565b6040516370a0823160e01b815230600482015281906001600160a01b038416906370a0823190602401602060405180830381865afa1580156108dd573d6000803e3d6000fd5b505050506040513d601f19601f820116820180604052508101906109019190612122565b106103855761091a6001600160a01b0383168483611560565b816001600160a01b0316836001600160a01b03167f6c9d637297625e945b296ff73a71fcfbd0a9e062652b6491a921c4c60194176b8360405161095f91815260200190565b60405180910390a3505050565b600054600160a01b900460ff16156104705760405162461bcd60e51b815260206004820152601060248201526f14185d5cd8589b194e881c185d5cd95960821b60448201526064016103e1565b600260015403610a0b5760405162461bcd60e51b815260206004820152601f60248201527f5265656e7472616e637947756172643a207265656e7472616e742063616c6c0060448201526064016103e1565b6002600155565b606060008267ffffffffffffffff811115610a2f57610a2f611dbc565b604051908082528060200260200182016040528015610a58578160200160208202803683370190505b50905060005b83811015610ab557610a86858583818110610a7b57610a7b61213b565b905060e002016115b2565b828281518110610a9857610a9861213b565b602090810291909101015280610aad81612151565b915050610a5e565b509392505050565b600554600254604051632c0cd5a360e01b815260009230926001600160a01b0391821692911690632c0cd5a390610afe9085908f908f908f90600401612178565b6020604051808303816000875af1158015610b1d573d6000803e3d6000fd5b505050506040513d601f19601f82011682018060405250810190610b419190612122565b925060005b87811015610c8057610bab898983818110610b6357610b6361213b565b905060e002016020016020810190610b7b9190611ecb565b60055487516001600160a01b0390911690889085908110610b9e57610b9e61213b565b6020026020010151611770565b6002546001600160a01b0380841691630bdde2ca91168660068d8d87818110610bd657610bd661213b565b905060e002016020016020810190610bee9190611ecb565b8a8781518110610c0057610c0061213b565b6020026020010151896040518763ffffffff1660e01b8152600401610c2a969594939291906121c4565b6020604051808303816000875af1158015610c49573d6000803e3d6000fd5b505050506040513d601f19601f82011682018060405250810190610c6d9190612122565b5080610c7881612151565b915050610b46565b5060005b85811015610d5057600254610d3d906001600160a01b031685898985818110610caf57610caf61213b565b9050602002810190610cc191906122b3565b610ccf9060208101906122d3565b8080601f0160208091040260200160405190810160405280939291908181526020018383808284376000920191909152508d92508c9150879050818110610d1857610d1861213b565b9050602002810190610d2a91906122b3565b610d38906020810190611ecb565b61102a565b5080610d4881612151565b915050610c84565b50505098975050505050505050565b80471061049757600080836001600160a01b03168360405160006040518083038185875af1925050503d8060008114610db4576040519150601f19603f3d011682016040523d82523d6000602084013e610db9565b606091505b5091509150816105465760405162461bcd60e51b81526020600482015260146024820152732330b4b632b2103a379039b2b7321022ba3432b960611b60448201526064016103e1565b610e0a611869565b6000805460ff60a01b191690557f5db9ee0a495bf2e6ff9c91a7834c1ba4fdd244a5e8aa4e537bd38aeae4b073aa335b6040516001600160a01b03909116815260200160405180910390a1565b6001600160a01b038316610e7d5760405162461bcd60e51b81526004016103e1906120ff565b6040516331a9108f60e11b81526004810182905230906001600160a01b03841690636352211e90602401602060405180830381865afa158015610ec4573d6000803e3d6000fd5b505050506040513d601f19601f82011682018060405250810190610ee8919061231a565b6001600160a01b031603610385576040516323b872dd60e01b81523060048201526001600160a01b038481166024830152604482018390528316906323b872dd90606401600060405180830381600087803b158015610f4657600080fd5b505af1158015610f5a573d6000803e3d6000fd5b5050505080826001600160a01b0316846001600160a01b03167ffefe036cac4ee3a4aca074a81cbcc4376e1484693289078dbec149c890101d5b60405160405180910390a4505050565b6001600160a01b038216610fca5760405162461bcd60e51b81526004016103e1906120ff565b80471061049757610fe46001600160a01b038316826118b9565b816001600160a01b03167eddb683bb45cd5d0ad8a200c6fae7152b1c236ee90a4a37db692407f5cc38bd8260405161101e91815260200190565b60405180910390a25050565b6040516335313c2160e11b81523060048201526000906001600160a01b03831690636a627842906024016020604051808303816000875af1158015611073573d6000803e3d6000fd5b505050506040513d601f19601f820116820180604052508101906110979190612122565b60055460405163a22cb46560e01b81526001600160a01b0391821660048201526001602482015291925083169063a22cb46590604401600060405180830381600087803b1580156110e757600080fd5b505af11580156110fb573d6000803e3d6000fd5b5050600554604051630ffe55b360e21b81526001600160a01b039091169250633ff956cc915061113a9088908890889088908890600190600401612387565b6020604051808303816000875af1158015611159573d6000803e3d6000fd5b505050506040513d601f19601f8201168201806040525081019061117d91906123cc565b50949350505050565b600080546001600160a01b038381166001600160a01b0319831681178455604051919092169283917f8be0079c531659141344cd1fd0a4f28419497f9722a3daafe3b4186f6b6457e09190a35050565b6111de61096c565b6000805460ff60a01b1916600160a01b1790557f62e78cea01bee320cd4e420270b5ea74000d11b0c9f74754ebdbfc544b05a258610e3a3390565b6001600160a01b03841661123f5760405162461bcd60e51b81526004016103e1906120ff565b604051627eeac760e11b81523060048201526024810183905281906001600160a01b0385169062fdd58e90604401602060405180830381865afa15801561128a573d6000803e3d6000fd5b505050506040513d601f19601f820116820180604052508101906112ae9190612122565b1061054657604051637921219560e11b81523060048201526001600160a01b038581166024830152604482018490526064820183905260a06084830152600060a483015284169063f242432a9060c401600060405180830381600087803b15801561131857600080fd5b505af115801561132c573d6000803e3d6000fd5b5050505081836001600160a01b0316856001600160a01b03167f620337bf89eea2b9ae2657beead83b5fa620452817118348aff96e201d52598b8460405161137691815260200190565b60405180910390a450505050565b60005b61139182806123ee565b9050811015611455576005546001600160a01b031663acab923c878787876113b988806123ee565b888181106113c9576113c961213b565b90506020020160208101906113de9190611ecb565b6040518663ffffffff1660e01b81526004016113fe959493929190612438565b60408051808303816000875af115801561141c573d6000803e3d6000fd5b505050506040513d601f19601f82011682018060405250810190611440919061247d565b5050808061144d90612151565b915050611387565b5060005b61146660208301836124a1565b9050811015611558576005546001600160a01b031663fe02fb008787878761149160208901896124a1565b888181106114a1576114a161213b565b6114b79260206040909202019081019150611ecb565b6114c460208a018a6124a1565b898181106114d4576114d461213b565b9050604002016020013560016040518863ffffffff1660e01b815260040161150297969594939291906124eb565b6020604051808303816000875af1158015611521573d6000803e3d6000fd5b505050506040513d601f19601f8201168201806040525081019061154591906123cc565b508061155081612151565b915050611459565b505050505050565b604080516001600160a01b038416602482015260448082018490528251808303909101815260649091019091526020810180516001600160e01b031663a9059cbb60e01b1790526103859084906119d2565b60006115da6115c46020840184611ecb565b6003546001600160a01b03166040850135611770565b604080516101008101909152600090806115f76020860186611ecb565b6001600160a01b031681526020018460200160208101906116189190611ecb565b6001600160a01b031681526020016116366080860160608701612539565b62ffffff168152602001306001600160a01b0316815260200184608001358152602001846040013581526020018460a0013581526020018460c00160208101906116809190611ecb565b6001600160a01b03169052905060003461169b5760006116a1565b83604001355b6003546040805163414bf38960e01b815285516001600160a01b0390811660048301526020870151811660248301529186015162ffffff1660448201526060860151821660648201526080860151608482015260a086015160a482015260c086015160c482015260e0860151821660e4820152929350169063414bf3899083906101040160206040518083038185885af1158015611743573d6000803e3d6000fd5b50505050506040513d601f19601f820116820180604052508101906117689190612122565b949350505050565b604080516001600160a01b038481166024830152604480830185905283518084039091018152606490920183526020820180516001600160e01b031663095ea7b360e01b17905291516000928392908716916117cc919061255e565b6000604051808303816000865af19150503d8060008114611809576040519150601f19603f3d011682016040523d82523d6000602084013e61180e565b606091505b509150915081801561183857508051158061183857508080602001905181019061183891906123cc565b6107975760405162461bcd60e51b8152602060048201526002602482015261534160f01b60448201526064016103e1565b600054600160a01b900460ff166104705760405162461bcd60e51b815260206004820152601460248201527314185d5cd8589b194e881b9bdd081c185d5cd95960621b60448201526064016103e1565b804710156119095760405162461bcd60e51b815260206004820152601d60248201527f416464726573733a20696e73756666696369656e742062616c616e636500000060448201526064016103e1565b6000826001600160a01b03168260405160006040518083038185875af1925050503d8060008114611956576040519150601f19603f3d011682016040523d82523d6000602084013e61195b565b606091505b50509050806103855760405162461bcd60e51b815260206004820152603a60248201527f416464726573733a20756e61626c6520746f2073656e642076616c75652c207260448201527f6563697069656e74206d6179206861766520726576657274656400000000000060648201526084016103e1565b6000611a27826040518060400160405280602081526020017f5361666545524332303a206c6f772d6c6576656c2063616c6c206661696c6564815250856001600160a01b0316611aa49092919063ffffffff16565b8051909150156103855780806020019051810190611a4591906123cc565b6103855760405162461bcd60e51b815260206004820152602a60248201527f5361666545524332303a204552433230206f7065726174696f6e20646964206e6044820152691bdd081cdd58d8d9595960b21b60648201526084016103e1565b6060611768848460008585600080866001600160a01b03168587604051611acb919061255e565b60006040518083038185875af1925050503d8060008114611b08576040519150601f19603f3d011682016040523d82523d6000602084013e611b0d565b606091505b5091509150611b1e87838387611b29565b979650505050505050565b60608315611b98578251600003611b91576001600160a01b0385163b611b915760405162461bcd60e51b815260206004820152601d60248201527f416464726573733a2063616c6c20746f206e6f6e2d636f6e747261637400000060448201526064016103e1565b5081611768565b6117688383815115611bad5781518083602001fd5b8060405162461bcd60e51b81526004016103e19190612570565b6001600160a01b038116811461081457600080fd5b600080600060608486031215611bf157600080fd5b8335611bfc81611bc7565b92506020840135611c0c81611bc7565b929592945050506040919091013590565b60008083601f840112611c2f57600080fd5b50813567ffffffffffffffff811115611c4757600080fd5b60208301915083602060e083028501011115611c6257600080fd5b9250929050565b60008083601f840112611c7b57600080fd5b50813567ffffffffffffffff811115611c9357600080fd5b6020830191508360208260051b8501011115611c6257600080fd5b60008060008060008060008060a0898b031215611cca57600080fd5b8835611cd581611bc7565b9750602089013567ffffffffffffffff80821115611cf257600080fd5b818b0191508b601f830112611d0657600080fd5b813581811115611d1557600080fd5b8c6020828501011115611d2757600080fd5b6020830199508098505060408b0135915080821115611d4557600080fd5b611d518c838d01611c1d565b909750955060608b0135915080821115611d6a57600080fd5b50611d778b828c01611c69565b999c989b50969995989497949560800135949350505050565b60008060408385031215611da357600080fd5b8235611dae81611bc7565b946020939093013593505050565b634e487b7160e01b600052604160045260246000fd5b600082601f830112611de357600080fd5b813567ffffffffffffffff80821115611dfe57611dfe611dbc565b604051601f8301601f19908116603f01168101908282118183101715611e2657611e26611dbc565b81604052838152866020858801011115611e3f57600080fd5b836020870160208301376000602085830101528094505050505092915050565b60008060008060808587031215611e7557600080fd5b8435611e8081611bc7565b935060208501359250604085013567ffffffffffffffff811115611ea357600080fd5b611eaf87828801611dd2565b9250506060850135611ec081611bc7565b939692955090935050565b600060208284031215611edd57600080fd5b813561055881611bc7565b60008060008060808587031215611efe57600080fd5b8435611f0981611bc7565b93506020850135611f1981611bc7565b93969395505050506040820135916060013590565b60008060208385031215611f4157600080fd5b823567ffffffffffffffff811115611f5857600080fd5b611f6485828601611c1d565b90969095509350505050565b6020808252825182820181905260009190848201906040850190845b81811015611fa857835183529284019291840191600101611f8c565b50909695505050505050565b600060408284031215611fc657600080fd5b50919050565b60008060008060808587031215611fe257600080fd5b8435611fed81611bc7565b93506020850135611ffd81611bc7565b925060408501359150606085013567ffffffffffffffff81111561202057600080fd5b61202c87828801611fb4565b91505092959194509250565b600080600080600060a0868803121561205057600080fd5b853561205b81611bc7565b9450602086013561206b81611bc7565b935060408601359250606086013567ffffffffffffffff8082111561208f57600080fd5b61209b89838a01611dd2565b935060808801359150808211156120b157600080fd5b506120be88828901611fb4565b9150509295509295909350565b600181811c908216806120df57607f821691505b602082108103611fc657634e487b7160e01b600052602260045260246000fd5b6020808252600990820152684248503a452d34303360b81b604082015260600190565b60006020828403121561213457600080fd5b5051919050565b634e487b7160e01b600052603260045260246000fd5b60006001820161217157634e487b7160e01b600052601160045260246000fd5b5060010190565b6001600160a01b0385811682528416602082015260606040820181905281018290526000828460808401376000608084840101526080601f19601f850116830101905095945050505050565b6001600160a01b0387168152602080820187905260c060408301528554600091908290600181811c90828116806121fc57607f831692505b858310810361221957634e487b7160e01b85526022600452602485fd5b60c0880183905260e08801818015612238576001811461224e57612279565b60ff198616825284151560051b82019650612279565b60008e81526020902060005b868110156122735781548482015290850190890161225a565b83019750505b5050506001600160a01b038a1660608801525091935061229892505050565b836080830152611b1e60a08301846001600160a01b03169052565b60008235603e198336030181126122c957600080fd5b9190910192915050565b6000808335601e198436030181126122ea57600080fd5b83018035915067ffffffffffffffff82111561230557600080fd5b602001915036819003821315611c6257600080fd5b60006020828403121561232c57600080fd5b815161055881611bc7565b60005b8381101561235257818101518382015260200161233a565b50506000910152565b60008151808452612373816020860160208601612337565b601f01601f19169290920160200192915050565b600060018060a01b03808916835287602084015260c060408401526123af60c084018861235b565b9516606083015250608081019290925260a0909101529392505050565b6000602082840312156123de57600080fd5b8151801515811461055857600080fd5b6000808335601e1984360301811261240557600080fd5b83018035915067ffffffffffffffff82111561242057600080fd5b6020019150600581901b3603821315611c6257600080fd5b600060018060a01b038088168352808716602084015285604084015260a0606084015261246860a084018661235b565b91508084166080840152509695505050505050565b6000806040838503121561249057600080fd5b505080516020909101519092909150565b6000808335601e198436030181126124b857600080fd5b83018035915067ffffffffffffffff8211156124d357600080fd5b6020019150600681901b3603821315611c6257600080fd5b600060018060a01b03808a168352808916602084015287604084015260e0606084015261251b60e084018861235b565b951660808301525060a081019290925260c090910152949350505050565b60006020828403121561254b57600080fd5b813562ffffff8116811461055857600080fd5b600082516122c9818460208701612337565b602081526000610558602083018461235b56fea2646970667358221220152978a2bd51af4a136ca192b915f5ae9ff491ec230f77cd0532b11c3e5e542c64736f6c63430008110033",
  "devdoc": {
    "kind": "dev",
    "methods": {
      "owner()": {
        "details": "Returns the address of the current owner."
      },
      "paused()": {
        "details": "Returns true if the contract is paused, and false otherwise."
      },
      "renounceOwnership()": {
        "details": "Leaves the contract without owner. It will not be possible to call `onlyOwner` functions anymore. Can only be called by the current owner. NOTE: Renouncing ownership will leave the contract without an owner, thereby removing any functionality that is only available to the owner."
      },
      "setChargedParticles(address)": {
        "details": "Setup the ChargedParticles Interface"
      },
      "setChargedState(address)": {
        "details": "Setup the Charged-State Controller"
      },
      "setUniswapRouter(address)": {
        "details": "Setup the Uniswap Router"
      },
      "transferOwnership(address)": {
        "details": "Transfers ownership of the contract to a new account (`newOwner`). Can only be called by the current owner."
      }
    },
    "version": 1
  },
  "userdoc": {
    "kind": "user",
    "methods": {},
    "version": 1
  },
  "storageLayout": {
    "storage": [
      {
        "astId": 7,
        "contract": "contracts/Web3Packs.sol:Web3Packs",
        "label": "_owner",
        "offset": 0,
        "slot": "0",
        "type": "t_address"
      },
      {
        "astId": 130,
        "contract": "contracts/Web3Packs.sol:Web3Packs",
        "label": "_paused",
        "offset": 20,
        "slot": "0",
        "type": "t_bool"
      },
      {
        "astId": 231,
        "contract": "contracts/Web3Packs.sol:Web3Packs",
        "label": "_status",
        "offset": 0,
        "slot": "1",
        "type": "t_uint256"
      },
      {
        "astId": 3838,
        "contract": "contracts/Web3Packs.sol:Web3Packs",
        "label": "_proton",
        "offset": 0,
        "slot": "2",
        "type": "t_address"
      },
      {
        "astId": 3841,
        "contract": "contracts/Web3Packs.sol:Web3Packs",
        "label": "_router",
        "offset": 0,
        "slot": "3",
        "type": "t_address"
      },
      {
        "astId": 3844,
        "contract": "contracts/Web3Packs.sol:Web3Packs",
        "label": "_chargedState",
        "offset": 0,
        "slot": "4",
        "type": "t_address"
      },
      {
        "astId": 3847,
        "contract": "contracts/Web3Packs.sol:Web3Packs",
        "label": "_chargedParticles",
        "offset": 0,
        "slot": "5",
        "type": "t_address"
      },
      {
        "astId": 3850,
        "contract": "contracts/Web3Packs.sol:Web3Packs",
        "label": "_cpWalletManager",
        "offset": 0,
        "slot": "6",
        "type": "t_string_storage"
      },
      {
        "astId": 3853,
        "contract": "contracts/Web3Packs.sol:Web3Packs",
        "label": "_cpBasketManager",
        "offset": 0,
        "slot": "7",
        "type": "t_string_storage"
      }
    ],
    "types": {
      "t_address": {
        "encoding": "inplace",
        "label": "address",
        "numberOfBytes": "20"
      },
      "t_bool": {
        "encoding": "inplace",
        "label": "bool",
        "numberOfBytes": "1"
      },
      "t_string_storage": {
        "encoding": "bytes",
        "label": "string",
        "numberOfBytes": "32"
      },
      "t_uint256": {
        "encoding": "inplace",
        "label": "uint256",
        "numberOfBytes": "32"
      }
    }
  }
}